:020000040800F2
:1000000000000220CD680008B9650008BF6500083F
:10001000C5650008CB650008D16500080000000038
:10002000000000000000000000000000D76500088C
:10003000E565000800000000F3650008016600089F
:100040001D6900081D6900081D6900081D69000878
:100050001D6900081D6900081D6900081D69000868
:100060001D6900081D6900081D6900081D69000858
:100070001D6900081D6900081D6900081D69000848
:100080001D6900081D6900081D6900081D69000838
:100090001D6900081D6900081D6900081D69000828
:1000A0001D6900081D6900081D6900081D69000818
:1000B0001D6900081D6900081D6900081D69000808
:1000C0001D6900081D6900081D6900081D690008F8
:1000D0001D69000855100008051000087D0601087C
:1000E0001D6900081D690008000000001D69000866
:1000F0001D6900081D6900081D6900081D690008C8
:100100001D6900081D6900081D6900081D690008B7
:100110002D100008411000081D6900081D69000825
:100120001D6900081D6900081D6900081D69000897
:100130001D6900081D6900081D6900081D69000887
:1001400000000000000000000000000000000000AF
:100150001D6900081D6900081D69000845F80008B0
:100160001D6900081D6900081D6900081D69000857
:100170001D6900081D6900081D69000800000000D5
:100180001D6900081D69000819100008F10F00081A
:100190001D6900081D6900081D6900081D69000827
:1001A0001D6900081D6900081D6900081D69000817
:1001B0001D6900081D6900081D6900081D69000807
:1001C0001D6900081D6900081D6900081D690008F7
:1001D0001D6900081D6600081D6900081D690008EA
:1001E0001D6900081D6900081D6900081D690008D7
:1001F0001D6900081D6900081D6900081D690008C7
:100200001D6900081D6900081D6900081D690008B6
:100210001D6900081D6900081D6900081D690008A6
:100220001D6900081D6900081D6900080000000024
:100230001D6900081D690008000000001D69000814
:100240001D6900081D6900081D6900081D69000876
:100250001D6900081D6900081D6900081D69000866
:100260001D6900081D6900081D6900081D69000856
:100270001D6900081D6900081D69000800000000D4
:100280001D6900081D6900081D69000800000000C4
:08029000000000001D690008D8
:1002A00010B5054C237833B9044B13B10448AFF3B0
:1002B00000800123237010BD100200240000000004
:1002C0003032020808B5034B1BB103490348AFF3B2
:1002D000008008BD00000000140200243032020833
:1002E00001F0FF01102A2BDB10F0070F08D010F8E7
:1002F000013B013A8B422DD010F0070F42B3F6D1EB
:10030000F0B441EA012141EA014122F007047FF003
:1003100000070023F0E80256083C85EA010586EA5A
:10032000010685FA47F5A3FA87F586FA47F6A5FA96
:1003300087F68EB9EED1F0BC01F0FF0102F00702A2
:1003400032B110F8013B013A83EA010313B1F8D14D
:100350000020704701387047002D06BF354603382E
:10036000073815F0010F07D1013015F4807F02BF67
:10037000013015F4C03F0130F0BC0138704700BFB8
:1003800081F0004102E000BF83F0004330B54FEA46
:1003900041044FEA430594EA050F08BF90EA020FB3
:1003A0001FBF54EA000C55EA020C7FEA645C7FEA46
:1003B000655C00F0E2804FEA5454D4EB5555B8BF69
:1003C0006D420CDD2C4480EA020281EA030382EADA
:1003D000000083EA010180EA020281EA0303362D6C
:1003E00088BF30BD11F0004F4FEA01314FF4801C3F
:1003F0004CEA113102D0404261EB410113F0004F51
:100400004FEA03334CEA133302D0524263EB430307
:1004100094EA050F00F0A780A4F10104D5F1200EA5
:100420000DDB02FA0EFC22FA05F2801841F1000100
:1004300003FA0EF2801843FA05F359410EE0A5F1D4
:1004400020050EF1200E012A03FA0EFC28BF4CF005
:10045000020C43FA05F3C01851EBE37101F00045BB
:1004600007D54FF0000EDCF1000C7EEB00006EEBC8
:100470000101B1F5801F1BD3B1F5001F0CD3490852
:100480005FEA30004FEA3C0C04F101044FEA4452A9
:1004900012F5800F80F09A80BCF1004F08BF5FEA30
:1004A000500C50F1000041EB045141EA050130BD10
:1004B0005FEA4C0C404141EB0101013C28BFB1F522
:1004C000801FE9D291F0000F04BF01460020B1FA6D
:1004D00081F308BF2033A3F10B03B3F120020CDA40
:1004E0000C3208DD02F1140CC2F10C0201FA0CF01E
:1004F00021FA02F10CE002F11402D8BFC2F1200C83
:1005000001FA02F120FA0CFCDCBF41EA0C01904038
:10051000E41AA2BF01EB0451294330BD6FEA040481
:100520001F3C1CDA0C340EDC04F11404C4F120026C
:1005300020FA04F001FA02F340EA030021FA04F37E
:1005400045EA030130BDC4F10C04C4F1200220FAD5
:1005500002F001FA04F340EA0300294630BD21FA13
:1005600004F0294630BD94F0000F83F4801306BFD9
:1005700081F480110134013D4EE77FEA645C18BFCD
:100580007FEA655C29D094EA050F08BF90EA020F64
:1005900005D054EA000C04BF1946104630BD91EA5C
:1005A000030F1EBF0021002030BD5FEA545C05D15F
:1005B0004000494128BF41F0004130BD14F580049E
:1005C0003CBF01F5801130BD01F0004545F0FE4112
:1005D00041F470014FF0000030BD7FEA645C1ABF47
:1005E000194610467FEA655C1CBF0B46024650EA7E
:1005F000013406BF52EA033591EA030F41F40021AA
:1006000030BD00BF90F0000F04BF0021704730B52F
:100610004FF4806404F132044FF000054FF0000104
:1006200050E700BF90F0000F04BF0021704730B5C5
:100630004FF4806404F1320410F0004548BF40429A
:100640004FF000013EE700BF42004FEAE2014FEAEF
:1006500031014FEA02701FBF12F07F4393F07F4FCA
:1006600081F06051704732F07F4208BF704793F0CD
:100670007F4F04BF41F40021704730B54FF46074E0
:1006800001F0004521F000411CE700BF50EA0102E3
:1006900008BF704730B54FF000050AE050EA01028C
:1006A00008BF704730B511F0004502D5404261EBFC
:1006B00041014FF4806404F132045FEA915C3FF43D
:1006C000D8AE4FF003025FEADC0C18BF03325FEADA
:1006D000DC0C18BF033202EBDC02C2F1200300FA8B
:1006E00003FC20FA02F001FA03FE40EA0E0021FAB0
:1006F00002F11444BDE600BF53B94AB9002908BF4E
:1007000000281CBF4FF0FF314FF0FF3000F06EB9F2
:10071000ADF1080C6DE904CE00F006F8DDF804E058
:10072000DDE9022304B070472DE9F047089D044637
:100730008C46002B40F083808A42174647D9B2FA94
:1007400082F242B1C2F1200024FA00F091409740B9
:1007500040EA010C94404FEA1748230CBCFBF8F622
:100760001FFA87FE08FB16C143EA014306FB0EF1A0
:10077000994209D9FB1806F1FF3080F0198199429E
:1007800040F21681023E3B445B1AA4B2B3FBF8F080
:1007900008FB103344EA034400FB0EFEA64509D9CA
:1007A0003C1900F1FF3380F00581A64540F202813B
:1007B00002383C4440EA0640A4EB0E0400261DB17A
:1007C000D4400023C5E900433146BDE8F08702B9B3
:1007D000FFDEB2FA82F2002A50D1CB1B4FEA174E4D
:1007E0001FFA87F80126B3FBFEFC210C0EFB1C331D
:1007F00041EA034108FB0CF38B4207D979180CF14D
:10080000FF3002D28B4200F2E9808446C91AA3B2BB
:10081000B1FBFEF00EFB101143EA014408FB00F8A7
:10082000A04507D93C1900F1FF3302D2A04500F2E0
:10083000D9801846A4EB080440EA0C40BFE78B427D
:1008400009D9002D00F0B1800026C5E9000130462D
:100850003146BDE8F087B3FA83F6002E4AD18B42C9
:1008600002D3824200F2B880841A61EB03010120B6
:100870008C46002DA8D0C5E9004CA5E7C2F12003A5
:1008800020FA03F6974001FA02F04FEA174ED940DA
:100890003043030CB1FBFEF61FFA87F80EFB16116E
:1008A00043EA014306FB08F1994204FA02F409D92C
:1008B000FB1806F1FF3C80F08D80994240F28A805F
:1008C000023E3B445B1A81B2B3FBFEF00EFB1033D9
:1008D00041EA034100FB08F38B4207D9791800F184
:1008E000FF3C73D28B4271D902383944CB1A40EAAB
:1008F000064678E7C6F1200C03FA06F422FA0CF358
:100900001C4320FA0CF701FA06F34FEA144E21FAC1
:100910000CF11F433B0CB1FBFEF91FFA84F80EFBF0
:10092000191143EA014109FB08FA8A4502FA06F265
:1009300000FA06F308D9611809F1FF3048D28A4558
:1009400046D9A9F102092144A1EB0A01BFB2B1FBCA
:10095000FEF00EFB101147EA014700FB08F8B8450E
:1009600007D9E71900F1FF312ED2B8452CD902384A
:10097000274440EA0940A7EB0807A0FB02894F453E
:10098000C64649461AD317D05DB1B3EB0E0267EBEA
:10099000010707FA0CFCF2404CEA0202F740C5E9F5
:1009A000002700263146BDE8F0872E4628460BE793
:1009B0000646E9E61846FDE64345E5D2B8EB020EE9
:1009C00069EB04010138DFE70846D2E760468DE7AE
:1009D0008146B9E7664675E730464AE7ACF1020C56
:1009E000394413E702383C4424E700BF704700BF96
:1009F00080B582B000AF7860786800F005F87B6859
:100A000018460837BD4680BD80B485B000AF786019
:100A10007A6842F21003134400221A607A6842F2A4
:100A2000100313441A68796842F214030B441A60E5
:100A30000023FB60FB68032B08DC7B68FA6800215D
:100A400043F82210FB680133FB60F3E700BF143763
:100A5000BD465DF8047B704780B582B000AF78601A
:100A600039607B68012B07D13B684FF6FF729342D8
:100A700002D10348FFF7BCFF00BF0837BD4680BD69
:100A80002C02002480B500AF4FF6FF710120FFF764
:100A9000E3FF80BD80B483B000AF786039607B68CD
:100AA0005B683A6813443B607B681A687B689B68A4
:100AB0003968994204DB7B689B683968CB1A00E08F
:100AC0003B6813441B7818460C37BD465DF8047B21
:100AD000704780B582B000AF786000217868FFF77A
:100AE000D9FF034618460837BD4680BD80B483B0A1
:100AF00000AF7860044A7B681A607B6818460C3740
:100B0000BD465DF8047B7047C432020880B582B0F0
:100B100000AF78607868FFF7E9FF042178681FF07C
:100B2000DDF87B6818460837BD4680BD80B483B0C9
:100B300000AF78607B6815221A6000BF0C37BD4695
:100B40005DF8047B704780B485B000AFF860B96091
:100B50007A60FB68BA68DA60FB687A681A61FB68D9
:100B600000225A6100BF1437BD465DF8047B704710
:100B700080B586B002AFF860B9607A603B603B68D0
:100B800000937B68BA680449F86802F0F2F900BF84
:100B90001037BD4680BD00BFD442020880B586B084
:100BA00002AFF860B9607A603B603B6800937B6895
:100BB000BA680449F86802F0DCF900BF1037BD4696
:100BC00080BD00BFD032020880B483B000AF78602F
:100BD0007B681B68002B0CBF01230023DBB2184687
:100BE0000C37BD465DF8047B704780B483B000AF1E
:100BF00078607B681B68012B03D07B681B68022B25
:100C000001D1012300E0002318460C37BD465DF8F2
:100C1000047B704780B483B000AF78607B685B680A
:100C200018460C37BD465DF8047B704780B483B02E
:100C300000AF78607B689B6818460C37BD465DF84E
:100C4000047B704780B483B000AF786039607A6805
:100C50003B6802339B0013445B6818460C37BD4663
:100C60005DF8047B704780B483B000AF78607B6828
:100C70001B6918460C37BD465DF8047B704780B48D
:100C800083B000AF78607B689B6818460C37BD4620
:100C90005DF8047B704780B483B000AF78607B68F8
:100CA000DB6818460C37BD465DF8047B704780B49E
:100CB00083B000AF78607B681B6918460C37BD466F
:100CC0005DF8047B704780B584B000AFF860B96010
:100CD0007A603B60FB681B69002B36DB3B68B3F135
:100CE000FF3F32D03B68002B03D1FB6800221A6122
:100CF0002CE03B68012B03D1FB6801221A6125E03F
:100D00003B68022B05D17A68B968F86800F021F8D1
:100D10001CE03B68032B05D17A68B968F86800F0DD
:100D200034F813E03B68042B05D17A68B968F86899
:100D300000F048F80AE03B68052B07D16FF000424D
:100D40000021F86800F03EF800E000BF1037BD4613
:100D500080BD80B485B000AFF860B9607A60FB6890
:100D60001B69002B0BDBFB68BA685A61FB687A6869
:100D70009A61FB680022DA61FB6802221A6100BFF7
:100D80001437BD465DF8047B704780B485B000AF72
:100D9000F860B9607A60FB681B69002B0CDBFB68AC
:100DA000BA685A61FB687A689A61FB689A68FB685E
:100DB000DA61FB6802221A6100BF1437BD465DF894
:100DC000047B704780B485B000AFF860B9607A608A
:100DD000FB681B69002B08DBFB68BA685A61FB687B
:100DE0007A689A61FB6803221A6100BF1437BD4616
:100DF0005DF8047B704780B483B000AF78607B6897
:100E00001B69002B01DC00232FE07B681B69012B91
:100E100001DC012329E07B681B69022B15DC7B6860
:100E20001A687B685B699A4205DB7B681A687B6895
:100E30009B699A4205DD7B689A687B68DB699A4208
:100E400001DA012311E000230FE07B681A687B6858
:100E50005B699A4205DB7B681A687B689B699A42EA
:100E600001DD012300E0002300BF18460C37BD461A
:100E70005DF8047B704780B582B000AF78607B6816
:100E80001B69012B02DC7B681B6909E07868FFF7AE
:100E9000B2FF0346002B01D0012300E0042300BF72
:100EA00018460837BD4680BD80B483B000AF786077
:100EB0007B6803F5C05318460C37BD465DF8047BCC
:100EC0007047000080B483B000AF786039607A6802
:100ED000054B13443A685201134418460C37BD467B
:100EE0005DF8047B704700BFA4AE010080B483B0FE
:100EF00000AF78607A6842F60403134418460C3752
:100F0000BD465DF8047B704780B483B000AF786065
:100F1000044B1A687B68134418460C37BD465DF8CD
:100F2000047B7047887A022480B483B000AF786075
:100F3000064B1A687B68D31ADB43DB0FDBB218461B
:100F40000C37BD465DF8047B704700BF887A0224E9
:100F500080B483B000AF78607B681B6C9BB218468E
:100F60000C37BD465DF8047B704780B483B000AF9A
:100F700078607B689A6A7B685B6A9A42B4BF012397
:100F80000023DBB218460C37BD465DF8047B704782
:100F900080B483B000AF78607B681B6818460C375C
:100FA000BD465DF8047B704780B483B000AF7860C5
:100FB0007B685B6818460C37BD465DF8047B70475C
:100FC00080B483B000AF78607B689B6818460C37AC
:100FD000BD465DF8047B704780B400AF034B1B68CF
:100FE0001846BD465DF8047B704700BF6456022476
:100FF00080B500AF024810F086FE00BF80BD00BF84
:1010000024E3012480B500AF024810F07CFE00BF4D
:1010100080BD00BFDCE5012480B500AF024810F0C0
:1010200072FE00BF80BD00BF94E8012480B500AF10
:10103000024810F068FE00BF80BD00BF4CEB0124E9
:1010400080B500AF024810F05EFE00BF80BD00BF5B
:1010500004EE012480B500AF024811F063FC00BF2C
:1010600080BD00BFBCF0012480B500AF034811F083
:1010700033FC00F035F800BF80BD00BFBCF0012498
:1010800080B500AF0548FFF70FFF02464FF48053CD
:10109000FF21034813F02DFD00BF80BD94230024E1
:1010A000C05F022480B500AF0648FFF7FDFE024690
:1010B0004FF480534FF47F21034813F0F4FC00BF3A
:1010C00080BD00BF94230024C05F022480B500AF20
:1010D0000021024813F070FD00BF80BDC05F0224F4
:1010E00080B588B000AF604B604A1A600023FB6196
:1010F000FB69042B0ADC5E4AFB6952F82330184670
:1011000010F000FDFB690133FB61F1E7594819F06C
:10111000FBF8584819F01EF9FFF7C4FF4FF40063BD
:10112000554A0021554813F0BEFC3B1D5249184654
:1011300012F05CFA3B1D1946514801F02DFD514B50
:1011400000221A604F4B1B684F4A13600023BB619B
:10115000BB69272B66DCBB694FF41C7202FB03F3EF
:101160000833474A134404331846FFF753FD3861E8
:1011700004223969002001F0C7FB0346002B4DD043
:10118000BB694FF41C7202FB03F308333C4A13445F
:1011900004331846FFF718FD034683F00103DBB262
:1011A000002B3BD0324A3B6952F82320BB694FF4F5
:1011B0001C7101FB03F335490B441946104610F02E
:1011C000EAFCBB694FF41C7202FB03F32F4A1A447A
:1011D0002D4B1B68591C2C4801602D4941F82320D8
:1011E000BB694FF41C7202FB03F30833244A134417
:1011F00004331846FFF7F9FC0346002B0ED0BB69F9
:101200004FF41C7202FB03F3204A1A441D4B1B6867
:10121000591C1C4801601F4941F82320BB69013358
:10122000BB6195E700F03AF800237B61154B1B6822
:101230007A699A420ADA174A7B6952F823301846CB
:1012400001F01AFE7B6901337B61EFE71248FFF77B
:10125000DBFB002000F08EF83B1D184601F038FC47
:1012600000BF2037BD4680BD1CE30124F5140008F3
:1012700000000024942300241CD30124C05F022416
:10128000C0F001248823002484230024CCF001240E
:1012900044220024E42200242C02002480B582B0E1
:1012A00000AF00237B607B68272B12DC7B684FF448
:1012B0001C7202FB03F30833084A1344181D002371
:1012C000002247F6FF71FFF753FC7B6801337B6018
:1012D000E9E700BF0837BD4680BD00BFC0F001246C
:1012E00080B582B000AF00F01DF800237B607B6802
:1012F000272B11DC7B684FF41C7202FB03F30833CD
:10130000074A1344181D002332220021FFF730FC46
:101310007B6801337B60EAE700BF0837BD4680BDCC
:10132000C0F0012480B582B000AF00237B600D4B7C
:101330001B687A689A420ADA0B4A7B6852F82330B3
:10134000184602F093F87B6801337B60EFE70748AB
:1013500018F0DAFF064B41221A6000BF0837BD467D
:1013600080BD00BF88230024E422002494230024AD
:101370009023002490B583B000AF78607B68B3F110
:10138000FF3F74D07B68B3F1FF3F37DB7B68452BB1
:1013900034DC7B68412B31DB7B68413B042B2DD84F
:1013A00001A252F823F000BFBD130008C3130008C8
:1013B000CD130008D7130008E9130008FFF7B2FFA8
:1013C00056E001212C4818F0FBFF51E000212A488B
:1013D00018F0F6FF4CE0284A284B13444FF0FF3238
:1013E0001A60FFF77DFF43E0234A244B1344002299
:1013F0001A60FFF797FFFFF751FF39E07B68002B7A
:1014000036DB7B683F2B33DC1D4A7B681360FFF7BC
:1014100089FF1C4A7B6803F63143DB0013449B6859
:10142000002B25DD174A7B6803F63143DB001344AC
:101430009B68154A93421BDC124A7B6803F63143D2
:10144000DB0013445C680C48FFF750FD02460D4971
:101450007B6803F63143DB000B449B6821460B4855
:1014600013F021FB0121044818F0AAFF00E000BF9F
:1014700000BF0C37BD4690BD942300245CAF010033
:1014800090230024C0F001249F860100C05F022445
:1014900080B582B000AF786039603B68002B06DD14
:1014A0003A680021044819F0C3FA034600E000231B
:1014B00018460837BD4680BD9423002480B582B00D
:1014C00000AF786079680020FFF7E2FF0346184616
:1014D0000837BD4680BD000080B483B000AF78609F
:1014E000034B18460C37BD465DF8047B704700BFC0
:1014F000BD14000880B584B000AF0023FB60FB681A
:10150000042B0ADC204AFB6852F82330184610F0FE
:101510005AFBFB680133FB60F1E70023BB601B4B08
:101520001B68BA689A420ADA194ABB6852F8233033
:10153000184601F0A1FCBB680133BB60EFE7012155
:10154000144816F0B1FA134A134B13441B68002BCE
:101550000CDB104A104B13441B681846FFF70AFFB8
:101560000C4A0D4B13444FF0FF321A603B1D1846D6
:10157000FFF7B2FF03461946084801F0DCF900BF47
:101580001037BD4680BD00BF000000248823002422
:10159000E42200249423002428AF01002C0200241C
:1015A00080B485B000AF786039600023FB60FB68D1
:1015B000272B11DCFB684FF41C7202FB03F30C4A6F
:1015C00013447A689A4203D10A4AFB68136003E025
:1015D000FB680133FB60EAE7074A3B681360074B8F
:1015E000074A1A6000BF1437BD465DF8047B704798
:1015F000CCF0012418D3012414D301241CE30124CA
:10160000A51A000880B586B000AF786000237B6122
:101610007B69042B0ADC204A7B6952F82330184688
:1016200010F0D1FA7B6901337B61F1E77868FFF74D
:101630006BFC78607868FFF777FC034683F0010362
:10164000DBB2002B23D00123FB740023FB60FB687B
:10165000042B14DCFB7C83F00103DBB2002B0ED1E6
:101660000D4AFB6852F823301846FFF77EFC03460C
:1016700083F00103FB74FB680133FB60E7E7FB7C4D
:10168000002B03D1012011F04FFFD3E700BF00BFB3
:101690001837BD4680BD00BF0000002480B584B06F
:1016A00000AF786039600023FB600C4B1B68FA6860
:1016B0009A420CDA0A4AFB6852F823303A68796891
:1016C0001846FFF740FAFB680133FB60EDE70420A2
:1016D000FFF798FF00BF1037BD4680BD842300246C
:1016E0004422002480B590B000AF0023FB63FB6B65
:1016F000092B36DC00210020FFF7D0FF012387F8FB
:101700003B3000237B63994B1B687A6B9A421CDA4F
:1017100097F83B3083F00103DBB2002B15D1944ADC
:101720007B6B52F8233002211846FFF78BFA0346F1
:101730009BB240F2947293420CBF0123002387F8BE
:101740003B307B6B01337B63DDE797F83B30002B4D
:1017500006D10A2011F0E8FEFB6B0133FB63C6E7FC
:1017600000BFFB6B092B26DD00233B637F4B1B680F
:101770003A6B9A421FDA7E4A3B6B52F823300221C1
:101780001846FFF75FFA03469BB240F29472934209
:1017900014BF01230023DBB2002B08D0744A3B6B3B
:1017A00052F8233001211846FFF7FAFE6EE13B6B39
:1017B00001333B63DAE76F4B1B6801336D4A1360FB
:1017C0000023FB63FB6B012B3BDC00210E20FFF7AA
:1017D00065FF40F6B83011F0A7FE00210020FFF7AA
:1017E0005DFF012387F82F300023BB625F4B1B682E
:1017F000BA6A9A421CDA97F82F3083F00103DBB201
:10180000002B15D15A4ABB6A52F8233002211846E0
:10181000FFF718FA03469BB240F2947293420CBF52
:101820000123002387F82F30BB6A0133BB62DDE759
:1018300097F82F30002B03D1FB6B0133FB63C1E71B
:1018400000BFFB6B012B26DD00237B62474B1B682F
:101850007A6A9A421FDA464A7B6A52F8233002219A
:101860001846FFF7EFF903469BB240F29472934299
:1018700014BF01230023DBB2002B08D03C4A7B6A53
:1018800052F8233002211846FFF78AFEFEE07B6AF9
:1018900001337B62DAE7374B1B680133354A13604B
:1018A00000233B623B6A042B0CDC334A3B6A52F850
:1018B000233044F62061184610F05DF93B6A01338D
:1018C0003B62EFE72D4B1B682D4A82FB03121A4443
:1018D000D211DB17D31AFB61FB69002B01DC01235A
:1018E000FB61284B1A68254B1B689A4280F2C48022
:1018F000244B1B689B00BB602348FFF7F7FA786016
:10190000BB687A6813441B781946BB6801337A6850
:1019100013441B781B0241EA0302BB680233796857
:101920000B441B781B041A43BB68033379680B44D0
:101930001B781B0613433B60144B1B68BA681344A7
:10194000BB600023BB61094B1B68BA699A421FDA6E
:10195000074ABB6952F823303A68B9681846FFF75E
:10196000F2F8BB690133BB61EDE700BF84230024BB
:101970004422002410D30124000000240CD30124AD
:101980000904028108D301249423002404D30124F0
:101990000023FB63FB6B092B36DC4FF47A70FFF7F7
:1019A00031FE0123FB7500233B613A4B1B683A690A
:1019B0009A421EDA384A3B6952F823300021184611
:1019C000FFF740F90346002B14BF01230023DBB2CD
:1019D000002B0AD0304A3B6952F823303A68B96884
:1019E0001846FFF7B0F80023FB753B6901333B61F4
:1019F000DBE7FB7D002B06D11E2011F095FDFB6B74
:101A00000133FB63C6E700BFFB6B092B23DD00231B
:101A1000FB60204B1B68FA689A421CDA1E4AFB687E
:101A200052F8233000211846FFF70CF90346002B2B
:101A300014BF01230023DBB2002B08D0164AFB6839
:101A400052F82330B9681846FFF7AAFD1EE0FB687C
:101A50000133FB60DDE7114B1B6801330F4A136054
:101A60000E4B1A68FB6992FBF3F302330C4A1360C6
:101A7000012011F059FD34E700210A20FFF70EFE86
:101A8000FFF72EFB064B40F201121A604037BD46AD
:101A900080BD00BF842300244422002408D30124F5
:101AA00010D3012480B400AF00BFBD465DF8047BB5
:101AB0007047000080B586B000AF786039600023C1
:101AC0007B617B69072B60DC3A687B6942FA03F330
:101AD00003F00103002B54D07A687B6913443B6107
:101AE0003B694FF41C7202FB03F30833294A134489
:101AF00004331846FFF78EF8F8600422F9680020D6
:101B000000F002FF0346002B3BD03B694FF41C72F0
:101B100002FB03F308331F4A134404331846FFF74C
:101B200053F8034683F00103DBB2002B29D03B6955
:101B30004FF41C7202FB03F30833164A13440433B8
:101B40001846FEF7F3FF144AFB6852F823203B695E
:101B50004FF41C7101FB03F310490B441946104666
:101B600010F019F83B694FF41C7202FB03F30B4AA7
:101B70001A440B4B1B68591C09480160094941F87C
:101B800023207B6901337B619BE700BF1837BD468B
:101B900080BD00BFC0F0012400000024CCF001246F
:101BA000842300244422002480B586B000AFF8606E
:101BB000B9607A603B6000237B617B69042B0ADC9F
:101BC0001C4A7B6952F8233018460FF09BFF7B6953
:101BD00001337B61F1E7184818F096FB174B0022A0
:101BE0001A60F9680020FFF765FFB9680820FFF761
:101BF00061FF79681020FFF75DFF39681820FFF753
:101C000059FF396A2020FFF755FF0D4B00221A605B
:101C10000B4B1B680B4A13600B4B00221A600A4BDC
:101C20001B680A4A13600A4B0A4A1A6000BF183739
:101C3000BD4680BD0000002494230024842300249A
:101C400014D3012418D3012410D3012408D3012470
:101C50001CE30124E516000890B5B1B002AF78602E
:101C600039607868FEF735FF0346413B352B00F2BB
:101C7000668401A252F823F017220008C924000844
:101C8000A91E00083F250008951E0008451E0008F3
:101C9000152300083F250008511D00083F250008B6
:101CA0003F250008B92300082D2400083F2500081F
:101CB0003F250008C52000083F25000849230008EB
:101CC000151F0008551F0008C122000899210008AF
:101CD0003F2500083F2500083F2500083F25000854
:101CE0003F2500083F2500083F2500083F25000844
:101CF0003F2500083F2500083F2500083F25000834
:101D00003F250008A11D00083F2500083F250008C9
:101D10003F2500083F2500083F2500083F25000813
:101D20003F2500083F2500083F2500083F25000803
:101D30003F2500083F2500083F2500083F250008F3
:101D40003F2500083F2500083F250008D321000853
:101D5000692138680CF09DFD2022764938680CF026
:101D600042FD9F2138680CF00CFD734B5B681946EF
:101D700038680CF019FD704B9B68194638680CF0F8
:101D800013FDFFF729F90346194638680CF00CFDDE
:101D9000012138680CF0F5FC38680CF095FDD5E3AE
:101DA00078680CF07FFFC7F8B400D7F8B430634A06
:101DB00012685A40624B1340002B05D0D7F8B4206C
:101DC0005F4B13405D4A1360D7F8B430C3F30B0385
:101DD000C7F8B4300023C7F8B030D7F8B0301F2BA5
:101DE00011DC78680CF0F8FE0346D9B2D7F8B430AD
:101DF0005A1CC7F8B420534AD154D7F8B030013335
:101E0000C7F8B030E9E7D7F8B430C3F30B03002BC1
:101E100008D14A4B1B6819134FF48053494A4A486A
:101E200012F067FE4F2138680CF033FD38680CF073
:101E30004BFD424B1B681B13FF2B40F08483FFF7C5
:101E40004FF980E378680CF02DFFF8610023C7F8A4
:101E5000AC30D7F8AC301F2B10DC78680CF0BCFE2F
:101E60000346D9B2374AD7F8AC3013440A461A7041
:101E7000D7F8AC300133C7F8AC30EAE73149F8693C
:101E800011F0EEF8662138680CF003FD38680CF0AC
:101E90001BFD5BE311F0C4F8652138680CF0F9FC18
:101EA00038680CF011FD51E378680CF0FBFEB86166
:101EB000BB69002B01D1FFF735FABB69002B21DB91
:101EC000BB69224A93421DDC2148FFF70FF8024606
:101ED000BB6913447B610023C7F8A830D7F8A8304A
:101EE0001F2B0FDC78680CF077FE0146D7F8A8307E
:101EF0007A691344CAB21A70D7F8A8300133C7F808
:101F0000A830EBE7732138680CF0C3FC38680CF09C
:101F1000DBFC1BE378680CF05FFE7864786CFFF7FD
:101F200029FA732138680CF0B4FC38680CF0CCFC4A
:101F30000CE300BF9C320208C0F001248C23002473
:101F400000F0FFFF1CD30124C05F02247F86010044
:101F50009423002478680CF03FFE0346272219469C
:101F6000002000F028FDF86678680CF08CFE03462F
:101F700040F6E8421946002000F01DFDB86678687A
:101F80000CF081FE034640F6E8421946002000F0BE
:101F900012FD786678680CF085FE386678680CF07B
:101FA0001BFE034603221946002000F004FDF865DD
:101FB00078680CF077FE0346BC4A1946002000F012
:101FC000FAFCB86578680CF06DFE0346B74A19460E
:101FD000002000F0F0FC786578680CF0FDFD3865B5
:101FE000F96DB348FEF76EFFF8643B6D7A6DB96D1D
:101FF000F86CFEF768FE7B6E002B05D03B6E7A6EA8
:10200000F96CAB4818F074FAFB6E4FF41C7202FBCB
:1020100003F30833A74A13440433BB6474213868BC
:102020000CF037FCF96E38680CF063FB0021B86CDB
:10203000FEF708FE0346194638680CF0A2FB0121A2
:10204000B86CFEF7FFFD0346194638680CF099FBA3
:102050000221B86CFEF7F6FD0346194638680CF00D
:1020600090FBB86C01F02EFA0346194638680CF064
:1020700040FBB96E38680CF084FBBB6E002B06DDAC
:10208000BA6E00218A4818F0D3FC034600E0002312
:10209000194638680CF088FBF96D38680CF029FB9C
:1020A000FB6C1B68194638680CF07EFBF86CFEF779
:1020B000E2FE0346194638680CF01BFB38680CF04A
:1020C00003FC43E278680CF087FD034604221946BE
:1020D000002000F070FC7863774A7B6B52F8233065
:1020E0003B63502138680CF0D4FB796B38680CF0F6
:1020F00000FB3B6B4833184601F0B2FB0346194620
:1021000038680CF0F6FA3B6B48331846FEF7B7FD1B
:102110000346194638680CF0ECFA3B6B4833184616
:10212000FEF7B9FD0346194638680CF02AFB3B6BF5
:1021300048331846FEF7BBFD0346194638680CF0D5
:1021400033FB38680CF0C0FB78680CF045FDF86292
:10215000FB6A032B40F3F98178680CF03DFDB8620F
:1021600078680CF090FD7862FB6A042B07D13B6B1A
:1021700048337A6AB96A184601F05DFBE5E13B6BCA
:1021800003F1480478680CF08DFD03467A6AB96A59
:10219000204601F037FBD8E178680CF074FDC7F8F1
:1021A0008800D7F8880000F0E7F9C7F884007621A6
:1021B00038680CF06EFBD7F8881038680CF0E1FA3C
:1021C000D7F8841038680CF0EFFA38680CF07CFB14
:1021D000BCE178680CF057FDC7F8900078680CF007
:1021E00061FDC7F88C00D7F88C10D7F8900000F08C
:1021F0004BFA762138680CF04CFBD7F89010386811
:102200000CF0BFFAD7F88C1038680CF0CDFA3868AB
:102210000CF05AFB9AE178680CF035FDF86061210A
:1022200038680CF036FBF96838680CF0AAFA2348D5
:1022300000F0DAFB0346194638680CF0A2FA0023D6
:10224000C7F8A430D7F8A430032B2ADC0023C7F842
:10225000A0301A4800F0D7FB0246D7F8A0309342CE
:10226000B4BF01230023DBB2002B14D0FA68D7F8E7
:10227000A43013441A46D7F8A010104800F0CEFB43
:102280000346194638680CF07CFAD7F8A0300133C1
:10229000C7F8A030DDE7D7F8A4300133C7F8A43081
:1022A000D0E738680CF010FB50E100BF9F860100BA
:1022B00094230024C0F00124000000242C020024F8
:1022C00078680CF049FCC7F8800078680CF044FC92
:1022D000F86778680CF040FCB86778680CF03CFC54
:1022E000786778680CF038FC386778680CF0DAFCAE
:1022F0000346984A136078680CF0D4FC0346964A6B
:1023000013603B6F00937B6FBA6FF96FD7F8800053
:10231000FFF74AFC752138680CF0BBFA8F4B1B683D
:10232000194638680CF0E5F98D4B1B68194638687A
:102330000CF03AFA8B4B1B68194638680CF021FAFE
:1023400038680CF0C1FA01E178680CF005FC03462E
:1023500087F84330844B1B7897F843209A422BD060
:10236000814A97F8433013700023C7F89C30D7F8A0
:102370009C30182B20DC78680CF085FCF863D7F8CB
:102380009C304FF41C7202FB03F30833774A13446A
:102390000433BB63B86BFEF728FC0346002B05D063
:1023A00000230322F96BB86BFEF7F8FBD7F89C30DB
:1023B0000133C7F89C30DAE7722138680CF069FA0B
:1023C000012200216A4818F033FB03461946386899
:1023D0000CF08FF90023C7F89830D7F89830182BF5
:1023E00020DCD7F898304FF41C7202FB03F308335B
:1023F0005E4A134404333B62386AFEF7F6FB034639
:10240000002B04D0386AFEF72EFC034600E00023C0
:10241000194638680CF0B5F9D7F898300133C7F889
:102420009830DAE738680CF04FFA8FE06D213868A1
:102430000CF02FFA4F4BB3F95430194638680CF0B2
:10244000A0F94C4BB3F95630194638680CF099F99D
:10245000484BB3F95830194638680CF092F9454B9F
:10246000B3F95031194638680CF08BF9414BB3F988
:102470005231194638680CF084F93E4BB3F95431A7
:10248000194638680CF07DF93A4BB3F944301946D7
:1024900038680CF076F9374BB3F94630194638688E
:1024A0000CF06FF9334BB3F94830194638680CF02B
:1024B00068F9304BB3F94A30194638680CF061F9C5
:1024C00038680CF001FA41E0622138680CF0E1F95B
:1024D00001220021264818F0ABFA03461946386855
:1024E0000CF007F90023C7F89430D7F89430182B74
:1024F00021DCD7F894304FF41C7202FB03F308334D
:102500001A4A134404333B613869FEF76EFB0346F5
:10251000002B05D002213869FEF794FB034600E04A
:102520000023194638680CF02CF9D7F894300133A1
:10253000C7F89430D9E738680CF0C6F906E0386877
:102540000CF094F902E000BF00E000BF00BFBC3710
:10255000BD4690BD04D301240CD3012418D301241B
:1025600014D3012410D3012420E30124C0F001245A
:10257000942300246061022480B582B000AF7860AB
:102580007B68632B11DD7B688B2B0EDC7B68643BE7
:102590004FF41C7202FB03F30833384A134404332C
:1025A0001846FEF760FB034664E07B68132B60D897
:1025B00001A252F823F000BF092600087326000884
:1025C0000D260008732600087326000873260008ED
:1025D0007326000873260008732600087326000877
:1025E00017260008212600082B260008352600089B
:1025F0003D260008432600084B2600085326000805
:102600005B260008632600089F2333E01C48FEF782
:102610009FFC03462EE01B48FEF7BAFC034629E068
:102620001848FEF7C1FC034624E01648FEF7C8FC34
:1026300003461FE0134B93F860301BE0114B1B6DFA
:1026400018E0104BB3F9443014E00E4BB3F94630A8
:1026500010E00C4BB3F948300CE00A4BB3F94A30A8
:1026600008E0084BD3ED107AFDEEE77A17EE903ACA
:1026700000E0002318460837BD4680BDC0F00124A5
:10268000002002406061022480B483B000AF786013
:10269000396000BF0C37BD465DF8047B7047000011
:1026A00080B582B000AF78607A680021034818F0E6
:1026B000BFF9034618460837BD4680BD9423002461
:1026C00090B585B000AF786039607B68002B11DB76
:1026D0007B68272B0EDC7B684FF41C7202FB03F334
:1026E0000833214A134404331846FEF76DFA0346B3
:1026F000002B01D0012300E00023002B01D0002398
:102700002DE07B684FF41C7202FB03F30833164A7A
:10271000134404331846FEF77DFAF860FB68002B7B
:1027200002DBFB68042B01DD002318E00F4AFB6885
:1027300052F8233003F148047B684FF41C7202FB0B
:1027400003F30833084A134404331846FEF76EFABD
:1027500003463A681946204601F06DF801231846F1
:102760001437BD4690BD00BFC0F001240000002416
:1027700090B587B000AFF860B9607A60FB68002B55
:1027800011DBFB68272B0EDCFB684FF41C7202FB8D
:1027900003F30833204A134404331846FEF714FAAF
:1027A0000346002B01D0012300E00023002B01D0C1
:1027B00000232DE0FB684FF41C7202FB03F3083387
:1027C000154A134404331846FEF724FA78617B69EE
:1027D000002B02DB7B69042B01DD002318E00F4A8C
:1027E0007B6952F8233003F14804FB684FF41C72F4
:1027F00002FB03F30833084A134404331846FEF778
:1028000015FA01467B68BA68204600F0FBFF0123F9
:1028100018461C37BD4690BDC0F0012400000024BE
:1028200090B587B000AFF860B9607A60FB68002BA4
:1028300011DBFB68272B0EDCFB684FF41C7202FBDC
:1028400003F308332E4A134404331846FEF7BCF949
:102850000346002B01D0012300E00023002B01D010
:10286000002348E0FB684FF41C7202FB03F30833BB
:10287000234A134404331846FEF7CCF978617B6988
:10288000002B02DB7B69042B01DD002333E01D4AB2
:102890007B6952F8233048333B61386900F0E0FF30
:1028A0000346002B1BD03869FEF7F5F90246BB68DA
:1028B000934214D1FB684FF41C7202FB03F30833FC
:1028C0000F4A134404331846FEF7B0F9044638693A
:1028D000FEF7D5F903469C4201D1012300E0002315
:1028E000002B07D03869FEF7E2F902467B681A60D0
:1028F000012300E0002318461C37BD4690BD00BFF1
:10290000C0F001240000002480B485B000AFF8605E
:10291000B9607A60FA68BB689A4205DCBA687B687D
:102920009A4201DC012300E0002318461437BD461B
:102930005DF8047B704780B584B000AF7860396083
:102940007A6842F2100313441A68796842F2140359
:102950000B441B689A422ADA7A6842F21003134445
:102960001B689B00BB600023FB60FB68032B13DC30
:102970003B687A68F96852F821201046984701466A
:10298000BA68FB681A4409B27B68083223F812104F
:10299000FB680133FB60E8E77A6842F210031344F6
:1029A0001B685A1C796842F210030B441A6000BF7E
:1029B0001037BD4680BD80B485B000AFF860B96007
:1029C0007A60BA68FB689A4207DBBA687B689A4209
:1029D00001DD7B6802E0BB6800E0FB681846143745
:1029E000BD465DF8047B704780B483B000AF78606B
:1029F0007A6842F2100313441B6818460C37BD4630
:102A00005DF8047B704780B483B000AF7860042326
:102A100018460C37BD465DF8047B704780B485B01E
:102A200000AFF860B9607A607B689A00BB681A44AE
:102A3000FB68083233F9123018461437BD465DF88A
:102A4000047B704780B582B000AF786039607B68E6
:102A5000012B1FD13B684FF6FF7293421AD10F48EA
:102A600014F0DCFF0E490F480FF02FF80E490F4805
:102A70000FF02BF80E490F480FF027F80E490F48BA
:102A80000FF023F80E490F480FF01FF80E490F48BA
:102A90000FF0ACFB00BF0837BD4680BD9423002477
:102AA000007C004024E3012400440040DCE50124D4
:102AB0000078004094E80124004C00404CEB0124D5
:102AC0000050004004EE012400100140BCF001243D
:102AD00080B582B000AF7860054A7B681A607B6879
:102AE0001846FEF703F87B6818460837BD4680BDD8
:102AF000E4FA030880B582B000AF78607868FFF729
:102B0000E7FF0C2178681DF0E9F87B681846083764
:102B1000BD4680BD80B500AF4FF6FF710120FFF7C5
:102B200091FF80BD80B582B000AF78603960786871
:102B300010F09BFD02463B681A6000BF0837BD4697
:102B400080BD80B582B000AF786039607B6819467F
:102B50003868FFF7E7FF7B68043319463868FFF7EA
:102B6000E1FF00BF0837BD4680BDB0B582B000AF01
:102B700078607B680C3327241D46002C07DB00217E
:102B8000284600F049F905F51C75013CF5E77B681E
:102B900018460837BD46B0BD80B586B000AF786036
:102BA00039607B6819463868FFF7BCFF7B681B6893
:102BB000052B25D17B68043319463868FFF7B2FF2F
:102BC0007B68083319463868FFF7ACFF7B680C3325
:102BD00028221946386800F0B5F87A6846F28C1356
:102BE000134440221946386800F0CBF87A6846F260
:102BF0008C33134440221946386800F0C2F89DE037
:102C00007B681B68042B3AD17B680433194638680B
:102C1000FFF788FF7B68083319463868FFF782FFA3
:102C20007B680C3328221946386800F08BF87A68E4
:102C300046F28C13134440221946386800F0A1F87C
:102C400000237B617B693F2B78DC7A687B6903F624
:102C50007143DB00134400229A607A687B6903F6B3
:102C60007143DB0013449A6879687B6903F671430A
:102C7000DB000B445A607B6901337B61E2E77B68D0
:102C800005221A607B6800225A607B6800229A60E5
:102C900000233B613B69272B12DC3B694FF41C721C
:102CA00002FB03F308337A681344181D0023002243
:102CB00047F6FF71FDF75CFF3B6901333B61E9E7D4
:102CC0000023FB60FB683F2B19DC7A68FB6803F686
:102CD0003143DB00134400229A607A68FB6803F6F4
:102CE0003143DB0013449A687968FB6803F631438B
:102CF000DB000B445A60FB680133FB60E2E7002312
:102D0000BB60BB683F2B19DC7A68BB6803F6714374
:102D1000DB00134400229A607A68BB6803F67143B3
:102D2000DB0013449A687968BB6803F67143DB00E3
:102D30000B445A60BB680133BB60E2E700BF183741
:102D4000BD4680BD80B586B000AFF860B9607A60DE
:102D500000237B617A697B689A420EDA7B694FF4C3
:102D60001C7202FB03F3BA681344F968184600F0BA
:102D70008CFD7B6901337B61ECE700BF1837BD46F2
:102D800080BD80B586B000AFF860B9607A6000237E
:102D90007B617A697B689A420BDA7B69DB00BA68EF
:102DA0001344F9681846FFF7CCFE7B6901337B6159
:102DB000EFE700BF1837BD4680BD000080B582B088
:102DC00000AF786039607B68012B07D13B684FF614
:102DD000FF72934202D10348FFF7C7FE00BF0837D6
:102DE000BD4680BDC0F0012480B500AF4FF6FF7135
:102DF0000120FFF7E3FF80BD80B582B000AF7860AF
:102E00003960786810F04EFC02463B681A6000BFDB
:102E10000837BD4680BD000080B485B000AF786043
:102E200039607B683A681A607B6800225A607B6868
:102E300000229A607B68002283F848207B680D4A54
:102E4000C3F86C220023FB60FB68022B0ADC7B6862
:102E50000022DA627B68DA6A7B68DA60FB68013339
:102E6000FB60F1E77B6818461437BD465DF8047BCC
:102E7000704700BFD442020880B483B000AF7860CE
:102E80007B685B6E002B18D07B689B6E591C7A6840
:102E900091667A6834335B001344B3F904301A4600
:102EA0007B68DA607B689B6EDAB27B689A667B68C7
:102EB0005B6E5A1E7B685A6638E07B681B6E002B7F
:102EC00009D07B681B6E5A1E7B681A667B68DA6CB9
:102ED0007B68DA602AE07B68DB6D002B1FD07B68A3
:102EE000DB6D5A1E7B68DA657B685A6D7B689B6D6B
:102EF0001A447B685A657B68DA6C7B681B6D79685D
:102F0000D1F86C027968496D091289000144096899
:102F100001FB03F39B121A447B68DA6006E07B68CE
:102F2000DA6C7B681B6D1A447B68DA607B68DB684F
:102F3000B3F5FA4F06DA7B68DA687B689B6A1A4455
:102F40007B68DA6000BF0C37BD465DF8047B7047D4
:102F500080B483B000AF786039607B68DB6C3A681E
:102F6000D21A7B681A6500BF0C37BD465DF8047B3A
:102F7000704780B485B000AFF860B9607A603B609C
:102F8000FB6800225A66FB68BA68C3F86C227B684B
:102F9000B3F5FA4F3CDA3B68002B39DDFB68DB6C9C
:102FA000B3F5FA4F04DBFB681A69FB68DA641EE0CC
:102FB000FB68DB6D002B13D0FB68DA6CFB681B6DC4
:102FC000F968D1F86C02F968496D09128900014469
:102FD000096801FB03F39B121A44FB68DA6406E0FC
:102FE000FB68DA6CFB681B6D1A44FB68DA64FB68EB
:102FF000DB6C7A68D21AFB681A65FB6800225A6596
:103000004FF480223B6892FBF3F2FB689A6509E07B
:1030100000233B603B68BB61FB687A68DA64FB684D
:1030200000221A65FB68BA691A66FB683A68DA65B5
:1030300000BF1437BD465DF8047B704780B48BB089
:1030400000AFF860B9607A60FB680022DA65FB685F
:10305000DA6DFB681A66FB685A6E7B681344FF2BB7
:1030600002DC7B68002B01DC002375E0BB68B3F554
:10307000FA4F57DAFB685B6E002B08D0FB68DA6CFE
:10308000FB681B6D1344BA68D31A7B6217E0FB68B8
:10309000DA6CFB681B6D1A44FB68DA64FB68DB6C56
:1030A000B3F5FA4F03DBFB681A69FB68DA64FB6867
:1030B00000221A65FB68DB6CBA68D31A7B627A6AF5
:1030C0007B6892FBF3F3BB6100233B623A6A7B6847
:1030D0009A423ADAFB689A6EFB685B6E581CF96894
:1030E00048661344DBB27B61FB68DB6C9AB2FB6819
:1030F0001B6D9BB213449AB23B6A013399B2BB6910
:103100009BB211FB03F39BB213449BB219B2FA6852
:103110007B6934335B0013440A469A803B6A01336F
:103120003B62D3E7FB689A6EFB685B6E581CF968DC
:1031300048661344DBB2FB61BB6819B2FA68FB69ED
:1031400034335B0013440A469A80FB68DB6CBA6830
:10315000D21AFB681A65012318462C37BD465DF864
:10316000047B704780B487B000AFF8600B467A608C
:103170007B81FB680022DA65FB68DA6DFB681A6602
:10318000FB685A6E7B681344FF2B02DC7B68002BC4
:1031900001DC00232CE0FB689A6EFB685B6E134435
:1031A0007B61FB685A6E7B681A44FB685A667B68D1
:1031B0005A1E7A60002B14BF01230023DBB2002BC0
:1031C0000ED07B69DBB27B61B7F90A107B695A1CB0
:1031D0007A61FA6834335B0013440A469A80E6E762
:1031E000B7F90A20FB68DA64FB6800221A6501233C
:1031F00018461C37BD465DF8047B704780B487B025
:1032000000AFF8607A603B600B467B81FB68002270
:10321000DA65FB68DA6DFB681A66FB685A6E3B6814
:103220001344FF2B02DC3B68002B01DC002336E05B
:10323000FB689A6EFB685B6E13447B61FB685A6E99
:103240003B681A44FB685A663B685A1E3A60002B7A
:1032500014BF01230023DBB2002B18D07B685A1C5B
:103260007A6093F900309AB27B8913449BB27B81D8
:103270007B69DBB27B61B7F90A107B695A1C7A6102
:10328000FA6834335B0013440A469A80DCE7B7F9E6
:103290000A20FB68DA64FB6800221A6501231846DD
:1032A0001C37BD465DF8047B704780B487B000AF23
:1032B000F8607A603B600B467B81FB680022DA6530
:1032C000FB68DA6DFB681A66FB685A6E3B6813444C
:1032D000FF2B02DC3B68002B01DC00233FE0FB6896
:1032E0009A6EFB685B6E13447B61FB685A6E3B68A9
:1032F0001A44FB685A663B685A1E3A60002B14BF9A
:1033000001230023DBB2002B21D07B685A1C7A609A
:103310001B787B827B685A1C7A601B781B021AB26E
:103320007B8A13437B827A897B8A13449BB27B819D
:103330007B69DBB27B61B7F90A107B695A1C7A6141
:10334000FA6834335B0013440A469A80D3E7B7F92E
:103350000A20FB68DA64FB6800221A65012318461C
:103360001C37BD465DF8047B7047000080B489B00F
:1033700000AFF8607B600B467B8113463B81FB68A6
:103380000022DA65FB68DA6DFB681A66FB685A6E24
:103390007B681344FF2B02DC7B68012B01DC0023DC
:1033A0005CE0B7F90820B7F90A30D31A7B61002333
:1033B000FB614FF480627B6892FBF3F33B61FB6837
:1033C0009A6EFB685B6E1344BB61FB685A6E7B6848
:1033D0001A44FB685A667B68013B7B607B685A1E17
:1033E0007A60002B14BF01230023DBB2002B1DD019
:1033F000FA693B691344FB61BB69DBB2BB611A4AE2
:10340000FB6952F823307A6902FB03F39B129AB2EC
:103410007B8913449BB219B2BB695A1CBA61FA6822
:1034200034335B0013440A469A80D7E7BB69DBB2AA
:10343000BB61FA68BB6934335B0013443A899A80F4
:10344000FA68BB6934335B001344B3F904301A469D
:10345000FB68DA64FB6800221A65012318462437EA
:10346000BD465DF8047B7047D442020880B483B047
:1034700000AF78607B6800229A617B685B6E002BEE
:1034800003D07B6800225A6616E07B68DB6D002B58
:1034900012D07B681B6D7A68D2F86C127A68526D14
:1034A000121292000A44126802FB03F39A127B681C
:1034B0001A657B680022DA6500BF0C37BD465DF8EF
:1034C000047B704780B483B000AF78607B6893F86A
:1034D0004830002B01D0012300E0002318460C37B0
:1034E000BD465DF8047B704780B582B000AF786060
:1034F0007B681B68012B15D17B68DA687B68DA6210
:103500007B681A6B7B681A617B685A6B7B685A61AF
:103510007B6800229A617B680022DA617B68002266
:103520001A626CE07B681B68022B1CD17B68DA682E
:103530007B68DA627B681A6B7B681A617B685A6BFE
:103540007B685A617B689A6B7B689A617B68DA6BEF
:103550007B68DA617B681A6C7B681A627B685A6ADE
:103560007B685A644BE07B681B68032B0CD17B683B
:10357000DA6A7B68DA607B681A6B7B681A617B6841
:103580005A6B7B685A613AE07B681B68142B36D112
:103590007B685B6B012B1BD17B6803F10C027B68A2
:1035A0002C331946104600F095F97B6803F11002A0
:1035B0007B6830331946104600F08CF97B6803F1C4
:1035C00014027B6834331946104600F083F916E084
:1035D0007B68DA687B68DA627B681A697B681A63E1
:1035E0007B685A697B685A637B6800225A617B68F2
:1035F0005A697B681A617B681A697B68DA607B6844
:1036000093F849207B6883F8482000BF0837BD46FF
:1036100080BD80B584B000AFF860B9607A60FB68A7
:103620001B68012B0BD1FB689968FB68DB6A1A46A3
:10363000B8680BF08DF97B6806221A6052E0FB68CF
:103640001B68022B0BD1FB689968FB68DA6A0023C0
:10365000B8680BF093F97B680A221A6042E0FB68B5
:103660001B68032B09D1FB689B681946B8680BF0EF
:10367000A0F97B6808221A6034E0FB681B68142BF1
:1036800020D1FB685B6B032B1CDDFB685B6B042BA1
:103690000BD1FB689968FB68DB6A1A46B8680BF0C7
:1036A000B4F97B6806221A601CE0FB689968FB6825
:1036B000DA6AFB681B6BB8680BF08CF97B68062232
:1036C0001A600FE0FB681B68152B0BD1FB6899682B
:1036D000FB68DA68FB681B69B8680BF0ACF97B68BB
:1036E00006221A60FB68002283F8492000BF1037C9
:1036F000BD4680BD90B583B000AF786039607B680F
:103700001B68012B0CD138680BF0BDFA02467B68B0
:103710001A6338680BF0B7FA02467B685A6369E0AF
:103720007B681B68022B1ED138680BF0ACFA02468E
:103730007B681A6338680BF0A6FA02467B685A6306
:1037400038680BF0A0FA02467B689A6338680BF081
:1037500043FA02467B68DA6338680BF04CFA02469B
:103760007B681A6446E07B681B68032B12D13868BB
:103770000BF089FA02467B68DA6238680BF083FA4C
:1037800002467B681A6338680BF07DFA02467B6854
:103790005A632FE07B681B68142B1ED17B685B6B20
:1037A000042B09D138680BF07DFA02467B681A6356
:1037B0007B6801225A631DE07B681C6B38680BF044
:1037C00071FA03469C420CBF01230023DBB2002B9D
:1037D00010D07B6802225A630CE07B681B68152BB3
:1037E00008D138680BF05EFA02467B685A617B6844
:1037F0000022DA607B68012283F8492000BF0C3781
:10380000BD4690BD80B485B000AFF860B9607A6005
:103810003B60FB6805225A61FB683A681A61FB68E5
:103820007A68DA60FB68BA689A6000BF1437BD46F0
:103830005DF8047B704780B485B000AFF860B96074
:103840007A60FB6804225A61FB687A68DA60FB6878
:10385000BA689A6000BF1437BD465DF8047B7047B4
:1038600080B485B000AF78607B685B69FB607B6883
:103870005B69022B02DC7B6800225A61FB681846F8
:103880001437BD465DF8047B704780B582B000AF49
:10389000786039607B6819463868FFF7ADFA7B6855
:1038A000043319463868FFF7A7FA7B6808331946CE
:1038B0003868FFF7A1FA00BF0837BD4680BD80B465
:1038C00083B000AF78607B6818460C37BD465DF862
:1038D000047B704780B584B000AF78603960786849
:1038E000FFF7EDFF03461B68FB603868FFF7E7FF53
:1038F00003461A687B681A6007F10C031846FFF745
:10390000DEFF03461A683B681A6000BF1037BD46E9
:1039100080BD000080B400AF044BDB681B0A03F0DD
:1039200007031846BD465DF8047B704700ED00E0D4
:1039300080B483B000AF0346FB80B7F90630002B9C
:103940000BDBFB8803F01F020749B7F906305B0960
:10395000012000FA02F241F8232000BF0C37BD46D7
:103960005DF8047B704700BF00E100E080B483B0E5
:1039700000AF0346FB80B7F90630002B12DBFB8853
:1039800003F01F020A49B7F906305B09012000FA6B
:1039900002F2203341F82320BFF34F8F00BFBFF363
:1039A0006F8F00BF00BF0C37BD465DF8047B7047CA
:1039B00000E100E080B483B000AF03463960FB80D3
:1039C000B7F90630002B0ADB3B68DAB20C49B7F9CD
:1039D00006301201D2B20B4483F800230AE03B68A0
:1039E000DAB20849FB8803F00F03043B1201D2B29C
:1039F0000B441A7600BF0C37BD465DF8047B704758
:103A000000E100E000ED00E080B489B000AFF860B4
:103A1000B9607A60FB6803F00703FB61FB69C3F1DF
:103A20000703042B28BF0423BB61FB690433062B67
:103A300002D9FB69033B00E000237B614FF0FF32BA
:103A4000BB6902FA03F3DA43BB681A407B699A4008
:103A50004FF0FF317B6901FA03F3D9437B680B40D8
:103A6000134318462437BD465DF8047B704780B485
:103A700087B000AF786039603B68C3F31303002B55
:103A800007D13B689B0E03F01F03012202FA03F3E8
:103A900015E03B683B613B6993FAA3F3FB60FB686D
:103AA0007B617B69002B01D1202303E07B69B3FAA2
:103AB00083F3DBB203F01F03012202FA03F37A68F7
:103AC000D2691A437B68DA6100BF1C37BD465DF8D6
:103AD000047B704780B487B000AFF860B9607A604B
:103AE000FB6830331A46BB681B0A9B0003F00C03CB
:103AF00013447B617B691A68BB6803F01F031F21B5
:103B000001FA03F3DB431A407B689B0E03F01F01AD
:103B1000BB6803F01F0301FA03F31A437B691A60C1
:103B200000BF1C37BD465DF8047B704780B487B08A
:103B300000AFF860B9607A60FB6814331A46BB685E
:103B40005B0E9B0003F0040313447B617B691A68DE
:103B5000BB681B0D03F01F03072101FA03F3DB43CE
:103B60001A40BB681B0D03F01F03796801FA03F3C9
:103B70001A437B691A6000BF1C37BD465DF8047BA1
:103B80007047000080B485B000AFF860B9607A601B
:103B9000FB68D3F8C020BB68C3F31303DB431A40B0
:103BA0007B6803F018030849D940BB680B40C3F396
:103BB00013031A43FB68C3F8C02000BF1437BD4687
:103BC0005DF8047B704700BFFFFF0F0080B483B037
:103BD00000AF786039607B681A69064B13403A6819
:103BE0001A437B681A6100BF0C37BD465DF8047B41
:103BF000704700BFFCFBFFFF80B483B000AF78606C
:103C00007B689A68044B13407A68936000BF0C3756
:103C1000BD465DF8047B7047C0FFFF5F80B483B092
:103C200000AF78607B689A68054B134043F0805280
:103C30007B689A6000BF0C37BD465DF8047B704717
:103C4000C0FFFF6F80B483B000AF78607B689A6874
:103C5000054B134043F001027B689A6000BF0C37AC
:103C6000BD465DF8047B7047C0FFFF7F80B483B022
:103C700000AF78607B689A68054B134043F00402FC
:103C80007B689A6000BF0C37BD465DF8047B7047C7
:103C9000C0FFFF7F80B483B000AF786039607B687D
:103CA0001A683B6803F01003022101FA03F31A4378
:103CB0007B681A6000BF0C37BD465DF8047B704717
:103CC00080B487B000AFF860B9607A60FB687B6150
:103CD0000D4ABB6813441B781A467B6913441B6862
:103CE00023F0C0020849BB680B441B7819467B6966
:103CF0000B4419467B6813430B6000BF1C37BD465D
:103D00005DF8047B704700BFD852020880B487B0CA
:103D100000AFF860B9607A60FB687B610D4ABB68F0
:103D200013441B781A467B6913441B6823F4907272
:103D30000849BB680B441B7819467B690B4419463C
:103D40007B6813430B6000BF1C37BD465DF8047BE6
:103D5000704700BFD852020880B487B000AFF86047
:103D6000B9607A60FB687B610D4ABB6813441B78BD
:103D70001A467B6913441B6823F400720849BB6828
:103D80000B441B7819467B690B4419467B68134327
:103D90000B6000BF1C37BD465DF8047B704700BF59
:103DA000D852020880B487B000AFF860B9607A607A
:103DB000FB687B610D4ABB6813441B781A467B691C
:103DC00013441B6823F480620849BB680B441B78CA
:103DD00019467B690B4419467B6813430B6000BF8F
:103DE0001C37BD465DF8047B704700BFD8520208FF
:103DF00080B487B000AFF860B9607A60FB687B611F
:103E00000D4ABB6813441B781A467B6913441B6830
:103E100023F4C0520849BB680B441B7819467B69E0
:103E20000B4419467B6813430B6000BF1C37BD462B
:103E30005DF8047B704700BFD852020880B487B099
:103E400000AFF860B9607A60FB687B610D4ABB68BF
:103E500013441B781A467B6913441B6823F4C04241
:103E60000849BB680B441B7819467B690B4419460B
:103E70007B6813430B6000BF1C37BD465DF8047BB5
:103E8000704700BFD852020880B487B000AFF86016
:103E9000B9607A60FB687B610D4ABB6813441B788C
:103EA0001A467B6913441B6823F440320849BB68F7
:103EB0000B441B7819467B690B4419467B681343F6
:103EC0000B6000BF1C37BD465DF8047B704700BF28
:103ED000D852020880B485B000AFF860B9607A604B
:103EE000BA68124B13449B00FA6811498A4201D107
:103EF000002200E0202213441B6823F0FF02B9686F
:103F00000A4B0B449B00F9680948814201D100210A
:103F100000E020210B4419467B6813430B6000BF6F
:103F20001437BD465DF8047B704700BF0082001067
:103F30000000024080B485B000AF786039607B68D3
:103F4000FB600C4A3B6813441B781A46FB68134419
:103F50005B6908493A680A4412781146FA680A44CB
:103F600023F00403536100BF1437BD465DF8047BA2
:103F7000704700BFD852020880B487B000AFF86025
:103F8000B9607A603B60FB687B610E4ABB68134492
:103F90001B781A467B6913445B6923F00702796832
:103FA0003B680B430748B9680144097808467969BA
:103FB000014413434B6100BF1C37BD465DF8047BD1
:103FC000704700BFD852020880B487B000AFF860D5
:103FD000B9607A60FB687B61074ABB6813441B7851
:103FE0001A467B6913441A467B68936000BF1C37EE
:103FF000BD465DF8047B7047D852020880B400AF1C
:10400000054B1B68044A43F48033136000BFBD4670
:104010005DF8047B704700BF0044025880B400AFD5
:10402000074B1B6803F40033B3F5003F01D10123B4
:1040300000E000231846BD465DF8047B704700BFD2
:104040000044025880B483B000AF7860064B1B690F
:1040500023F0070204497B6813430B6100BF0C3750
:10406000BD465DF8047B70470044025880B483B0BD
:1040700000AF7860064B9B6923F4706204497B684B
:1040800013438B6100BF0C37BD465DF8047B70475E
:104090000044025880B483B000AF7860064B9B693F
:1040A00023F00F0204497B6813438B6100BF0C3778
:1040B000BD465DF8047B70470044025880B483B06D
:1040C00000AF7860064BDB6923F0700204497B681F
:1040D0001343CB6100BF0C37BD465DF8047B7047CE
:1040E0000044025880B483B000AF7860064BDB69AF
:1040F00023F4E06204497B681343CB6100BF0C37B3
:10410000BD465DF8047B70470044025880B483B01C
:1041100000AF7860064B9B6923F0700204497B680E
:1041200013438B6100BF0C37BD465DF8047B7047BD
:104130000044025880B483B000AF7860064B1B6A1D
:1041400023F0700204497B6813430B6200BF0C37F5
:10415000BD465DF8047B70470044025880B485B0CA
:1041600000AF78607B68DAB2104B1344FB60FB68E9
:104170001A687B68190E7B681B0A03F01F0301FA9B
:1041800003F3DB431A407B681B0CD9B27B681B0A24
:1041900003F01F0301FA03F31A43FB681A6000BF20
:1041A0001437BD465DF8047B704700BF4C4402588D
:1041B00080B582B000AF78607868FFF7CFFF00BFAE
:1041C0000837BD4680BD80B582B000AF78607868A2
:1041D000FFF7C4FF00BF0837BD4680BD80B483B081
:1041E00000AF7860064B9B6D23F4403204497B6836
:1041F00013438B6500BF0C37BD465DF8047B7047E9
:104200000044025880B483B000AF7860064B9B6ACC
:1042100023F0030204497B6813438B6200BF0C3711
:10422000BD465DF8047B70470044025880B400AF7F
:10423000054B1B68044A43F08073136000BFBD4602
:104240005DF8047B704700BF0044025880B400AFA3
:10425000074B1B6803F00073B3F1007F01D101230A
:1042600000E000231846BD465DF8047B704700BFA0
:104270000044025880B400AF054BDB6A044A43F4A3
:104280008033D36200BFBD465DF8047B704700BF3A
:104290000044025880B400AF054BDB6A044A43F483
:1042A0000033D36200BFBD465DF8047B704700BF9A
:1042B0000044025880B400AF054BDB6A044A43F463
:1042C0008023D36200BFBD465DF8047B704700BF0A
:1042D0000044025880B483B000AF7860074BDB6ABB
:1042E00023F002027B685B0004491343CB6200BFEA
:1042F0000C37BD465DF8047B704700BF0044025890
:1043000080B483B000AF7860074BDB6A23F00C0207
:104310007B689B0004491343CB6200BF0C37BD464A
:104320005DF8047B704700BF0044025880B483B03E
:1043300000AF7860074B1A6B074B13407A68013A5D
:10434000044913430B6300BF0C37BD465DF8047B83
:10435000704700BF0044025800FEFFFF80B483B0E6
:1043600000AF7860074B9B6A23F47C727B681B016B
:10437000044913438B6200BF0C37BD465DF8047BD4
:10438000704700BF0044025880B483B000AF78602B
:10439000074B1B6B23F47E427B68013B5B020449A5
:1043A00013430B6300BF0C37BD465DF8047B7047B9
:1043B0000044025880B483B000AF7860074B1B6B99
:1043C00023F4FE027B68013B1B04044913430B6387
:1043D00000BF0C37BD465DF8047B704700440258AF
:1043E00080B483B000AF7860074B1B6B23F0FE42B4
:1043F0007B68013B1B06044913430B6300BF0C376A
:10440000BD465DF8047B70470044025880B400AF9D
:10441000054B1B68044A43F08063136000BFBD4630
:104420005DF8047B704700BF0044025880B400AFC1
:10443000074B1B6803F00063B3F1006F01D1012348
:1044400000E000231846BD465DF8047B704700BFBE
:104450000044025880B400AF054BDB6A044A43F4C1
:104460000023D36200BFBD465DF8047B704700BFE8
:104470000044025880B483B000AF7860074BDB6A19
:1044800023F020027B685B0104491343CB6200BF29
:104490000C37BD465DF8047B704700BF00440258EE
:1044A00080B483B000AF7860074BDB6A23F0C002B2
:1044B0007B689B0104491343CB6200BF0C37BD46A8
:1044C0005DF8047B704700BF0044025880B483B09D
:1044D00000AF7860074B9A6B074B13407A68013A3C
:1044E000044913438B6300BF0C37BD465DF8047B62
:1044F000704700BF0044025800FEFFFF80B483B045
:1045000000AF7860074B9B6A23F47C327B681B0307
:10451000044913438B6200BF0C37BD465DF8047B32
:10452000704700BF0044025880B483B000AF786089
:10453000074B9B6B23F47E427B68013B5B02044983
:1045400013438B6300BF0C37BD465DF8047B704797
:104550000044025880B483B000AF7860074B9B6B77
:1045600023F4FE027B68013B1B04044913438B6365
:1045700000BF0C37BD465DF8047B7047004402580D
:1045800080B483B000AF7860074B9B6B23F0FE4292
:104590007B68013B1B06044913438B6300BF0C3748
:1045A000BD465DF8047B70470044025880B400AFFC
:1045B000054B1B68044A43F08053136000BFBD469F
:1045C0005DF8047B704700BF0044025880B400AF20
:1045D000074B1B6803F00053B3F1005F01D10123C7
:1045E00000E000231846BD465DF8047B704700BF1D
:1045F0000044025880B400AF054BDB6A044A43F420
:104600000003D36200BFBD465DF8047B704700BF66
:104610000044025880B483B000AF7860074BDB6A77
:1046200023F400727B685B0204491343CB6200BF32
:104630000C37BD465DF8047B704700BF004402584C
:1046400080B483B000AF7860074BDB6A23F440622C
:104650007B689B0204491343CB6200BF0C37BD4605
:104660005DF8047B704700BF0044025880B483B0FB
:1046700000AF7860074B1A6C074B13407A68013A19
:10468000044913430B6400BF0C37BD465DF8047B3F
:10469000704700BF0044025800FEFFFF80B483B0A3
:1046A00000AF7860074B9B6A23F07C727B681B0528
:1046B000044913438B6200BF0C37BD465DF8047B91
:1046C000704700BF0044025880B483B000AF7860E8
:1046D000074B1B6C23F47E427B68013B5B02044961
:1046E00013430B6400BF0C37BD465DF8047B704775
:1046F0000044025880B483B000AF7860074B1B6C55
:1047000023F4FE027B68013B1B04044913430B6442
:1047100000BF0C37BD465DF8047B7047004402586B
:1047200080B483B000AF7860074B1B6C23F0FE426F
:104730007B68013B1B06044913430B6400BF0C3725
:10474000BD465DF8047B70470044025880B485B0D4
:1047500000AF78600A4BD3F8D82009497B6813432F
:10476000C1F8D830064BD3F8D8207B681340FB60E3
:10477000FB6800BF1437BD465DF8047B704700BF7F
:104780000044025880B485B000AF78600A4BD3F87B
:10479000E02009497B681343C1F8E030064BD3F8A9
:1047A000E0207B681340FB60FB6800BF1437BD4608
:1047B0005DF8047B704700BF0044025880B485B0A8
:1047C00000AF78600A4BD3F8E82009497B681343AF
:1047D000C1F8E830064BD3F8E8207B681340FB6053
:1047E000FB6800BF1437BD465DF8047B704700BF0F
:1047F0000044025880B485B000AF78600A4BD3F80B
:10480000F02009497B681343C1F8F030064BD3F818
:10481000F0207B681340FB60FB6800BF1437BD4687
:104820005DF8047B704700BF0044025880B483B039
:1048300000AF7860064B1B6823F00F0204497B68C9
:1048400013430B6000BF0C37BD465DF8047B704717
:104850000020005280B400AF044B1B6803F00F032C
:104860001846BD465DF8047B704700BF002000522B
:1048700080B483B000AF7860064BDB6823F007029A
:1048800004497B681343CB6000BF0C37BD465DF81D
:10489000047B70470048025880B483B000AF786052
:1048A000064B9B6923F4404204497B6813438B61A8
:1048B00000BF0C37BD465DF8047B704700480258C6
:1048C00080B483B000AF78607B68DB6843F000425F
:1048D0007B68DA6000BF0C37BD465DF8047B70472B
:1048E00080B483B000AF786039607B68DB6823F404
:1048F00060123B681A437B68DA6000BF0C37BD4624
:104900005DF8047B704780B483B000AF78607B684B
:10491000DB6843F080427B68DA6000BF0C37BD463D
:104920005DF8047B704780B483B000AF78607B682B
:104930001B6823F080027B681A6000BF0C37BD46FD
:104940005DF8047B7047000080B485B000AF7860EC
:1049500039603B68012B28D03B68042B23D03B688F
:10496000102B1ED03B68402B19D03B68B3F5807FDD
:1049700013D03B68B3F5806F0DD03B68B3F5805F13
:1049800007D03B68B3F5803F01D107230EE0082331
:104990000CE006230AE0052308E0042306E00323D5
:1049A00004E0022302E0012300E00023FB737B68A4
:1049B00018331946FB7B0A4AD35C0B44BB60BB68C7
:1049C0001A68FB7B0749CB5C194604238B401A43CA
:1049D000BB681A6000BF1437BD465DF8047B7047A2
:1049E000E0520208EC52020880B485B000AF786053
:1049F00039603B68012B28D03B68042B23D03B68EF
:104A0000102B1ED03B68402B19D03B68B3F5807F3C
:104A100013D03B68B3F5806F0DD03B68B3F5805F72
:104A200007D03B68B3F5803F01D107230EE0082390
:104A30000CE006230AE0052308E0042306E0032334
:104A400004E0022302E0012300E00023FB737B6803
:104A500018331946FB7B0A4AD35C0B44BB60BB6826
:104A60001A68FB7B0749CB5C194608238B401A4325
:104A7000BB681A6000BF1437BD465DF8047B704701
:104A8000E0520208EC52020880B483B000AF7860B4
:104A900039607B689A68064B13403A681A437B6812
:104AA0009A6000BF0C37BD465DF8047B704700BFBD
:104AB000F8BFFEFF80B483B000AF786039607B68D8
:104AC0005B6823F070023B681A437B685A6000BF42
:104AD0000C37BD465DF8047B704780B483B000AFEF
:104AE000786039607B685B6823F470023B681A4326
:104AF0007B685A6000BF0C37BD465DF8047B704789
:104B000080B483B000AF78607B689B6823F080023C
:104B10007B689A6000BF0C37BD465DF8047B704728
:104B200080B483B000AF78607B681B6843F00102FB
:104B30007B681A6000BF0C37BD465DF8047B704788
:104B400080B483B000AF78607B681B6843F000528C
:104B50007B681A6000BF0C37BD465DF8047B704768
:104B600080B489B000AF786039607B680833FB603F
:104B7000FB6853E8003FBB60BB6823F060423B68C2
:104B80005B071343FB617B680833FA69BA617B6199
:104B90007969BA6941E800233B613B69002BE4D1A4
:104BA00000BF00BF2437BD465DF8047B704780B46A
:104BB00089B000AF786039607B680833FB60FB68C0
:104BC00053E8003FBB60BB6823F060623B685B0654
:104BD0001343FB617B680833FA69BA617B617969C9
:104BE000BA6941E800233B613B69002BE4D100BF77
:104BF00000BF2437BD465DF8047B704780B483B0A6
:104C000000AF786039607B681B6823F4F8123B685A
:104C10001B041A437B681A6000BF0C37BD465DF861
:104C2000047B704780B483B000AF786039607B68E4
:104C30001B6823F078723B685B051A437B681A6037
:104C400000BF0C37BD465DF8047B704780B483B06D
:104C500000AF78607B689B6843F480427B689A6011
:104C600000BF0C37BD465DF8047B704780B483B04D
:104C700000AF786039607B689B6823F400423B6832
:104C80001A437B689A6000BF0C37BD465DF8047B11
:104C9000704780B483B000AF78607B685B6823F4B2
:104CA00090427B685A607B689B6823F02A027B688D
:104CB0009A6000BF0C37BD465DF8047B704780B436
:104CC00083B000AF78607B68DB6903F40013B3F551
:104CD000001F01D1012300E0002318460C37BD4618
:104CE0005DF8047B704780B483B000AF78607B6868
:104CF000DB6903F48003B3F5800F01D1012300E0E9
:104D0000002318460C37BD465DF8047B704780B41D
:104D100083B000AF786039607B683A689A6100BF01
:104D20000C37BD465DF8047B704780B483B000AF9C
:104D3000786039603B681A047B689A6100BF0C3761
:104D4000BD465DF8047B704780B500AF01F0E8FD1B
:104D500000F02CF800F094F801F010FB01F004FBD7
:104D600000F0D2F800F092F900F006FA00F0FCFA38
:104D700000F0F2FB01F004F900F0ACFD00F04EFE93
:104D800000F0CAFC00F06EFD00F0ECFE00F078FFD1
:104D900001F01AF801F082F91AF058FA00F02CFD2F
:104DA00001F066FA0CF0D6FAFEE7000080B500AF1D
:104DB0000420FFF73BFD00BFFFF74CFD0346042B2B
:104DC000FAD10220FFF754FD4FF44040FFF764FD95
:104DD000FFF714F900BFFFF721F90346012BFAD1C1
:104DE0000220FFF70FFAFFF745FAFFF753FAFFF734
:104DF00061FA0120FFF784FA0020FFF76BFA082020
:104E0000FFF7ACFA4FF4F070FFF790FA0220FFF7CB
:104E1000BBFA0820FFF7CEFA0420FFF7E1FAFFF70C
:104E200005FA00BFFFF712FA0346012BFAD108205A
:104E3000FFF730F90320FFF705F90020FFF716F917
:104E40000820FFF727F94020FFF738F94FF480607A
:104E5000FFF748F94020FFF759F94020FFF76AF9BA
:104E6000064807F0A7FF002001F096FD0346002B3F
:104E700001D001F06BFB00BF80BD00BF00389C1C5F
:104E800080B500AFFFF7E6FA0120FFF709FB00202D
:104E9000FFF7F0FA0820FFF731FB8820FFF716FB39
:104EA0000820FFF741FB0420FFF754FB0220FFF727
:104EB00067FBFFF7ABFA00BFFFF7B8FA0346012B19
:104EC000FAD1FFF797FB0120FFF7BAFB0020FFF7AD
:104ED000A1FB0820FFF7E2FBC020FFF7C7FB022081
:104EE000FFF7F2FB0820FFF705FC0620FFF718FC90
:104EF000FFF75CFB00BFFFF769FB0346012BFAD10C
:104F000000BF00BF80BD000080B594B000AF07F1C6
:104F1000400300221A605A609A6007F128030022B9
:104F20001A605A609A60DA601A615A6107F11803D0
:104F300000221A605A609A60DA603B4600221A60CA
:104F40005A609A60DA601A615A610020FFF746F9E8
:104F50002020FFF7FBFB0420FFF714FC20233B601D
:104F600003237B6000233B613B461946404804F025
:104F70001DFE08233B640023BB6407F14003194670
:104F80003C4804F03FFC0023BB620023FB6200238B
:104F90003B634FF400537B634FF48053FB6307F193
:104FA00028031946334804F059FC00213148FEF724
:104FB0000DFE4FF48013BB610023FB6107F1180362
:104FC00019462D4804F0C6FB2A48FEF715FE29486D
:104FD000FEF724FE294B1B689B09294AA2FB0323E9
:104FE0009A0913469B0013445B001A46254BA3FB0A
:104FF0000223DB08FB6402E0FB6C013BFB64FB6CFF
:10500000002BF9D1204A06211A48FEF763FD04223D
:105010001D491848FEF78AFD40F2FF721A491548EB
:10502000FEF7B0FD18491348FEF721FD1148FEF7C1
:1050300009FE124B1B689B09114AA2FB03239A0924
:1050400013469B0013445B001A460E4BA3FB02233E
:10505000DB08FB6402E0FB6C013BFB64FB6C002B98
:10506000F9D10448FEF702FE00BF5037BD4680BDAF
:1050700000080258002002400023024014000024CF
:10508000632D3E05CDCCCCCC0001802180B58CB009
:1050900000AF07F1180300221A605A609A60DA60C4
:1050A0001A615A613B4600221A605A609A60DA60BF
:1050B0001A615A614FF00050FFF780FB0120FFF7A3
:1050C00061FB20233B6003237B6000233B613B4665
:1050D0001946254804F06AFD442202212348FEF7C0
:1050E000F9FE402202212148FEF7EAFD00220221BA
:1050F0001E48FEF7C9FE4FF4807202211B48FEF7DE
:1051000005FE002202211948FEF726FE4FF48062B8
:1051100002211648FEF746FE002202211348FEF740
:1051200067FE002202211148FEF788FE02210F4887
:10513000FEF700FF1C23BB610023FB6100237B62A1
:105140000023BB620023FB6207F118031A460849DB
:10515000084804F0ECFB06490648FEF79BFD00BF3B
:105160003037BD4680BD00BF000002580004024039
:10517000720040350074004080B590B000AF07F178
:1051800018032822002118461DF058F83B4600223B
:105190001A605A609A60DA601A615A616B48FFF7C8
:1051A00012F84FF48050FFF725FB0820FFF7EAFACA
:1051B0000220FFF7E7FA80233B6002237B60002395
:1051C000BB600023FB6000233B6105237B613B4602
:1051D00019465F4804F0EAFC18233B6002237B6019
:1051E0000023BB600023FB6000233B6105237B6140
:1051F0003B461946574804F0D9FC2522022156485F
:10520000FEF768FE002202215348FEF759FD0022F6
:1052100002215148FEF738FE002202214E48FEF7D7
:1052200075FD002202214C48FEF796FD4FF4806286
:1052300002214948FEF7B6FD002202214648FEF74A
:10524000D7FD002202214448FEF7F8FD0221424822
:10525000FEF770FE262203213F48FEF73BFE402268
:1052600003213D48FEF72CFD002203213A48FEF7BA
:105270000BFE002203213848FEF748FD00220321DF
:105280003548FEF769FD4FF4806203213248FEF78E
:1052900089FD002203213048FEF7AAFD00220321E8
:1052A0002D48FEF7CBFD03212B48FEF743FEFEF70A
:1052B00031FB0346002200211846FEF7A5FB0346FA
:1052C00019462320FEF776FB2320FEF731FB00234F
:1052D000BB614FF48003FB6107233B6200237B62C9
:1052E0000023BB624FF08063FB624FF0A0433B633F
:1052F00000237B630023BB630023FB6307F11803D8
:105300001946164805F0A4FB00211448FFF7E8FAF7
:105310001248FFF7F8FA0323002203210E48FEF794
:105320002BFE0F4A02210C48FEF74EFE0D4A0321C8
:105330000948FEF749FE2320FEF718FB0748FFF750
:10534000BFFA00BF4037BD4680BD00BF040C000758
:10535000000C0258000402580000024000300140D6
:10536000303001402030014080B590B000AF07F1EF
:1053700018032822002118461CF060FF3B4600223B
:105380001A605A609A60DA601A615A616B48FEF7D7
:105390001AFF4FF48040FFF711FA0420FFF7F2F9EB
:1053A0000220FFF7EFF906233B6002237B60002316
:1053B000BB600023FB6000233B6105237B613B4610
:1053C00019465F4804F0F2FB4FF400533B600223A0
:1053D0007B600023BB600023FB6000233B6105234F
:1053E0007B613B461946574804F0E0FB2722002129
:1053F0005548FEF76FFD002200215348FEF760FC80
:10540000002200215048FEF73FFD002200214E48B7
:10541000FEF77CFC002200214B48FEF79DFC4FF478
:10542000806200214848FEF7BDFC0022002146486A
:10543000FEF7DEFC002200214348FEF7FFFC0021BE
:105440004148FEF777FD282201213F48FEF742FD43
:10545000402201213C48FEF733FC002201213A485A
:10546000FEF712FD002201213748FEF74FFC002213
:1054700001213548FEF770FC4FF48062012132486B
:10548000FEF790FC002201212F48FEF7B1FC00221C
:1054900001212D48FEF7D2FC01212B48FEF74AFDE1
:1054A000FEF738FA0346002200211846FEF7ACFA50
:1054B000034619462420FEF77DFA2420FEF738FA29
:1054C0000023BB614FF48003FB6107233B62002391
:1054D0007B620023BB624FF08063FB624FF0A0430E
:1054E0003B6300237B630023BB630023FB6307F163
:1054F00018031946154805F0ABFA00211348FFF7C9
:10550000EFF91248FFF7FFF90323002201210E48AB
:10551000FEF732FD0E4A00210B48FEF755FD0D4AFD
:1055200001210948FEF750FD2420FEF71FFA074825
:10553000FFF7C6F900BF4037BD4680BD040C000729
:1055400000080258000402580000024000380040E1
:10555000303800402038004080B590B000AF07F1EF
:1055600018032822002118461CF068FE3B46002242
:105570001A605A609A60DA601A615A616048FEF7F0
:1055800022FE4FF40050FFF735F91020FFF7FAF82C
:105590004FF483533B6002237B600323BB600023F3
:1055A000FB6000233B6105237B613B461946554860
:1055B00004F0FCFA532204215348FEF78BFC00222E
:1055C00004215148FEF77CFB002204214E48FEF7DF
:1055D0005BFC002204214C48FEF798FB00220421CA
:1055E0004948FEF7B9FB4FF4806204214648FEF7B4
:1055F000D9FB002204214448FEF7FAFB00220421D3
:105600004148FEF71BFC04213F48FEF793FC54225F
:1056100005213D48FEF75EFC402205213A48FEF791
:105620004FFB002205213848FEF72EFC0022052101
:105630003548FEF76BFB002205213348FEF78CFB53
:105640004FF4806205213048FEF7ACFB00220521B3
:105650002D48FEF7CDFB002205212B48FEF7EEFB7F
:1056600005212948FEF766FCFEF754F9034600229F
:1056700000211846FEF7C8F9034619465420FEF7E4
:1056800099F95420FEF754F90023BB614FF48003CD
:10569000FB6107233B6200237B620023BB624FF068
:1056A0008063FB624FF000533B6300237B63002366
:1056B000BB630023FB6307F118031946134805F089
:1056C000C7F900211148FFF70BF91048FFF71BF944
:1056D0000323002205210C48FEF74EFC0C4A04214E
:1056E0000948FEF771FC0B4A05210748FEF76CFCE0
:1056F0005420FEF73BF900BF4037BD4680BD00BFD8
:10570000041000070010025800000240003401405D
:10571000303401402034014080B594B000AF07F12F
:105720003C0300221A605A609A60DA601A6107F13D
:105730001C032022002118461CF080FD3B1D002286
:105740001A605A609A60DA601A615A610220FFF7A3
:1057500035F84FF4F073BB8700233B644FF4FA73C2
:105760007B640023BB6407F13C031946204805F025
:105770007FFA1F48FFF7D7F800211D48FFF784F98B
:1057800010211B48FFF730F96023FB6100233B62C7
:1057900000237B620023BB620023FB6207F11C0332
:1057A0001A461021124805F0F7FA10211048FFF7A9
:1057B000CBF800210E48FFF77DF90D48FFF7A0F95F
:1057C0000120FEF7DFFF80237B600223BB60002304
:1057D000FB6000233B6100237B610223BB613B1D17
:1057E0001946044804F0E2F900BF5037BD4680BDB9
:1057F000000400400000025880B586B000AF3B1D99
:1058000000221A605A609A60DA601A610220FEF77C
:10581000F1FF0023BB800023BB6043F69823FB60AD
:1058200000233B6100237B613B1D19460C4805F0BA
:105830001FFA0B48FFF777F800210948FFF724F912
:1058400020210748FFF736F900210548FFF745F901
:105850000348FFF755F900BF1837BD4680BD00BFAC
:105860000004014080B586B000AF3B1D00221A60E5
:105870005A609A60DA601A614FF48020FEF7BAFF2E
:10588000FEF748F80346002200211846FEF7BCF850
:10589000034619467620FEF78DF87620FEF748F885
:1058A00045F6C053BB800023BB6044F62063FB6019
:1058B00000233B6100237B613B1D1946044805F032
:1058C000D7F90348FFF72FF800BF1837BD4680BD52
:1058D0000048014080B58EB000AF07F118032022C8
:1058E000002118461CF0AAFC3B4600221A605A60B0
:1058F0009A60DA601A615A614348FEF759FC4FF426
:105900000020FEF75BFF0220FEF73CFF0820FEF7B9
:1059100039FF4FF480433B6002237B600023BB6070
:105920000023FB6000233B6108237B613B46194653
:10593000364804F03BF903233B6002237B600023DD
:10594000BB600023FB6000233B6108237B613B4677
:1059500019462F4804F02AF9FDF7DCFF0346002220
:1059600000211846FEF750F8034619463420FEF78A
:1059700021F83420FDF7DCFF0023BB61254BFB61E0
:1059800000233B6200237B620023BB620C23FB628B
:1059900000233B6300237B6307F1180319461E486D
:1059A00005F0B4FD1C48FFF751F900211A48FFF734
:1059B0005DF901211848FFF735F901211648FFF775
:1059C0001DF91548FFF7BCF804211348FFF7C8F884
:1059D00001211148FFF7EBF80F48FFF75AF90E487D
:1059E000FFF79EF800BF0C48FFF769F90346002B4C
:1059F000F9D00948FFF777F90346002BF3D000BF31
:105A000000BF3837BD4680BD0800000700040258BB
:105A1000000C0258C0C62D00004C004080B58EB06E
:105A200000AF07F118032022002118461CF006FCE5
:105A30003B4600221A605A609A60DA601A615A6125
:105A40004348FEF7B5FB4FF48010FEF7B7FE042085
:105A5000FEF798FE0220FEF795FE4FF480733B6040
:105A600002237B600023BB600023FB6000233B61BB
:105A700008237B613B461946364804F097F86023BB
:105A80003B6002237B600023BB600023FB6000239C
:105A90003B610E237B613B4619462F4804F086F894
:105AA000FDF738FF0346002200211846FDF7ACFF42
:105AB000034619463520FDF77DFF3520FDF738FFF9
:105AC0000023BB61254BFB6100233B6200237B620B
:105AD0000023BB620C23FB6200233B6300237B6338
