:020000040800F2
:1000000000000220196B0008056800080B68000852
:1000100011680008176800081D680008000000004B
:10002000000000000000000000000000236800083D
:1000300031680008000000003F6800084D680008B3
:10004000696B0008696B0008696B0008696B000840
:10005000696B0008696B0008696B0008696B000830
:10006000696B0008696B0008696B0008696B000820
:10007000696B0008696B0008696B0008696B000810
:10008000696B0008696B0008696B0008696B000800
:10009000696B0008696B0008696B0008696B0008F0
:1000A000696B0008696B0008696B0008696B0008E0
:1000B000696B0008696B0008696B0008696B0008D0
:1000C000696B0008696B0008696B0008696B0008C0
:1000D000696B00085510000805100008710B010835
:1000E000696B0008696B000800000000696B00087C
:1000F000696B0008696B0008696B0008696B000890
:10010000696B0008696B0008696B0008696B00087F
:100110002D10000841100008696B0008696B000889
:10012000696B0008696B0008696B0008696B00085F
:10013000696B0008696B0008696B0008696B00084F
:1001400000000000000000000000000000000000AF
:10015000696B0008696B0008696B000839FD0008CD
:10016000696B0008696B0008696B0008696B00081F
:10017000696B0008696B0008696B000800000000EB
:10018000696B0008696B000819100008F10F00087E
:10019000696B0008696B0008696B0008696B0008EF
:1001A000696B0008696B0008696B0008696B0008DF
:1001B000696B0008696B0008696B0008696B0008CF
:1001C000696B0008696B0008696B0008696B0008BF
:1001D000696B000869680008696B0008696B0008B2
:1001E000696B0008696B0008696B0008696B00089F
:1001F000696B0008696B0008696B0008696B00088F
:10020000696B0008696B0008696B0008696B00087E
:10021000696B0008696B0008696B0008696B00086E
:10022000696B0008696B0008696B0008000000003A
:10023000696B0008696B000800000000696B00082A
:10024000696B0008696B0008696B0008696B00083E
:10025000696B0008696B0008696B0008696B00082E
:10026000696B0008696B0008696B0008696B00081E
:10027000696B0008696B0008696B000800000000EA
:10028000696B0008696B0008696B000800000000DA
:0802900000000000696B00088A
:1002A00010B5054C237833B9044B13B10448AFF3B0
:1002B00000800123237010BD2002002400000000F4
:1002C000C854020808B5034B1BB103490348AFF3F8
:1002D000008008BD0000000024020024C854020869
:1002E00001F0FF01102A2BDB10F0070F08D010F8E7
:1002F000013B013A8B422DD010F0070F42B3F6D1EB
:10030000F0B441EA012141EA014122F007047FF003
:1003100000070023F0E80256083C85EA010586EA5A
:10032000010685FA47F5A3FA87F586FA47F6A5FA96
:1003300087F68EB9EED1F0BC01F0FF0102F00702A2
:1003400032B110F8013B013A83EA010313B1F8D14D
:100350000020704701387047002D06BF354603382E
:10036000073815F0010F07D1013015F4807F02BF67
:10037000013015F4C03F0130F0BC0138704700BFB8
:1003800081F0004102E000BF83F0004330B54FEA46
:1003900041044FEA430594EA050F08BF90EA020FB3
:1003A0001FBF54EA000C55EA020C7FEA645C7FEA46
:1003B000655C00F0E2804FEA5454D4EB5555B8BF69
:1003C0006D420CDD2C4480EA020281EA030382EADA
:1003D000000083EA010180EA020281EA0303362D6C
:1003E00088BF30BD11F0004F4FEA01314FF4801C3F
:1003F0004CEA113102D0404261EB410113F0004F51
:100400004FEA03334CEA133302D0524263EB430307
:1004100094EA050F00F0A780A4F10104D5F1200EA5
:100420000DDB02FA0EFC22FA05F2801841F1000100
:1004300003FA0EF2801843FA05F359410EE0A5F1D4
:1004400020050EF1200E012A03FA0EFC28BF4CF005
:10045000020C43FA05F3C01851EBE37101F00045BB
:1004600007D54FF0000EDCF1000C7EEB00006EEBC8
:100470000101B1F5801F1BD3B1F5001F0CD3490852
:100480005FEA30004FEA3C0C04F101044FEA4452A9
:1004900012F5800F80F09A80BCF1004F08BF5FEA30
:1004A000500C50F1000041EB045141EA050130BD10
:1004B0005FEA4C0C404141EB0101013C28BFB1F522
:1004C000801FE9D291F0000F04BF01460020B1FA6D
:1004D00081F308BF2033A3F10B03B3F120020CDA40
:1004E0000C3208DD02F1140CC2F10C0201FA0CF01E
:1004F00021FA02F10CE002F11402D8BFC2F1200C83
:1005000001FA02F120FA0CFCDCBF41EA0C01904038
:10051000E41AA2BF01EB0451294330BD6FEA040481
:100520001F3C1CDA0C340EDC04F11404C4F120026C
:1005300020FA04F001FA02F340EA030021FA04F37E
:1005400045EA030130BDC4F10C04C4F1200220FAD5
:1005500002F001FA04F340EA0300294630BD21FA13
:1005600004F0294630BD94F0000F83F4801306BFD9
:1005700081F480110134013D4EE77FEA645C18BFCD
:100580007FEA655C29D094EA050F08BF90EA020F64
:1005900005D054EA000C04BF1946104630BD91EA5C
:1005A000030F1EBF0021002030BD5FEA545C05D15F
:1005B0004000494128BF41F0004130BD14F580049E
:1005C0003CBF01F5801130BD01F0004545F0FE4112
:1005D00041F470014FF0000030BD7FEA645C1ABF47
:1005E000194610467FEA655C1CBF0B46024650EA7E
:1005F000013406BF52EA033591EA030F41F40021AA
:1006000030BD00BF90F0000F04BF0021704730B52F
:100610004FF4806404F132044FF000054FF0000104
:1006200050E700BF90F0000F04BF0021704730B5C5
:100630004FF4806404F1320410F0004548BF40429A
:100640004FF000013EE700BF42004FEAE2014FEAEF
:1006500031014FEA02701FBF12F07F4393F07F4FCA
:1006600081F06051704732F07F4208BF704793F0CD
:100670007F4F04BF41F40021704730B54FF46074E0
:1006800001F0004521F000411CE700BF50EA0102E3
:1006900008BF704730B54FF000050AE050EA01028C
:1006A00008BF704730B511F0004502D5404261EBFC
:1006B00041014FF4806404F132045FEA915C3FF43D
:1006C000D8AE4FF003025FEADC0C18BF03325FEADA
:1006D000DC0C18BF033202EBDC02C2F1200300FA8B
:1006E00003FC20FA02F001FA03FE40EA0E0021FAB0
:1006F00002F11444BDE600BF53B94AB9002908BF4E
:1007000000281CBF4FF0FF314FF0FF3000F06EB9F2
:10071000ADF1080C6DE904CE00F006F8DDF804E058
:10072000DDE9022304B070472DE9F047089D044637
:100730008C46002B40F083808A42174647D9B2FA94
:1007400082F242B1C2F1200024FA00F091409740B9
:1007500040EA010C94404FEA1748230CBCFBF8F622
:100760001FFA87FE08FB16C143EA014306FB0EF1A0
:10077000994209D9FB1806F1FF3080F0198199429E
:1007800040F21681023E3B445B1AA4B2B3FBF8F080
:1007900008FB103344EA034400FB0EFEA64509D9CA
:1007A0003C1900F1FF3380F00581A64540F202813B
:1007B00002383C4440EA0640A4EB0E0400261DB17A
:1007C000D4400023C5E900433146BDE8F08702B9B3
:1007D000FFDEB2FA82F2002A50D1CB1B4FEA174E4D
:1007E0001FFA87F80126B3FBFEFC210C0EFB1C331D
:1007F00041EA034108FB0CF38B4207D979180CF14D
:10080000FF3002D28B4200F2E9808446C91AA3B2BB
:10081000B1FBFEF00EFB101143EA014408FB00F8A7
:10082000A04507D93C1900F1FF3302D2A04500F2E0
:10083000D9801846A4EB080440EA0C40BFE78B427D
:1008400009D9002D00F0B1800026C5E9000130462D
:100850003146BDE8F087B3FA83F6002E4AD18B42C9
:1008600002D3824200F2B880841A61EB03010120B6
:100870008C46002DA8D0C5E9004CA5E7C2F12003A5
:1008800020FA03F6974001FA02F04FEA174ED940DA
:100890003043030CB1FBFEF61FFA87F80EFB16116E
:1008A00043EA014306FB08F1994204FA02F409D92C
:1008B000FB1806F1FF3C80F08D80994240F28A805F
:1008C000023E3B445B1A81B2B3FBFEF00EFB1033D9
:1008D00041EA034100FB08F38B4207D9791800F184
:1008E000FF3C73D28B4271D902383944CB1A40EAAB
:1008F000064678E7C6F1200C03FA06F422FA0CF358
:100900001C4320FA0CF701FA06F34FEA144E21FAC1
:100910000CF11F433B0CB1FBFEF91FFA84F80EFBF0
:10092000191143EA014109FB08FA8A4502FA06F265
:1009300000FA06F308D9611809F1FF3048D28A4558
:1009400046D9A9F102092144A1EB0A01BFB2B1FBCA
:10095000FEF00EFB101147EA014700FB08F8B8450E
:1009600007D9E71900F1FF312ED2B8452CD902384A
:10097000274440EA0940A7EB0807A0FB02894F453E
:10098000C64649461AD317D05DB1B3EB0E0267EBEA
:10099000010707FA0CFCF2404CEA0202F740C5E9F5
:1009A000002700263146BDE8F0872E4628460BE793
:1009B0000646E9E61846FDE64345E5D2B8EB020EE9
:1009C00069EB04010138DFE70846D2E760468DE7AE
:1009D0008146B9E7664675E730464AE7ACF1020C56
:1009E000394413E702383C4424E700BF704700BF96
:1009F00080B582B000AF7860786800F005F87B6859
:100A000018460837BD4680BD80B485B000AF786019
:100A10007A684AF21003134400221A607A684AF294
:100A2000100313441A6879684AF214030B441A60DD
:100A30000023FB60FB68032B08DC7B68FA6800215D
:100A400043F82210FB680133FB60F3E700BF143763
:100A5000BD465DF8047B704780B582B000AF78601A
:100A600039607B68012B07D13B684FF6FF729342D8
:100A700002D10348FFF7BCFF00BF0837BD4680BD69
:100A80003C02002480B500AF4FF6FF710120FFF754
:100A9000E3FF80BD80B483B000AF786039607B68CD
:100AA0005B683A6813443B607B681A687B689B68A4
:100AB0003968994204DB7B689B683968CB1A00E08F
:100AC0003B6813441B7818460C37BD465DF8047B21
:100AD000704780B582B000AF786000217868FFF77A
:100AE000D9FF034618460837BD4680BD80B483B0A1
:100AF00000AF7860044A7B681A607B6818460C3740
:100B0000BD465DF8047B70475C55020880B582B035
:100B100000AF78607868FFF7E9FF0421786821F07A
:100B200029FA7B6818460837BD4680BD80B483B07B
:100B300000AF78607B6815221A6000BF0C37BD4695
:100B40005DF8047B704780B485B000AFF860B96091
:100B50007A60FB68BA68DA60FB687A681A61FB68D9
:100B600000225A6100BF1437BD465DF8047B704710
:100B700080B586B002AFF860B9607A603B603B68D0
:100B800000937B68BA680449F86802F008FA00BF6D
:100B90001037BD4680BD00BF6C65020880B586B0C9
:100BA00002AFF860B9607A603B603B6800937B6895
:100BB000BA680449F86802F0F2F900BF1037BD4680
:100BC00080BD00BF6855020880B483B000AF786074
:100BD0007B681B68002B0CBF01230023DBB2184687
:100BE0000C37BD465DF8047B704780B483B000AF1E
:100BF00078607B681B68012B03D07B681B68022B25
:100C000001D1012300E0002318460C37BD465DF8F2
:100C1000047B704780B483B000AF78607B685B680A
:100C200018460C37BD465DF8047B704780B483B02E
:100C300000AF78607B689B6818460C37BD465DF84E
:100C4000047B704780B483B000AF786039607A6805
:100C50003B6802339B0013445B6818460C37BD4663
:100C60005DF8047B704780B483B000AF78607B6828
:100C70001B6918460C37BD465DF8047B704780B48D
:100C800083B000AF78607B689B6818460C37BD4620
:100C90005DF8047B704780B483B000AF78607B68F8
:100CA000DB6818460C37BD465DF8047B704780B49E
:100CB00083B000AF78607B681B6918460C37BD466F
:100CC0005DF8047B704780B584B000AFF860B96010
:100CD0007A603B60FB681B69002B36DB3B68B3F135
:100CE000FF3F32D03B68002B03D1FB6800221A6122
:100CF0002CE03B68012B03D1FB6801221A6125E03F
:100D00003B68022B05D17A68B968F86800F021F8D1
:100D10001CE03B68032B05D17A68B968F86800F0DD
:100D200034F813E03B68042B05D17A68B968F86899
:100D300000F048F80AE03B68052B07D16FF000424D
:100D40000021F86800F03EF800E000BF1037BD4613
:100D500080BD80B485B000AFF860B9607A60FB6890
:100D60001B69002B0BDBFB68BA685A61FB687A6869
:100D70009A61FB680022DA61FB6802221A6100BFF7
:100D80001437BD465DF8047B704780B485B000AF72
:100D9000F860B9607A60FB681B69002B0CDBFB68AC
:100DA000BA685A61FB687A689A61FB689A68FB685E
:100DB000DA61FB6802221A6100BF1437BD465DF894
:100DC000047B704780B485B000AFF860B9607A608A
:100DD000FB681B69002B08DBFB68BA685A61FB687B
:100DE0007A689A61FB6803221A6100BF1437BD4616
:100DF0005DF8047B704780B483B000AF78607B6897
:100E00001B69002B01DC00232FE07B681B69012B91
:100E100001DC012329E07B681B69022B15DC7B6860
:100E20001A687B685B699A4205DB7B681A687B6895
:100E30009B699A4205DD7B689A687B68DB699A4208
:100E400001DA012311E000230FE07B681A687B6858
:100E50005B699A4205DB7B681A687B689B699A42EA
:100E600001DD012300E0002300BF18460C37BD461A
:100E70005DF8047B704780B582B000AF78607B6816
:100E80001B69012B02DC7B681B6909E07868FFF7AE
:100E9000B2FF0346002B01D0012300E0042300BF72
:100EA00018460837BD4680BD80B483B000AF786077
:100EB0007B6803F5C05318460C37BD465DF8047BCC
:100EC0007047000080B483B000AF786039607A6802
:100ED000054B13443A685201134418460C37BD467B
:100EE0005DF8047B704700BFA4AE010080B483B0FE
:100EF00000AF78607A6842F60403134418460C3752
:100F0000BD465DF8047B704780B483B000AF786065
:100F1000044B1A687B68134418460C37BD465DF8CD
:100F2000047B70474807032480B483B000AF786027
:100F3000064B1A687B68D31ADB43DB0FDBB218461B
:100F40000C37BD465DF8047B704700BF480703249B
:100F500080B483B000AF78607B681B6C9BB218468E
:100F60000C37BD465DF8047B704780B483B000AF9A
:100F700078607B689A6A7B685B6A9A42B4BF012397
:100F80000023DBB218460C37BD465DF8047B704782
:100F900080B483B000AF78607B681B6818460C375C
:100FA000BD465DF8047B704780B483B000AF7860C5
:100FB0007B685B6818460C37BD465DF8047B70475C
:100FC00080B483B000AF78607B689B6818460C37AC
:100FD000BD465DF8047B704780B400AF034B1B68CF
:100FE0001846BD465DF8047B704700BF1CDF022435
:100FF00080B500AF024812F029F900BF80BD00BFE4
:10100000DC6B022480B500AF024812F01FF900BF6C
:1010100080BD00BF946E022480B500AF024812F07C
:1010200015F900BF80BD00BF4C71022480B500AF30
:10103000024812F00BF900BF80BD00BF0474022407
:1010400080B500AF024812F001F900BF80BD00BFBB
:10105000BC76022480B500AF024812F02DFF00BF1D
:1010600080BD00BF7479022480B500AF034812F040
:10107000FDFE00F035F800BF80BD00BF747902248A
:1010800080B500AF0548FFF70FFF02464FF48053CD
:10109000FF21034815F017F800BF80BDA4A300246A
:1010A00078E8022480B500AF0648FFF7FDFE02464F
:1010B0004FF480534FF47F21034814F0DEFF00BF4C
:1010C00080BD00BFA4A3002478E8022480B500AF4F
:1010D0000021024815F05AF800BF80BD78E80224CC
:1010E00080B588B000AF624B624A1A600023FB6192
:1010F000FB69042B0ADC604AFB6952F8233018466E
:1011000011F0A3FFFB690133FB61F1E75B481BF0C2
:10111000DDF95A481BF000FAFFF7C4FF4FF40063F3
:10112000574A0021574814F0A8FF3B1D5449184660
:1011300013F046FD3B1D1946534801F043FD534B48
:1011400000221A60514B1B68514A13600023BB6197
:10115000BB69272B66DCBB694FF41C7202FB03F3EF
:101160000833494A134404331846FFF753FD3861E6
:1011700004223969002001F0D7FB0346002B4DD033
:10118000BB694FF41C7202FB03F308333E4A13445D
:1011900004331846FFF718FD034683F00103DBB262
:1011A000002B3BD0344A3B6952F82320BB694FF4F3
:1011B0001C7101FB03F337490B441946104611F02B
:1011C0008DFFBB694FF41C7202FB03F3314A1A44D2
:1011D0002F4B1B68591C2E4801602F4941F82320D2
:1011E000BB694FF41C7202FB03F30833264A134415
:1011F00004331846FFF7F9FC0346002B0ED0BB69F9
:101200004FF41C7202FB03F3224A1A441F4B1B6863
:10121000591C1E480160214941F82320BB69013354
:10122000BB6195E700F040F800237B61174B1B681A
:101230007A699A420ADA194A7B6952F823301846C9
:1012400001F030FE7B6901337B61EFE71448FFF763
:10125000DBFB144811F031F9002000F091F83B1D40
:10126000184601F04BFC00BF2037BD4680BD00BFD3
:10127000D46B02240115000800000024A4A300245C
:10128000D45B022478E802247879022498A300240D
:1012900094A300248479022454A20024F4A20024FC
:1012A0003C0200242453022480B582B000AF002306
:1012B0007B607B68272B12DC7B684FF41C7202FB7F
:1012C00003F30833084A1344181D0023002247F68D
:1012D000FF71FFF74DFC7B6801337B60E9E700BFDE
:1012E0000837BD4680BD00BF7879022480B582B042
:1012F00000AF00F01DF800237B607B68272B11DC1A
:101300007B684FF41C7202FB03F30833074A134453
:10131000181D002332220021FFF72AFC7B680133CD
:101320007B60EAE700BF0837BD4680BD78790224BC
:1013300080B582B000AF00237B600D4B1B687A68DC
:101340009A420ADA0B4A7B6852F82330184602F0B8
:10135000A3F87B6801337B60EFE707481BF0B6F822
:10136000064B41221A6000BF0837BD4680BD00BF52
:1013700098A30024F4A20024A4A30024A0A3002482
:1013800090B583B000AF78607B68B3F1FF3F74D055
:101390007B68B3F1FF3F37DB7B68452B34DC7B6830
:1013A000412B31DB7B68413B042B2DD801A252F845
:1013B00023F000BFC9130008CF130008D913000899
:1013C000E3130008F5130008FFF7B2FF56E0012110
:1013D0002C481BF0D7F851E000212A481BF0D2F826
:1013E0004CE0284A284B13444FF0FF321A60FFF7B5
:1013F0007DFF43E0234A244B134400221A60FFF789
:1014000097FFFFF751FF39E07B68002B36DB7B68E5
:101410003F2B33DC1D4A7B681360FFF789FF1C4AB2
:101420007B6803F63143DB0013449B68002B25DD0A
:10143000174A7B6803F63143DB0013449B68154A67
:1014400093421BDC124A7B6803F63143DB001344F2
:101450005C680C48FFF74AFD02460D497B6803F6BD
:101460003143DB000B449B6821460B4814F005FE1A
:10147000012104481BF086F800E000BF00BF0C37D4
:10148000BD4690BDA4A300245CAF0100A0A300242E
:10149000787902249F86010078E8022480B582B022
:1014A00000AF786039603B68002B06DD3A680021A8
:1014B00004481BF0E7FB034600E00023184608370A
:1014C000BD4680BDA4A3002480B582B000AF786083
:1014D00079680020FFF7E2FF034618460837BD464B
:1014E00080BD000080B483B000AF7860034B184625
:1014F0000C37BD465DF8047B704700BFC914000877
:1015000080B584B000AF0023FB60FB68042B0ADCCD
:10151000244AFB6852F82330184611F0F7FDFB68A7
:101520000133FB60F1E72049204811F01EF8002349
:10153000BB601F4B1B68BA689A420ADA1D4ABB6837
:1015400052F82330184601F0ADFCBB680133BB6094
:10155000EFE70121144817F0B1FD134A164B13446D
:101560001B68002B0DDB104A134B13441B681846F5
:10157000FFF706FF0C4A104B13444FF0FF321A607E
:101580000CE00949094811F040F83B1D1846FFF7E7
:10159000A9FF03461946094801F0DDF900BF1037DD
:1015A000BD4680BD00000024A4A3002424530224CF
:1015B00098A30024F4A2002428AF01003C020024D8
:1015C00080B485B000AF786039600023FB60FB68B1
:1015D000272B11DCFB684FF41C7202FB03F30C4A4F
:1015E00013447A689A4203D10A4AFB68136003E005
:1015F000FB680133FB60EAE7074A3B681360074B6F
:10160000074A1A6000BF1437BD465DF8047B704777
:1016100084790224D05B0224CC5B0224D46B0224A4
:10162000C51A000880B586B000AF786000237B61E2
:101630007B69042B0ADC204A7B6952F82330184668
:1016400011F064FD7B6901337B61F1E77868FFF796
:101650005BFC78607868FFF767FC034683F0010362
:10166000DBB2002B23D00123FB740023FB60FB685B
:10167000042B14DCFB7C83F00103DBB2002B0ED1C6
:101680000D4AFB6852F823301846FFF76EFC0346FC
:1016900083F00103FB74FB680133FB60E7E7FB7C2D
:1016A000002B03D1012013F029FAD3E700BF00BFBC
:1016B0001837BD4680BD00BF0000002480B584B04F
:1016C00000AF786039600023FB600C4B1B68FA6840
:1016D0009A420CDA0A4AFB6852F823303A68796871
:1016E0001846FFF730FAFB680133FB60EDE7042092
:1016F000FFF798FF00BF1037BD4680BD94A30024BC
:1017000054A2002480B590B000AF0023FB63FB6BB4
:10171000092B36DC00210020FFF7D0FF012387F8DA
:101720003B3000237B63994B1B687A6B9A421CDA2F
:1017300097F83B3083F00103DBB2002B15D1944ABC
:101740007B6B52F8233002211846FFF77BFA0346E1
:101750009BB240F2947293420CBF0123002387F89E
:101760003B307B6B01337B63DDE797F83B30002B2D
:1017700006D10A2013F0C2F9FB6B0133FB63C6E705
:1017800000BFFB6B092B26DD00233B637F4B1B68EF
:101790003A6B9A421FDA7E4A3B6B52F823300221A1
:1017A0001846FFF74FFA03469BB240F294729342F9
:1017B00014BF01230023DBB2002B08D0744A3B6B1B
:1017C00052F8233001211846FFF7FAFE6EE13B6B19
:1017D00001333B63DAE76F4B1B6801336D4A1360DB
:1017E0000023FB63FB6B012B3BDC00210E20FFF78A
:1017F00065FF40F6B83013F081F900210020FFF7B3
:101800005DFF012387F82F300023BB625F4B1B680D
:10181000BA6A9A421CDA97F82F3083F00103DBB2E0
:10182000002B15D15A4ABB6A52F8233002211846C0
:10183000FFF708FA03469BB240F2947293420CBF42
:101840000123002387F82F30BB6A0133BB62DDE739
:1018500097F82F30002B03D1FB6B0133FB63C1E7FB
:1018600000BFFB6B012B26DD00237B62474B1B680F
:101870007A6A9A421FDA464A7B6A52F8233002217A
:101880001846FFF7DFF903469BB240F29472934289
:1018900014BF01230023DBB2002B08D03C4A7B6A33
:1018A00052F8233002211846FFF78AFEFEE07B6AD9
:1018B00001337B62DAE7374B1B680133354A13602B
:1018C00000233B623B6A042B0CDC334A3B6A52F830
:1018D000233044F62061184611F0F0FB3B6A0133D7
:1018E0003B62EFE72D4B1B682D4A82FB03121A4423
:1018F000D211DB17D31AFB61FB69002B01DC01233A
:10190000FB61284B1A68254B1B689A4280F2C48001
:10191000244B1B689B00BB602348FFF7E7FA786005
:10192000BB687A6813441B781946BB6801337A6830
:1019300013441B781B0241EA0302BB680233796837
:101940000B441B781B041A43BB68033379680B44B0
:101950001B781B0613433B60144B1B68BA68134487
:10196000BB600023BB61094B1B68BA699A421FDA4E
:10197000074ABB6952F823303A68B9681846FFF73E
:10198000E2F8BB690133BB61EDE700BF94A300241B
:1019900054A20024C85B022400000024C45B02247B
:1019A00009040281C05B0224A4A30024BC5B0224BE
:1019B0000023FB63FB6B092B36DC4FF47A70FFF7D7
:1019C00031FE0123FB7500233B613A4B1B683A69EA
:1019D0009A421EDA384A3B6952F8233000211846F1
:1019E000FFF730F90346002B14BF01230023DBB2BD
:1019F000002B0AD0304A3B6952F823303A68B96864
:101A00001846FFF7A0F80023FB753B6901333B61E3
:101A1000DBE7FB7D002B06D11E2013F06FF8FB6B7C
:101A20000133FB63C6E700BFFB6B092B23DD0023FB
:101A3000FB60204B1B68FA689A421CDA1E4AFB685E
:101A400052F8233000211846FFF7FCF80346002B1C
:101A500014BF01230023DBB2002B08D0164AFB6819
:101A600052F82330B9681846FFF7AAFD1EE0FB685C
:101A70000133FB60DDE7114B1B6801330F4A136034
:101A80000E4B1A68FB6992FBF3F302330C4A1360A6
:101A9000012013F033F834E700210A20FFF70EFE8F
:101AA000FFF71EFB064B40F201121A604037BD469D
:101AB00080BD00BF94A3002454A20024C05B022474
:101AC000C85B022480B400AF00BFBD465DF8047B54
:101AD0007047000080B586B000AF786039600023A1
:101AE0007B617B69072B60DC3A687B6942FA03F310
:101AF00003F00103002B54D07A687B6913443B61E7
:101B00003B694FF41C7202FB03F30833294A134468
:101B100004331846FFF77EF8F8600422F9680020C5
:101B200000F002FF0346002B3BD03B694FF41C72D0
:101B300002FB03F308331F4A134404331846FFF72C
:101B400043F8034683F00103DBB2002B29D03B6945
:101B50004FF41C7202FB03F30833164A1344043398
:101B60001846FEF7E3FF144AFB6852F823203B694E
:101B70004FF41C7101FB03F310490B441946104646
:101B800011F0ACFA3B694FF41C7202FB03F30B4AF1
:101B90001A440B4B1B68591C09480160094941F85C
:101BA00023207B6901337B619BE700BF1837BD466B
:101BB00080BD00BF787902240000002484790224CB
:101BC00094A3002454A2002480B586B000AFF8602E
:101BD000B9607A603B6000237B617B69042B0ADC7F
:101BE0001C4A7B6952F82330184611F02EFA7B69A3
:101BF00001337B61F1E718481AF068FC174B0022AB
:101C00001A60F9680020FFF765FFB9680820FFF740
:101C100061FF79681020FFF75DFF39681820FFF732
:101C200059FF396A2020FFF755FF0D4B00221A603B
:101C30000B4B1B680B4A13600B4B00221A600A4BBC
:101C40001B680A4A13600A4B0A4A1A6000BF183719
:101C5000BD4680BD00000024A4A3002494A300245A
:101C6000CC5B0224D05B0224C85B0224C05B02244C
:101C7000D46B02240517000890B5B1B002AF7860AC
:101C800039607868FEF725FF0346413B352B00F2AB
:101C9000668401A252F823F037220008E9240008E4
:101CA000C91E00085F250008B51E0008651E000853
:101CB000352300085F250008711D00085F25000816
:101CC0005F250008D92300084D2400085F2500087F
:101CD0005F250008E52000085F250008692300084B
:101CE000351F0008751F0008E1220008B92100080F
:101CF0005F2500085F2500085F2500085F250008B4
:101D00005F2500085F2500085F2500085F250008A3
:101D10005F2500085F2500085F2500085F25000893
:101D20005F250008C11D00085F2500085F25000829
:101D30005F2500085F2500085F2500085F25000873
:101D40005F2500085F2500085F2500085F25000863
:101D50005F2500085F2500085F2500085F25000853
:101D60005F2500085F2500085F250008F3210008B3
:101D7000692138680CF0FCFE2022764938680CF0A6
:101D8000A1FEA52138680CF06BFE734B5B68194609
:101D900038680CF078FE704B9B68194638680CF078
:101DA00072FEFFF719F90346194638680CF06BFE0E
:101DB000012138680CF054FE38680CF0F4FED5E3CD
:101DC00078680DF0F9F8C7F8B400D7F8B430634A72
:101DD00012685A40624B1340002B05D0D7F8B4204C
:101DE0005F4B13405D4A1360D7F8B430C3F30B0365
:101DF000C7F8B4300023C7F8B030D7F8B0301F2B85
:101E000011DC78680DF058F80346D9B2D7F8B43031
:101E10005A1CC7F8B420534AD154D7F8B030013314
:101E2000C7F8B030E9E7D7F8B430C3F30B03002BA1
:101E300008D14A4B1B6819134FF48053494A4A484A
:101E400014F041F94F2138680CF092FE38680CF01C
:101E5000AAFE424B1B681B13FF2B40F08483FFF745
:101E60003FF980E378680DF0A7F8F8610023C7F820
:101E7000AC30D7F8AC301F2B10DC78680DF01CF8B4
:101E80000346D9B2374AD7F8AC3013440A461A7021
:101E9000D7F8AC300133C7F8AC30EAE73149F8691C
:101EA00012F0C8FB662138680CF062FE38680CF04E
:101EB0007AFE5BE312F09EFB652138680CF058FE59
:101EC00038680CF070FE51E378680DF075F8B86171
:101ED000BB69002B01D1FFF72BFABB69002B21DB7B
:101EE000BB69224A93421DDC2148FEF7FFFF0246F0
:101EF000BB6913447B610023C7F8A830D7F8A8302A
:101F00001F2B0FDC78680CF0D7FF0146D7F8A830FC
:101F10007A691344CAB21A70D7F8A8300133C7F8E7
:101F2000A830EBE7732138680CF022FE38680CF01B
:101F30003AFE1BE378680CF0BFFF7864786CFFF71B
:101F40001FFA732138680CF013FE38680CF02BFE72
:101F50000CE300BF34550208787902249CA30024C6
:101F600000F0FFFFD45B022478E802247F860100A2
:101F7000A4A3002478680CF09FFF0346272219468B
:101F8000002000F028FDF86678680DF006F803469A
:101F900040F6E8421946002000F01DFDB86678685A
:101FA0000CF0FBFF034640F6E8421946002000F023
:101FB00012FD786678680CF0FFFF386678680CF0E0
:101FC0007BFF034603221946002000F004FDF8655C
:101FD00078680CF0F1FF0346BC4A1946002000F077
:101FE000FAFCB86578680CF0E7FF0346B74A194673
:101FF000002000F0F0FC786578680CF05DFF386533
:10200000F96DB348FEF75EFFF8643B6D7A6DB96D0C
:10201000F86CFEF758FE7B6E002B05D03B6E7A6E97
:10202000F96CAB481AF046FBFB6E4FF41C7202FBD6
:1020300003F30833A74A13440433BB64742138689C
:102040000CF096FDF96E38680CF079FC0021B86C44
:10205000FEF7F8FD0346194638680CF001FD012132
:10206000B86CFEF7EFFD0346194638680CF0F8FC33
:102070000221B86CFEF7E6FD0346194638680CF0FD
:10208000EFFCB86C01F034FA0346194638680CF0DE
:1020900056FCB96E38680CF0E3FCBB6E002B06DD15
:1020A000BA6E00218A481AF0EDFD034600E00023D5
:1020B000194638680CF0E7FCF96D38680CF03FFC05
:1020C000FB6C1B68194638680CF0DDFCF86CFEF7F9
:1020D000D2FE0346194638680CF031FC38680CF023
:1020E00062FD43E278680CF0E7FE034604221946DD
:1020F000002000F070FC7863774A7B6B52F8233045
:102100003B63502138680CF033FD796B38680CF074
:1021100016FC3B6B4833184601F0B3FB03461946E7
:1021200038680CF00CFC3B6B48331846FEF7A7FDF3
:102130000346194638680CF002FC3B6B48331846DE
:10214000FEF7A9FD0346194638680CF089FC3B6B85
:1021500048331846FEF7ABFD0346194638680CF0C5
:1021600092FC38680CF01FFD78680CF0A5FEF86250
:10217000FB6A032B40F3F98178680CF09DFEB8628E
:1021800078680CF00AFF7862FB6A042B07D13B6B7E
:1021900048337A6AB96A184601F05EFBE5E13B6BA9
:1021A00003F1480478680CF007FF03467A6AB96ABD
:1021B000204601F038FBD8E178680CF0EEFEC7F855
:1021C0008800D7F8880000F0E7F9C7F88400762186
:1021D00038680CF0CDFCD7F8881038680CF040FC5B
:1021E000D7F8841038680CF04EFC38680CF0DBFC33
:1021F000BCE178680CF0D1FEC7F8900078680CF06C
:10220000DBFEC7F88C00D7F88C10D7F8900000F0F0
:102210004BFA762138680CF0ABFCD7F89010386890
:102220000CF01EFCD7F88C1038680CF02CFC3868C9
:102230000CF0B9FC9AE178680CF0AFFEF86061210F
:1022400038680CF095FCF96838680CF009FC2348F4
:1022500000F0DAFB0346194638680CF001FC002355
:10226000C7F8A430D7F8A430032B2ADC0023C7F822
:10227000A0301A4800F0D7FB0246D7F8A0309342AE
:10228000B4BF01230023DBB2002B14D0FA68D7F8C7
:10229000A43013441A46D7F8A010104800F0CEFB23
:1022A0000346194638680CF0DBFBD7F8A030013341
:1022B000C7F8A030DDE7D7F8A4300133C7F8A43061
:1022C000D0E738680CF06FFC50E100BF9F8601003A
:1022D000A4A3002478790224000000243C020024F6
:1022E00078680CF0A9FDC7F8800078680CF0A4FDB0
:1022F000F86778680CF0A0FDB86778680CF09CFD72
:10230000786778680CF098FD386778680CF054FEB0
:102310000346984A136078680CF04EFE0346964ACE
:1023200013603B6F00937B6FBA6FF96FD7F8800033
:10233000FFF74AFC752138680CF01AFC8F4B1B68BC
:10234000194638680CF0FBFA8D4B1B681946386843
:102350000CF099FB8B4B1B68194638680CF080FB1E
:1023600038680CF020FC01E178680CF065FD03464C
:1023700087F84330844B1B7897F843209A422BD040
:10238000814A97F8433013700023C7F89C30D7F880
:102390009C30182B20DC78680CF0FFFDF863D7F830
:1023A0009C304FF41C7202FB03F30833774A13444A
:1023B0000433BB63B86BFEF718FC0346002B05D053
:1023C00000230322F96BB86BFEF7E8FBD7F89C30CB
:1023D0000133C7F89C30DAE7722138680CF0C8FB8B
:1023E000012200216A481AF04DFC0346194638685C
:1023F0000CF0A5FA0023C7F89830D7F89830182BBE
:1024000020DCD7F898304FF41C7202FB03F308333A
:102410005E4A134404333B62386AFEF7E6FB034628
:10242000002B04D0386AFEF71EFC034600E00023B0
:10243000194638680CF014FBD7F898300133C7F808
:102440009830DAE738680CF0AEFB8FE06D21386821
:102450000CF08EFB4F4BB3F95430194638680CF032
:10246000FFFA4C4BB3F95630194638680CF0F8FABD
:10247000484BB3F95830194638680CF0F1FA454B1F
:10248000B3F95031194638680CF0EAFA414BB3F908
:102490005231194638680CF0E3FA3E4BB3F9543127
:1024A000194638680CF0DCFA3A4BB3F94430194657
:1024B00038680CF0D5FA374BB3F94630194638680E
:1024C0000CF0CEFA334BB3F94830194638680CF0AB
:1024D000C7FA304BB3F94A30194638680CF0C0FAE5
:1024E00038680CF060FB41E0622138680CF040FB7A
:1024F0000122002126481AF0C5FB03461946386818
:102500000CF01DFA0023C7F89430D7F89430182B3C
:1025100021DCD7F894304FF41C7202FB03F308332C
:102520001A4A134404333B613869FEF75EFB0346E5
:10253000002B05D002213869FEF784FB034600E03A
:102540000023194638680CF08BFAD7F89430013321
:10255000C7F89430D9E738680CF025FB06E03868F6
:102560000CF0F3FA02E000BF00E000BF00BFBC3790
:10257000BD4690BDBC5B0224C45B0224D05B022438
:10258000CC5B0224C85B0224D86B02247879022435
:10259000A4A3002418EA022480B582B000AF7860BA
:1025A0007B68632B11DD7B688B2B0EDC7B68643BC7
:1025B0004FF41C7202FB03F30833384A134404330C
:1025C0001846FEF750FB034664E07B68132B60D887
:1025D00001A252F823F000BF292600089326000824
:1025E0002D2600089326000893260008932600084D
:1025F00093260008932600089326000893260008D7
:1026000037260008412600084B26000855260008FA
:102610005D260008632600086B2600087326000864
:102620007B26000883260008A52333E01C48FEF71C
:102630008FFC03462EE01B48FEF7AAFC034629E068
:102640001848FEF7B1FC034624E01648FEF7B8FC34
:1026500003461FE0134B93F860301BE0114B1B6DDA
:1026600018E0104BB3F9443014E00E4BB3F9463088
:1026700010E00C4BB3F948300CE00A4BB3F94A3088
:1026800008E0084BD3ED107AFDEEE77A17EE903AAA
:1026900000E0002318460837BD4680BD7879022443
:1026A0000020024018EA022480B483B000AF7860B2
:1026B000396000BF0C37BD465DF8047B70470000F1
:1026C00080B582B000AF78607A68002103481AF0C4
:1026D000D9FA034618460837BD4680BDA4A3002496
:1026E00090B585B000AF786039607B68002B11DB56
:1026F0007B68272B0EDC7B684FF41C7202FB03F314
:102700000833214A134404331846FEF75DFA0346A2
:10271000002B01D0012300E00023002B01D0002377
:102720002DE07B684FF41C7202FB03F30833164A5A
:10273000134404331846FEF76DFAF860FB68002B6B
:1027400002DBFB68042B01DD002318E00F4AFB6865
:1027500052F8233003F148047B684FF41C7202FBEB
:1027600003F30833084A134404331846FEF75EFAAD
:1027700003463A681946204601F06EF801231846D0
:102780001437BD4690BD00BF7879022400000024B4
:1027900090B587B000AFF860B9607A60FB68002B35
:1027A00011DBFB68272B0EDCFB684FF41C7202FB6D
:1027B00003F30833204A134404331846FEF704FA9F
:1027C0000346002B01D0012300E00023002B01D0A1
:1027D00000232DE0FB684FF41C7202FB03F3083367
:1027E000154A134404331846FEF714FA78617B69DE
:1027F000002B02DB7B69042B01DD002318E00F4A6C
:102800007B6952F8233003F14804FB684FF41C72D3
:1028100002FB03F30833084A134404331846FEF757
:1028200005FA01467B68BA68204600F0FCFF0123E8
:1028300018461C37BD4690BD78790224000000245C
:1028400090B587B000AFF860B9607A60FB68002B84
:1028500011DBFB68272B0EDCFB684FF41C7202FBBC
:1028600003F308332E4A134404331846FEF7ACF939
:102870000346002B01D0012300E00023002B01D0F0
:10288000002348E0FB684FF41C7202FB03F308339B
:10289000234A134404331846FEF7BCF978617B6978
:1028A000002B02DB7B69042B01DD002333E01D4A92
:1028B0007B6952F8233048333B61386900F0E1FF0F
:1028C0000346002B1BD03869FEF7E5F90246BB68CA
:1028D000934214D1FB684FF41C7202FB03F30833DC
:1028E0000F4A134404331846FEF7A0F9044638692A
:1028F000FEF7C5F903469C4201D1012300E0002305
:10290000002B07D03869FEF7D2F902467B681A60BF
:10291000012300E0002318461C37BD4690BD00BFD0
:10292000787902240000002480B485B000AFF860FC
:10293000B9607A60FA68BB689A4205DCBA687B685D
:102940009A4201DC012300E0002318461437BD46FB
:102950005DF8047B704780B584B000AF7860396063
:102960007A684AF2100313441A6879684AF2140329
:102970000B441B689A422ADA7A684AF2100313441D
:102980001B689B00BB600023FB60FB68032B13DC10
:102990003B687A68F96852F821201046984701464A
:1029A000BA68FB681A4409B27B68083223F812102F
:1029B000FB680133FB60E8E77A684AF210031344CE
:1029C0001B685A1C79684AF210030B441A6000BF56
:1029D0001037BD4680BD80B485B000AFF860B960E7
:1029E0007A60BA68FB689A4207DBBA687B689A42E9
:1029F00001DD7B6802E0BB6800E0FB681846143725
:102A0000BD465DF8047B704780B483B000AF78604A
:102A10007A684AF2100313441B6818460C37BD4607
:102A20005DF8047B704780B483B000AF7860042306
:102A300018460C37BD465DF8047B704780B485B0FE
:102A400000AFF860B9607A607B689A00BB681A448E
:102A5000FB68083233F9123018461437BD465DF86A
:102A6000047B704780B582B000AF786039607B68C6
:102A7000012B22D13B684FF6FF7293421DD11148C2
:102A800016F0D6FA10480FF003FD1049104810F068
:102A9000BFFA1049104810F0BBFA1049104810F066
:102AA000B7FA1049104810F0B3FA1049104810F066
:102AB000AFFA1049104810F03DFE00BF0837BD4680
:102AC00080BD00BFA4A3002424530224007C004046
:102AD000DC6B022400440040946E02240078004025
:102AE0004C710224004C0040047402240050004049
:102AF000BC760224001001407479022480B582B0B3
:102B000000AF7860054A7B681A607B681846FDF75D
:102B1000EDFF7B6818460837BD4680BD841D04085C
:102B200080B582B000AF78607868FFF7E7FF0C21CE
:102B300078681FF01FFA7B6818460837BD4680BDCD
:102B400080B500AF4FF6FF710120FFF78BFF80BD0E
:102B500080B582B000AF78603960786812F06FF8A5
:102B600002463B681A6000BF0837BD4680BD80B58D
:102B700082B000AF786039607B6819463868FFF72B
:102B8000E7FF7B68043319463868FFF7E1FF00BFB1
:102B90000837BD4680BDB0B582B000AF78607B68B5
:102BA0000C3327241D46002C07DB0021284600F0AB
:102BB00049F905F51C75013CF5E77B6818460837AF
:102BC000BD46B0BD80B586B000AF786039607B6827
:102BD00019463868FFF7BCFF7B681B68052B25D1B9
:102BE0007B68043319463868FFF7B2FF7B68083307
:102BF00019463868FFF7ACFF7B680C33282219466A
:102C0000386800F0B5F87A6846F28C131344402215
:102C10001946386800F0CBF87A6846F28C331344D2
:102C200040221946386800F0C2F89DE07B681B68B6
:102C3000042B3AD17B68043319463868FFF788FFC4
:102C40007B68083319463868FFF782FF7B680C33CE
:102C500028221946386800F08BF87A6846F28C13FF
:102C6000134440221946386800F0A1F800237B6124
:102C70007B693F2B78DC7A687B6903F67143DB0064
:102C8000134400229A607A687B6903F67143DB0083
:102C900013449A6879687B6903F67143DB000B443F
:102CA0005A607B6901337B61E2E77B6805221A6029
:102CB0007B6800225A607B6800229A6000233B6197
:102CC0003B69272B12DC3B694FF41C7202FB03F3B8
:102CD00008337A681344181D0023002247F6FF7159
:102CE000FDF746FF3B6901333B61E9E70023FB60E9
:102CF000FB683F2B19DC7A68FB6803F63143DB0085
:102D0000134400229A607A68FB6803F63143DB00C3
:102D100013449A687968FB6803F63143DB000B447F
:102D20005A60FB680133FB60E2E70023BB60BB68CD
:102D30003F2B19DC7A68BB6803F67143DB00134450
:102D400000229A607A68BB6803F67143DB00134483
:102D50009A687968BB6803F67143DB000B445A60DC
:102D6000BB680133BB60E2E700BF1837BD4680BDDA
:102D700080B586B000AFF860B9607A6000237B61EF
:102D80007A697B689A420EDA7B694FF41C7202FB07
:102D900003F3BA681344F968184600F087FD7B69AD
:102DA00001337B61ECE700BF1837BD4680BD80B5BD
:102DB00086B000AFF860B9607A6000237B617A6901
:102DC0007B689A420BDA7B69DB00BA681344F968C6
:102DD0001846FFF7CCFE7B6901337B61EFE700BF4C
:102DE0001837BD4680BD000080B582B000AF786066
:102DF00039607B68012B07D13B684FF6FF72934225
:102E000002D10348FFF7C7FE00BF0837BD4680BDAB
:102E10007879022480B500AF4FF6FF710120FFF7EB
:102E2000E3FF80BD80B582B000AF7860396078681C
:102E300011F022FF02463B681A6000BF0837BD460A
:102E400080BD000080B485B000AF786039607B68D9
:102E50003A681A607B6800225A607B6800229A6098
:102E60007B68002283F848207B680D4AC3F86C22F7
:102E70000023FB60FB68022B0ADC7B680022DA621D
:102E80007B68DA6A7B68DA60FB680133FB60F1E734
:102E90007B6818461437BD465DF8047B704700BF59
:102EA0006C65020880B483B000AF78607B685B6EAD
:102EB000002B18D07B689B6E591C7A6891667A68E3
:102EC00034335B001344B3F904301A467B68DA608C
:102ED0007B689B6EDAB27B689A667B685B6E5A1E73
:102EE0007B685A6638E07B681B6E002B09D07B68D4
:102EF0001B6E5A1E7B681A667B68DA6C7B68DA6028
:102F00002AE07B68DB6D002B1FD07B68DB6D5A1ECF
:102F10007B68DA657B685A6D7B689B6D1A447B68B9
:102F20005A657B68DA6C7B681B6D7968D1F86C0236
:102F30007968496D091289000144096801FB03F3AE
:102F40009B121A447B68DA6006E07B68DA6C7B6867
:102F50001B6D1A447B68DA607B68DB68B3F5FA4F57
:102F600006DA7B68DA687B689B6A1A447B68DA60F9
:102F700000BF0C37BD465DF8047B704780B483B05A
:102F800000AF786039607B68DB6C3A68D21A7B6886
:102F90001A6500BF0C37BD465DF8047B704780B4EE
:102FA00085B000AFF860B9607A603B60FB680022D2
:102FB0005A66FB68BA68C3F86C227B68B3F5FA4FAF
:102FC0003CDA3B68002B39DDFB68DB6CB3F5FA4F6C
:102FD00004DBFB681A69FB68DA641EE0FB68DB6DE2
:102FE000002B13D0FB68DA6CFB681B6DF968D1F815
:102FF0006C02F968496D091289000144096801FBF6
:1030000003F39B121A44FB68DA6406E0FB68DA6C8F
:10301000FB681B6D1A44FB68DA64FB68DB6C7A683A
:10302000D21AFB681A65FB6800225A654FF48022A9
:103030003B6892FBF3F2FB689A6509E000233B6072
:103040003B68BB61FB687A68DA64FB6800221A653A
:10305000FB68BA691A66FB683A68DA6500BF14371C
:10306000BD465DF8047B704780B48BB000AFF8605C
:10307000B9607A60FB680022DA65FB68DA6DFB688C
:103080001A66FB685A6E7B681344FF2B02DC7B6870
:10309000002B01DC002375E0BB68B3F5FA4F57DA6B
:1030A000FB685B6E002B08D0FB68DA6CFB681B6D5D
:1030B0001344BA68D31A7B6217E0FB68DA6CFB68CA
:1030C0001B6D1A44FB68DA64FB68DB6CB3F5FA4FDE
:1030D00003DBFB681A69FB68DA64FB6800221A6587
:1030E000FB68DB6CBA68D31A7B627A6A7B6892FBF6
:1030F000F3F3BB6100233B623A6A7B689A423ADA97
:10310000FB689A6EFB685B6E581CF968486613444E
:10311000DBB27B61FB68DB6C9AB2FB681B6D9BB218
:1031200013449AB23B6A013399B2BB699BB211FB5B
:1031300003F39BB213449BB219B2FA687B69343330
:103140005B0013440A469A803B6A01333B62D3E733
:10315000FB689A6EFB685B6E581CF96848661344FE
:10316000DBB2FB61BB6819B2FA68FB6934335B0000
:1031700013440A469A80FB68DB6CBA68D21AFB6873
:103180001A65012318462C37BD465DF8047B70474D
:1031900080B487B000AFF8600B467A607B81FB6833
:1031A0000022DA65FB68DA6DFB681A66FB685A6E06
:1031B0007B681344FF2B02DC7B68002B01DC0023BF
:1031C0002CE0FB689A6EFB685B6E13447B61FB68C6
:1031D0005A6E7B681A44FB685A667B685A1E7A608E
:1031E000002B14BF01230023DBB2002B0ED07B6920
:1031F000DBB27B61B7F90A107B695A1C7A61FA6805
:1032000034335B0013440A469A80E6E7B7F90A2094
:10321000FB68DA64FB6800221A65012318461C3734
:10322000BD465DF8047B704780B487B000AFF8609E
:103230007A603B600B467B81FB680022DA65FB68A5
:10324000DA6DFB681A66FB685A6E3B681344FF2B05
:1032500002DC3B68002B01DC002336E0FB689A6E41
:10326000FB685B6E13447B61FB685A6E3B681A44D3
:10327000FB685A663B685A1E3A60002B14BF012354
:103280000023DBB2002B18D07B685A1C7A6093F9BC
:1032900000309AB27B8913449BB27B817B69DBB29D
:1032A0007B61B7F90A107B695A1C7A61FA6834337A
:1032B0005B0013440A469A80DCE7B7F90A20FB68F2
:1032C000DA64FB6800221A65012318461C37BD46E4
:1032D0005DF8047B704780B487B000AFF8607A6017
:1032E0003B600B467B81FB680022DA65FB68DA6D88
:1032F000FB681A66FB685A6E3B681344FF2B02DCBE
:103300003B68002B01DC00233FE0FB689A6EFB6802
:103310005B6E13447B61FB685A6E3B681A44FB6822
:103320005A663B685A1E3A60002B14BF01230023E3
:10333000DBB2002B21D07B685A1C7A601B787B8221
:103340007B685A1C7A601B781B021AB27B8A134373
:103350007B827A897B8A13449BB27B817B69DBB257
:103360007B61B7F90A107B695A1C7A61FA683433B9
:103370005B0013440A469A80D3E7B7F90A20FB683A
:10338000DA64FB6800221A65012318461C37BD4623
:103390005DF8047B7047000080B489B000AFF8602E
:1033A0007B600B467B8113463B81FB680022DA651C
:1033B000FB68DA6DFB681A66FB685A6E7B6813441B
:1033C000FF2B02DC7B68012B01DC00235CE0B7F9FA
:1033D0000820B7F90A30D31A7B610023FB614FF450
:1033E00080627B6892FBF3F33B61FB689A6EFB683B
:1033F0005B6E1344BB61FB685A6E7B681A44FB68C2
:103400005A667B68013B7B607B685A1E7A60002BA2
:1034100014BF01230023DBB2002B1DD0FA693B69E6
:103420001344FB61BB69DBB2BB611A4AFB6952F80A
:1034300023307A6902FB03F39B129AB27B8913440F
:103440009BB219B2BB695A1CBA61FA6834335B008B
:1034500013440A469A80D7E7BB69DBB2BB61FA68BE
:10346000BB6934335B0013443A899A80FA68BB69BC
:1034700034335B001344B3F904301A46FB68DA6452
:10348000FB6800221A65012318462437BD465DF803
:10349000047B70476C65020880B483B000AF78602D
:1034A0007B6800229A617B685B6E002B03D07B688F
:1034B00000225A6616E07B68DB6D002B12D07B6819
:1034C0001B6D7A68D2F86C127A68526D12129200F3
:1034D0000A44126802FB03F39A127B681A657B6840
:1034E0000022DA6500BF0C37BD465DF8047B7047EB
:1034F00080B483B000AF78607B6893F84830002BCD
:1035000001D0012300E0002318460C37BD465DF8CA
:10351000047B704780B582B000AF78607B681B6821
:10352000012B15D17B68DA687B68DA627B681A6BDD
:103530007B681A617B685A6B7B685A617B680022E2
:103540009A617B680022DA617B6800221A626CE073
:103550007B681B68022B1CD17B68DA687B68DA62A7
:103560007B685A6A7B685A647B681A6B7B681A614D
:103570007B689A6B7B689A617B68DA6B7B68DA613F
:103580007B685A6B7B685A617B681A6C7B681A622D
:103590004BE07B681B68032B0CD17B68DA6A7B6885
:1035A000DA607B681A6B7B681A617B685A6B7B6890
:1035B0005A613AE07B681B68142B36D17B685B6BE1
:1035C000012B1BD17B6803F10C027B682C3319465D
:1035D000104600F090F97B6803F110027B683033ED
:1035E0001946104600F087F97B6803F114027B68E6
:1035F00034331946104600F07EF916E07B68DA682D
:103600007B68DA627B681A697B681A637B685A692F
:103610007B685A637B6800225A617B685A697B68C1
:103620001A617B681A697B68DA607B6893F84920C5
:103630007B6883F8482000BF0837BD4680BD80B551
:1036400084B000AFF860B9607A60FB681B68012B3A
:103650000BD1FB689968FB68DB6A1A46B8680BF007
:10366000E6FA7B6806221A6053E0FB681B68022BAF
:103670000CD1FB689968FB68DA6AFB685B6CB86818
:103680000BF0EBFA7B6809221A6042E0FB681B68CA
:10369000032B09D1FB689B681946B8680BF0F8FA50
:1036A0007B6808221A6034E0FB681B68142B20D169
:1036B000FB685B6B032B1CDDFB685B6B042B0BD186
:1036C000FB689968FB68DB6A1A46B8680BF00CFB6C
:1036D0007B6806221A601CE0FB689968FB68DA6A5E
:1036E000FB681B6BB8680BF0E4FA7B6806221A6073
:1036F0000FE0FB681B68152B0BD1FB689968FB6812
:10370000DA68FB681B69B8680BF004FB7B6806226B
:103710001A60FB68002283F8492000BF1037BD46BD
:1037200080BD90B585B002AF786039607B681B685A
:10373000012B0CD138680BF030FC02467B681A6311
:1037400038680BF02AFC02467B685A6363E07B68AA
:103750001B68022B18D17B682C33191D7B682C3316
:1037600003F108007B682C3303F10C047B682C33D5
:1037700010337A682C3214320192009323460246A9
:1037800038680BF08CFC46E07B681B68032B12D179
:1037900038680BF002FC02467B68DA6238680BF08E
:1037A000FCFB02467B681A6338680BF0F6FB0246A6
:1037B0007B685A632FE07B681B68142B1ED17B68E3
:1037C0005B6B042B09D138680BF0F6FB02467B6873
:1037D0001A637B6801225A631DE07B681C6B3868A2
:1037E0000BF0EAFB03469C420CBF01230023DBB233
:1037F000002B10D07B6802225A630CE07B681B68A8
:10380000152B08D138680BF0D7FB02467B685A614C
:103810007B680022DA607B68012283F8492000BFC0
:103820000C37BD4690BD80B485B000AFF860B9607C
:103830007A603B60FB6805225A61FB683A681A614E
:10384000FB687A68DA60FB68BA689A6000BF143770
:10385000BD465DF8047B704780B485B000AFF8606A
:10386000B9607A60FB6804225A61FB687A68DA60A2
:10387000FB68BA689A6000BF1437BD465DF8047BE8
:10388000704780B485B000AF78607B685B69FB608F
:103890007B685B69022B02DC7B6800225A61FB6853
:1038A00018461437BD465DF8047B704780B582B07A
:1038B00000AF786039607B6819463868FFF7B2FA64
:1038C0007B68043319463868FFF7ACFA7B68083325
:1038D00019463868FFF7A6FA00BF0837BD4680BD15
:1038E00080B483B000AF78607B6818460C37BD4663
:1038F0005DF8047B704780B584B000AF78603960B4
:103900007868FFF7EDFF03461B68FB603868FFF738
:10391000E7FF03461A687B681A6007F10C03184634
:10392000FFF7DEFF03461A683B681A6000BF1037D6
:10393000BD4680BD80B400AF044BDB681B0A03F0BA
:1039400007031846BD465DF8047B704700ED00E0B4
:1039500080B483B000AF0346FB80B7F90630002B7C
:103960000BDBFB8803F01F020749B7F906305B0940
:10397000012000FA02F241F8232000BF0C37BD46B7
:103980005DF8047B704700BF00E100E080B483B0C5
:1039900000AF0346FB80B7F90630002B12DBFB8833
:1039A00003F01F020A49B7F906305B09012000FA4B
:1039B00002F2203341F82320BFF34F8F00BFBFF343
:1039C0006F8F00BF00BF0C37BD465DF8047B7047AA
:1039D00000E100E080B483B000AF03463960FB80B3
:1039E000B7F90630002B0ADB3B68DAB20C49B7F9AD
:1039F00006301201D2B20B4483F800230AE03B6880
:103A0000DAB20849FB8803F00F03043B1201D2B27B
:103A10000B441A7600BF0C37BD465DF8047B704737
:103A200000E100E000ED00E080B489B000AFF86094
:103A3000B9607A60FB6803F00703FB61FB69C3F1BF
:103A40000703042B28BF0423BB61FB690433062B47
:103A500002D9FB69033B00E000237B614FF0FF329A
:103A6000BB6902FA03F3DA43BB681A407B699A40E8
:103A70004FF0FF317B6901FA03F3D9437B680B40B8
:103A8000134318462437BD465DF8047B704780B465
:103A900087B000AF786039603B68C3F31303002B35
:103AA00007D13B689B0E03F01F03012202FA03F3C8
:103AB00015E03B683B613B6993FAA3F3FB60FB684D
:103AC0007B617B69002B01D1202303E07B69B3FA82
:103AD00083F3DBB203F01F03012202FA03F37A68D7
:103AE000D2691A437B68DA6100BF1C37BD465DF8B6
:103AF000047B704780B487B000AFF860B9607A602B
:103B0000FB6830331A46BB681B0A9B0003F00C03AA
:103B100013447B617B691A68BB6803F01F031F2194
:103B200001FA03F3DB431A407B689B0E03F01F018D
:103B3000BB6803F01F0301FA03F31A437B691A60A1
:103B400000BF1C37BD465DF8047B704780B487B06A
:103B500000AFF860B9607A60FB6814331A46BB683E
:103B60005B0E9B0003F0040313447B617B691A68BE
:103B7000BB681B0D03F01F03072101FA03F3DB43AE
:103B80001A40BB681B0D03F01F03796801FA03F3A9
:103B90001A437B691A6000BF1C37BD465DF8047B81
:103BA0007047000080B485B000AFF860B9607A60FB
:103BB000FB68D3F8C020BB68C3F31303DB431A4090
:103BC0007B6803F018030849D940BB680B40C3F376
:103BD00013031A43FB68C3F8C02000BF1437BD4667
:103BE0005DF8047B704700BFFFFF0F0080B483B017
:103BF00000AF786039607B681A69064B13403A68F9
:103C00001A437B681A6100BF0C37BD465DF8047B20
:103C1000704700BFFCFBFFFF80B483B000AF78604B
:103C20007B689A68044B13407A68936000BF0C3736
:103C3000BD465DF8047B7047C0FFFF5F80B483B072
:103C400000AF78607B689A68054B134043F0805260
:103C50007B689A6000BF0C37BD465DF8047B7047F7
:103C6000C0FFFF6F80B483B000AF78607B689A6854
:103C7000054B134043F001027B689A6000BF0C378C
:103C8000BD465DF8047B7047C0FFFF7F80B483B002
:103C900000AF78607B689A68054B134043F00402DC
:103CA0007B689A6000BF0C37BD465DF8047B7047A7
:103CB000C0FFFF7F80B483B000AF786039607B685D
:103CC0001A683B6803F01003022101FA03F31A4358
:103CD0007B681A6000BF0C37BD465DF8047B7047F7
:103CE00080B487B000AFF860B9607A60FB687B6130
:103CF0000D4ABB6813441B781A467B6913441B6842
:103D000023F0C0020849BB680B441B7819467B6945
:103D10000B4419467B6813430B6000BF1C37BD463C
:103D20005DF8047B704700BF7075020880B487B0EF
:103D300000AFF860B9607A60FB687B610D4ABB68D0
:103D400013441B781A467B6913441B6823F4907252
:103D50000849BB680B441B7819467B690B4419461C
:103D60007B6813430B6000BF1C37BD465DF8047BC6
:103D7000704700BF7075020880B487B000AFF8606C
:103D8000B9607A60FB687B610D4ABB6813441B789D
:103D90001A467B6913441B6823F400720849BB6808
:103DA0000B441B7819467B690B4419467B68134307
:103DB0000B6000BF1C37BD465DF8047B704700BF39
:103DC0007075020880B487B000AFF860B9607A609F
:103DD000FB687B610D4ABB6813441B781A467B69FC
:103DE00013441B6823F480620849BB680B441B78AA
:103DF00019467B690B4419467B6813430B6000BF6F
:103E00001C37BD465DF8047B704700BF7075020823
:103E100080B487B000AFF860B9607A60FB687B61FE
:103E20000D4ABB6813441B781A467B6913441B6810
:103E300023F4C0520849BB680B441B7819467B69C0
:103E40000B4419467B6813430B6000BF1C37BD460B
:103E50005DF8047B704700BF7075020880B487B0BE
:103E600000AFF860B9607A60FB687B610D4ABB689F
:103E700013441B781A467B6913441B6823F4C04221
:103E80000849BB680B441B7819467B690B441946EB
:103E90007B6813430B6000BF1C37BD465DF8047B95
:103EA000704700BF7075020880B487B000AFF8603B
:103EB000B9607A60FB687B610D4ABB6813441B786C
:103EC0001A467B6913441B6823F440320849BB68D7
:103ED0000B441B7819467B690B4419467B681343D6
:103EE0000B6000BF1C37BD465DF8047B704700BF08
:103EF0007075020880B485B000AFF860B9607A6070
:103F0000BA68124B13449B00FA6811498A4201D1E6
:103F1000002200E0202213441B6823F0FF02B9684E
:103F20000A4B0B449B00F9680948814201D10021EA
:103F300000E020210B4419467B6813430B6000BF4F
:103F40001437BD465DF8047B704700BF0082001047
:103F50000000024080B485B000AF786039607B68B3
:103F6000FB600C4A3B6813441B781A46FB681344F9
:103F70005B6908493A680A4412781146FA680A44AB
:103F800023F00403536100BF1437BD465DF8047B82
:103F9000704700BF7075020880B487B000AFF8604A
:103FA000B9607A603B60FB687B610E4ABB68134472
:103FB0001B781A467B6913445B6923F00702796812
:103FC0003B680B430748B96801440978084679699A
:103FD000014413434B6100BF1C37BD465DF8047BB1
:103FE000704700BF7075020880B487B000AFF860FA
:103FF000B9607A60FB687B61074ABB6813441B7831
:104000001A467B6913441A467B68936000BF1C37CD
:10401000BD465DF8047B70477075020880B400AF40
:10402000054B1B68044A43F48033136000BFBD4650
:104030005DF8047B704700BF0044025880B400AFB5
:10404000074B1B6803F40033B3F5003F01D1012394
:1040500000E000231846BD465DF8047B704700BFB2
:104060000044025880B483B000AF7860064B1B69EF
:1040700023F0070204497B6813430B6100BF0C3730
:10408000BD465DF8047B70470044025880B483B09D
:1040900000AF7860064B9B6923F4706204497B682B
:1040A00013438B6100BF0C37BD465DF8047B70473E
:1040B0000044025880B483B000AF7860064B9B691F
:1040C00023F00F0204497B6813438B6100BF0C3758
:1040D000BD465DF8047B70470044025880B483B04D
:1040E00000AF7860064BDB6923F0700204497B68FF
:1040F0001343CB6100BF0C37BD465DF8047B7047AE
:104100000044025880B483B000AF7860064BDB698E
:1041100023F4E06204497B681343CB6100BF0C3792
:10412000BD465DF8047B70470044025880B483B0FC
:1041300000AF7860064B9B6923F0700204497B68EE
:1041400013438B6100BF0C37BD465DF8047B70479D
:104150000044025880B483B000AF7860064B1B6AFD
:1041600023F0700204497B6813430B6200BF0C37D5
:10417000BD465DF8047B70470044025880B485B0AA
:1041800000AF78607B68DAB2104B1344FB60FB68C9
:104190001A687B68190E7B681B0A03F01F0301FA7B
:1041A00003F3DB431A407B681B0CD9B27B681B0A04
:1041B00003F01F0301FA03F31A43FB681A6000BF00
:1041C0001437BD465DF8047B704700BF4C4402586D
:1041D00080B582B000AF78607868FFF7CFFF00BF8E
:1041E0000837BD4680BD80B582B000AF7860786882
:1041F000FFF7C4FF00BF0837BD4680BD80B483B061
:1042000000AF7860064B9B6D23F4403204497B6815
:1042100013438B6500BF0C37BD465DF8047B7047C8
:104220000044025880B483B000AF7860064B9B6AAC
:1042300023F0030204497B6813438B6200BF0C37F1
:10424000BD465DF8047B70470044025880B400AF5F
:10425000054B1B68044A43F08073136000BFBD46E2
:104260005DF8047B704700BF0044025880B400AF83
:10427000074B1B6803F00073B3F1007F01D10123EA
:1042800000E000231846BD465DF8047B704700BF80
:104290000044025880B400AF054BDB6A044A43F483
:1042A0008033D36200BFBD465DF8047B704700BF1A
:1042B0000044025880B400AF054BDB6A044A43F463
:1042C0000033D36200BFBD465DF8047B704700BF7A
:1042D0000044025880B400AF054BDB6A044A43F443
:1042E0008023D36200BFBD465DF8047B704700BFEA
:1042F0000044025880B483B000AF7860074BDB6A9B
:1043000023F002027B685B0004491343CB6200BFC9
:104310000C37BD465DF8047B704700BF004402586F
:1043200080B483B000AF7860074BDB6A23F00C02E7
:104330007B689B0004491343CB6200BF0C37BD462A
:104340005DF8047B704700BF0044025880B483B01E
:1043500000AF7860074B1A6B074B13407A68013A3D
:10436000044913430B6300BF0C37BD465DF8047B63
:10437000704700BF0044025800FEFFFF80B483B0C6
:1043800000AF7860074B9B6A23F47C727B681B014B
:10439000044913438B6200BF0C37BD465DF8047BB4
:1043A000704700BF0044025880B483B000AF78600B
:1043B000074B1B6B23F47E427B68013B5B02044985
:1043C00013430B6300BF0C37BD465DF8047B704799
:1043D0000044025880B483B000AF7860074B1B6B79
:1043E00023F4FE027B68013B1B04044913430B6367
:1043F00000BF0C37BD465DF8047B7047004402588F
:1044000080B483B000AF7860074B1B6B23F0FE4293
:104410007B68013B1B06044913430B6300BF0C3749
:10442000BD465DF8047B70470044025880B400AF7D
:10443000054B1B68044A43F08063136000BFBD4610
:104440005DF8047B704700BF0044025880B400AFA1
:10445000074B1B6803F00063B3F1006F01D1012328
:1044600000E000231846BD465DF8047B704700BF9E
:104470000044025880B400AF054BDB6A044A43F4A1
:104480000023D36200BFBD465DF8047B704700BFC8
:104490000044025880B483B000AF7860074BDB6AF9
:1044A00023F020027B685B0104491343CB6200BF09
:1044B0000C37BD465DF8047B704700BF00440258CE
:1044C00080B483B000AF7860074BDB6A23F0C00292
:1044D0007B689B0104491343CB6200BF0C37BD4688
:1044E0005DF8047B704700BF0044025880B483B07D
:1044F00000AF7860074B9A6B074B13407A68013A1C
:10450000044913438B6300BF0C37BD465DF8047B41
:10451000704700BF0044025800FEFFFF80B483B024
:1045200000AF7860074B9B6A23F47C327B681B03E7
:10453000044913438B6200BF0C37BD465DF8047B12
:10454000704700BF0044025880B483B000AF786069
:10455000074B9B6B23F47E427B68013B5B02044963
:1045600013438B6300BF0C37BD465DF8047B704777
:104570000044025880B483B000AF7860074B9B6B57
:1045800023F4FE027B68013B1B04044913438B6345
:1045900000BF0C37BD465DF8047B704700440258ED
:1045A00080B483B000AF7860074B9B6B23F0FE4272
:1045B0007B68013B1B06044913438B6300BF0C3728
:1045C000BD465DF8047B70470044025880B400AFDC
:1045D000054B1B68044A43F08053136000BFBD467F
:1045E0005DF8047B704700BF0044025880B400AF00
:1045F000074B1B6803F00053B3F1005F01D10123A7
:1046000000E000231846BD465DF8047B704700BFFC
:104610000044025880B400AF054BDB6A044A43F4FF
:104620000003D36200BFBD465DF8047B704700BF46
:104630000044025880B483B000AF7860074BDB6A57
:1046400023F400727B685B0204491343CB6200BF12
:104650000C37BD465DF8047B704700BF004402582C
:1046600080B483B000AF7860074BDB6A23F440620C
:104670007B689B0204491343CB6200BF0C37BD46E5
:104680005DF8047B704700BF0044025880B483B0DB
:1046900000AF7860074B1A6C074B13407A68013AF9
:1046A000044913430B6400BF0C37BD465DF8047B1F
:1046B000704700BF0044025800FEFFFF80B483B083
:1046C00000AF7860074B9B6A23F07C727B681B0508
:1046D000044913438B6200BF0C37BD465DF8047B71
:1046E000704700BF0044025880B483B000AF7860C8
:1046F000074B1B6C23F47E427B68013B5B02044941
:1047000013430B6400BF0C37BD465DF8047B704754
:104710000044025880B483B000AF7860074B1B6C34
:1047200023F4FE027B68013B1B04044913430B6422
:1047300000BF0C37BD465DF8047B7047004402584B
:1047400080B483B000AF7860074B1B6C23F0FE424F
:104750007B68013B1B06044913430B6400BF0C3705
:10476000BD465DF8047B70470044025880B485B0B4
:1047700000AF78600A4BD3F8D82009497B6813430F
:10478000C1F8D830064BD3F8D8207B681340FB60C3
:10479000FB6800BF1437BD465DF8047B704700BF5F
:1047A0000044025880B485B000AF78600A4BD3F85B
:1047B000E02009497B681343C1F8E030064BD3F889
:1047C000E0207B681340FB60FB6800BF1437BD46E8
:1047D0005DF8047B704700BF0044025880B485B088
:1047E00000AF78600A4BD3F8E82009497B6813438F
:1047F000C1F8E830064BD3F8E8207B681340FB6033
:10480000FB6800BF1437BD465DF8047B704700BFEE
:104810000044025880B485B000AF78600A4BD3F8EA
:10482000F02009497B681343C1F8F030064BD3F8F8
:10483000F0207B681340FB60FB6800BF1437BD4667
:104840005DF8047B704700BF0044025880B483B019
:1048500000AF7860064B1B6823F00F0204497B68A9
:1048600013430B6000BF0C37BD465DF8047B7047F7
:104870000020005280B400AF044B1B6803F00F030C
:104880001846BD465DF8047B704700BF002000520B
:1048900080B483B000AF7860064BDB6823F007027A
:1048A00004497B681343CB6000BF0C37BD465DF8FD
:1048B000047B70470048025880B483B000AF786032
:1048C000064B9B6923F4404204497B6813438B6188
:1048D00000BF0C37BD465DF8047B704700480258A6
:1048E00080B483B000AF78607B68DB6843F000423F
:1048F0007B68DA6000BF0C37BD465DF8047B70470B
:1049000080B483B000AF786039607B68DB6823F4E3
:1049100060123B681A437B68DA6000BF0C37BD4603
:104920005DF8047B704780B483B000AF78607B682B
:10493000DB6843F080427B68DA6000BF0C37BD461D
:104940005DF8047B704780B483B000AF78607B680B
:10495000DB6823F080427B68DA6000BF0C37BD461D
:104960005DF8047B704780B483B000AF78607B68EB
:104970001B6823F080027B681A6000BF0C37BD46BD
:104980005DF8047B7047000080B485B000AF7860AC
:1049900039603B68012B28D03B68042B23D03B684F
:1049A000102B1ED03B68402B19D03B68B3F5807F9D
:1049B00013D03B68B3F5806F0DD03B68B3F5805FD3
:1049C00007D03B68B3F5803F01D107230EE00823F1
:1049D0000CE006230AE0052308E0042306E0032395
:1049E00004E0022302E0012300E00023FB737B6864
:1049F00018331946FB7B0A4AD35C0B44BB60BB6887
:104A00001A68FB7B0749CB5C194604238B401A4389
:104A1000BB681A6000BF1437BD465DF8047B704761
:104A2000787502088475020880B485B000AF78609C
:104A300039603B68012B28D03B68042B23D03B68AE
:104A4000102B1ED03B68402B19D03B68B3F5807FFC
:104A500013D03B68B3F5806F0DD03B68B3F5805F32
:104A600007D03B68B3F5803F01D107230EE0082350
:104A70000CE006230AE0052308E0042306E00323F4
:104A800004E0022302E0012300E00023FB737B68C3
:104A900018331946FB7B0A4AD35C0B44BB60BB68E6
:104AA0001A68FB7B0749CB5C194608238B401A43E5
:104AB000BB681A6000BF1437BD465DF8047B7047C1
:104AC000787502088475020880B483B000AF7860FE
:104AD00039607B689A68064B13403A681A437B68D2
:104AE0009A6000BF0C37BD465DF8047B704700BF7D
:104AF000F8BFFEFF80B483B000AF786039607B6898
:104B00005B6823F070023B681A437B685A6000BF01
:104B10000C37BD465DF8047B704780B483B000AFAE
:104B2000786039607B685B6823F470023B681A43E5
:104B30007B685A6000BF0C37BD465DF8047B704748
:104B400080B483B000AF78607B689B6823F08002FC
:104B50007B689A6000BF0C37BD465DF8047B7047E8
:104B600080B483B000AF78607B681B6843F00102BB
:104B70007B681A6000BF0C37BD465DF8047B704748
:104B800080B483B000AF78607B681B6843F000524C
:104B90007B681A6000BF0C37BD465DF8047B704728
:104BA00080B489B000AF786039607B680833FB60FF
:104BB000FB6853E8003FBB60BB6823F060423B6882
:104BC0005B071343FB617B680833FA69BA617B6159
:104BD0007969BA6941E800233B613B69002BE4D164
:104BE00000BF00BF2437BD465DF8047B704780B42A
:104BF00089B000AF786039607B680833FB60FB6880
:104C000053E8003FBB60BB6823F060623B685B0613
:104C10001343FB617B680833FA69BA617B61796988
:104C2000BA6941E800233B613B69002BE4D100BF36
:104C300000BF2437BD465DF8047B704780B483B065
:104C400000AF786039607B681B6823F4F8123B681A
:104C50001B041A437B681A6000BF0C37BD465DF821
:104C6000047B704780B483B000AF786039607B68A4
:104C70001B6823F078723B685B051A437B681A60F7
:104C800000BF0C37BD465DF8047B704780B483B02D
:104C900000AF78607B689B6843F480427B689A60D1
:104CA00000BF0C37BD465DF8047B704780B483B00D
:104CB00000AF786039607B689B6823F400423B68F2
:104CC0001A437B689A6000BF0C37BD465DF8047BD1
:104CD000704780B483B000AF78607B685B6823F472
:104CE00090427B685A607B689B6823F02A027B684D
:104CF0009A6000BF0C37BD465DF8047B704780B4F6
:104D000083B000AF78607B68DB6903F40013B3F510
:104D1000001F01D1012300E0002318460C37BD46D7
:104D20005DF8047B704780B483B000AF78607B6827
:104D3000DB6903F48003B3F5800F01D1012300E0A8
:104D4000002318460C37BD465DF8047B704780B4DD
:104D500083B000AF786039607B683A689A6100BFC1
:104D60000C37BD465DF8047B704780B483B000AF5C
:104D7000786039603B681A047B689A6100BF0C3721
:104D8000BD465DF8047B704780B500AF01F0EEFED4
:104D900000F02EF800F096F801F016FC01F0FAFB96
:104DA00000F0D4F800F094F900F008FA00F0FEFAF0
:104DB00000F0E8FC01F0FAF900F0A2FE00F044FF78
:104DC00000F0C0FD00F064FE00F0E2FF01F06EF8BC
:104DD00001F010F901F078FA1CF084FB00F022FEDB
:104DE00001F05CFB00F0DAFB0CF02CFDFEE70000AC
:104DF00080B500AF0420FFF729FD00BFFFF73AFDA3
:104E00000346042BFAD10220FFF742FD4FF4404045
:104E1000FFF752FDFFF702F900BFFFF70FF9034656
:104E2000012BFAD10220FFF7FDF9FFF733FAFFF764
:104E300041FAFFF74FFA0120FFF772FA0020FFF75F
:104E400059FA0820FFF79AFA4FF4F070FFF77EFA4C
:104E50000220FFF7A9FA0820FFF7BCFA0420FFF7A9
:104E6000CFFAFFF7F3F900BFFFF700FA0346012B73
:104E7000FAD10820FFF71EF90320FFF7F3F800200E
:104E8000FFF704F90820FFF715F94020FFF726F98E
:104E90004FF48060FFF736F94020FFF747F94020D4
:104EA000FFF758F9064808F0ABF8002001F09AFE29
:104EB0000346002B01D001F06FFC00BF80BD00BF96
:104EC00000389C1C80B500AFFFF7D4FA0120FFF733
:104ED000F7FA0020FFF7DEFA0820FFF71FFB882013
:104EE000FFF704FB0820FFF72FFB0420FFF742FB2E
:104EF0000220FFF755FBFFF799FA00BFFFF7A6FA6C
:104F00000346012BFAD1FFF785FB0120FFF7A8FB31
:104F10000020FFF78FFB0820FFF7D0FBC020FFF732
:104F2000B5FB0220FFF7E0FB0820FFF7F3FB0620AC
:104F3000FFF706FCFFF74AFB00BFFFF757FB0346EE
:104F4000012BFAD100BF00BF80BD000080B594B036
:104F500000AF07F1400300221A605A609A6007F11F
:104F6000280300221A605A609A60DA601A615A6156
:104F700007F1180300221A605A609A60DA603B4613
:104F800000221A605A609A60DA601A615A61002041
:104F9000FFF734F92020FFF7E9FB0420FFF702FCBC
:104FA00020233B6003237B6000233B613B46194683
:104FB000404804F021FF08233B640023BB6407F151
:104FC000400319463C4804F043FD0023BB62002324
:104FD000FB6200233B634FF400537B634FF4805329
:104FE000FB6307F128031946334804F05DFD0021F7
:104FF0003148FEF7FBFD4FF48013BB610023FB61DA
:1050000007F1180319462D4804F0CAFC2A48FEF798
:1050100003FE2948FEF712FE294B1B689B09294A0B
:10502000A2FB03239A0913469B0013445B001A4614
:10503000254BA3FB0223DB08FB6402E0FB6C013B76
:10504000FB64FB6C002BF9D1204A06211A48FEF7BD
:1050500051FD04221D491848FEF778FD40F2FF7209
:105060001A491548FEF79EFD18491348FEF70FFD33
:105070001148FEF7F7FD124B1B689B09114AA2FB72
:1050800003239A0913469B0013445B001A460E4BF8
:10509000A3FB0223DB08FB6402E0FB6C013BFB6427
:1050A000FB6C002BF9D10448FEF7F0FD00BF503730
:1050B000BD4680BD00080258002002400023024087
:1050C00014000024632D3E05CDCCCCCC0001802102
:1050D00080B58CB000AF07F1180300221A605A6047
:1050E0009A60DA601A615A613B4600221A605A607F
:1050F0009A60DA601A615A614FF00050FFF76EFB58
:105100000120FFF74FFB20233B6003237B6000233C
:105110003B613B461946254804F06EFE44220221BD
:105120002348FEF7E7FE402202212148FEF7D8FD82
:10513000002202211E48FEF7B7FE4FF480720221C2
:105140001B48FEF7F3FD002202211948FEF714FE6A
:105150004FF4806202211648FEF734FE002202213D
:105160001348FEF755FE002202211148FEF776FE95
:1051700002210F48FEF7EEFE1C23BB610023FB61FA
:1051800000237B620023BB620023FB6207F118034C
:105190001A460849084804F0F0FC06490648FEF79C
:1051A00089FD00BF3037BD4680BD00BF00000258FA
:1051B00000040240720040350074004080B590B099
:1051C00000AF07F118032822002118461FF082F9CA
:1051D0003B4600221A605A609A60DA601A615A618E
:1051E0006B48FFF700F84FF48050FFF713FB0820DF
:1051F000FFF7D8FA0220FFF7D5FA80233B6002239D
:105200007B600023BB600023FB6000233B61052320
:105210007B613B4619465F4804F0EEFD18233B6076
:1052200002237B600023BB600023FB6000233B6103
:1052300005237B613B461946574804F0DDFD2522D6
:1052400002215648FEF756FE002202215348FEF77F
:1052500047FD002202215148FEF726FE00220221CE
:105260004E48FEF763FD002202214C48FEF784FD04
:105270004FF4806202214948FEF7A4FD002202217A
:105280004648FEF7C5FD002202214448FEF7E6FD30
:1052900002214248FEF75EFE262203213F48FEF728
:1052A00029FE402203213D48FEF71AFD002203217A
:1052B0003A48FEF7F9FD002203213848FEF736FD93
:1052C000002203213548FEF757FD4FF48062032189
:1052D0003248FEF777FD002203213048FEF798FDA3
:1052E000002203212D48FEF7B9FD03212B48FEF7CC
:1052F00031FEFEF71FFB0346002200211846FEF791
:1053000093FB034619462320FEF764FB2320FEF798
:105310001FFB0023BB614FF48003FB6107233B624B
:1053200000237B620023BB624FF08063FB624FF07F
:10533000A0433B6300237B630023BB630023FB6329
:1053400007F118031946164805F0A8FC0021144877
:10535000FFF7D6FA1248FFF7E6FA032300220321EB
:105360000E48FEF719FE0F4A02210C48FEF73CFEDC
:105370000D4A03210948FEF737FE2320FEF706FBFE
:105380000748FFF7ADFA00BF4037BD4680BD00BFFC
:10539000040C0007000C02580004025800000240F0
:1053A00000300140303001402030014080B590B0E5
:1053B00000AF07F118032822002118461FF08AF8D1
:1053C0003B4600221A605A609A60DA601A615A619C
:1053D0006B48FEF708FF4FF48040FFF7FFF9042009
:1053E000FFF7E0F90220FFF7DDF906233B60022317
:1053F0007B600023BB600023FB6000233B6105232F
:105400007B613B4619465F4804F0F6FC4FF40053BD
:105410003B6002237B600023BB600023FB60002312
:105420003B6105237B613B461946574804F0E4FC89
:10543000272200215548FEF75DFD00220021534838
:10544000FEF74EFC002200215048FEF72DFD002201
:1054500000214E48FEF76AFC002200214B48FEF76F
:105460008BFC4FF4806200214848FEF7ABFC002221
:1054700000214648FEF7CCFC002200214348FEF7FD
:10548000EDFC00214148FEF765FD282201213F483F
:10549000FEF730FD402201213C48FEF721FC0022AE
:1054A00001213A48FEF700FD002201213748FEF7AE
:1054B0003DFC002201213548FEF75EFC4FF480627E
:1054C00001213248FEF77EFC002201212F48FEF721
:1054D0009FFC002201212D48FEF7C0FC01212B4832
:1054E000FEF738FDFEF726FA034600220021184693
:1054F000FEF79AFA034619462420FEF76BFA242099
:10550000FEF726FA0023BB614FF48003FB610723FB
:105510003B6200237B620023BB624FF08063FB622F
:105520004FF0A0433B6300237B630023BB63002356
:10553000FB6307F118031946154805F0AFFB00217E
:105540001348FFF7DDF91248FFF7EDF903230022B6
:1055500001210E48FEF720FD0E4A00210B48FEF700
:1055600043FD0D4A01210948FEF73EFD2420FEF7C8
:105570000DFA0748FFF7B4F900BF4037BD4680BDBC
:10558000040C000700080258000402580000024002
:1055900000380040303800402038004080B590B0DE
:1055A00000AF07F118032822002118461EF092FFD1
:1055B0003B4600221A605A609A60DA601A615A61AA
:1055C0006948FEF710FE4FF40040FFF707F902208C
:1055D000FFF7E8F80420FFF7E5F804233B60022317
:1055E0007B600023BB600023FB6000233B6107233B
:1055F0007B613B4619465D4804F0FEFB4FF4406377
:105600003B6002237B600023BB600023FB60002320
:105610003B6106237B613B461946554804F0ECFB91
:105620003D2203215348FEF765FC00220321514827
:10563000FEF756FB002203214E48FEF735FC002200
:1056400003214C48FEF772FB002203214948FEF774
:1056500093FB4FF4806203214648FEF7B3FB002220
:1056600003214448FEF7D4FB002203214148FEF702
:10567000F5FB03213F48FEF76DFC3E2204213D4827
:10568000FEF738FC402204213A48FEF729FB0022AD
:1056900004213848FEF708FC002204213548FEF7B3
:1056A00045FB002204213348FEF766FB4FF480627D
:1056B00004213048FEF786FB002204212D48FEF726
:1056C000A7FB002204212B48FEF7C8FB0421294830
:1056D000FEF740FCFEF72EF9034600220021184693
:1056E000FEF7A2F9034619463320FEF773F933207B
:1056F000FEF72EF90023BB610023FB6107233B6209
:1057000000237B620023BB624FF08063FB620023B7
:105710007B630023BB630023FB6307F11803194677
:10572000154805F0BBFA00211348FFF7E9F81248C5
:10573000FFF709F90323002204210E48FEF72CFC91
:105740000E4A03210B48FEF74FFC0D4A042109487D
:10575000FEF74AFC3320FEF719F90748FFF7C0F8B7
:1057600000BF4037BD4680BD040C0007000402584E
:105770000008025800040240003C0040303C004059
:10578000203C004080B590B000AF07F118032822FC
:10579000002118461EF09EFE3B4600221A605A6009
:1057A0009A60DA601A615A616048FEF71CFD4FF496
:1057B0000050FFF72FF81020FEF7F4FF4FF483534B
:1057C0003B6002237B600323BB600023FB6000235C
:1057D0003B6105237B613B461946554804F00CFBB1
:1057E000532204215348FEF785FB0022042151482F
:1057F000FEF776FA002204214E48FEF755FB002200
:1058000004214C48FEF792FA002204214948FEF791
:10581000B3FA4FF4806204214648FEF7D3FA00221F
:1058200004214448FEF7F4FA002204214148FEF71F
:1058300015FB04213F48FEF78DFB542205213D480E
:10584000FEF758FB402205213A48FEF749FA0022AC
:1058500005213848FEF728FB002205213548FEF7D0
:1058600065FA002205213348FEF786FA4FF480627C
:1058700005213048FEF7A6FA002205212D48FEF743
:10588000C7FA002205212B48FEF7E8FA052129482E
:10589000FEF760FBFEF74EF8034600220021184693
:1058A000FEF7C2F8034619465420FEF793F8542039
:1058B000FEF74EF80023BB614FF48003FB61072322
:1058C0003B6200237B620023BB624FF08063FB627C
:1058D0004FF000533B6300237B630023BB63002333
:1058E000FB6307F118031946134805F0D7F90021A7
:1058F0001148FFF705F81048FFF715F803230022B9
:1059000005210C48FEF748FB0C4A04210948FEF724
:105910006BFB0B4A05210748FEF766FB5420FEF798
:1059200035F800BF4037BD4680BD00BF04100007FA
:1059300000100258000002400034014030340140A1
:105940002034014080B594B000AF07F13C03002241
:105950001A605A609A60DA601A6107F11C0320220B
:10596000002118461EF0B6FD3B1D00221A605A6049
:105970009A60DA601A615A610220FEF72FFF4FF435
:10598000F073BB8700233B644FF4FA737B640023FE
:10599000BB6407F13C031946204805F08FFA1F4805
:1059A000FEF7E1FF00211D48FFF78EF810211B488C
:1059B000FFF73AF86023FB6100233B6200237B6220
:1059C0000023BB620023FB6207F11C031A4610216F
:1059D000124805F007FB10211048FEF7D5FF002103
:1059E0000E48FFF787F80D48FFF7AAF80120FEF7E9
:1059F000D9FE80237B600223BB600023FB60002371
:105A00003B6100237B610223BB613B1D19460448B7
:105A100004F0F2F900BF5037BD4680BD00040040DD
:105A20000000025880B586B000AF3B1D00221A600E
:105A30005A609A60DA601A610220FEF7EBFE0023DA
:105A4000BB800023BB6043F69823FB6000233B61CF
:105A500000237B613B1D19460C4805F02FFA0B48CB
:105A6000FEF781FF00210948FFF72EF820210748A3
:105A7000FFF740F800210548FFF74FF80348FFF70C
:105A80005FF800BF1837BD4680BD00BF000401406D
:105A900080B586B000AF3B1D00221A605A609A6044
:105AA000DA601A614FF48020FEF7B4FEFDF742FF82
:105AB0000346002200211846FDF7B6FF03461946AB
:105AC0007620FDF787FF7620FDF742FF45F6C053AD
:105AD000BB800023BB6044F62063FB6000233B6176
