:020000040800F2
:1000000000400020251F0008811E0008871E0008F0
:1000100000000000000000000000000000000000E0
:100020000000000000000000000000008D1E00081D
:100030000000000000000000971E0008A11E00083C
:10004000751F0008751F0008751F0008751F000840
:10005000751F000825A20008751F0008751F0008FD
:10006000751F0008751F0008751F0008751F000820
:10007000751F0008751F0008751F0008751F000810
:10008000751F0008751F0008751F0008751F000800
:10009000751F0008751F0008751F0008751F0008F0
:1000A000751F0008751F0008751F0008751F0008E0
:1000B000751F0008751F0008751F0008BD1E000889
:1000C00010B5064C2378002B07D1054B002B02D02E
:1000D000044800E000BF0123237010BDE4010020AC
:1000E00000000000D0EE0008044B10B5002B03D038
:1000F0000349044800E000BF10BDC04600000000F6
:10010000E8010020D0EE0008002243088B4274D39F
:1001100003098B425FD3030A8B4244D3030B8B4208
:1001200028D3030C8B420DD3FF22090212BA030C11
:100130008B4202D31212090265D0030B8B4219D3F2
:1001400000E0090AC30B8B4201D3CB03C01A524112
:10015000830B8B4201D38B03C01A5241430B8B425A
:1001600001D34B03C01A5241030B8B4201D30B0343
:10017000C01A5241C30A8B4201D3CB02C01A52416A
:10018000830A8B4201D38B02C01A5241430A8B422D
:1001900001D34B02C01A5241030A8B4201D30B0216
:1001A000C01A5241CDD2C3098B4201D3CB01C01A30
:1001B000524183098B4201D38B01C01A524143093A
:1001C0008B4201D34B01C01A524103098B4201D328
:1001D0000B01C01A5241C3088B4201D3CB00C01A95
:1001E000524183088B4201D38B00C01A524143080D
:1001F0008B4201D34B00C01A5241411A00D2014632
:10020000524110467047FFE701B5002000F0F0F8BA
:1002100002BDC0460029F7D076E7704703460B437E
:100220007FD4002243088B4274D303098B425FD3EF
:10023000030A8B4244D3030B8B4228D3030C8B421B
:100240000DD3FF22090212BA030C8B4202D3121201
:10025000090265D0030B8B4219D300E0090AC30BD6
:100260008B4201D3CB03C01A5241830B8B4201D383
:100270008B03C01A5241430B8B4201D34B03C01A6C
:100280005241030B8B4201D30B03C01A5241C30AE4
:100290008B4201D3CB02C01A5241830A8B4201D355
:1002A0008B02C01A5241430A8B4201D34B02C01A3F
:1002B0005241030A8B4201D30B02C01A5241CDD2E4
:1002C000C3098B4201D3CB01C01A524183098B422F
:1002D00001D38B01C01A524143098B4201D34B0118
:1002E000C01A524103098B4201D30B01C01A52417B
:1002F000C3088B4201D3CB00C01A524183088B4202
:1003000001D38B00C01A524143088B4201D34B00EA
:10031000C01A5241411A00D201465241104670475C
:100320005DE0CA0F00D04942031000D34042534061
:1003300000229C4603098B422DD3030A8B4212D321
:10034000FC22890112BA030A8B420CD38901921153
:100350008B4208D3890192118B4204D389013AD090
:10036000921100E08909C3098B4201D3CB01C01A65
:10037000524183098B4201D38B01C01A5241430978
:100380008B4201D34B01C01A524103098B4201D366
:100390000B01C01A5241C3088B4201D3CB00C01AD3
:1003A000524183088B4201D38B00C01A5241D9D2EB
:1003B00043088B4201D34B00C01A5241411A00D26C
:1003C0000146634652415B10104601D34042002B68
:1003D00000D54942704763465B1000D3404201B5E7
:1003E000002000F005F802BD0029F8D016E770479C
:1003F0007047C04680B582B000AF0200FB1D1A7086
:10040000FB1D1B787F2B09D8FB1D1B781A001F23AF
:100410001A40044B012191400A001A60C046BD46B3
:1004200002B080BD00E100E090B583B000AF0200F3
:100430003960FB1D1A70FB1D1B787F2B28D82F4AB3
:10044000FB1D1B785BB29B08C0339B009B58FA1DB9
:100450001278110003220A40D200FF2191400A00C5
:10046000D2431A4011003B689B01FF221A40FB1D3A
:100470001B78180003230340DB009A401F48FB1D34
:100480001B785BB29B080A43C0339B001A5031E0D3
:100490001B4AFB1D1B7819000F230B40083B9B08D0
:1004A00006339B00D31804331B68FA1D1278110021
:1004B00003220A40D200FF2191400A00D2431A4091
:1004C00011003B689B01FF221A40FB1D1B7818009E
:1004D00003230340DB009A400948FB1D1B781C00E6
:1004E0000F232340083B9B080A4306339B00C31895
:1004F00004331A60C046BD4603B090BD00E100E081
:1005000000ED00E080B582B000AF786039607B68B4
:100510005B69072293431A003B681A437B685A6160
:10052000C046BD4602B080BD80B582B000AF7860E5
:1005300039607B68DB68042293431A003B681A43E6
:100540007B68DA60C046BD4602B080BD80B582B02F
:1005500000AF786039607B689A6A3B685B035B0B2D
:100560001A437B689A62C046BD4602B080BD000057
:1005700080B584B000AFF860B9607A60BB68013BB9
:100580000B4AD35C1A00FB68D3181B68094A134056
:100590001900BB68013B064AD35C1A00FB68D318FC
:1005A0007A680A431A60C046BD4604B080BDC046A2
:1005B0001CF90008EFBFFFFF80B584B000AFF86002
:1005C000B9607A60BB68013B0B4AD35C1A00FB68D8
:1005D000D3181B68202293431900BB68013B064ACD
:1005E000D35C1A00FB68D3187A680A431A60C046C5
:1005F000BD4604B080BDC0461CF9000880B584B07B
:1006000000AFF860B9607A60BB68013B0B4AD35C0D
:100610001A00FB68D3181B68402293431900BB687B
:10062000013B064AD35C1A00FB68D3187A680A4378
:100630001A60C046BD4604B080BDC0461CF9000823
:1006400080B584B000AFF860B9607A60BB68013BE8
:100650000B4AD35C1A00FB68D3181B6880229343B3
:100660001900BB68013B064AD35C1A00FB68D3182B
:100670007A680A431A60C046BD4604B080BDC046D1
:100680001CF9000880B584B000AFF860B9607A60EA
:10069000BB68013B0B4AD35C1A00FB68D3181B688C
:1006A000094A13401900BB68013B064AD35C1A0093
:1006B000FB68D3187A680A431A60C046BD4604B086
:1006C00080BDC0461CF90008FFFCFFFF80B584B068
:1006D00000AFF860B9607A60BB68013B0B4AD35C3D
:1006E0001A00FB68D3181B68094A13401900BB683D
:1006F000013B064AD35C1A00FB68D3187A680A43A8
:100700001A60C046BD4604B080BDC0461CF9000852
:10071000FFF3FFFF80B584B000AFF860B9607A6086
:10072000BB68013B0B4AD35C1A00FB68D3181B68FB
:10073000094A13401900BB68013B064AD35C1A0002
:10074000FB68D3187A680A431A60C046BD4604B0F5
:1007500080BDC0461CF90008FFCFFFFF80B584B004
:1007600000AFF860B9607A60BB68013B054AD35CB2
:100770001A00FB68D3187A689A60C046BD4604B078
:1007800080BDC0461CF9000880B582B000AF78601B
:100790007B681B68034A1A407B681A60C046BD46E6
:1007A00002B080BDFFFFFDFF80B582B000AF786072
:1007B0007B681B68034A1A407B681A60C046BD46C6
:1007C00002B080BDFFFFF7FF80B584B000AFF860D6
:1007D000B9607A60FB68DB68054A1A40B9687B68D3
:1007E0000B431A43FB68DA60C046BD4604B080BDC7
:1007F00001F8FFFF80B582B000AF78607B68DB68EE
:10080000034A1A407B68DA60C046BD4602B080BD2C
:10081000FF7FFFFF80B582B000AF78607B685B68C8
:10082000802292041A437B685A60C046BD4602B0DB
:1008300080BD000080B500AF044B1A68034B012156
:100840000A431A60C046BD4680BDC0460010024043
:1008500080B500AF054B1B6802221340023B5A4291
:100860005341DBB21800BD4680BDC04600100240B7
:1008700080B582B000AF7860064B1B68F8229343C6
:1008800019007B68DA00034B0A431A60C046BD4674
:1008900002B080BD0010024080B500AF044B5A6B1F
:1008A000034B802149020A435A63C046BD4680BDBE
:1008B0000010024080B500AF064B5A6B80239B02AC
:1008C0001340054A944663445A425341DBB2180030
:1008D000BD4680BD001002400000FEFF80B500AFA5
:1008E000044B5A6B034B01210A435A63C046BD4671
:1008F00080BDC0460010024080B500AF054B5B6B69
:1009000002221340023B5A425341DBB21800BD465B
:1009100080BDC0460010024080B500AF044B5A6B4A
:10092000034B04218A435A63C046BD4680BDC0467E
:100930000010024080B582B000AF7860064B5B6B60
:10094000F822934319007B68DA00034B0A435A6389
:10095000C046BD4602B080BD0010024080B582B0E6
:1009600000AF7860064B5B68032293431900044B89
:100970007A680A435A60C046BD4602B080BDC04690
:100980000010024080B500AF034B5B680C2213409F
:100990001800BD4680BDC0460010024080B582B040
:1009A00000AF7860064B5B68F02293431900044B5C
:1009B0007A680A435A60C046BD4602B080BDC04650
:1009C0000010024080B582B000AF7860064B5B68D3
:1009D000064A13401900044B7A680A435A60C0461D
:1009E000BD4602B080BDC04600100240FFF8FFFFC8
:1009F00080B582B000AF7860064B1B6B102293432A
:100A00001900044B7A680A431A63C046BD4602B017
:100A100080BDC0460010024080B582B000AF786053
:100A2000064B1B6B802293431900044B7A680A43E0
:100A30001A63C046BD4602B080BDC04600100240E9
:100A400080B584B000AF7860074B5969064B7A686F
:100A50000A435A61044B5B697A681340FB60FB6888
:100A6000C046BD4604B080BD0010024080B584B0D1
:100A700000AF7860074BD969064B7A680A43DA61A0
:100A8000044BDB697A681340FB60FB68C046BD46D7
:100A900004B080BD0010024080B584B000AF786023
:100AA000074B9969064B7A680A439A61044B9B6924
:100AB0007A681340FB60FB68C046BD4604B080BD49
:100AC0000010024090B583B000AF786039600F4AE3
:100AD0003B68FF210B4002339B009B583A68120C85
:100AE0000F2191400A00D2431A4011003B681B0CB1
:100AF0007A689A4005483B68FF2423400A43023342
:100B00009B001A50C046BD4603B090BD0000014096
:100B100080B582B000AF7860064B1B68012293431A
:100B20001900044B7A680A431A60C046BD4602B0F9
:100B300080BDC0460020024080B500AF034B1B685B
:100B4000012213401800BD4680BDC046002002406F
:100B500080B500AF044B1A68034B02210A431A60A8
:100B6000C046BD4680BDC04610E000E080B582B002
:100B700000AF786039607B685B68102293431A008D
:100B80003B681A437B685A60C046BD4602B080BDD0
:100B900080B582B000AF786039607B685B68054AD9
:100BA0001A403B681A437B685A60C046BD4602B093
:100BB00080BDC046FFEFFFFF80B582B000AF786018
:100BC0007B685B6808221A437B685A60C046BD4652
:100BD00002B080BD80B582B000AF78607B680C3316
:100BE0001800BD4602B080BD80B582B000AF78600D
:100BF0007B681B68802293431A007B681A60C0469A
:100C0000BD4602B080BD000080B586B000AFF86080
:100C1000B9607A60BB68012B1ED0BB68042B19D069
:100C2000BB68102B14D0BB68402B0FD0BA68802350
:100C30005B009A4208D0BA688023DB009A4201D157
:100C400005230AE0062308E0042306E0032304E06A
:100C5000022302E0012300E0002317203A1813705A
:100C6000FB68183319003B181B780E4AD35CCB186D
:100C70003B613B691B683A1812780B498A5C11008A
:100C800003228A40D2431A407B681B0C391809782A
:100C90000548415C8B401A433B691A60C046BD461B
:100CA00006B080BD24F900082CF9000880B586B094
:100CB00000AFF860B9607A60BB68012B1ED0BB68DA
:100CC000042B19D0BB68102B14D0BB68402B0FD05D
:100CD000BA6880235B009A4208D0BA688023DB00A0
:100CE0009A4201D105230AE0062308E0042306E026
:100CF000032304E0022302E0012300E00023172085
:100D00003A181370FB68183319003B181B780E4A09
:100D1000D35CCB183B613B691B683A1812780B49CE
:100D20008A5C11000C228A40D2431A407B681B0C5B
:100D3000391809780548415C8B401A433B691A60B1
:100D4000C046BD4606B080BD24F900082CF9000855
:100D500080B586B000AFF860B9607A60BB68012BDF
:100D60001ED0BB68042B19D0BB68102B14D0BB68F5
:100D7000402B0FD0BA6880235B009A4208D0BA6833
:100D80008023DB009A4201D105230AE0062308E014
:100D9000042306E0032304E0022302E0012300E031
:100DA000002317203A181370FB68183319003B18FA
:100DB0001B780E4AD35CCB183B613B691B683A1821
:100DC00012780B498A5C1100F0228A40D2431A4003
:100DD0007B681B0C391809780548415C8B401A4325
:100DE0003B691A60C046BD4606B080BD24F90008C4
:100DF0002CF9000880B586B000AFF860B9607A6061
:100E0000BB68012B1ED0BB68042B19D0BB68102B0C
:100E100014D0BB68402B0FD0BA6880235B009A4285
:100E200008D0BA688023DB009A4201D105230AE08A
:100E3000062308E0042306E0032304E0022302E083
:100E4000012300E0002317203A181370FB681B6A87
:100E50003A1812780A498A5C11000A228A40D24361
:100E60001A403B181B780649CB5C19007B688B4005
:100E70001A43FB681A62C046BD4606B080BDC04634
:100E800034F9000880B582B000AF786039607B68C3
:100E90009B68072293431A003B681A437B689A6059
:100EA000C046BD4602B080BD80B582B000AF78605C
:100EB00039607B685B68702293431A003B681A4371
:100EC0007B685A60C046BD4602B080BD80B582B026
:100ED00000AF78607B689B68802293431A007B6830
:100EE0009A60C046BD4602B080BD80B582B000AFFA
:100EF00078607B681B6801221A437B681A60C046D1
:100F0000BD4602B080BD000080B582B000AF786001
:100F100039607B681B68054A1A403B681B041A430A
:100F20007B681A60C046BD4602B080BDFFFFE0FF8F
:100F300080B582B000AF786039607B681B68054A75
:100F40001A403B685B051A437B681A60C046BD4681
:100F500002B080BDFFFF1FFC80B582B000AF78609B
:100F60007B689B688022D2011A437B689A60C046E6
:100F7000BD4602B080BD000080B582B000AF786091
:100F800039607B689B68054A1A403B681A437B6856
:100F90009A60C046BD4602B080BDC046FF7FFFFFDD
:100FA00080B582B000AF78607B685B68074A1A4002
:100FB0007B685A607B689B682A2293431A007B688F
:100FC0009A60C046BD4602B080BDC046FFB7FFFF75
:100FD00080B584B000AFF860B9607A60FB681968CA
:100FE000BB685B431A0013005B009B18DB430B409C
:100FF0001A00BB685B4379684B431A43FB681A606D
:10100000C046BD4604B080BD80B584B000AFF86076
:10101000B9607A60FB68D968BB685B431A0013004B
:101020005B009B18DB430B401A00BB685B4379688D
:101030004B431A43FB68DA60C046BD4604B080BD2E
:1010400080B582B000AF786039607B683A689A6199
:10105000C046BD4602B080BD80B582B000AF7860AA
:1010600039607B683A689A62C046BD4602B080BD6E
:1010700080B500AF00F080FF00F01AF800F0F2FC3D
:1010800000F0E8FC00F064F800F034F900F076F9C4
:1010900000F0E2FB0DF01AF900F0F8F900F004FBA3
:1010A00000F0ACFBFFF754FD0CF084FFFEE70000FE
:1010B00080B500AF0120FFF72BFDC046FFF73CFDD8
:1010C0000300012BFAD1FFF7B5FBC046FFF7C0FBC9
:1010D0000300012BFAD11020FFF7CAFBFFF7FEFB3C
:1010E000C046FFF709FC0300012BFAD11020FFF7DF
:1010F00021FCFFF7D1FBC046FFF7DCFB0300012B0F
:10110000FAD10020FFF74AFC0020FFF75BFC032028
:10111000FFF724FCC046FFF735FC03000C2BFAD187
:101120000A4B180005F034FD002000F039FF031EC3
:1011300001D000F07BFEFFF7EFFB0020FFF758FC2B
:101140000020FFF769FCC046BD4680BD006CDC0294
:10115000B0B590B000AF30257B19180010231A00ED
:1011600000210DF062FE1C243B19180014231A0004
:1011700000210DF05AFE3B1D180018231A00002113
:101180000DF053FE80239B001800FFF785FC8023A1
:101190009B021800FFF754FC3B1D01221A603B1D07
:1011A00003225A603B1D00221A613A1D9023DB0581
:1011B0001100180002F064FF3B1D02221A603B1D63
:1011C00003225A603B1D00221A613A1D9023DB0561
:1011D0001100180002F054FF3B1D04221A603B1D51
:1011E00003225A603B1D00221A613A1D9023DB0541
:1011F0001100180002F044FF3A4B002201211800B0
:10120000FFF7B6F9374B002201211800FFF782FAE9
:10121000344B202201211800FFF7CEF9314B002278
:1012200001211800FFF7EAF92E4B80220121180056
:10123000FFF706FA80235B002A481A000121FFF716
:1012400021FA8023DB0027481A000121FFF73EFA2C
:10125000254B01211800FFF779F9244A224B110090
:101260001800FFF773F9224A1F4B11001800FFF70F
:101270006DF929007B1800221A607B1800225A6041
:101280007B1800229A607B180022DA607B18164ACD
:101290001900100002F04CFC21007B1800221A609B
:1012A0007B1800225A607B18802292019A607B187A
:1012B0000322DA607B18802252011A617B180A4AE5
:1012C0001900100002F06AFC074B00211800FFF71C
:1012D0002BF9054B02211800FFF714F9C046BD4653
:1012E00010B0B0BD00000240002401400200000424
:1012F0000400000890B58BB000AF18243B1918000B
:1013000010231A0000210DF090FD3B001800182357
:101310001A0000210DF089FD80239B051800FFF7BE
:10132000A5FB80239B021800FFF78AFB3B001022DD
:101330001A603B0003225A603B0000221A613A0007
:101340009023DB051100180002F09AFE3B193822A9
:101350001A603B1900225A603B190022DA603B19DF
:10136000044905481A0002F067FCC046BD460BB0B0
:1013700090BDC046010010020074004090B58FB0CF
:1013800000AF1C243B1918001C231A0000210DF08B
:101390004CFD3B1D180018231A0000210DF045FDDF
:1013A0008023DB021800FFF74BFB3B1D40221A6035
:1013B0003B1D02225A603B1D03229A603B1D012205
:1013C000DA603B1D01221A613B1D01225A613B1D5F
:1013D0002B4A1900100002F053FE3B1D80221A60B8
:1013E0003B1D02225A603B1D03229A603B1D0122D5
:1013F000DA603B1D01221A613B1D01225A613B1D2F
:101400001F4A1900100002F03BFE80239B031800C6
:10141000FFF72CFB1B4B1800FFF7ECF9194B1800DA
:10142000FFF7C2F9174B1800FFF7AEF921007B1840
:1014300000221A607B18144A5A607B1800229A60B6
:101440007B180022DA607B1800221A617B180022C8
:101450005A617B1800229A617B180A4A1900100011
:1014600002F008FF074B1800FFF7D4F9054B0022E4
:1014700000211800FFF7A8F9C046BD460FB090BD87
:1014800000040048005400400E09002090B591B0BF
:1014900000AF18243B19180028231A0000210DF072
:1014A000C4FC3B00180018231A0000210DF0BDFCFD
:1014B00080235B011800FFF7EFFA8023DB0218009E
:1014C000FFF7BEFA3B0008221A603B0002225A6076
:1014D0003B0003229A603B000022DA603B000022BE
:1014E0001A613B0000225A613B006C4A190010004F
:1014F00002F0C6FD3B0010221A603B0002225A6037
:101500003B0003229A603B000022DA603B0000228D
:101510001A613B0000225A613B00604A190010002A
:1015200002F0AEFD3B0020221A603B0002225A600E
:101530003B0003229A603B000022DA603B0000225D
:101540001A613B0000225A613B00544A1900100006
:1015500002F096FD524B102203211800FFF708F805
:101560004F4B002203211800FFF7D4F84C4B002208
:1015700003211800FFF720F8494B0022032118002F
:10158000FFF73CF8464B802203211800FFF758F87C
:10159000434B002203211800FFF774F8404B002250
:1015A00003211800FFF792F83D4B0022022118009A
:1015B000FEF7DEFF3A4B002202211800FFF7AAF8DF
:1015C000374B002202211800FEF7F6FF344B0022B1
:1015D00002211800FFF712F8314B80220221180077
:1015E000FFF72EF82E4B002202211800FFF74AF8D1
:1015F0002B4B002202211800FFF768F821007B180E
:1016000000221A607B18822252005A607B18E02266
:10161000D2009A607B180022DA607B1800221A61DF
:101620007B18802292005A617B1808229A617B18ED
:101630000022DA617B1800221A627B1807225A62A4
:101640007B18184A1900100003F036F8154B0021DA
:101650001800FFF78BFA134B1800FFF7ADFA802341
:101660005B01104A19001000FFF792FA0D4B1800A9
:10167000FFF7B0FA03000A481A000221FFF76EF8DC
:10168000084B1800FFF7A6FA030005481A000321CB
:10169000FFF764F8C046BD4611B090BD0004004895
:1016A000000002400030014090B58DB000AF1C2416
:1016B0003B19180014231A0000210DF0B6FB3B1D46
:1016C000180018231A0000210DF0AFFB0220FFF7CD
:1016D000CDF980239B021800FFF7B2F93B1D402291
:1016E0001A603B1D02225A603B1D00229A603B1D7E
:1016F0000022DA603B1D00221A613B1D01225A6163
:101700003A1D9023DB051100180002F0B9FC3B1DC7
:1017100080221A603B1D02225A603B1D00229A6003
:101720003B1D0022DA603B1D00221A613B1D012295
:101730005A613A1D9023DB051100180002F0A0FC4D
:101740002C4B01211800FFF79DFB80235B022948E9
:101750001A000121FFF758FA264B00220121180038
:10176000FFF7A4FA234B002201211800FFF7F0FA3B
:10177000204B002201211800FFF73CFB80235B0275
:101780001C481A001021FFF73FFA1A4B00221021C3
:101790001800FFF78BFA174B002210211800FFF7F3
:1017A000D7FA144B002210211800FFF723FB3B1936
:1017B00000221A803B1900225A603B190E4A9A6097
:1017C0003B190022DA603B190A4A1900100003F0A5
:1017D00003F8084B1800FFF707FA064B0021180022
:1017E000FFF762FB034B1800FFF770FBC046BD46D6
:1017F0000DB090BD00040040FFFF000080B586B032
:1018000000AF3B1D180014231A0000210DF00DFB42
:1018100080235B001800FFF729F93B1D00221A8086
:101820003B1D00225A603B1D094A9A603B1D002265
:10183000DA603B1D074A1900100002F0CDFF054B8E
:101840001800FFF7D1F9C046BD4606B080BDC046BE
:10185000FFFF00000020004090B58FB000AF1C24B7
:101860003B1918001C231A0000210DF0DEFA3B1D65
:10187000180018231A0000210DF0D7FA8023DB028C
:101880001800FFF7F3F88023DB021800FFF7D8F801
:101890003B1D02221A603B1D02225A603B1D03229F
:1018A0009A603B1D0022DA603B1D00221A613B1D3D
:1018B00004225A613B1D634A1900100002F0E0FB4C
:1018C0003B1D8022D2001A603B1D02225A603B1D44
:1018D00003229A603B1D0022DA603B1D00221A6140
:1018E0003B1D04225A613B1D564A1900100002F0AC
:1018F000C7FB3B1D802212011A603B1D02225A6069
:101900003B1D03229A603B1D0022DA603B1D002232
:101910001A613B1D04225A613B1D4A4A19001000FE
:1019200002F0AEFB484B002206211800FEF720FE15
:10193000454B002206211800FEF7ECFE424B202208
:1019400006211800FEF738FE3F4B00220621180042
:10195000FEF754FE3C4B802206211800FEF770FE75
:10196000394B002206211800FEF78CFE364B002270
:1019700006211800FEF7AAFE334B1022072118009B
:10198000FEF7F6FD304B002207211800FEF7C2FEDD
:101990002D4B002207211800FEF70EFE2A4B0022D5
:1019A00007211800FEF72AFE274B80220721180086
:1019B000FEF746FE244B002207211800FEF762FEC8
:1019C000214B002207211800FEF780FE21007B1822
:1019D0001E4A1A607B1800225A607B1800229A6007
:1019E0007B180022DA607B180C221A617B18002217
:1019F0005A617B1800229A617B18154A1900100061
:101A000002F0E2FF124B1800FFF7A6FA104B00217C
:101A10001800FFF7B1FA0E4B00211800FFF788FA03
:101A20000B4B00211800FFF76FFA094B1800FFF766
:101A3000B7FA074B1800FFF758FAC046BD460FB07B
:101A400090BDC0460004004800000240C0C62D0002
:101A50000048004080B500AF0120FEF7F1FFC0460E
:101A6000BD4680BD90B589B000AF18243B19180061
:101A700008231A0000210DF0D8F93B0018001823A4
:101A80001A0000210DF0D1F980231B031800FEF786
:101A9000D7FF8023DB031800FEF7D2FF80239B02D1
:101AA0001800FEF7CDFF8023DB021800FEF7C8FF09
:101AB00080239B01DA4A19001000FFF7CDFA80233A
:101AC000DB01D74A19001000FFF7C6FA80231B027A
:101AD000D34A19001000FFF7BFFA80235A00902361
:101AE000DB0511001800FFF7B7FA80239A00902356
:101AF000DB0511001800FFF7AFFA8023DA0090230E
:101B0000DB0511001800FFF7A7FA80231A029023C3
:101B1000DB0511001800FFF79FFA80239B00C04AE5
:101B200019001000FFF798FA80235B00BC4A1900E7
:101B30001000FFF785FA3B00802292011A603B00FB
:101B400000225A603B0001221A613B00B54A19008D
:101B5000100002F095FA3B008022D2011A603B008F
:101B600000225A603B0001221A613B00AD4A190075
:101B7000100002F085FA3B00802212021A603B003E
:101B800000225A603B0001221A613B00A54A19005D
:101B9000100002F075FA3B0008221A603B00002298
:101BA0005A603B0001221A613A009023DB051100C4
:101BB000180002F065FA3B0020221A603B00002268
:101BC0005A603B0001221A613A009023DB051100A4
:101BD000180002F055FA3B0001221A603B00002277
:101BE0005A603B0001221A613B008D4A1900100027
:101BF00002F046FA3B0004221A603B0000225A60C1
:101C00003B0001221A613B00854A1900100002F0D6
:101C100037FA3B00802252011A603B0000225A60D2
:101C20003B0001221A613B007D4A1900100002F0BE
:101C300027FA3B00802292011A603B0001225A6081
:101C40003B0003229A603B000122DA603B00012244
:101C50001A613B00724A1900100002F011FA3B00B1
:101C60008022D2011A603B0001225A603B0003220D
:101C70009A603B000122DA603B0001221A613B00BE
:101C8000674A1900100002F0FBF93B0080221202A3
:101C90001A603B0001225A603B0003229A603B001D
:101CA0000122DA603B0001221A613B005C4A190004
:101CB000100002F0E5F93B00802252001A603B0060
:101CC00001225A603B0003229A603B000122DA6045
:101CD0003B0001221A613A009023DB051100180035
:101CE00002F0CEF93B00802292001A603B000122F4
:101CF0005A603B0003229A603B000122DA603B00FD
:101D000001221A613A009023DB051100180002F04D
:101D1000B7F93B008022D2001A603B0001225A60D2
:101D20003B0003229A603B000122DA603B00012263
:101D30001A613A009023DB051100180002F0A0F9A7
:101D40003B00802212021A603B0001225A603B00D5
:101D500003229A603B000122DA603B0001221A61F3
:101D60003A009023DB051100180002F089F93B00CE
:101D7000802252001A603B0001225A603B0003227D
:101D80009A603B000022DA603B0000221A613B00AF
:101D9000234A1900100002F073F93B0080229200E0
:101DA0001A603B0001225A603B0000229A603B000F
:101DB0000122DA603B0000221A613B00184A190038
:101DC000100002F05DF900210520FEF77BFE164BA6
:101DD000002201211800FFF717F9134B00220121FF
:101DE0001800FFF7F5F821007B1801221A607B1814
:101DF00001221A717B1800225A717B1801229A71F4
:101E00007B18180001F0FAFF00210520FEF70CFBFB
:101E10000520FEF7EFFAC046BD4609B090BDC046AA
:101E200000040048000800480014004880B500AFD6
:101E300072B6C046FEE7000080B582B000AF0F4B1F
:101E40009A690E4B01210A439A610C4B9B6901224E
:101E500013407B607B68094BDA69084B8021490598
:101E60000A43DA61054BDA6980235B0513403B6066
:101E70003B68C046BD4602B080BDC046001002406F
:101E800080B500AFFEE780B500AFFEE780B500AFDC
:101E9000C046BD4680BD80B500AFC046BD4680BDD2
:101EA00080B500AF044B1B685A1C034B1A6000F04E
:101EB000ABF8C046BD4680BD3C08002080B500AFF1
:101EC000034B180000F0C6FAC046BD4680BDC046B0
:101ED0002C18002080B500AF01231800BD4680BD3E
:101EE00080B582B000AF786039600CF06BFF030002
:101EF00016221A6001235B421800BD4602B080BD65
:101F000080B582B000AF786001235A427B6811002F
:101F10001800FFF7E5FFFEE780B500AFC046BD46FD
:101F200080BD00000D488546FFF7F6FF0C480D49BF
:101F30000D4A002302E0D458C4500433C4188C4224
:101F4000F9D30A4A0A4C002301E013600432A2428A
:101F5000FBD30CF03DFFFFF78BF8FEE700400020BD
:101F600000000020E4010020F0310108E40100201D
:101F7000241B0020FEE7000080B500AF074B1A6865
:101F8000064B10210A431A60002000F009F8FFF701
:101F900053FF00231800BD4680BDC046002002400C
:101FA00090B583B000AF7860144B1C68144B1B785D
:101FB0001900FA239800FEF7A7F803001900200083
:101FC000FEF7A2F80300180000F001F9031E01D08B
:101FD00001230FE07B68032B0BD8796801235B4258
:101FE0000022180000F0CEF8064B7A681A60002331
:101FF00000E001231800BD4603B090BD00000020A2
:10200000080000200400002080B500AF054B1B78BD
:102010001A00054B1B68D218034B1A60C046BD4618
:1020200080BDC04608000020A012002080B582B00C
:1020300000AF0200FB1D1A70FB1D1B787F2B09D817
:10204000FB1D1B781A001F231A40044B01219140ED
:102050000A001A60C046BD4602B080BD00E100E043
:1020600090B583B000AF02003960FB1D1A70FB1DF4
:102070001B787F2B28D82F4AFB1D1B785BB29B084F
:10208000C0339B009B58FA1D1278110003220A40AE
:10209000D200FF2191400A00D2431A4011003B6850
:1020A0009B01FF221A40FB1D1B78180003230340ED
:1020B000DB009A401F48FB1D1B785BB29B080A435C
:1020C000C0339B001A5031E01B4AFB1D1B781900DE
:1020D0000F230B40083B9B0806339B00D3180433A7
:1020E0001B68FA1D1278110003220A40D200FF215A
:1020F00091400A00D2431A4011003B689B01FF2225
:102100001A40FB1D1B78180003230340DB009A4094
:102110000948FB1D1B781C000F232340083B9B082C
:102120000A4306339B00C31804331A60C046BD46F9
:1021300003B090BD00E100E000ED00E080B582B0AA
:1021400000AF78607B685A1E80235B049A4201D3FB
:10215000012310E00A4B7A68013A5A6001235B427E
:1021600003211800FFF77CFF054B00229A60044B07
:1021700007221A6000231800BD4602B080BDC04689
:1021800010E000E080B584B000AFB9607A600F2144
:102190007B18021C1A70BA687B181B785BB211009E
:1021A0001800FFF75DFFC046BD4604B080BD80B596
:1021B00082B000AF0200FB1D1A70FB1D1B785BB2E2
:1021C0001800FFF733FFC046BD4602B080BD80B5A2
:1021D00082B000AF78607B681800FFF7AFFF0300A4
:1021E0001800BD4602B080BDF0B58BB006AF786078
:1021F0007B68002B01D10123FFE07B68814A9B5C57
:10220000DBB2002B08D17A68AA239B000021D154AD
:102210007B6818000CF050FA7B687A4A03219954C5
:102220007B681B68180002F067FC0F23FB18002274
:102230001A7058E00F203B181B7879685A1C13005D
:102240009B009B18DB00CB18013301221A703B184E
:102250001B7879685A1C13009B009B18DB003A1806
:1022600012785A5404003B181A783B191B7898B21C
:10227000796813009B009B18DB00CB183633021CD7
:102280001A803B191B7879685A1C13009B009B1815
:10229000DB00CB18033300221A703B191A787968D7
:1022A00013009B009B18DB00CB18383300221A6008
:1022B0003B191A78796813009B009B18DB00CB1838
:1022C0003C3300221A603B191A78796813009B008E
:1022D0009B18DB00CB18403300221A603B191A7898
:1022E0003B1901321A700F217B181A787B685B68E2
:1022F0009A429FD37B1800221A7056E00F243B1994
:102300001A7878686A23FF33190013009B009B1822
:10231000DB00C3185B1800221A703B191A78786822
:10232000B423590013009B009B18DB00C3185B18F3
:102330003A1912781A703B191A7878686C23FF33AF
:10234000190013009B009B18DB00C3185B180022C8
:102350001A703B191A787868BC23590013009B0047
:102360009B18DB00C3185B1800221A603B191A780F
:102370007868BE23590013009B009B18DB00C3182C
:102380005B1800221A603B191A787868C02359003C
:1023900013009B009B18DB00C3185B1800221A6017
:1023A0003B191A783B1901321A700F23FB181A785F
:1023B0007B685B689A42A1D37B6818687B686A4631
:1023C00011001A00103270CA70C130CA30C1596889
:1023D0009A68DB6802F0AAFB7B68242200219954EA
:1023E0007B68084A012199547B68DB69012B03D182
:1023F0007B68180001F056FB00231800BD4605B0AD
:10240000F0BDC046A902000080B582B000AF786080
:102410007A68AA239B00D35C012B01D1022314E02C
:102420007A68AA239B000121D1547B681B6818009D
:1024300002F04CFB7B681B68180004F0F1FA7A6824
:10244000AA239B000021D15400231800BD4602B0EE
:1024500080BD000080B582B000AF78607B681B68EB
:10246000180004F0F3FA020080231B021A408023B4
:102470001B029A4203D17B68180000F0BBFB7B680B
:102480001B68180004F0E2FA02008023DB001A4007
:102490008023DB009A4214D17B681B6844229B5A3C
:1024A0009AB27B681B68A2490A4091B244229952B1
:1024B0007B6818000CF08BF97B680021180000F095
:1024C00045F97B681B68180004F0C0FA02008023FD
:1024D000DB011A408023DB019A420BD17B681B6829
:1024E00044229B5A9AB27B681B6892490A4091B277
:1024F000442299527B681B68180004F0A7FA020076
:1025000080239B011A4080239B019A420BD17B6858
:102510001B6844229B5A9AB27B681B6886490A4012
:1025200091B2442299527B681B68180004F08EFA1D
:10253000020080235B011A4080235B019A4237D15D
:102540007B681B6840229B5A9AB27B681B680421F7
:102550008A4391B2402299527B681B6840229B5A61
:102560009AB27B681B6808218A4391B24022995233
:102570007A68B8239B00D35C012B09D17A68B82311
:102580009B000021D1547B680021180001F0B4FAAF
:102590007B6818000CF05CF97B681B6844229B5A2E
:1025A0009AB27B681B6865490A4091B244229952ED
:1025B0007B681B68180004F049FA020080231B01A5
:1025C0001A4080231B019A4227D17B681B68402256
:1025D0009B5A9AB27B681B6808210A4391B2402239
:1025E00099527B681B6844229B5A9AB27B681B688D
:1025F00053490A4091B2442299527B681B68402299
:102600009B5A9AB27B681B6804210A4391B240220C
:1026100099527B6818000CF0FFF87B681B68180063
:1026200004F014FA030080221340802B45D17B680C
:102630001B6844229B5A9AB27B681B6880218A439C
:1026400091B2442299527A68B8239B00D35C002B44
:102650002FD17B681B6840229B5A9AB27B681B680B
:1026600004210A4391B2402299527B681B684022A0
:102670009B5A9AB27B681B6808210A4391B2402298
:1026800099527A68B8239B000121D1547B681B685A
:1026900054229B5A9BB29B083C22134019007A6833
:1026A000B9239B00D1507B680121180001F024FA66
:1026B00003E07B6818000CF0AFF87B681B6818001B
:1026C00004F0C4F9020080239B001A4080239B0081
:1026D0009A420FD17B681B6844229B5A9AB27B684E
:1026E0001B6818490A4091B2442299527B6818002D
:1026F0000CF05EF87B681B68180004F0A7F9020074
:1027000080235B001A4080235B009A420BD17B68D8
:102710001B6844229B5A9AB27B681B680A490A408C
:1027200091B244229952C046BD4602B080BDC04617
:10273000FFFBFFFFFFBFFFFFFFDFFFFFFFEFFFFF1D
:10274000FFF7FFFFFFFDFFFFFFFEFFFF80B582B039
:1027500000AF78600A00FB1C1A707A68AA239B00FD
:10276000D35C012B01D1022317E07A68AA239B00D6
:102770000121D1547B68FA1C242112785A547B68B9
:102780001A68FB1C1B781900100004F035F97A68F0
:10279000AA239B000021D15400231800BD4602B09B
:1027A00080BD90B585B000AF78600C0010001900B6
:1027B000FB1C221C1A703B00021C1A80BB1C0A1C4A
:1027C0001A700B23FB1800221A70FB1C1B785BB2DB
:1027D000002B0FDAFB1C1B78072213405A1C130036
:1027E0009B009B18DB007A68D318FB60FB68012212
:1027F0005A700FE0FB1C1B7807221A4013009B0045
:102800009B18DB006933FF337A68D318FB60FB68E1
:1028100000225A70FB1C1B7807221340DAB2FB68B7
:102820001A703B001A88FB681A61FB68BA1C1278A0
:10283000DA70FB685B78002B04D0FB681B789AB2D7
:10284000FB68DA81BB1C1B78022B02D1FB680022DB
:102850001A717A68AA239B00D35C012B01D1022351
:1028600013E07A68AA239B000121D1547B681B687E
:10287000FA681100180002F085F97A68AA239B0013
:102880000021D1540B23FB181B781800BD4605B05E
:1028900090BD80B584B000AF78600A00FB1C1A7050
:1028A000FB1C1B785BB2002B0FDAFB1C1B7807228A
:1028B00013405A1C13009B009B18DB007A68D31846
:1028C000FB60FB6801225A700FE0FB1C1B7807229B
:1028D0001A4013009B009B18DB006933FF337A68B2
:1028E000D318FB60FB6800225A70FB1C1B78072280
:1028F0001340DAB2FB681A707A68AA239B00D35C93
:10290000012B01D1022311E07A68AA239B00012147
:10291000D1547B681B68FA681100180002F088FC2B
:102920007A68AA239B000021D15400231800BD46D9
:1029300004B080BD80B586B000AFF8607A603B60BF
:102940000B203B180A1C1A7001007B181B78072209
:102950001A4013009B009B18DB006933FF33FA68B1
:10296000D3187B617B697A685A617B693A689A619E
:102970007B690022DA617B6900225A707B181B7820
:1029800007221340DAB27B691A707B181B78072282
:10299000134007D1FB681B687A691100180002F028
:1029A00007FE06E0FB681B687A691100180002F058
:1029B000FFFD00231800BD4606B080BD80B582B083
:1029C00000AF78600A00FB1C1A70FB1C1B78072202
:1029D0001A407868C223590013009B009B18DB0043
:1029E000C3185B181B681800BD4602B080BD80B5D7
:1029F00086B000AFF8607A603B600B203B180A1C81
:102A00001A703B181B78072213405A1C13009B00B6
:102A10009B18DB00FA68D3187B617B697A685A617E
:102A20007B693A689A617B692422012199547B6908
:102A30003A681A627B690022DA617B6901225A7066
:102A40003B181B7807221340DAB27B691A703B18D7
:102A50001B780722134007D1FB681B687A691100B5
:102A6000180002F0A5FD06E0FB681B687A691100FA
:102A7000180002F09DFD00231800BD4606B080BD81
:102A800080B584B000AF78600A00FB1C1A70FB1C94
:102A90001B7807221A407B685B689A4201D90123A0
:102AA00046E0FB1C1B785BB2002B0FDAFB1C1B788B
:102AB000072213405A1C13009B009B18DB007A6806
:102AC000D318FB60FB6801225A700DE0FB1C1A78DA
:102AD00013009B009B18DB006933FF337A68D3181F
:102AE000FB60FB6800225A70FB6801229A70FB1C95
:102AF0001B7807221340DAB2FB681A707A68AA239F
:102B00009B00D35C012B01D1022311E07A68AA2338
:102B10009B000121D1547B681B68FA6811001800E2
:102B200003F068FE7A68AA239B000021D154002399
:102B30001800BD4604B080BD80B584B000AF786099
:102B40000A00FB1C1A70FB1C1B780F221A407B68C2
:102B50005B689A4201D9012348E0FB1C1B785BB2F9
:102B6000002B0FDAFB1C1B78072213405A1C1300A2
:102B70009B009B18DB007A68D318FB60FB6801227E
:102B80005A700FE0FB1C1B7807221A4013009B00B1
:102B90009B18DB006933FF337A68D318FB60FB684E
:102BA00000225A70FB6800229A70FB1C1B780722D7
:102BB0001340DAB2FB681A707A68AA239B00D35CD0
:102BC000012B01D1022311E07A68AA239B00012185
:102BD000D1547B681B68FA681100180003F05AFE94
:102BE0007A68AA239B000021D15400231800BD4617
:102BF00004B080BDB0B58EB000AF78601CE37B68D8
:102C00001A682E203B184421525A1A803B181B8800
:102C1000DAB22D243B190F210A401A703B191B7898
:102C2000002B00D05DE13B181B881022134052D1CD
:102C30007B681B681B889AB20E203B18DA490A4051
:102C40001A807B681B683A181288D8490A4392B2E6
:102C50001A807B6828337B627B681B6850229B5AF2
:102C60009BB21A007B6A1B78DB00D2187B681B685A
:102C7000D318CF4A944663441B889B059A0D7B6A00
:102C8000DA617B6A5A697B6ADB69D2187B6A5A61AE
:102C90007B68002118000BF06DFD7B6824229B5C93
:102CA000DBB2002B00D1C7E27B6A9B69002B00D00E
:102CB000C2E27B6824229B5CDBB280225242134337
:102CC000DAB27B681B6891B24C2299527B6824224D
:102CD00000219954B0E27B686933FF337B627B68E3
:102CE0001A682A217B1812881A807B181A88802378
:102CF0001B01134037D07B681B6850229B5A9BB244
:102D00001A007B6A1B78DB00D2187B681B68D3181B
:102D1000A84A944663441B889B059A0D7B6ADA6136
:102D20007B6818687B68AC22920099187B6ADA8805
:102D30007B6ADB699BB203F0DBFE7B681B681B8848
:102D40009AB210203B189C490A401A807B681B6885
:102D50003A18128880210A4392B21A807B681800C0
:102D60000BF0D2FC68E22A23FB1800229B5E002BAA
:102D700000DB61E27B681B681B889AB21C203B1851
:102D80008D490A401A807B681B683A181288802196
:102D90000A4392B21A807B681B6850229B5A9BB2EE
:102DA0001A007B6A1B78DB00D2187B681B68D3187B
:102DB000804A944663441B889B059A0D7B6ADA61BE
:102DC0007B6ADB69002B1AD07B6A5B69002B16D00B
:102DD0007B6818687B6A59697B6ADA887B6ADB6979
:102DE0009BB203F085FE7B6A5A697B6ADB69D21865
:102DF0007B6A5A617B68002118000BF09AFC7B68A3
:102E00001B68BB617B681B6850229B5A9BB21A00EF
:102E1000BB699B18BB61BB69664A944663447B618E
:102E20007B6A1B69002B10D17B691B889BB2634AAC
:102E300013409AB27B691A807B691B889BB25B4AFC
:102E400013439AB27B691A802BE07B6A1B693E2B85
:102E500012D87B6A1B695B083B637B6A1B69012292
:102E6000134002D03B6B01333B633B6B9BB29B0235
:102E70009AB27B691A8014E07B6A1B695B093B6329
:102E80007B6A1B691F22134002D13B6B013B3B63F2
:102E90003B6B9BB29B029BB2444A13439AB27B6941
:102EA0001A807B681B681B889AB212203B18444921
:102EB0000A401A803B183A181288802149014A407A
:102EC0001A803B183A181288802189014A401A80DA
:102ED0007B681B683A1812883A490A4392B21A80F2
:102EE000AAE17B681B681A002D203B181B789B0009
:102EF000D2182A217B1812881A807B1800229B5E28
:102F0000002B00DB0BE17B681B681A003B181B7869
:102F10009B00D3181B889AB228243B1926490A40E3
:102F20001A807B681B681A003B181B789B00D3181B
:102F30003A19128880210A4392B21A803B181A78F3
:102F400013009B009B18DB006933FF337A68D318AA
:102F50007B627B6A1B7B002B36D17B681B6850220F
:102F60009B5A9BB21A007B6A1B78DB00D2187B68E5
:102F70001B68D3180F4A944663441A8836243B19B9
:102F80009205920D1A803B191B88002B00D19EE000
:102F90007B6818687B6A59697B6ADA883B191B88E9
:102FA00003F0A6FD93E0C0460F8FFFFF0080FFFFF8
:102FB00002040000060400008F0F0000FF83FFFFE3
:102FC0008FBFFFFF8080FFFF7B6ADB78022B0CD175
:102FD0003623FC182A23FB181A88796A7B681800A4
:102FE00000F044F90300238071E07B681B681A003D
:102FF0007B6A1B789B00D3181B889AB222203B184F
:1030000094490A401A807B681B681A007B6A1B7807
:103010009B00D3183A1812888F490A4392B21A803B
:103020007B681B681A007B6A1B789B00D3181B887F
:103030009BB21A008023DB01134024D07B681B68FD
:1030400050229B5A9BB21A007B6A1B78DB00D21875
:103050007B681B68D318814A944663441A883624D7
:103060003B199205920D1A803B191B88002B2ED01C
:103070007B6818687B6A59697B6A1A893B191B88C7
:1030800003F036FD23E07B681B6850229B5A9BB2FD
:103090001A007B6A1B78DB00D2187B681B68D31888
:1030A0006F4A944663441A8836243B199205920D60
:1030B0001A803B191B88002B09D07B6818687B6A33
:1030C00059697B6A5A893B191B8803F011FD7B6A99
:1030D000DA6936217B181B88D2187B6ADA617B6A31
:1030E0005A697B181B88D2187B6A5A617B6A9B6974
:1030F000002B05D07B181A887B6A1B699A4207D27D
:103100007B6A1A787B68110018000BF012FB06E04E
:103110007B681B687A6A1100180002F049FA2A24B9
:103120003B191B888022134000D185E02D203B18DD
:103130001B785A1C13009B009B18DB007A68D3187D
:103140007B627B681B681A003B181B789B00D318B6
:103150001B889AB220257B1942490A401A807B6855
:103160001B681A003B181B789B00D3187A19128829
:103170003D490A4392B21A807B6ADB78022B09D15F
:103180007B6ADB78022B4FD13B191A8880235B00C6
:10319000134049D17B681B6850229B5A9BB21A008E
:1031A0007B6A1B78DB00D2187B681B68D3182B4A1C
:1031B000944663441A881E217B189205920D1A804A
:1031C0007B6A9A697B181B889A4207D97B6A9A693D
:1031D0007B181B88D21A7B6A9A6102E07B6A002204
:1031E0009A617B6A9B69002B07D17B6A1A787B689E
:1031F000110018000BF0BEFA1EE07B6A5A691E210E
:103200007B181B88D2187B6A5A617B6ADA697B1843
:103210001B88D2187B6ADA617B681B687A6A1100A6
:10322000180002F0C5F907E02A23FB181A88796A0A
:103230007B68180000F036F97B681B6844229B5AB3
:103240009BB21BB2002B00DAD9E400231800BD4664
:103250000EB0B0BD8F8FFFFFC080FFFF02040000E3
:10326000060400000F8FFFFF0080FFFF90B589B0BC
:1032700000AFF860B960BB1D1A80BB1D1A8880239F
:10328000DB01134000D17DE0FB681B6850229B5A94
:103290009BB21A00BB681B78DB00D218FB681B6866
:1032A000D3187A4A944663441A881A217B189205E7
:1032B000920D1A80BB689A697B181B889A4207D3C3
:1032C000BB689A697B181B88D21ABB689A6102E0B6
:1032D000BB6800229A61BB689B69002B21D1FB6807
:1032E0001B681A00BB681B789B00D3181B889AB216
:1032F00018203B1866490A401A803B183A18128871
:10330000802189014A401A80FB681B681A00BB684B
:103310001B789B00D3183A1812885E490A4392B270
:103320001A80BB1D1B88402213401AD0FB681B6803
:103330001A00BB681B789B00D3181B889AB2162012
:103340003B1855490A401A80FB681B681A00BB6885
:103350001B789B00D3183A18128850490A4392B23E
:103360001A801A243B191B88002B00D186E0FB68C9
:103370001868BB685969BB681A893B191B8803F038
:10338000B7FB7BE0FB681B6850229B5A9BB21A007C
:10339000BB681B78DB00D218FB681B68D318404A57
:1033A000944663441A881A217B189205920D1A805C
:1033B000BB689A697B181B889A4207D3BB689A69D5
:1033C0007B181B88D21ABB689A6102E0BB68002296
:1033D0009A61BB689B69002B21D1FB681B681A00AE
:1033E000BB681B789B00D3181B889AB21E203B1821
:1033F00027490A401A803B183A181288802189010F
:103400004A401A80FB681B681A00BB681B789B0047
:10341000D3183A1812881F490A4392B21A80BB1D6A
:103420001B88402213401AD1FB681B681A00BB6836
:103430001B789B00D3181B889AB21C203B18164996
:103440000A401A80FB681B681A00BB681B789B0047
:10345000D3183A18128811490A4392B21A801A24D2
:103460003B191B88002B09D0FB681868BB68596999
:10347000BB685A893B191B8803F03AFB1A23FB18D7
:103480001B881800BD4609B090BDC046020400006C
:103490008FBFFFFF8080FFFF8F8FFFFFC080FFFF88
:1034A0000604000080B594B000AFF860B960BB1DA1
:1034B0001A80BB1D1B884022134000D12EE1FB68FF
:1034C0001B6850229B5A9BB21A00BB681B78DB001A
:1034D000D218FB681B68D318BB4A944663441A8809
:1034E00048217B189205920D1A80BB689A697B1857
:1034F0001B889A4207D9BB689A697B181B88D21A25
:10350000BB689A6102E0BB6800229A61BB689B6954
:10351000002B29D1BB681A78FB68110018000BF04A
:1035200029F9BB1D1A888023DB01134000D130E24A
:10353000FB681B681A00BB681B789B00D3181B88AC
:103540009AB216203B18A1490A401A80FB681B68F2
:103550001A00BB681B789B00D3183A1812889C4944
:103560000A4392B21A8014E2BB1D1A888023DB0141
:1035700013401AD0FB681B681A00BB681B789B00BD
:10358000D3181B889AB22A203B1890490A401A8007
:10359000FB681B681A00BB681B789B00D3183A189D
:1035A00012888B490A4392B21A80BB6824229B5C22
:1035B000012B00D0EDE1BB685A6948217B181B88BC
:1035C000D218BB685A61BB68DA697B181B88D218AD
:1035D000BB68DA61BB681A6ABB681B699A4209D387
:1035E000BB681B697B64BB681A6A7B6CD21ABB68B8
:1035F0001A6216E0BB681B6A002B08D14823FB182F
:103600001B887B64BB6824220021995409E0BB68B5
:10361000242200219954BB681B6A7B64BB6800228A
:103620001A62BB685B78002B50D1FB681B68FB619A
:10363000FB681B6850229B5A9BB21A00FB699B18BF
:10364000FB61BB681B78DA00FB69D3185E4A9446BD
:103650006344BB617B6C002B10D1BB691B889BB2A0
:103660005C4A13409AB2BB691A80BB691B889BB243
:10367000594A13439AB2BB691A8044E07B6C3E2BD3
:1036800010D87B6C5B08FB627B6C0122134002D07C
:10369000FB6A0133FB62FB6A9BB29B029AB2BB6975
:1036A0001A8030E07B6C5B09FB627B6C1F2213404D
:1036B00002D1FB6A013BFB62FB6A9BB29B029BB29D
:1036C000454A13439AB2BB691A801CE0BB685B7819
:1036D000012B18D1FB681B687B62FB681B685022BA
:1036E0009B5A9BB21A007B6A9B187B62BB681B7853
:1036F000DA007B6AD318344A944663443B627B6C9D
:103700009AB23B6A1A80FB681868BB685969BB6843
:103710001A897B6C9BB203F0A7F93AE1FB681B683E
:1037200050229B5A9BB21A00BB681B78DB00D21850
:10373000FB681B68D318294A944663441A884821B9
:103740007B189205920D1A80BB689A697B181B88BA
:103750009A4207D3BB689A697B181B88D21ABB6848
:103760009A6102E0BB6800229A61BB689B69002BEA
:1037700036D1BB681A78FB68110018000AF0FAFF0E
:10378000BB1D1A888023DB01134000D001E1FB68D8
:103790001B681A00BB681B789B00D3181B889AB261
:1037A0004A203B1809490A401A80FB681B681A0026
:1037B000BB681B789B00D3183A18128804490A4347
:1037C00092B21A80E5E0C046020400008F8FFFFF2E
:1037D00080C0FFFFFF83FFFF0080FFFF06040000A3
:1037E000BB1D1A888023DB0113401AD1FB681B68BC
:1037F0001A00BB681B789B00D3181B889AB2322032
:103800003B187A490A401A80FB681B681A00BB689B
:103810001B789B00D3183A18128875490A4392B254
:103820001A80BB6824229B5C012B00D0B1E0BB68EE
:103830005A6948217B181B88D218BB685A61BB683B
:10384000DA697B181B88D218BB68DA61BB681A6A10
:10385000BB681B699A4209D3BB681B697B64BB6860
:103860001A6A7B6CD21ABB681A6216E0BB681B6AC4
:10387000002B08D14823FB181B887B64BB682422DB
:103880000021995409E0BB681B6A7B64BB68002275
:103890001A62BB68242200219954FB681B683B64B0
:1038A000BB685B78002B50D1FB681B68BB63FB686F
:1038B0001B6850229B5A9BB21A00BB6B9B18BB63C0
:1038C000BB681B78DA00BB6BD3184A4A9446634442
:1038D0007B637B6C002B10D17B6B1B889BB2464AB1
:1038E00013409AB27B6B1A807B6B1B889BB2434A56
:1038F00013439AB27B6B1A8041E07B6C3E2B10D84D
:103900007B6C5B08FB647B6C0122134002D0FB6C78
:103910000133FB64FB6C9BB29B029AB27B6B1A80F7
:103920002DE07B6C5B09FB647B6C1F22134002D192
:10393000FB6C013BFB64FB6C9BB29B029BB22F4A6E
:1039400013439AB27B6B1A8019E0BB685B78012B3A
:1039500015D1FB681B6850229B5A9BB21A003B6C26
:103960009B183B64BB681B78DA003B6CD318214A78
:1039700094466344FB637B6C9AB2FB6B1A80FB68D2
:103980001868BB685969BB685A897B6C9BB203F0A5
:103990006BF8FB681B681A00BB681B789B00D31888
:1039A0001B889AB214203B1815490A401A803B180C
:1039B0003A18128810214A401A803B183A18128887
:1039C00020214A401A80FB681B681A00BB681B78DC
:1039D0009B00D3183A1812880A490A4392B21A80F7
:1039E00000231800BD4614B080BDC0468F8FFFFF76
:1039F00080C0FFFF06040000FF83FFFF0080FFFF81
:103A0000BF8FFFFF8080FFFF90B587B000AFF860E9
:103A1000080011007B600A243B19021C1A8008234D
:103A2000FB180A1C1A8021007B181B888022134077
:103A30009BB2002B0CD07B181B88072213405A1C0A
:103A400013009B009B18DB00FA68D3187B610BE026
:103A50000A23FB181A8813009B009B18DB006933AC
:103A6000FF33FA68D3187B610823FB181B88002BEF
:103A700007D17B6900221A737B689AB27B69DA806E
:103A80000BE07B6901221A737B689AB27B691A8109
:103A90007B681B0C9AB27B695A8100231800BD46D3
:103AA00007B090BD80B584B000AF78607B681B68BC
:103AB000FB607A68BA239B000121D1507A68B82351
:103AC0009B000021D154FB6854229B5A9BB20122D7
:103AD000134399B2FB6854229952FB6854229B5AB3
:103AE0009BB20222134399B2FB68542299520023DD
:103AF0001800BD4604B080BD80B582B000AF7860CC
:103B00000A00FB1C1A70C046BD4602B080BD80B5DD
:103B100082B000AF78607B689B6801221340013B54
:103B20005A425341DBB21800BD4602B080BD0000CE
:103B300080B584B000AF786039600F23FB18002295
:103B40001A707B681800FFF7E2FF031E18D17B682C
:103B5000DB68114A1A403B6859683B689B68194307
:103B60003B68DB680B431A437B68DA607B681B6940
:103B70009B009A083B681B681A437B681A6103E044
:103B80000F23FB1801221A700F23FB181B78180053
:103B9000BD4604B080BDC046C73FFFFF80B584B0BE
:103BA00000AF786039600F23FB1800221A707B6821
:103BB0001800FFF7ACFF031E15D17B68DB680F4AC6
:103BC0001A403B6819683B685B6819433B689B680F
:103BD00019433B68DB6819433B681B690B431A4375
:103BE0007B68DA6003E00F23FB1801221A700F23B1
:103BF000FB181B781800BD4604B080BD3CC2FEFF18
:103C000080B582B000AF786039607B681B683A6825
:103C100010210A40012191400A001A403B681021FE
:103C20000B40012199400B00D31A5A425341DBB299
:103C30001800BD4602B080BD80B586B000AFF86008
:103C4000B9607A601723FB1800221A70BA68FB6803
:103C500011001800FFF7D4FF031E39D17B685B68A1
:103C6000002B1DD0FB681B68BA6810210A401E4952
:103C700091400A00D2431A407B6819687B685B68F0
:103C800019437B689B6819437B68DB681943BB68F1
:103C90001020034099400B001A43FB681A601BE098
:103CA000FB681B68BA6810210A40FA2191400A009B
:103CB000D2431A407B6819687B68DB681943BB688C
:103CC0001020034099400B001A43FB681A6003E080
:103CD0001723FB1801221A701723FB181B781800F2
:103CE000BD4606B080BDC046FA0F000080B582B068
:103CF00000AF7860044B1968034B7A680A431A6076
:103D0000C046BD4602B080BD0004014080B582B00F
:103D100000AF7860054B1A687B68D943034B0A40B3
:103D20001A60C046BD4602B080BDC04600040140D6
:103D300080B582B000AF7860044B5968034B7A6855
:103D40000A435A60C046BD4602B080BD000401402F
:103D500080B582B000AF7860054B5A687B68D94364
:103D6000034B0A405A60C046BD4602B080BDC04603
:103D70000004014080B582B000AF7860044B9968C0
:103D8000034B7A680A439A60C046BD4602B080BDC4
:103D90000004014080B582B000AF7860054B9A689E
:103DA0007B68D943034B0A409A60C046BD4602B0C7
:103DB00080BDC0460004014080B582B000AF78608D
:103DC000044BD968034B7A680A43DA60C046BD46A3
:103DD00002B080BD0004014080B582B000AF7860C1
:103DE000054BDA687B68D943034B0A40DA60C0466A
:103DF000BD4602B080BDC0460004014080B584B01D
:103E000000AF78600F23FB1800221A707B681B79C3
:103E1000002B00D168E07B681B68002B00D16EE0AE
:103E20007B685B79022B1BD025DC002B02D0012B99
:103E30000BD020E07B681B681800FFF789FF7B68C8
:103E40001B681800FFF752FF1AE07B681B68180018
:103E5000FFF75CFF7B681B681800FFF769FF0FE046
:103E60007B681B681800FFF741FF7B681B68180020
:103E7000FFF75EFF04E00F23FB1801221A70C04613
:103E80007B689B79002B3AD07B689B79032B1BD0F6
:103E900025DC012B02D0022B0BD020E07B681B68B5
:103EA0001800FFF799FF7B681B681800FFF762FF97
:103EB00026E07B681B681800FFF76CFF7B681B68B7
:103EC0001800FFF779FF1BE07B681B681800FFF7FD
:103ED00051FF7B681B681800FFF76EFF10E00F238F
:103EE000FB1801221A700BE07B681B681800FFF7B3
:103EF0000DFF7B681B681800FFF72AFF00E0C04633
:103F00000F23FB181B781800BD4604B080BD80B598
:103F100084B000AFF860B9607A60FB681968BB686C
:103F20005B431A0013005B009B18DB430B401A0035
:103F3000BB685B4379684B431A43FB681A60C04611
:103F4000BD4604B080BD80B584B000AFF860B960F4
:103F50007A60FB685B68BA68D2431A40BB687968CC
:103F60004B431A43FB685A60C046BD4604B080BD4F
:103F700080B584B000AFF860B9607A60FB6899687A
:103F8000BB685B431A0013005B009B18DB430B40CC
:103F90001A00BB685B4379684B431A43FB689A601D
:103FA000C046BD4604B080BD80B584B000AFF860A7
:103FB000B9607A60FB68D968BB685B431A0013007C
:103FC0005B009B18DB430B401A00BB685B437968BE
:103FD0004B431A43FB68DA60C046BD4604B080BD5F
:103FE00080B584B000AFF860B9607A60FB68196A88
:103FF000BB685B43BA685343BA685A4313001B015A
:104000009B1ADB430B401A00BB685B43B9684B4308
:10401000B9684B4379684B431A43FB681A62C04640
:10402000BD4604B080BD80B584B000AFF860B96013
:104030007A60FB68596ABB681B0ABA68120A534364
:10404000BA68120A5343BA68120A5A4313001B0192
:104050009B1ADB430B401A00BB681B0AB968090AAC
:104060004B43B968090A4B43B968090A4B4379685D
:104070004B431A43FB685A62C046BD4604B080BD3C
:1040800080B584B000AF786039600023FB6048E001
:104090003B681B680121FA6891400A001340BB602D
:1040A000BB68002B3AD03B685B68012B03D03B68B0
:1040B0005B68022B0ED13B689A68B9687B68180070
:1040C000FFF756FF3B6819683B68DA687B681800A1
:1040D000FFF739FF3B681A69B9687B681800FFF77A
:1040E00063FF3B685B68022B11D1BB68FF2B07D8CD
:1040F0003B685A69B9687B681800FFF771FF06E0F2
:104100003B685A69B9687B681800FFF78CFF3B6809
:104110005A68B9687B681800FFF7F9FEFB6801333D
:10412000FB603B681A68FB68DA40131EB0D10023BD
:104130001800BD4604B080BD80B582B000AF786085
:104140007B681B6801221A437B681A60C046BD4623
:1041500002B080BD80B582B000AF78607B681B681C
:10416000012293431A007B681A60C046BD4602B024
:1041700080BD000080B584B000AFF860B9607A609F
:10418000FB681B68064A1A407B681902BB680B4330
:104190001A43FB681A60C046BD4604B080BDC046E5
:1041A000FFE0FFFF80B584B000AFF860B9607A60CF
:1041B000FB689B68DB0ADA02B9687B680B431A4329
:1041C000FB689A60C046BD4604B080BD80B582B031
:1041D00000AF78607B689B68802212021A437B687C
:1041E0009A60C046BD4602B080BD000080B582B076
:1041F00000AF78607B689B68034A1A407B689A60CE
:10420000C046BD4602B080BDFF7FFFFF80B582B0D3
:1042100000AF786039607B683A681A61C046BD4675
:1042200002B080BD80B582B000AF786039607B6835
:104230001B68054A1A403B681A437B681A60C046EF
:10424000BD4602B080BDC046FFFFCFFF80B582B043
:1042500000AF786039607B685B68054A1A403B684C
:104260001A437B685A60C046BD4602B080BDC04656
:10427000FF7FFFFF80B582B000AF786039607B6858
:104280001800FFF767FF3B6899683B68DA687B684E
:104290001800FFF76FFF3B685A687B681100180031
:1042A000FFF7B4FF7B681800FFF746FF7B68180034
:1042B000FFF79CFF3B6819693B689A697B681800A7
:1042C000FFF770FF3B681B69002B03D07B68180069
:1042D000FFF77CFF3B681A687B6811001800FFF746
:1042E000A1FF3B685A697B6811001800FFF7AEFF19
:1042F00000231800BD4602B080BD000080B500AFAD
:10430000054B1B6802221340023B5A425341DBB269
:104310001800BD4680BDC0460010024080B500AF09
:10432000054B1B6A02221340023B5A425341DBB247
:104330001800BD4680BDC0460010024080B500AFE9
:10434000034B5B680C2213401800BD4680BDC0467D
:104350000010024080B500AF034B5B68F0221340B1
:104360001800BD4680BDC0460010024080B500AFB9
:10437000034B5A68E023DB0013401800BD4680BDA4
:104380000010024080B582B000AF7860064B1B6B16
:1043900003217A6891400A001A407B681B06134388
:1043A0001800BD4602B080BD0010024080B500AFCD
:1043B000034B5A68C0235B0213401800BD4680BD02
:1043C0000010024080B500AF034B5A68F0239B03F6
:1043D00013401800BD4680BD0010024080B500AFFC
:1043E000034BDB6A0F2213401800BD4680BDC04658
:1043F0000010024080B582B000AF786000F09CF8F9
:1044000002007B681A607B681B68180000F0C2F825
:1044100002007B685A607B685B68180000F0D0F887
:1044200002007B689A60C046BD4602B080BD0000B5
:1044300080B584B000AF78600023FB607B68002B00
:104440002DD17B681800FFF79DFF0300032B0AD0D6
:1044500018D8012B02D0022B0CD013E000F06CF81E
:104460000300FB6020E0FFF749FF031E19D02E4B2D
:10447000FB6016E0FFF752FF031E14D080231B02DF
:10448000FB6010E000F058F80300180000F082F81C
:104490000300180000F094F80300FB6004E0C0463D
:1044A00002E0C04600E0C0467B68102B32D17B683A
:1044B0001800FFF767FF03001C4A93420ED01B4A07
:1044C00093421AD81A4A934203D01A4A93420CD004
:1044D00013E000F031F80300FB6020E0FFF70EFF6F
:1044E000031E19D0104BFB6016E0FFF717FF031EE9
:1044F00014D080231B02FB6010E000F01DF80300C5
:10450000180000F047F80300180000F059F8030005
:10451000FB6004E0C04602E0C04600E0C046FB6825
:104520001800BD4604B080BD00127A0000000310E0
:10453000000001100000021080B582B000AF00231F
:104540007B60FFF7FBFE03000C2B13D015D8082B64
:104550000BD012D8002B02D0042B03D00DE00B4B54
:104560007B600DE0094B7B600AE000F03DF8030042
:104570007B6005E0064B7B6002E0044B7B60C0463D
:104580007B681800BD4602B080BDC04600127A00AC
:10459000006CDC0280B582B000AF7860FFF7DAFE15
:1045A00003001B090F221340044AD35C1A007B68E6
:1045B000D3401800BD4602B080BDC0463CF900089B
:1045C00080B582B000AF7860FFF7D0FE03001B0A11
:1045D000044AD35C1A007B68D3401800BD4602B081
:1045E00080BDC0464CF9000890B583B000AF0023F1
:1045F0007B6000233B60FFF7D9FE03003B603A6815
:10460000C0235B029A4212D03A68C0235B029A42EE
:1046100013D83A6880231B029A4205D03A68802357
:104620005B029A4206D008E0114B7B6008E0114B18
:104630007B6005E00E4B7B6002E00D4B7B60C0466B
:10464000FFF7CCFE03000F221340013319007868F6
:10465000FBF75AFD03001C00FFF7B4FE03009B0CA0
:104660000F221340023363431800BD4603B090BDD0
:1046700000127A00006CDC0280B582B000AF786076
:104680007B681B6840221340402B01D1012300E0CE
:1046900000231800BD4602B080BD80B582B000AFD7
:1046A000786039603B689BB21A007B681A61C0462B
:1046B000BD4602B080BD000080B584B000AF786018
:1046C00039600F23FB1801221A707B681800FFF76E
:1046D000D3FF031E3BD17B681B68234A1A403B680B
:1046E00019683B685B6819433B68DB6819433B68A2
:1046F0001B6919433B685B6919433B689B69194314
:104700003B68DB6919433B681B6A0B431A437B68B0
:104710001A607B685B68154A1A403B6899683B6879
:104720005B691B0C0B431A437B685A603B681A6A2F
:1047300080239B019A4206D13B685A6A7B6811002C
:104740001800FFF7AAFF0F23FB1800221A707B68DE
:10475000DB69074A1A407B68DA610F23FB181B7874
:104760001800BD4604B080BD4000FFFFFBF0FFFF16
:10477000FFF7FFFF80B582B000AF786039607B68DB
:104780003A689A62C046BD4602B080BD80B582B02C
:1047900000AF786039607B683A68DA62C046BD462F
:1047A00002B080BD80B582B000AF786039607B68B0
:1047B0003A681A63C046BD4602B080BD80B582B07B
:1047C00000AF78607B685B6901221A437B685A619D
:1047D000C046BD4602B080BD80B584B000AF7860F1
:1047E00039607B681B68FB607B68354A934208D060
:1047F0007A688023DB059A4203D07B68314A934272
:1048000007D1FB68702293431A003B685B6813432F
:10481000FB607B682A4A934218D07A688023DB05C4
:104820009A4213D07B68274A93420FD07B68264A6E
:1048300093420BD07B68254A934207D07B68244A79
:10484000934203D07B68234A934206D1FB68224AF5
:104850001A403B68DB681343FB607B68FA681A60A8
:104860003B689A687B6811001800FFF78FFF3B6870
:104870001B881A007B6811001800FFF77BFF7B681C
:104880000F4A93420BD07B68104A934207D07B6853
:104890000F4A934203D07B680E4A934206D13B688D
:1048A0001A697B6811001800FFF77CFF7B6818000D
:1048B000FFF784FF00231800BD4604B080BDC0464A
:1048C000002C014000040040002000400040014056
:1048D0000044014000480140FFFCFFFF80B582B06A
:1048E00000AF78607B681B6801221340012B01D167
:1048F000012300E000231800BD4602B080BD000087
:1049000080B582B000AF786039607B685B68054A2B
:104910001A403B681A437B685A60C046BD4602B0E5
:1049200080BDC046FFCFFFFF80B582B000AF78608A
:1049300039607B689B68054A1A403B681A437B686C
:104940009A60C046BD4602B080BDC046FFFCFFFF76
:1049500080B586B000AFF860B9607A603B607A6875
:1049600080231B029A421CD1BB685A003B685B083B
:10497000D31839681800FBF7C7FB03009BB27B61B3
:104980007B69104A13403B617B695B089BB21A004C
:10499000072313403A6913433B61FB683A69DA60C5
:1049A0000CE03B685A08BB68D31839681800FBF75D
:1049B000ABFB03009BB21A00FB68DA60C046BD4641
:1049C00006B080BDF0FF000090B589B000AF786000
:1049D00039601F23FB1801221A700023BB617B681A
:1049E0001800FFF77BFF031E5FD17B681B68324A0C
:1049F0001A403B6859683B68DB6819433B681B6990
:104A000019433B689B690B431A437B681A603B68F8
:104A10009A687B6811001800FFF772FF3B685A69BB
:104A20007B6811001800FFF77FFF7B68234A9342E1
:104A300005D10020FFF7FCFC0300BB6122E07B688E
:104A40001F4A934205D11020FFF7F2FC0300BB611F
:104A500018E07B681B4A934208D10C243B191800CC
:104A6000FFF7C8FC3B199B68BB610BE07B68164AEB
:104A7000934207D10C243B191800FFF7BBFC3B19EC
:104A80009B68BB61BB69002B0FD03B681B68002B88
:104A90000BD01F23FB1800221A703B689A693B68F1
:104AA0001B68B9697868FFF753FF1F23FB181B7851
:104AB0001800BD4609B090BDF369FFEF0038014012
:104AC0000044004000480040004C004080B584B0E5
:104AD00000AF78607B68442200219952054BFB604F
:104AE000FB6899B27B684022995200231800BD46AA
:104AF00004B080BD80BF000080B584B000AF786096
:104B0000094BFB607B6840229B5A9BB2FA6892B2C9
:104B1000D24392B2134099B27B684022995200234B
:104B20001800BD4604B080BD80BF000084B090B5C1
:104B3000C64600B582B000AF786004201024A446B9
:104B40000824A046B844C4446044016042608360C5
:104B50007B684022012199527B68402200219952B2
:104B60007B684422002199527B685022002199528F
:104B700000231800BD4602B080BCB84690BC08BCFB
:104B800004B0184780B59AB000AF786039606723E9
:104B9000FB1800221A707A683B681B789B00D318B8
:104BA0001B889AB26423FB18CF490A401A803B68DD
:104BB000DB78032B17D028DC022B0ED025DC002B52
:104BC00002D0012B18D020E06422BB18BA1812883A
:104BD000802189000A431A801CE06422BB18BA189D
:104BE00012881A8016E06422BB18BA181288C021F5
:104BF000C9000A431A800DE06422BB18BA18128853
:104C00008021C9000A431A8004E06723FB180122AF
:104C10001A70C0467A683B681B789B00D3186422E0
:104C2000BA181288B1490A4392B21A807A683B686E
:104C30001B789B00D3181B889BB21BB2AC4A134055
:104C40001AB23B681B781BB213431AB25E217B1861
:104C50001A807A683B681B789B00D3187A181288F0
:104C6000A2490A4392B21A803B681B7B002B00D0FA
:104C700050E13B685B78002B00D17AE07B687B6178
:104C80007B6850229B5A9BB21A007B699B187B6100
:104C90003B681B78DA007B69D3188022D2009446E7
:104CA00063443B613B68DB885B089BB2DB189AB2CC
:104CB0003B691A807A683B681B789B00D2180E21EA
:104CC0007B1812881A807B181B884022134016D04C
:104CD0007A683B681B789B00D3181B889AB20C201B
:104CE0003B1883490A401A807A683B681B789B000E
:104CF000D3183A1812887F490A4392B21A803B6847
:104D0000DB78012B1DD07A683B681B789B00D31899
:104D10001B889AB208203B1877490A401A803B1832
:104D20003A18128820214A401A807A683B681B781A
:104D30009B00D3183A1812886C490A4392B21A8021
:104D40005EE27A683B681B789B00D3181B889AB296
:104D50000A203B1868490A401A807A683B681B7829
:104D60009B00D3183A18128860490A4392B21A80FD
:104D700046E27B68FB627B6850229B5A9BB21A001A
:104D8000FB6A9B18FB623B681B78DA00FB6AD3184E
:104D90005A4A94466344BB623B68DB885B089BB21B
:104DA000DB189AB2BB6A1A807B687B627B685022F0
:104DB0009B5A9BB21A007B6A9B187B623B681B78EC
:104DC000DA007B6AD3184E4A944663443B623B68E0
:104DD0001B69002B10D13B6A1B889BB2494A1340C8
:104DE0009AB23B6A1A803B6A1B889BB2464A1343BD
:104DF0009AB23B6A1A802BE03B681B693E2B12D8A3
:104E00003B681B695B083B663B681B6901221340DA
:104E100002D03B6E01333B663B6E9BB29B029AB263
:104E20003B6A1A8014E03B681B695B093B663B6880
:104E30001B691F22134002D13B6E013B3B663B6E58
:104E40009BB29B029BB2304A13439AB23B6A1A80D0
:104E50007A683B681B789B00D2181E217B18128849
:104E60001A807B181A888023DB01134016D07A68D9
:104E70003B681B789B00D3181B889AB21C203B18F8
:104E80001B490A401A807A683B681B789B00D3183C
:104E90003A1812881D490A4392B21A807A683B6810
:104EA0001B789B00D3181B889AB21A203B1818490C
:104EB0000A401A803B183A181288802149014A405A
:104EC0001A803B183A181288802189014A401A80BA
:104ED0007A683B681B789B00D3183A1812880349FC
:104EE0000A4392B21A808BE18F89FFFF8080FFFF17
:104EF0008F8FFFFFC080FFFFBF8FFFFF0404000004
:104F000006040000FF83FFFF0080FFFF80C0FFFF5B
:104F10008FBFFFFF7A683B681B789B00D3181B8804
:104F20009AB25C203B18BA490A401A807A683B68FA
:104F30001B789B00D3183A181288B6490A4392B2DC
:104F40001A807B68BB657B6850229B5A9BB21A0013
:104F5000BB6D9B18BB653B681B78DA00BB6DD31833
:104F60008022D200944663447B653B681B895B08C2
:104F70009BB2DB189AB27B6D1A807B683B657B68BD
:104F800050229B5A9BB21A003B6D9B183B653B68B5
:104F90001B78DA003B6DD3189F4A94466344FB6448
:104FA0003B685B895B089BB2DB189AB2FB6C1A808A
:104FB0003B685B78002B00D087E07A683B681B7801
:104FC0009B00D2183C217B1812881A807B181A8803
:104FD0008023DB01134016D07A683B681B789B0066
:104FE000D3181B889AB23A203B1889490A401A8084
:104FF0007A683B681B789B00D3183A181288874957
:105000000A4392B21A807A683B681B789B00D218D8
:1050100038217B1812881A807B181B884022134085
:1050200016D07A683B681B789B00D3181B889AB20D
:1050300036203B1876490A401A807A683B681B780C
:105040009B00D3183A18128875490A4392B21A8005
:105050007A683B681B789B00D3181B889AB234206F
:105060003B1870490A401A803B183A181288802170
:1050700049014A401A803B183A1812888021890158
:105080004A401A807A683B681B789B00D3183A180C
:10509000128865490A4392B21A807A683B681B7885
:1050A0009B00D3181B889AB232203B185F490A40F4
:1050B0001A807A683B681B789B00D3183A181288CC
:1050C00059490A4392B21A809AE07A683B681B7881
:1050D0009B00D2184A217B1812881A807B181A88E4
:1050E0008023DB01134016D07A683B681B789B0055
:1050F000D3181B889AB248203B1845490A401A80A9
:105100007A683B681B789B00D3183A181288434989
:105110000A4392B21A807A683B681B789B00D218C7
:1051200046217B1812881A807B181B884022134066
:1051300016D07A683B681B789B00D3181B889AB2FC
:1051400044203B1832490A401A807A683B681B7831
:105150009B00D3183A18128831490A4392B21A8038
:105160003B68DB78012B1DD07A683B681B789B007D
:10517000D3181B889AB240203B182C490A401A8049
:105180003B183A18128820214A401A807A683B68F6
:105190001B789B00D3183A18128823490A4392B20D
:1051A0001A8016E07A683B681B789B00D3181B882E
:1051B0009AB242203B181D490A401A807A683B681F
:1051C0001B789B00D3183A18128817490A4392B2E9
:1051D0001A807A683B681B789B00D3181B889AB2A8
:1051E0003E203B180F490A401A807A683B681B78BA
:1051F0009B00D3183A1812880B490A4392B21A80BE
:105200006723FB181B781800BD461AB080BDC04646
:105210008F8FFFFF8081FFFF0404000080C0FFFF2D
:10522000C080FFFF8FBFFFFF8080FFFFBF8FFFFFAA
:1052300080B58CB000AF786039603B681B7B002B79
:1052400000D07EE03B685B78002B3CD07A683B68FE
:105250001B789B00D2180C217B1812881A807B18AF
:105260001B884022134016D07A683B681B789B004D
:10527000D3181B889AB20A203B18C7490A401A80E3
:105280007A683B681B789B00D3183A181288C34988
:105290000A4392B21A807A683B681B789B00D31845
:1052A0001B889AB208203B18BD490A401A807A68C8
:1052B0003B681B789B00D3183A181288B9490A43F7
:1052C00092B21A8063E17A683B681B789B00D2181F
:1052D00012217B1812881A807B181A888023DB0120
:1052E000134016D07A683B681B789B00D3181B8844
:1052F0009AB210203B18A8490A401A807A683B6885
:105300001B789B00D3183A181288A7490A4392B217
:105310001A807A683B681B789B00D3181B889AB266
:105320000E203B18A1490A401A807A683B681B7816
:105330009B00D3183A1812889A490A4392B21A80ED
:1053400025E13B685B78002B00D090E07A683B68F1
:105350001B789B00D21820217B1812881A807B189A
:105360001A888023DB01134016D07A683B681B78CB
:105370009B00D3181B889AB21E203B1886490A400E
:105380001A807A683B681B789B00D3183A181288F9
:1053900085490A4392B21A807A683B681B789B0061
:1053A000D2181C217B1812881A807B181B88402277
:1053B000134016D07A683B681B789B00D3181B8873
:1053C0009AB21A203B1874490A401A807A683B68DE
:1053D0001B789B00D3183A18128870490A4392B27E
:1053E0001A807A683B681B789B00D3181B889AB296
:1053F00018203B1868490A401A807A683B681B7875
:105400009B00D3183A18128864490A4392B21A8052
:105410007A683B681B789B00D3181B889AB21620C9
:105420003B1862490A401A807A683B681B789B00E7
:10543000D3183A1812885B490A4392B21A807A68E4
:105440003B681B789B00D3181B889AB214203B182A
:1054500053490A401A807A683B681B789B00D3182E
:105460003A1812884F490A4392B21A808FE07A683C
:105470003B681B789B00D2182E217B1812881A805B
:105480007B181A888023DB01134016D07A683B68AA
:105490001B789B00D3181B889AB22C203B183E49DE
:1054A0000A401A807A683B681B789B00D3183A1828
:1054B00012883D490A4392B21A807A683B681B7889
:1054C0009B00D2182A217B1812881A807B181B880F
:1054D0004022134016D07A683B681B789B00D31893
:1054E0001B889AB228203B182B490A401A807A68F8
:1054F0003B681B789B00D3183A18128827490A4347
:1055000092B21A807A683B681B789B00D3181B887C
:105510009AB226203B1820490A401A807A683B68D4
:105520001B789B00D3183A1812881F490A4392B27D
:105530001A807A683B681B789B00D3181B889AB244
:1055400024203B1816490A401A807A683B681B7869
:105550009B00D3183A18128812490A4392B21A8053
:105560007A683B681B789B00D3181B889AB222206C
:105570003B180E490A401A807A683B681B789B00EA
:10558000D3183A18128807490A4392B21A800023A6
:105590001800BD460CB080BD8F8FFFFFC080FFFF9D
:1055A000BF8FFFFF8080FFFF80C0FFFF8FBFFFFF27
:1055B000B0B5C4B000AF786039603B685B78012B50
:1055C00001D000F049FD3B689A693B681B699A422B
:1055D00006D93B681B6986225200BA18136005E0A1
:1055E0003B689B6986225200BA1813603B681B7B9C
:1055F000002B25D13B6859693B68DA888624640012
:105600003B191B689BB2786801F02EFA7B687B61BE
:105610007B6850229B5A9BB21A007B699B187B6166
:105620003B681B78DA007B69D318D04A9446634400
:105630003B613B191B689AB23B691A8000F0CAFCB7
:105640003B68DB78022B00D046E33B681A6A3B6874
:105650001B699A4200D8ECE27A683B681B789B0091
:10566000D3181B889AB25A203B18C1490A401A80A5
:105670007A683B681B789B00D3183A181288BD499A
:105680000A4392B21A803B681A6A862149007B1845
:105690001B68D21A3B681A627A683B681B789B00C9
:1056A000D3181B889BB21A004023134000D169E134
:1056B0007B687B633B685B78002B68D17B68FB620F
:1056C0007B6850229B5A9BB21A00FB6A9B18FB62B4
:1056D0003B681B78DA00FB6AD318A74A94466344F8
:1056E000BB627B181B68002B10D1BB6A1B889BB266
:1056F000A24A13409AB2BB6A1A80BB6A1B889BB24B
:105700009F4A13439AB2BB6A1A805CE08622520019
:10571000BB181B683E2B1AD8BB181B685B08791D89
:10572000FF310B60BB181B680122134006D07B1DA4
:10573000FF331B6801337A1DFF3213607B1DFF337B
:105740001B689BB29B029AB2BB6A1A803BE086221E
:105750005200BB181B685B09791DFF310B60BB1839
:105760001B681F22134006D17B1DFF331B68013BC2
:105770007A1DFF3213607B1DFF331B689BB29B02B7
:105780009BB27F4A13439AB2BB6A1A801BE03B6804
:105790005B78012B17D17B6850229B5A9BB21A0071
:1057A0007B6B9B187B633B681B78DA007B6BD318A1
:1057B000714A944663443B6386235B00FB181B6875
:1057C0009AB23B6B1A80852040003B183A68528998
:1057D0001A803B68596986256D007B191B689CB24D
:1057E0003B181A887868230001F03EF93B685A6933
:1057F0007B191B68D2183B685A613B681A6A3B6880
:105800001B699A4207D93B681A6A7B191B68D21A2E
:105810003B681A6208E03B681B6A86225200BA188D
:1058200013603B6800221A623B685B78002B6AD1E8
:105830007B68FB617B6850229B5A9BB21A00FB6914
:105840009B18FB613B681B78DA00FB69D318474A59
:1058500094466344BB6186235B00FB181B68002BE6
:1058600010D1BB691B889BB2444A13409AB2BB69F2
:105870001A80BB691B889BB2414A13439AB2BB6929
:105880001A805EE086225200BB181B683E2B1AD895
:10589000BB181B685B08791CFF310B60BB181B68C9
:1058A0000122134006D07B1CFF331B6801337A1C96
:1058B000FF3213607B1CFF331B689BB29B029AB2C2
:1058C000BB691A803DE086225200BB181B685B0949
:1058D000791CFF310B60BB181B681F22134006D1D7
:1058E0007B1CFF331B68013B7A1CFF3213607B1C5F
:1058F000FF331B689BB29B029BB2214A13439AB2AF
:10590000BB691A801DE03B685B78012B19D17B686D
:105910007B627B6850229B5A9BB21A007B6A9B1861
:105920007B623B681B78DA007B6AD3180F4A944687
:1059300063443B6286235B00FB181B689AB23B6A98
:105940001A80852040003B183A6812891A803B680B
:10595000596986235B00FB181B689CB23B181A88A8
:105960007868230001F080F834E3C04602040000A8
:105970008F8FFFFF8081FFFF06040000FF83FFFF82
:105980000080FFFF3B685B78002B66D17B68FB647F
:105990007B6850229B5A9BB21A00FB6C9B18FB64DD
:1059A0003B681B78DA00FB6CD318C54A9446634405
:1059B000BB6486235B00FB181B68002B10D1BB6CFB
:1059C0001B889BB2BF4A13409AB2BB6C1A80BB6C57
:1059D0001B889BB2BC4A13439AB2BB6C1A805AE034
:1059E00086225200BB181B683E2B18D8BB181B68B8
:1059F0005B08FC2178180360BB181B680122134068
:105A000004D07B181B6801337A181360FC23FB1841
:105A10001B689BB29B029AB2BB6C1A803BE0862249
:105A20005200BB181B685B09FC2178180360BB1887
:105A30001B681F22134004D17B181B68013B7A1896
:105A40001360FC23FB181B689BB29B029BB29E4A0F
:105A500013439AB2BB6C1A801DE03B685B78012B44
:105A600019D17B687B657B6850229B5A9BB21A00D8
:105A70007B6D9B187B653B681B78DA007B6DD318C8
:105A80008F4A944663443B6586235B00FB181B6882
:105A90009AB23B6D1A80852040003B183A68128903
:105AA0001A803B68596986256D007B191B689CB27A
:105AB0003B181A887868230000F0D6FF3B685A69C3
:105AC0007B191B68D2183B685A613B681A6A3B68AD
:105AD0001B699A4207D93B681A6A7B191B68D21A5C
