:020000040800F2
:1030000000500020859E0008959C0008A19C0008A7
:10301000A79C0008AD9C0008B39C000800000000BD
:10302000000000000000000000000000B99C000843
:10303000C59C000800000000D19C0008DD9C000831
:10304000CD9E0008CD9E0008CD9E0008CD9E0008B4
:10305000CD9E0008CD9E0008CD9E0008CD9E0008A4
:10306000CD9E0008CD9E0008CD9E0008CD9E000894
:10307000CD9E0008CD9E0008CD9E0008CD9E000884
:10308000CD9E0008CD9E0008CD9E0008CD9E000874
:10309000CD9E0008CD9E0008CD9E0008CD9E000864
:1030A000CD9E0008CD9E0008CD9E0008CD9E000854
:1030B000E9560008AD640008CD9E0008CD9E0008CA
:1030C000CD9E0008CD9E0008CD9E00086D570008DB
:1030D000CD9E000855730008CD9E0008CD9E0008C7
:1030E000CD9E0008CD9E0008CD9E00080000000087
:1030F00000000000000000000000000000000000D0
:0C31000000000000000000005FF808F173
:10310C0010B5054C237833B9044B13B10448AFF315
:10311C0000800123237010BDA000002000000000DF
:10312C00F4A0000808B5034B1BB103490348AFF3E7
:10313C00008008BD00000000A4000020F4A00008DE
:10314C0080B487B000AF786000237B6100233B61C3
:10315C000F23FB607B68DB78002B3AD0274BDB68B6
:10316C00DB431B0A03F007037B617B69C3F1040398
:10317C003B61FA687B6922FA03F3FB607B685B783E
:10318C001A463B6902FA03F37B617B689B781A460B
:10319C00FB6813407A6913437B617B691B017B617C
:1031AC00174A7B681B787969C9B213440A4683F8BD
:1031BC0000237B681B7803F01F0311497A6812788F
:1031CC005209D2B21046012202FA03F341F8203020
:1031DC000FE07B681B7803F01F0309497A681278AB
:1031EC005209D2B2104601229A4000F1200341F854
:1031FC00232000BF1C37BD4680BC704700ED00E0AB
:10320C0000E100E080B485B000AF78603960002345
:10321C00FB600023FB727B685B68FB60FB6823F43C
:10322C00702323F48073FB603B681A683B681B793E
:10323C001B021343FA681343FB607B68FA685A60FD
:10324C007B689B68FB60FA68164B1340FB603B681D
:10325C00DA683B689B681A433B685B795B001343F5
:10326C00FA681343FB607B68FA689A607B68DB6AD8
:10327C00FB60FB6823F47003FB603B681B7C013B29
:10328C00DAB2FB7A1343FB72FB7A1B05FA68134321
:10329C00FB607B68FA68DA6200BF1437BD4680BCFD
:1032AC00704700BFFDF7F1FF80B483B000AF7860CA
:1032BC000B46FB70FB78002B06D07B689B6843F0B9
:1032CC0001027B689A6005E07B689B6823F0010231
:1032DC007B689A6000BF0C37BD4680BC704780B4D9
:1032EC0083B000AF78600B46FB70FB78002B06D0E8
:1032FC007B689B6843F480727B689A6005E07B680E
:10330C009B6823F480727B689A6000BF0C37BD46C3
:10331C0080BC704780B483B000AF78607B689B68DA
:10332C0043F008027B689A6000BF0C37BD4680BC36
:10333C00704780B485B000AF78600023FB737B6866
:10334C009B6803F00803002B02D00123FB7301E000
:10335C000023FB73FB7B18461437BD4680BC7047BB
:10336C0080B483B000AF78607B689B6843F0040244
:10337C007B689A6000BF0C37BD4680BC704780B438
:10338C0085B000AF78600023FB737B689B6803F00B
:10339C000403002B02D00123FB7301E00023FB7319
:1033AC00FB7B18461437BD4680BC704780B485B093
:1033BC0000AF7860084611461A460346FB700B4670
:1033CC00BB7013467B700023FB600023BB60FB7853
:1033DC00092B23D97B68DB68FB60FB78A3F10A021D
:1033EC0013465B001344072202FA03F3BB60BB686D
:1033FC00DB43FA681340FB607978FB78A3F10A028F
:10340C0013465B00134401FA03F3BB60FA68BB6814
:10341C001343FB607B68FA68DA601EE07B681B690B
:10342C00FB60FA7813465B001344072202FA03F39D
:10343C00BB60BB68DB43FA681340FB607978FA78B1
:10344C0013465B00134401FA03F3BB60FA68BB68D4
:10345C001343FB607B68FA681A61BB78062B21D892
:10346C007B685B6BFB60BB785A1E13469B00134456
:10347C001F2202FA03F3BB60BB68DB43FA681340FC
:10348C00FB60F978BB785A1E13469B00134401FA73
:10349C0003F3BB60FA68BB681343FB607B68FA6894
:1034AC005A6347E0BB780C2B21D87B681B6BFB6005
:1034BC00BB78DA1F13469B0013441F2202FA03F356
:1034CC00BB60BB68DB43FA681340FB60F978BB78E0
:1034DC00DA1F13469B00134401FA03F3BB60FA682E
:1034EC00BB681343FB607B68FA681A6322E07B6855
:1034FC00DB6AFB60BB78A3F10D0213469B001344FF
:10350C001F2202FA03F3BB60BB68DB43FA6813406B
:10351C00FB60F978BB78A3F10D0213469B001344B2
:10352C0001FA03F3BB60FA68BB681343FB607B686A
:10353C00FA68DA6200BF1437BD4680BC704780B4AD
:10354C0083B000AF78600B46FB70FB78002B06D085
:10355C007B689B6843F480127B689A6005E07B680B
:10356C009B6823F480127B689A6000BF0C37BD46C1
:10357C0080BC704780B483B000AF78607B681A68F9
:10358C004FF6FE7313407A6813607B6800221A6052
:10359C007B6800225A607B6800229A607B6800225C
:1035AC00DA607B68434A934206D1434B5B68424ADC
:1035BC0043F00F03536077E07B68404A934206D197
:1035CC003D4B5B683C4A43F0F00353606CE07B6816
:1035DC003B4A934206D1384B5B68374A43F47063DD
:1035EC00536061E07B68374A934206D1324B5B688B
:1035FC00314A43F47043536056E07B68324A93423D
:10360C0006D12D4B5B682C4A43F4702353604BE07E
:10361C007B682E4A934206D1274B5B68264A43F4BB
:10362C007003536040E07B68294A934206D1224BD9
:10363C005B68214A43F07063536035E07B68254A30
:10364C00934206D1244B5B68234A43F00F0353602B
:10365C002AE07B68214A934206D11F4B5B681E4AC5
:10366C0043F0F00353601FE07B681D4A934206D180
:10367C00194B5B68184A43F47063536014E07B6821
:10368C00184A934206D1144B5B68134A43F47043B7
:10369C00536009E07B68144A934205D10E4B5B687A
:1036AC000D4A43F47023536000BF0C37BD4680BCF9
:1036BC00704700BF08000240000002401C0002409E
:1036CC003000024044000240580002406C000240AE
:1036DC008000024008040240000402401C04024026
:1036EC0030040240440402405804024080B485B0C7
:1036FC0000AF786039600023FB607B681B68FB605F
:10370C00FB6823F4FF4323F07003FB603B689A686B
:10371C003B681B6A1A433B681B691A433B685B692D
:10372C001A433B689B691A433B68DB691A433B6845
:10373C005B6A1A433B689B6A1343FA681343FB604A
:10374C007B68FA681A603B68DA687B685A603B6889
:10375C001A687B689A603B685A687B68DA6000BFBD
:10376C001437BD4680BC704780B483B000AF78601E
:10377C000B46FB70FB78002B06D07B681B6843F074
:10378C0001027B681A6006E07B681A684FF6FE73CC
:10379C0013407A68136000BF0C37BD4680BC70477D
:1037AC0080B400AF044B054A5A60034B044A5A607C
:1037BC0000BFBD4680BC7047002002402301674516
:1037CC00AB89EFCD80B400AF044B1B69034A43F0C7
:1037DC008003136100BFBD4680BC704700200240CF
:1037EC0080B584B000AF78600423FB734FF43020B5
:1037FC0000F0AAF80346FB73FB7B042B1BD1104B88
:10380C001B690F4A43F0020313610D4A7B68536135
:10381C000B4B1B690A4A43F0400313614FF43020F1
:10382C0000F092F80346FB73054B1A69044941F604
:10383C00FD7313400B61FB7B18461037BD4680BDF2
:10384C000020024080B584B000AF7860396004235A
:10385C00FB730023BB604FF4005000F075F8034677
:10386C00FB73FB7B042B2FD11A4B1B69194A43F0BA
:10387C00010313617B683A6892B21A804FF40050CE
:10388C0000F062F80346FB73FB7B042B15D17B68BD
:10389C000233BB603B681A0CBB6892B21A804FF4BF
:1038AC00005000F051F80346FB730A4B1A690949A2
:1038BC0041F6FE7313400B6106E0064B1A6905498D
:1038CC0041F6FE7313400B61FB7B18461037BD4667
:1038DC0080BD00BF0020024080B483B000AF786090
:1038EC00034A7B68D36000BF0C37BD4680BC704771
:1038FC000020024080B483B000AF0423FB71114B55
:10390C00DB6803F00103012B02D10123FB7113E0EF
:10391C000C4BDB6803F00403002B02D00223FB7179
:10392C000AE0084BDB6803F01003002B02D00323E2
:10393C00FB7101E00423FB71FB7918460C37BD4683
:10394C0080BC70470020024080B584B000AF786026
:10395C000423FB73FFF7CEFF0346FB7306E0FFF770
:10396C00C9FF0346FB737B68013B7B60FB7B012B30
:10397C0002D17B68002BF2D17B68002B01D105238F
:10398C00FB73FB7B18461037BD4680BD80B489B0F5
:10399C0000AF786039600023FB6100233B6100239A
:1039AC00BB610023FB6000237B610023BB603B6891
:1039BC00DB7803F00F03FB613B68DB7803F010034B
:1039CC00002B05D03B689B781A46FB691343FB61BF
:1039DC003B681B88DBB2002B44D07B681B687B6187
:1039EC000023BB6138E00122BB6902FA03F3FB60E0
:1039FC003B681B881A46FB6813403B613A69FB68BD
:103A0C009A4226D1BB699B00FB600F22FB6802FA2D
:103A1C0003F3BB60BB68DB437A6913407B61FA69D3
:103A2C00FB6802FA03F37A6913437B613B68DB782A
:103A3C00282B05D10122BB699A407B685A6108E0AA
:103A4C003B68DB78482B04D10122BB699A407B6828
:103A5C001A61BB690133BB61BB69072BC3D97B6896
:103A6C007A691A603B681B88FF2B46D97B685B68B8
:103A7C007B610023BB613AE0BB690833012202FA87
:103A8C0003F3FB603B681B881A46FB6813403B61E1
:103A9C003A69FB689A4227D1BB699B00FB600F22F5
:103AAC00FB6802FA03F3BB60BB68DB437A69134023
:103ABC007B61FA69FB6802FA03F37A6913437B6151
:103ACC003B68DB78282B05D1BB69083301229A406F
:103ADC007B685A613B68DB78482B05D1BB6908339E
:103AEC0001229A407B681A61BB690133BB61BB69D7
:103AFC00072BC1D97B687A695A6000BF2437BD4651
:103B0C0080BC704780B483B000AF78600B467B807C
:103B1C0013467B707B78002B03D07A887B681A6104
:103B2C0002E07A887B685A6100BF0C37BD4680BCC6
:103B3C007047000080B487B000AF78600B46FB7014
:103B4C0000233B610023FB6000237B610023BB60EF
:103B5C007B68002B03DA2E4BDB697B6102E02C4B7C
:103B6C005B687B617B681B0C03F00F03BB607B689D
:103B7C009BB23B617B6803F44013B3F5401F0AD141
:103B8C007B6923F070637B61214B5B68204A23F0D7
:103B9C007063536021E07B6803F48013002B0ED01C
:103BAC000322BB6802FA03F3FB60FB68DB437A6910
:103BBC0013407B617B6943F070637B610DE07B6834
:103BCC005B0D1B013A6902FA03F3DB437A6913407C
:103BDC007B617B6943F070637B61FB78002B08D0C1
:103BEC007B685B0D1B013A6902FA03F37A69134394
:103BFC007B617B68002B03DA054A7B69D36102E0A9
:103C0C00034A7B69536000BF1C37BD4680BC7047BC
:103C1C000000014080B485B000AF78600023FB60E9
:103C2C00094B5B68FB60FB6823F44043FB60FA685C
:103C3C007B681343FB60044AFB68536000BF143776
:103C4C00BD4680BC704700BF0010024080B487B0F6
:103C5C0000AF786000237B6100233B610023FB6095
:103C6C000023BB604F4B5B6803F00C037B617B69EB
:103C7C00082B11D07B69082B3AD87B69002B03D019
:103C8C007B69042B04D033E07B68474A1A6033E02D
:103C9C007B68464A1A602FE0424B5B6803F4701352
:103CAC003B61404B5B6803F48033FB603B699B0CCE
:103CBC0002333B61FB68002B06D13B693C4A02FB9B
:103CCC0003F27B681A6017E0364B5B6803F4003331
:103CDC00002B06D03B69344A02FB03F27B681A6066
:103CEC000AE03B69314A02FB03F27B681A6003E08D
:103CFC007B682D4A1A6000BF2A4B5B6803F0F00307
:103D0C007B617B691B097B612A4A7B6913441B78A5
:103D1C00DBB2BB607B681A68BB68DA407B685A60B0
:103D2C00204B5B6803F4E0637B617B691B0A7B615E
:103D3C00204A7B6913441B78DBB2BB607B685A68F2
:103D4C00BB68DA407B689A60164B5B6803F460537F
:103D5C007B617B69DB0A7B61164A7B6913441B78A8
:103D6C00DBB2BB607B685A68BB68DA407B68DA60A0
:103D7C000C4B5B6803F440437B617B699B0B7B6161
:103D8C000D4A7B6913441B78DBB2BB607B68DA6835
:103D9C00BB68B2FBF3F27B681A6100BF1C37BD46EF
:103DAC0080BC70470010024000127A000024F4001E
:103DBC0000093D00000000201000002080B483B0FA
:103DCC0000AF78600B46FB70FB78002B06D0094BDC
:103DDC005A6908497B6813434B6106E0054B5A69E5
:103DEC007B68DB43034913404B6100BF0C37BD4676
:103DFC0080BC70470010024080B483B000AF786084
:103E0C000B46FB70FB78002B06D0094B9A690849CE
:103E1C007B6813438B6106E0054B9A697B68DB4337
:103E2C00034913408B6100BF0C37BD4680BC704703
:103E3C000010024080B483B000AF78600B46FB707A
:103E4C00FB78002B06D0094BDA6908497B681343D1
:103E5C00CB6106E0054BDA697B68DB430349134011
:103E6C00CB6100BF0C37BD4680BC704700100240D0
:103E7C0080B485B000AF786039600023FB817B682B
:103E8C001B88FB81FB8903F44153FB813B681A8837
:103E9C003B685B8813439AB23B689B8813439AB286
:103EAC003B68DB8813439AB23B681B8913439AB275
:103EBC003B685B8913439AB23B689B8913439AB264
:103ECC003B68DB8913439AB2FB891343FB817B6804
:103EDC00FA891A807B689B8B9BB223F400639AB29D
:103EEC007B689A833B681A8A7B681A8200BF1437F6
:103EFC00BD4680BC704780B483B000AF78600B4681
:103F0C00FB70FB78002B08D07B681B889BB243F0BE
:103F1C0040039AB27B681A8007E07B681B889BB2CF
:103F2C0023F040039AB27B681A8000BF0C37BD4661
:103F3C0080BC704780B485B000AF78600B46FB70D6
:103F4C001346BB700023FB810023BB81FB781B094C
:103F5C00DBB2FB81FB89012202FA03F3BB81BB7844
:103F6C00002B08D07B689B889AB2BB8913439AB20A
:103F7C007B689A8009E07B689B889AB2BB89DB439B
:103F8C009BB213409AB27B689A8000BF1437BD462F
:103F9C0080BC704780B483B000AF78600B467B80E8
:103FAC007B687A889A8100BF0C37BD4680BC70470D
:103FBC0080B483B000AF78607B689B899BB2184655
:103FCC000C37BD4680BC704780B485B000AF7860BC
:103FDC0039600023FB817B681B88FB817B682E4A40
:103FEC00934213D07B682D4A93420FD07B68B3F178
:103FFC00804F0BD07B682A4A934207D07B68294AB2
:10400C00934203D07B68284A934208D1FB8923F062
:10401C007003FB813B685A88FB891343FB817B68E7
:10402C00224A93420CD07B68214A934208D0FB89E8
:10403C0023F44073FB813B68DA88FB891343FB81D3
:10404C007B68FA891A803B689A887B689A853B68FA
:10405C001A887B681A857B680F4A93420FD07B685D
:10406C000E4A93420BD07B68124A934207D07B686E
:10407C00114A934203D07B68104A934204D13B68A7
:10408C001B7A9AB27B681A867B6801229A8200BFDF
:10409C001437BD4680BC7047002C014000340140F1
:1040AC000004004000080040000C004000100040DC
:1040BC000014004000400140004401400048014011
:1040CC0080B485B000AF7860396000237B81002319
:1040DC00FB810023BB817B681B8C9BB223F001030B
:1040EC009AB27B681A847B681B8CFB817B689B88EB
:1040FC00BB817B681B8B7B817B8923F070037B816D
:10410C007B8923F003037B813B681A887B891343EB
:10411C007B81FB8923F00203FB813B681A89FB89B5
:10412C001343FB813B685A88FB891343FB817B68F3
:10413C00244A93420FD07B68234A93420BD07B686E
:10414C00224A934207D07B68214A934203D07B6872
:10415C00204A934223D1FB8923F00803FB813B685F
:10416C005A89FB891343FB81FB8923F00403FB81F0
:10417C003B689A88FB891343FB81BB8923F48073CA
:10418C00BB81BB8923F40073BB813B689A89BB89D3
:10419C001343BB813B68DA89BB891343BB817B68C2
:1041AC00BA899A807B687A891A833B68DA887B683B
:1041BC009A867B68FA891A8400BF1437BD4680BC86
:1041CC00704700BF002C014000340140004001400A
:1041DC00004401400048014080B485B000AF7860D5
:1041EC00396000237B810023FB810023BB817B682A
:1041FC001B8C9BB223F010039AB27B681A847B68E9
:10420C001B8CFB817B689B88BB817B681B8B7B81B8
:10421C007B8923F4E0437B817B8923F440737B818E
:10422C003B681B881B029AB27B8913437B81FB89F9
:10423C0023F02003FB813B681B891B019AB2FB898D
:10424C001343FB813B685B881B019AB2FB891343C8
:10425C00FB817B68224A934203D07B68214A9342BC
:10426C002BD1FB8923F08003FB813B685B891B010D
:10427C009AB2FB891343FB81FB8923F04003FB813A
:10428C003B689B881B019AB2FB891343FB81BB895A
:10429C0023F48063BB81BB8923F40063BB813B683F
:1042AC009B899B009AB2BB891343BB813B68DB891A
:1042BC009B009AB2BB891343BB817B68BA899A80F5
:1042CC007B687A891A833B68DA887B681A877B68F3
:1042DC00FA891A8400BF1437BD4680BC704700BFF2
:1042EC00002C01400034014080B485B000AF7860F0
:1042FC00396000237B810023FB810023BB817B6819
:10430C001B8C9BB223F480739AB27B681A847B68F3
:10431C001B8CFB817B689B88BB817B689B8B7B8127
:10432C007B8923F070037B817B8923F003037B81E2
:10433C003B681A887B8913437B81FB8923F40073C8
:10434C00FB813B681B891B029AB2FB891343FB81DF
:10435C003B685B881B029AB2FB891343FB817B6829
:10436C00224A934203D07B68214A93422BD1FB898A
:10437C0023F40063FB813B685B891B029AB2FB89C7
:10438C001343FB81FB8923F48063FB813B689B888F
:10439C001B029AB2FB891343FB81BB8923F4805324
:1043AC00BB81BB8923F40053BB813B689B891B01F8
:1043BC009AB2BB891343BB813B68DB891B019AB260
:1043CC00BB891343BB817B68BA899A807B687A89E5
:1043DC009A833B68DA887B689A877B68FA891A84A7
:1043EC0000BF1437BD4680BC704700BF002C014095
:1043FC000034014080B483B000AF78600B46FB7092
:10440C00FB78002B08D07B681B889BB243F0010320
:10441C009AB27B681A8007E07B681B889BB223F0FA
:10442C0001039AB27B681A8000BF0C37BD4680BC72
:10443C00704780B483B000AF78600B46FB70FB789C
:10444C00002B0CD07B68B3F844309BB26FEA43432B
:10445C006FEA53439AB27B68A3F8442009E07B6867
:10446C00B3F844309BB2C3F30E039AB27B68A3F843
:10447C00442000BF0C37BD4680BC704780B483B06D
:10448C0000AF78600B467B8013467B707B78002BEB
:10449C0008D07B689B899AB27B8813439AB27B685D
:1044AC009A8109E07B689B899AB27B88DB439BB23B
:1044BC0013409AB27B689A8100BF0C37BD4680BC12
:1044CC00704780B483B000AF78600B467B807B680C
:1044DC007A889A8600BF0C37BD4680BC704780B482
:1044EC0083B000AF78600B467B807B687A881A8734
:1044FC0000BF0C37BD4680BC704780B483B000AFA2
:10450C0078600B467B807B687A889A8700BF0C3773
:10451C00BD4680BC704780B483B000AF78600B465A
:10452C007B807B88DB439AB27B681A8200BF0C3796
:10453C00BD4680BC7047000080B58CB000AF786081
:10454C0039600023FB620023BB6200237B620023E3
:10455C003B620023FB617B68FB617B681B8A9BB21F
:10456C00FB62FA6A4CF6FF731340FB623B68DB8814
:10457C001A46FB6A1343FB62FB6A9AB27B681A8287
:10458C007B689B899BB2FB62FA6A4EF6F31313406D
:10459C00FB623B689A883B681B8913439AB23B6861
:1045AC005B8913439BB21A46FB6A1343FB62FB6A9B
:1045BC009AB27B689A817B689B8A9BB2FB62FA6A8F
:1045CC004FF6FF431340FB623B689B891A46FB6A1C
:1045DC001343FB62FB6A9AB27B689A8207F1080369
:1045EC001846FFF733FBFB692E4A934202D17B69D5
:1045FC00BB6201E03B69BB627B689B899BB21BB2CF
:10460C00002B0CDABA6A13469B0013449A001A4426
:10461C003B681B685B00B2FBF3F37B620BE0BA6A8E
:10462C0013469B0013449A001A443B681B689B007A
:10463C00B2FBF3F37B627B6A1B4AA2FB03235B098D
:10464C001B01FB62FB6A1B09642202FB03F37A6AFF
:10465C00D31A3B627B689B899BB21BB2002B0CDA92
:10466C003B6ADB003233104AA2FB03235B0903F0E5
:10467C000703FA6A1343FB620BE03B6A1B013233FC
:10468C00094AA2FB03235B0903F00F03FA6A1343E5
:10469C00FB62FB6A9AB27B681A8100BF3037BD4659
:1046AC0080BD00BF003801401F85EB5180B483B042
:1046BC0000AF78600B46FB70FB78002B08D07B6852
:1046CC009B899BB243F400539AB27B689A8107E0B2
:1046DC007B689B899BB223F400539AB27B689A81C6
:1046EC0000BF0C37BD4680BC704780B483B000AFB0
:1046FC0078600B467B8013467B707B78002B08D050
:10470C007B689B8A9AB27B8813439AB27B689A82A5
:10471C0009E07B689B8A9AB27B88DB439BB213408F
:10472C009AB27B689A8200BF0C37BD4680BC70473A
:10473C0080B483B000AF786039607B685B683A689E
:10474C0013443B607B681A687B689B6839689942A4
:10475C0004DB7B689B683968CB1A00E03B68134428
:10476C001B7818460C37BD4680BC704780B485B0AA
:10477C0000AF786039607B681B6C591C7A681164D7
:10478C007A68D15C7A68526C386800FA02F2D2B25C
:10479C000A43D2B262F07F02D1B27A68D1547B68FC
:1047AC005B6CC3F10703FB60FB68C3F108027B6819
:1047BC005A643B68DAB2FB6842FA03F35BB263F00B
:1047CC007F035AB27B681B6CD1B27A68D1547B6878
:1047DC005B6C072B0CD17B681B6C5A1C7B681A64B6
:1047EC007B681B6C7A680021D1547B6800225A6468
:1047FC0000BF1437BD4680BC704780B582B000AF97
:10480C007860396039687868FFF7B0FF3B681B1235
:10481C0019467868FFF7AAFF00BF0837BD4680BD70
:10482C0080B582B000AF7860396039687868FFF77E
:10483C009DFF3B681B1219467868FFF797FF3B6892
:10484C001B1419467868FFF791FF3B681B16194635
:10485C007868FFF78BFF00BF0837BD4680BD80B47A
:10486C0085B000AFF8600B467A60FB72FB680022E3
:10487C005A64FB6801221A64FB7A1B015BB203F0D9
:10488C0070035AB27B685BB203F00F035BB2134345
:10489C005BB2DAB2FB681A70FB6800225A7000BF78
:1048AC001437BD4680BC704780B483B000AF7860CD
:1048BC007B6800225A647B6800221A647B680022A1
:1048CC001A7000BF0C37BD4680BC704780B582B0F3
:1048DC0000AF78607B685B6C002B04D07B681B6C32
:1048EC005A1C7B681A6478687B68196C0023002258
:1048FC0000F056F803465BB263F07F035AB27B6854
:10490C001B6CD1B27A68D1547B681B6C5A1C7B68C7
:10491C001A647B681B6C7A680021D15400BF08377D
:10492C00BD4680BD80B584B000AFF860B9607A60D8
:10493C00F868FFF7B9FFB968F868FFF75EFF7968A8
:10494C00F868FFF75AFFF868FFF7C0FF00BF103791
:10495C00BD4680BD80B582B000AF786039607868A4
:10496C00FFF7A2FF39687868FFF75AFF7868FFF7FE
:10497C00ADFF00BF0837BD4680BD80B582B000AF2B
:10498C00786039607868FFF78FFF39687868FFF7CF
:10499C0047FF7868FFF79AFF00BF0837BD4680BD18
:1049AC0080B487B000AFF860B9607A603B60FF23D9
:1049BC00FB75BB685A1EBA60002B14BF0123002381
:1049CC00DBB2002B0BD0FB685A1CFA601A78FB7D0B
:1049DC005340DBB21A46104B9B5CFB75E9E73B6816
:1049EC005A1E3A60002B14BF01230023DBB2002BAC
:1049FC000BD07B685A1C7A601A78FB7D5340DBB273
:104A0C001A46054B9B5CFB75E9E7FB7D18461C378A
:104A1C00BD4680BC704700BF0CA1000880B485B0B7
:104A2C0000AFF860B96011461A460B46FB8013467E
:104A3C00BB80FB68BA681A60B7F90620FB685A603D
:104A4C00B7F90420FB689A60FB68BA69DA60FB6806
:104A5C0000221A61FB6818461437BD4680BC7047AB
:104A6C0080B485B000AFF860B9607A60FB68BA6852
:104A7C005A60FB687A68DA60FB6800221A6100BF32
:104A8C001437BD4680BC704780B584B000AF7860E9
:104A9C007B68DB68591C7A68D16019467868FFF727
:104AAC0047FE034603F07F027B681B6942FA03F35F
:104ABC00FB607B681B69C3F10703BB607B68DB6829
:104ACC0019467868FFF734FE034603F07F02BB6893
:104ADC0002FA03F3DBB2FA681343FB60BB68C3F161
:104AEC0008027B681A617B681B69072B07D17B68FE
:104AFC00DB685A1C7B68DA607B6800221A61FB68F1
:104B0C0018461037BD4680BD80B584B000AF7860C4
:104B1C007868FFF7B9FFF8607868FFF7B5FF0346D0
:104B2C001B02FA681343FB60FB6818461037BD463E
:104B3C0080BD80B584B000AF78607868FFF7E4FF83
:104B4C000346FB81B7F90E3018461037BD4680BDC1
:104B5C0080B584B000AF78607868FFF795FFF86097
:104B6C007868FFF791FF03461B02FA681343FB605A
:104B7C007868FFF789FF03461B04FA681343FB6050
:104B8C007868FFF781FF03461B06FA681343FB6046
:104B9C00FB6818461037BD4680BD90B587B000AF96
:104BAC00786039603B68013B3B607B689A687B6846
:104BBC005B68D31A7B617A693B689A421BDB7B6822
:104BCC001B687A6852689818002300223968FFF72E
:104BDC00E7FE034643F08003FB6039687868FFF713
:104BEC00A7FD0346BB60FA68BB689A420CBF012361
:104BFC000023DBB21BE03A687B69D31A3B617B680C
:104C0C001B687A68526898187B681A683B697969DE
:104C1C00FFF7C6FE034643F0800439687868FFF757
:104C2C0087FD03469C420CBF01230023DBB21846D0
:104C3C001C37BD4690BD80B582B000AF786039603E
:104C4C007B681B6808331B683946042278689847D0
:104C5C0000BF0837BD4680BD80B582B000AF78601C
:104C6C0039607B681B6808331B68042239687868D4
:104C7C00984700BF0837BD4680BD000080B584B0A2
:104C8C0000AFF860B9607A60FB680433184600F036
:104C9C00F7F9074AFB681A60FB68BA689A60FB6808
:104CAC007A68DA60FB6818461037BD4680BD00BFD5
:104CBC00D8A4000880B483B000AF786000BF0C3774
:104CCC00BD4680BC704780B483B000AF78607B6811
:104CDC001B8A18460C37BD4680BC704780B483B025
:104CEC0000AF78607B685B8A18460C37BD4680BC89
:104CFC00704780B483B000AF7860062318460C3739
:104D0C00BD4680BC7047000080B582B000AF7860B3
:104D1C007B680C4AC8211846FFF7B0FF0A4A7B682B
:104D2C001A607B684FF47A725A617B68074A9A6101
:104D3C007B6840F25232DA617B6818460837BD4610
:104D4C0080BD00BF0CA2000834A20008404B4C00F0
:104D5C0080B594B000AF786001214FF40070FFF77C
:104D6C004BF8032387F84E30002387F84F3002238B
:104D7C00A7F84C3007F14C0319464148FEF706FEE4
:104D8C000223A7F84C3007F14C0319463D48FEF7B7
:104D9C00FDFD3D48FEF7EEFB3C4BFB607B681033A2
:104DAC003B6100237B610223BB610023FB618023F9
:104DBC003B624FF480737B624FF48063BB622023B1
:104DCC00FB624FF400533B6300237B6307F10C033E
:104DDC0019462D48FEF78AFC01212B48FEF7C4FC2E
:104DEC000023BB63012387F83C30002387F83D3058
:104DFC004FF480233B6400237B64022387F8483004
:104E0C0007F1380319462248FEF7FCF90423012266
:104E1C0009211F48FEF7CAFA0123022201211C486E
:104E2C00FEF7C4FA01211A48FEF759FA0121184875
:104E3C00FEF73AFA1648FEF76DFA1548FEF779FABE
:104E4C000346002B14BF01230023DBB2002B00D040
:104E5C00F3E70F48FEF784FA0D48FEF790FA034685
:104E6C00002B14BF01230023DBB2002B00D0F3E78F
:104E7C0001210748FEF763FB00BF5037BD4680BDDC
:104E8C0000080140000C0140080002404C24014085
:104E9C000024014090B583B000AF78607B6893F834
:104EAC002C3083F00103DBB2002B09D07868FFF7BC
:104EBC0015FF02467B685B699A4201DA012300E028
:104ECC000023002B03D07B68012283F82C207B6805
:104EDC009C6A7868FFF7F7FE0346E2187B68DB698B
:104EEC00D31A4FF0E0421946002000F0D6F80246E3
:104EFC007B689A627B689A6A7B689B699A4203DD3D
:104F0C007B68012283F82D2000BF0C37BD4690BD75
:104F1C0080B582B000AF786039607B689B691946B8
:104F2C003868FFF788FE7B68DB6919463868FFF73D
:104F3C0082FE7B685B6919463868FFF77CFE00BF10
:104F4C000837BD4680BD80B582B000AF786039604F
:104F5C007B68183319463868FFF77EFE7B681C3374
:104F6C0019463868FFF778FE7B68143319463868A1
:104F7C00FFF772FE7B685A691346DB009B1ADA1046
:104F8C007B681A627B689A691346DB009B1ADA10FD
:104F9C007B685A6200BF0837BD4680BD80B582B0C1
:104FAC0000AF786039603B68052B25D801A252F818
:104FBC0023F000BFD94F0008E34F0008ED4F000865
:104FCC00F34F0008F94F0008FF4F00087868FFF70F
:104FDC007AFE034611E07868FFF780FE03460CE08A
:104FEC007B689B6909E07B68DB6906E07B689B6AF0
:104FFC0003E07B685B6900E0002318460837BD4678
:10500C0080BD00BF80B485B000AFF860B9607A6035
:10501C00BB68023B032B2BD801A252F823F000BF34
:10502C003D500008555000085D50000865500008C0
:10503C00FB687A689A61FB689A691346DB009B1AD5
:10504C00DA10FB685A6215E0FB687A68DA6111E0E5
:10505C00FB687A689A620DE0FB687A685A61FB68B3
:10506C005A691346DB009B1ADA10FB681A6201E0DE
:10507C00002300E0012318461437BD4680BC70475E
:10508C0080B483B000AF78607B6800221A607B68C4
:10509C0018460C37BD4680BC704780B485B000AF55
:1050AC00F860B9607A60BA68FB689A4207DBBA6844
:1050BC007B689A4201DD7B6802E0BB6800E0FB681C
:1050CC0018461437BD4680BC7047000080B582B0CE
:1050DC0000AF786039607B68012B07D13B684FF6D5
:1050EC00FF72934202D10348FFF70EFE00BF083750
:1050FC00BD4680BDBC00002080B500AF4FF6FF71EF
:10510C000120FFF7E3FF80BD80B483B000AF0346FE
:10511C00FB71FB79002B01D0012300E00023184622
:10512C000C37BD4680BC704780B483B000AF78604C
:10513C007B68002B14BF01230023DBB218460C370D
:10514C00BD4680BC704790B585B000AF78603960C3
:10515C00786800F086F8F8607B683A68C3F82C230E
:10516C003B689B11BB603B6803F03F033B607B6873
:10517C00BA68103233F8123019467A68BB68134497
:10518C0003F50B731B781A463B6803FB02F39B1168
:10519C000B44C3F30D027B68C3F830237B68D3F850
:1051AC0030237B68D3F82432D31A1A467B6893F8E1
:1051BC002032002B01D0002301E04FF0FF3353408D
:1051CC0003F57A73C3F30D027B68C3F834237B6851
:1051DC0093F83833002B1BD07B68D3F8343343F26D
:1051EC00AF62934208DC7B68D3F8343303F580421A
:1051FC007B68C3F8342316E07B68D3F8343343F66A
:10520C00CF1293420FDC7B68002283F838230AE02C
:10521C007B68D3F8343343F6F042934203DD7B686A
:10522C00012283F838237B6803F57173FA6812B294
:10523C001146184600F0ECFB7B6803F54F74786858
:10524C0000F00FF803469AB2FB689BB2D31A9BB2DC
:10525C001BB21946204600F00AFC00BF1437BD46AD
:10526C0090BD80B483B000AF78607B68D3F83433E2
:10527C00A3F57A727B68D3F82832D31A18460C3708
:10528C00BD4680BC704780B483B000AF78600D23FE
:10529C0018460C37BD4680BC704780B483B000AF55
:1052AC0078607B6801229A7000BF0C37BD4680BCC9
:1052BC007047000080B582B000AF78607B68002238
:1052CC000A211846FFF7DAFC144A7B681A607B68DF
:1052DC0000225A617B68124A9A617B6841F6583207
:1052EC00DA617B68012283F820227B680022C3F8F4
:1052FC0024227B68002283F838237B6803F54F73E4
:10530C00184600F0E7FB7B6803F57173184600F054
:10531C00F8FB7B6818460837BD4680BD54A20008D0
:10532C00A8E4FFFF80B58CB000AF7860102387F83D
:10533C002F30032387F82E301023BB8507F12C0365
:10534C0019464B48FEF722FB012210214848FEF774
:10535C00D9FB182387F82F302023BB8507F12C03AA
:10536C0019464348FEF712FB042387F82F304023DD
:10537C00BB8507F12C0319463D48FEF707FB1823A4
:10538C0087F82F308023BB8507F12C03194638484A
:10539C00FEF7FCFA232387F82830042387F82930FA
:1053AC00002387F82A30012387F82B3007F12803D4
:1053BC001846FDF7C5FE01214FF48050FEF71CFD89
:1053CC000023BB824FF48273FB824FF400633B8358
:1053DC0000237B830123BB834FF40073FB832823BF
:1053EC003B8400237B8407F1140319462148FEF704
:1053FC003FFD012260211F48FEF79CFD01211D4845
:10540C00FEF779FD1C2387F82830042387F8293010
:10541C00002387F82A30012387F82B3007F1280363
:10542C001846FDF78DFE01210120FEF703FD002338
:10543C003B8100237B8141F63F73BB810023FB81C1
:10544C0000233B7407F1080319464FF08040FEF728
:10545C00BBFD012201214FF08040FFF70FF8012125
:10546C004FF08040FEF7C6FF00BF3037BD4680BD11
:10547C00000801400030014080B582B000AF786078
:10548C0039607B68D3F8283258427B68DB691A464E
:10549C003968FFF702FE034618460837BD4680BD43
:1054AC0080B584B000AF7860396001213868FFF7AF
:1054BC00C2FB0023FB60FB68FF2B10DC3B681B6806
:1054CC0008331B687A6802F12001FA685200114413
:1054DC00042238689847FB680233FB60EBE700BF97
:1054EC001037BD4680BD80B586B000AF786039609E
:1054FC0007F10C0319463868FFF7AEFBFB68012B6C
:10550C0015D100237B617B69FF2B29DC3B681B6871
:10551C0008331B687A6802F120017A695200114441
:10552C000422386898477B6902337B61EBE70023E0
:10553C003B613B69FF2B13DC3B699BB29B0199B22E
:10554C007B683A69103223F812107A683B6913446D
:10555C0003F50B7340221A703B6901333B61E8E79A
:10556C00786800F02AFA00BF1837BD4680BD80B5B8
:10557C0084B000AF78607868FFF773FEF8607B68E2
:10558C0093F82032002B06D07B685A69FB681A44CA
:10559C007B685A6105E07B685A69FB68D21A7B68A4
:1055AC005A61786800F0D2F900BF1037BD4680BD53
:1055BC0080B582B000AF786039607B68012283F8D7
:1055CC0020227B683A681A617B6800225A617B68EA
:1055DC00064A9A617B6841F65832DA61786800F0C5
:1055EC00B5F900BF0837BD4680BD00BFA8E4FFFF7A
:1055FC0080B582B000AF786039607B683A685A61D8
:10560C00786800F0A3F900BF0837BD4680BD80B5AF
:10561C0082B000AF786039607B683A689A617868CC
:10562C0000F094F900BF0837BD4680BD80B582B04C
:10563C0000AF786039603B6883EAE372A2EBE372F7
:10564C007B68DA61786800F081F900BF0837BD46E5
:10565C0080BD80B582B000AF786039607B681B6913
:10566C0019463868FFF7E7FA7B685B6919463868B2
:10567C00FFF7E1FA7B689B6919463868FFF7DBFA9C
:10568C007B68DB6919463868FFF7D5FA00BF083725
:10569C00BD4680BD80B582B000AF786039607B6854
:1056AC00103319463868FFF7D7FA7B68143319465C
:1056BC003868FFF7D1FA7B68183319463868FFF75A
:1056CC00CBFA7B681C3319463868FFF7C5FA786843
:1056DC0000F03CF900BF0837BD4680BD80B582B0F4
:1056EC0000AF002210211A48FEF70CFA01214FF0EE
:1056FC008040FEF710FF174B1B681A12154B1B68E6
:10570C0053407B607B681B117A6853407B607B68DD
:10571C009B107A6853407B607B685B107A685340BF
:10572C007B607B6803F00103002B07D1094B1B68DE
:10573C00C3F30D0319460848FFF705FD4FF6FF713B
:10574C000648FEF727FC00BF0837BD4680BD00BFEA
:10575C0000080140D8040020EC000020003001407B
:10576C0080B500AF012210210548FEF7CBF90548A2
:10577C00FEF71EFC03461A46034B1A6000BF80BDA1
:10578C000008014000300140D804002080B582B0F0
:10579C0000AF786039603B680A2B44D801A252F8FC
:1057AC0023F000BFDD570008ED570008F55700083F
:1057BC00FD570008055800080F580008135800083A
:1057CC00195800081F580008255800082D580008C3
:1057DC007B6893F820321846FFF796FC034623E0CB
:1057EC007B68D3F824321FE07B68D3F82C331BE0A2
:1057FC007B68D3F8343317E07868FFF732FD034643
:10580C0012E0002310E07B689B690DE07B685B690C
:10581C000AE07B68DB6907E07B68D3F8303303E090
:10582C007B681B6900E0002318460837BD4680BD25
:10583C0080B584B000AFF860B9607A60BB680A2BA1
:10584C005BD801A252F823F0815800089358000845
:10585C00075900080759000807590008A7580008FD
:10586C00AF580008B9580008C3580008D7580008AA
:10587C00CD5800087868FFF757FC03461A46FB68BA
:10588C0083F820223BE0FB68D3F83023FB68C3F895
:10589C002422F86800F05AF831E0F868FFF767FE48
:1058AC002DE07968F868FFF7B2FE28E07968F868AF
:1058BC00FFF79EFE23E07968F868FFF7B7FE1EE05D
:1058CC007968F868FFF774FE19E07B689BB27A6818
:1058DC001214D2B2C3F30D0399B2FB68103223F841
:1058EC0012107B681B14FF2B05D1F86800F065F8CB
:1058FC000548FFF7D2FC002302E0002300E001235F
:10590C0018461037BD4680BDDC04002080B582B03F
:10591C0000AF78607B68012283F820227B6841F617
:10592C0058321A617B6800225A617B68064A9A6178
:10593C007B6841F65832DA61786800F007F800BFEE
:10594C000837BD4680BD00BFA8E4FFFF80B483B01C
:10595C0000AF78607B681A697B685B691A447B6866
:10596C009B691344C3F30D027B68C3F824227B6844
:10597C009B69DB0FDAB27B6883F820227B6893F893
:10598C002032002B03D07B689B695B4201E07B6873
:10599C009B697A68C2F828327B68D3F8283203F501
:1059AC007A727B68C3F834237B68002283F838232F
:1059BC0000BF0C37BD4680BC704780B485B000AFCB
:1059CC0078600023FB60FB68FF2B1CDCFB68013359
:1059DC00DAB27B68103233F81230BB60BB68DAB2D3
:1059EC007B68F968103133F81130DBB2D31AD9B2B5
:1059FC007A68FB68134403F50B730A461A70FB684C
:105A0C000133FB60DFE700BF1437BD4680BC704735
:105A1C0080B483B000AF78600B467B807B685A6A99
:105A2C007B681B6879685B000B44B3F90430D21AAD
:105A3C007B685A627B681A68796853000B447988D2
:105A4C009980796853000B44B3F904207B685B6A36
:105A5C001A447B685A627B681B68013303F00F029F
:105A6C007B681A6000BF0C37BD4680BC704780B4A1
:105A7C0083B000AF78600B467B807B68D3F88420C2
:105A8C007B681B6879685B000B44B3F90430D21A4D
:105A9C007B68C3F884207B681A68796853000B44D0
:105AAC0079889980796853000B44B3F904207B689A
:105ABC00D3F884301A447B68C3F884207B681B6855
:105ACC00013303F03F027B681A6000BF0C37BD4600
:105ADC0080BC704780B582B000AF78607B680022D4
:105AEC001A607B680022C3F884207B680433802210
:105AFC000021184604F040FA7B6818460837BD466A
:105B0C0080BD80B582B000AF78607B6800221A60DF
:105B1C007B6800225A627B680433202200211846DD
:105B2C0004F02AFA7B6818460837BD4680BD000091
:105B3C0080B582B000AF786039607B68012B07D1EB
:105B4C003B684FF6FF72934202D10348FFF7B2FB5A
:105B5C0000BF0837BD4680BDEC00002080B500AF0B
:105B6C004FF6FF710120FFF7E3FF80BD80B483B0D7
:105B7C0000AF7860044A7B681A607B6818460C3763
:105B8C00BD4680BC704700BFB0A2000880B483B093
:105B9C0000AF7860044A7B681A607B6818460C3743
:105BAC00BD4680BC704700BFB0A2000880B582B073
:105BBC0000AF78607868FFF7E9FF0421786804F09B
:105BCC0080F97B6818460837BD4680BD80B483B029
:105BDC0000AF7860044A7B681A607B6818460C3703
:105BEC00BD4680BC704700BF9CA2000880B483B047
:105BFC0000AF7860044A7B681A607B6818460C37E3
:105C0C00BD4680BC704700BF9CA2000880B582B026
:105C1C0000AF78607868FFF7E9FF0421786804F03A
:105C2C0050F97B6818460837BD4680BD80B582B0F8
:105C3C0000AF786039607B681B6819463868FEF7DE
:105C4C00FAFF7B685B6819463868FEF7F4FF7B68DF
:105C5C009B6819463868FEF7EEFF7B68DB681946CF
:105C6C003868FEF7E8FF00BF0837BD4680BD80B539
:105C7C0082B000AF786039607B6819463868FEF7EF
:105C8C00EBFF7B68043319463868FEF7E5FF7B6849
:105C9C00083319463868FEF7DFFF7B680C3319466A
:105CAC003868FEF7D9FF00BF0837BD4680BD80B409
:105CBC0083B000AF786039607B683A681A607B68A3
:105CCC000022DA607B68DA687B689A607B689A6885
:105CDC007B685A6000BF0C37BD4680BC7047000023
:105CEC0080B400AFBFF34F8F00BF074BDB6803F4EA
:105CFC00E0620549054B1343CB60BFF34F8F00BFE8
:105D0C0000BF00BFFCE700BF00ED00E00400FA0597
:105D1C0080B582B000AF786039607B681846FFF7B9
:105D2C0025FF074A7B681A607B6800225A607B68F3
:105D3C003A689A607B6818460837BD4680BD00BF3C
:105D4C0088A2000880B584B000AFF860B9607A60B2
:105D5C007B68012B0DD1FB689A68FB685B689B0024
:105D6C0013441A46BB681B7819461046FDF76AFDAA
:105D7C0020E07B68022B0DD1FB689A68FB685B689E
:105D8C009B0013441A46BB681B8819461046FDF746
:105D9C0059FD0FE07B68042B12D1FB689A68FB68F5
:105DAC005B689B0013441A46BB681B681946104677
:105DBC00FDF748FDFB685B685A1CFB685A6000E005
:105DCC0000BF1037BD4680BD80B582B000AF786093
:105DDC0039607B681846FFF7F9FE074A7B681A6042
:105DEC007B6800225A607B683A689A607B68184628
:105DFC000837BD4680BD00BF74A2000880B485B0D2
:105E0C0000AFF860B9607A607B68012B09D1FB6840
:105E1C009A68FB685B689B0013441A78BB681A701D
:105E2C0018E07B68022B09D1FB689A68FB685B68F9
:105E3C009B0013441A88BB681A800BE07B68042B08
:105E4C000ED1FB689A68FB685B689B0013441A6868
:105E5C00BB681A60FB685B685A1CFB685A6000E000
:105E6C0000BF1437BD4680BC7047000080B586B0BB
:105E7C0000AF78607B681B78002B06D07B68002213
:105E8C001A70786800F07AF8F4E77B689B78002B3E
:105E9C001DD07B6800229A70FDF782FC3420FDF740
:105EAC001BFD1348FDF79CFC07F10C031049184629
:105EBC00FFF72EFF07F10C0319460E48FFF7F0FA17
:105ECC00FDF780FC07F10C03184600F0BFF87B6867
:105EDC005B78002B08D07B681B7883F00103DBB266
:105EEC00002B01D0FFF7FCFE00BF1837BD4680BD6C
:105EFC0000200008EC00002080B588B000AF78606E
:105F0C0007F1140318491846FFF75EFF07F1140355
:105F1C0019461648FFF7ABFE144B1B680F2B06D126
:105F2C0007F114031946124802F0BAFC02E0786833
:105F3C0000F056F807F108030E491846FFF744FF26
:105F4C0007F1080319460C48FFF7CDFA07F10803CF
:105F5C00184600F059F807F11403184600F054F8ED
:105F6C0000BF2037BD4680BD00280008E00400209B
:105F7C007C08002000200008EC00002080B586B0D2
:105F8C0000AF7860FDF70CFC3420FDF7A5FC114840
:105F9C00FDF726FC07F10C030E491846FFF7B8FE77
:105FAC000D4B0F221A6007F10C0319460A48FFF734
:105FBC003DFE07F10C031946084802F056FCFDF7AC
:105FCC0001FC07F10C03184600F040F800BF18372D
:105FDC00BD4680BD00280008E00400207C0800209D
:105FEC0080B582B000AF78600F210548FFF75FFEE7
:105FFC00044802F0C6FC00BF0837BD4680BD00BF98
:10600C00E00400207C08002080B582B000AF7860EE
:10601C00054A7B681A607B681846FFF7E7FD7B68CA
:10602C0018460837BD4680BD74A2000880B582B002
:10603C0000AF78607868FFF7E7FF0C21786803F011
:10604C0040FF7B6818460837BD4680BD80B582B0DE
:10605C0000AF7860054A7B681A607B681846FFF7CA
:10606C0095FD7B6818460837BD4680BD88A20008A0
:10607C0080B582B000AF78607868FFF7E7FF0C213D
:10608C00786803F01EFF7B6818460837BD4680BD54
:10609C0080B483B000AF78607B6893F82C30002B11
:1060AC0004D17B6893F82D30002B01D0012300E044
:1060BC00002318460C37BD4680BC704780B582B0B3
:1060CC0000AF0346FB71FB79002B01D0012300E0EC
:1060DC0000231A464FF400410348FDF713FD00BF9F
:1060EC000837BD4680BD00BF0008014080B582B0B6
:1060FC0000AF786039601948FFF7CAFF034683F098
:10610C000103DBB2002B0ED00120FFF7D7FF4FF4B9
:10611C00967002F00FFB0020FFF7D0FF4FF4967043
:10612C0002F008FBE7E70120FFF7C8FFC82002F0E8
:10613C0001FB0020FFF7C2FFC82002F0FBFA012090
:10614C00FFF7BCFFC82002F0F5FA0020FFF7B6FFFE
:10615C004FF42F7002F0EEFACDE700BFBC00002028
:10616C0080B582B000AF786079680020FFF7BEFF81
:10617C000837BD4680BD000080B483B000AF7860A6
:10618C00024B18460C37BD4680BC70476D61000849
:10619C0080B584B000AF7860104B5B680F4A43F059
:1061AC00007353601023FB720323BB724FF4004344
:1061BC003B8107F1080319460948FDF7E7FB07F196
:1061CC000C031846FFF7D8FF024600230021642079
:1061DC0002F0B2F900BF1037BD4680BD000001408F
:1061EC000008014080B483B000AF78607B68012266
:1061FC005A707B685A787B681A7000BF0C37BD46A2
:10620C0080BC704780B483B000AF78607B6893F833
:10621C00203218460C37BD4680BC704780B483B022
:10622C0000AF78607B6800229A627B68002283F85A
:10623C002D207B6893F82D207B6883F82C2000BFE1
:10624C000C37BD4680BC704780B58CB000AF786011
:10625C0001214FF40060FDF7CFFD01210220FDF775
:10626C00E9FD4FF40073BB85032387F82E30182308
:10627C0087F82F3007F12C0319463F48FDF786FBB2
:10628C004FF48073BB8507F12C0319463A48FDF790
:10629C007DFB00233B8400237B8440F6B733BB8417
:1062AC000023FB84002387F8283007F120031946CC
:1062BC003248FDF789FE70233B8201237B82042345
:1062CC00BB820023FB8200233B8300237B834FF4A0
:1062DC008073BB830023FB8307F110031946274807
:1062EC00FDF7EEFE07F1100319462448FDF774FF85
:1062FC0070233B8201237B820023BB820123FB8220
:10630C0000233B8300237B834FF48073BB830023E8
:10631C00FB8307F1100319461848FDF7E5FF1F230F
:10632C003B8440F6B733BB8407F12003194614486D
:10633C00FDF74AFE1D233B7304237B730023BB73C1
:10634C000123FB7307F10C031846FCF7F9FE01223D
:10635C0001210B48FEF792F801210848FEF74AF894
:10636C0001210748FEF746F801210448FEF761F8C1
:10637C0000BF3037BD4680BD00080140002C0140F5
:10638C000004004080B582B000AF786039602B48C3
:10639C00FFF77EFE0346002B03D0786800F066F80A
:1063AC0047E02748FFF72EFF0346002B01D03B6840
:1063BC0001E03B685B4240F6B83219462148FEF7D3
:1063CC006CFE38607B683A681A603B68002B16DB01
:1063DC0000211D48FEF783F83B689BB219461A480A
:1063EC00FEF76FF83B68143B1946012000F072F879
:1063FC0003469BB219461448FEF77FF819E00021BA
:10640C001148FEF75EF83B689BB25B429BB21946A3
:10641C000D48FEF764F83A686FF013039B1A19469F
:10642C00012000F057F803469BB219460648FEF7C8
:10643C0064F800BF0837BD4680BD00BFBC0000201B
:10644C00EC00002048F4FFFF002C014080B582B026
:10645C0000AF7860786800F009F80348FFF7DEFEBB
:10646C0000BF0837BD4680BDBC00002080B582B09F
:10647C0000AF786040F6B8310848FEF730F840F6C7
:10648C00B8310648FEF71DF840F6A4310348FEF774
:10649C0034F800BF0837BD4680BD00BF002C01405A
:1064AC0080B500AF01210848FEF735F8074B1A6894
:1064BC00064B1B681B6810331B6810469847044832
:1064CC00FEF7E8FC00BF80BD00040040FC04002087
:1064DC00BC00002080B483B000AF786039607A686B
:1064EC003B689A4201DD7B6800E03B6818460C373C
:1064FC00BD4680BC704780B483B000AF7860396013
:10650C003B6818460C37BD4680BC704780B483B0DE
:10651C0000AF7860002318460C37BD4680BC70472E
:10652C0080B483B000AF786000BF0C37BD4680BC30
:10653C007047000080B584B000AFF860B9607A6035
:10654C00FB687A68B9681846FEF798FB034AFB6843
:10655C001A60FB6818461037BD4680BD58A5000868
:10656C0080B483B000AF786039607B683A689A6118
:10657C0000BF0C37BD4680BC704780B483B000AF01
:10658C0078607B685B6918460C37BD4680BC7047E9
:10659C0080B483B000AF78607B685B6818460C37BA
:1065AC00BD4680BC704780B582B000AF78607B6818
:1065BC000C331846FFF7E1FF034618460837BD4673
:1065CC0080BD80B483B000AF78607B681B681846D0
:1065DC000C37BD4680BC704780B582B000AF786088
:1065EC007B6803F57173184600F07CF90346184676
:1065FC000837BD4680BD80B582B000AF78607B683F
:10660C0003F54F73184600F07AF90346184608371D
:10661C00BD4680BD80B483B000AF78607B6801223A
:10662C001A7000BF0C37BD4680BC704780B483B075
:10663C0000AF7860044A7B681A607B6818460C3798
:10664C00BD4680BC704700BF30A3000880B582B047
:10665C0000AF78607B681846FFF7E8FF0F4A7B684D
:10666C001A607B6847F6FF725A607B6800229A605A
:10667C007B680C330A4A4FF416711846FFF75AFF21
:10668C007B68002283F85C207B68002283F85D2005
:10669C007B6818460837BD4680BD00BF14A30008B0
:1066AC00BCA2000880B582B000AF786039603B684E
:1066BC001A1D7B680C331946104600F02CF9034662
:1066CC0018460837BD4680BD90B583B000AF7860E2
:1066DC0039603B6847F6FA72934204D17B68012219
:1066EC0083F85C2088E03B6847F6F27293420AD14B
:1066FC004348FFF766FF02467B689A607B6801227D
:10670C0083F85D2078E03B6847F6F172934218D12C
:10671C003C48FEF7A6FD02467B685A607B6803F195
:10672C000C047B685B6819463648FEF7A5FE0346E9
:10673C001946204602F055FE7B68002283F85D2046
:10674C005AE03B6847F6FC72934255D03B6847F6DB
:10675C00BB72934218DC7B6893F85D30002B03D03E
:10676C007B683A689A6047E07B683A685A607B6855
:10677C0003F10C0439682348FEF77EFE03461946E4
:10678C00204602F02EFE37E03B6847F6FE7293423D
:10679C000ED17B683A685A607B6803F10C04194887
:1067AC00FEF75FFD03461946204602F01AFE23E071
:1067BC003B6847F6FB7293421BD17B6893F85C30C5
:1067CC00002B19D00F48FEF7D2FE0F48FFF722FF1F
:1067DC007B6803F10C027B68002159607B685B6865
:1067EC001946104602F0FDFD7B68002283F85C2000
:1067FC0002E07B683A685A6000BF0C37BD4690BD1A
:10680C00F8040020EC000020DC04002080B586B0E9
:10681C0000AF78603148FFF7DFFE38612F48FFF793
:10682C00EAFE78617B69082B03DD7B69083B7B61A1
:10683C0009E07B6913F1080F03DA7B6908337B618C
:10684C0001E000237B617B685B6847F6FE72934234
:10685C0007D100212248FFF795FD002001F052F8E6
:10686C0032E07B685B6847F6FF72934207D11C48A5
:10687C00FFF7ECFD40F6B83001F044F824E07B68FB
:10688C0093F85D30002B06D07B689B681946144842
:10689C00FFF778FD18E07B680C337A693969184684
:1068AC0002F0CFFCF860F9680D48FFF76BFD0B4860
:1068BC00FFF7A8FC0346002B01D0FB6801E0FB6846
:1068CC005B42184601F01EF87B680C333969184698
:1068DC00FFF746FE00BF1837BD4680BDEC00002018
:1068EC00F804002080B483B000AF78607B685B6AEA
:1068FC001B111BB218460C37BD4680BC704780B4C8
:10690C0083B000AF78607B68D3F8843018460C37BE
:10691C00BD4680BC704780B483B000AF78603960EE
:10692C007B681A683B685A607B683A681A603B68F7
:10693C0018460C37BD4680BC7047000080B582B04D
:10694C0000AF786039607B68012B07D13B684FF64C
:10695C00FF72934202D10348FFF778FE00BF08375D
:10696C00BD4680BD0005002080B500AF4FF6FF711D
:10697C000120FFF7E3FF80BD80B584B000AFF86065
:10698C00B9607A60FB687A68B9681846FEF776F9E0
:10699C00034AFB681A60FB6818461037BD4680BD79
:1069AC0018A5000880B483B000AF786039607B68AC
:1069BC003A681A6100BF0C37BD4680BC704780B482
:1069CC0083B000AF78607B685B6918460C37BD46B6
:1069DC0080BC704780B584B000AFF860B9607A6055
:1069EC00FB687A68B9681846FFF7C6FF064AFB6869
:1069FC001A60FB680022DA62FB6800221A63FB68EB
:106A0C0018461037BD4680BD38A5000880B483B049
:106A1C0000AF78607B685B6818460C37BD4680BC5D
:106A2C00704780B582B000AF78607B680833184639
:106A3C00FFF7C5FF034618460837BD4680BD80B436
:106A4C0083B000AF78607B68D3F82C3318460C37D2
:106A5C00BD4680BC7047000080B582B000AF786046
:106A6C007B681846FFF7E2FD0D4A7B681A607B686D
:106A7C0047F6FF725A607B6808330A4A4FF4B971C3
:106A8C001846FFF7A7FF7B685C33074A4FF4AF71DA
:106A9C00184602F031FF7B6818460837BD4680BDAA
:106AAC00C4A3000844A30008ACA3000880B582B0BE
:106ABC0000AF786039603B681A1D7B680833194653
:106ACC001046FFF728FF03461A1D7B685C331946F6
:106ADC001046FFF720FF034618460837BD4680BD19
:106AEC0090B583B000AF786039607B683A685A60C3
:106AFC007B685B6847F6BB7293420ADC7B6803F1E8
:106B0C0008023B68C3F30D0319461046FFF74AFF12
:106B1C0016E07B685B6847F6FE72934205D07B6893
:106B2C005B6847F6FC7293420AD17B6803F1080458
:106B3C000548FFF784FF034619462046FFF732FF4E
:106B4C0000BF0C37BD4690BDEC00002080B584B072
:106B5C0000AF78602948FFF772FFF8607B685C3300
:106B6C00F968184602F0F0FE0346002B41D07B6812
:106B7C005B6803F50053C3F30D03BB607B685B6874
:106B8C00BA689A4208DDFA68BB689A4204DDFB6871
:106B9C00A3F58043FB600CE07B685B68BA689A42A3
:106BAC0007DAFA68BB689A4203DAFB6803F580439C
:106BBC00FB607B685B6847F6FE72934204D1002150
:106BCC000F48FFF7DFFB14E07B685B6847F6FF724A
:106BDC00934203D10A48FFF739FC0AE07B6808337B
:106BEC00F968184602F0C2FA034619460448FFF742
:106BFC00C9FB00BF1037BD4680BD00BFEC000020B4
:106C0C00F804002080B582B000AF786039607B68F2
:106C1C00012B07D13B684FF6FF72934202D1034818
:106C2C00FFF71AFF00BF0837BD4680BD6005002086
:106C3C0080B500AF4FF6FF710120FFF7E3FF80BD79
:106C4C0080B483B000AF78607B689B6918460C37C2
:106C5C00BD4680BC704780B483B000AF78607B6861
:106C6C001B6918460C37BD4680BC704780B483B096
:106C7C0000AF786039607B683A685A6100BF0C37A6
:106C8C00BD4680BC704780B483B000AF78607B6831
:106C9C005B6918460C37BD4680BC704780B582B026
:106CAC0000AF78607B682C331846FFF7D4FF03469F
:106CBC0018460837BD4680BD80B582B000AF7860FD
:106CCC007B681846FFF7B2FC0A4A7B681A607B683F
:106CDC000433094ADC21184602F00EFE7B682C3383
:106CEC00064AF021184602F0E9FC7B681846083782
:106CFC00BD4680BD18A40008D8A30008E8A300086E
:106D0C0080B582B000AF786039607B682C3339680D
:106D1C001846FFF7ABFF00BF0837BD4680BD00002B
:106D2C0090B585B000AF78601A48FEF79AFAF86013
:106D3C007B680433F968184602F006FE0346002B04
:106D4C0024D07B682C331846FFF79DFF034642F294
:106D5C0010729342CCBF01230023DBB2002B03D073
:106D6C000D48FFF773FB11E07B6803F12C047B6883
:106D7C0004331846FFF764FF03461946204602F019
:106D8C00B3FC034619460448FFF7FCFA00BF14375E
:106D9C00BD4690BDEC000020F804002080B582B008
:106DAC0000AF786039603B681A1D7B680433194664
:106DBC001046FFF7B0FD03461A1D7B682C331946AD
:106DCC001046FFF7A8FD034618460837BD4680BDA0
:106DDC0080B582B000AF786039607B68012B07D139
:106DEC003B684FF6FF72934202D10348FFF764FFF2
:106DFC0000BF0837BD4680BDE405002080B500AF5C
:106E0C004FF6FF710120FFF7E3FF80BD80B483B024
:106E1C0000AF786039607B683A685A6200BF0C3703
:106E2C00BD4680BC704780B483B000AF78607B688F
:106E3C009B6D18460C37BD4680BC704780B582B040
:106E4C0000AF78607B681846FFF7F0FB0B4A7B6855
:106E5C001A607B68043300224FF49671184602F0D6
:106E6C004BFD7B682C3300224FF49B71184601F0CC
:106E7C00E7FD7B6818460837BD4680BD34A4000882
:106E8C0080B582B000AF786039607B682C3339688C
:106E9C001846FFF7BBFF00BF0837BD4680BD00009A
:106EAC0090B583B000AF78607B681C1D1248FEF76C
:106EBC00D8F903461946204602F046FD0346002B3E
:106ECC0015D07B6803F12C047B6804331846FFF75C
:106EDC00B7FE03461946204601F0C8FD02467B6802
:106EEC009A657B689B6D19460448FFF74BFA00BF07
:106EFC000C37BD4690BD00BFEC000020F80400200C
:106F0C0080B582B000AF786039603B681A1D7B6831
:106F1C0004331946104600F00DF803461A1D7B6821
:106F2C002C331946104600F005F80346184608376E
:106F3C00BD4680BD80B483B000AF786039607B689B
:106F4C001A683B685A607B683A681A603B68184656
:106F5C000C37BD4680BC704780B582B000AF7860FE
:106F6C0039607B68012B07D13B684FF6FF72934267
:106F7C0002D10348FFF762FF00BF0837BD4680BD52
:106F8C003806002080B500AF4FF6FF710120FFF7E7
:106F9C00E3FF80BD80B582B000AF78607B68184697
:106FAC00FFF744FB064A7B681A607B6800225A6034
:106FBC007B6800229A607B6818460837BD4680BD06
:106FCC0050A4000880B483B000AF78607B685B6825
:106FDC0018460C37BD4680BC704780B483B000AFF8
:106FEC00786039607B683A685A6000BF0C37BD46E0
:106FFC0080BC704780B582B000AF78607B685B68FE
:10700C0019460348FFF7BEF900BF0837BD4680BDDF
:10701C00F804002080B582B000AF786039607B68DE
:10702C00012B07D13B684FF6FF72934202D1034804
:10703C00FFF7B0FF00BF0837BD4680BD94060020A7
:10704C0080B500AF4FF6FF710120FFF7E3FF80BD65
:10705C0080B582B000AF78607B681846FFF7E6FA1F
:10706C00054A7B681A607B6800225A607B68184668
:10707C000837BD4680BD00BF6CA4000880B582B047
:10708C0000AF786039607B683A685A603B680B4A9D
:10709C00934204DB3B6840F6B732934203DD084869
:1070AC00FFF7D4F906E07B685B6819460448FFF7E4
:1070BC0069F900BF00BF0837BD4680BD49F4FFFF2A
:1070CC00F804002080B483B000AF7860396000BF52
:1070DC000C37BD4680BC704780B483B000AF78607D
:1070EC007B685B6818460C37BD4680BC7047000057
:1070FC0080B582B000AF786039607B68012B07D116
:10710C003B684FF6FF72934202D10348FFF7A0FF92
:10711C0000BF0837BD4680BDA006002080B500AF7B
:10712C004FF6FF710120FFF7E3FF80BD80B483B001
:10713C0000AF78603960144B20221A61134A3B6807
:10714C005360124A7B68D36072B600BF0F4B1B684A
:10715C000E4A43F0010313600D4B1B889BB20C4A83
:10716C0023F040039BB21380094B9B899BB2084AC6
:10717C0043F040039BB2938162B600BF00BF0C3753
:10718C00BD4680BC704700BF000C0140440002406B
:10719C000038014080B400AF074B5B68074A1268A7
:1071AC001344C3F58073DBB2054A1360044B1B68B0
:1071BC001846BD4680BC704758000240AC07002002
:1071CC00B007002080B594B000AF78600B46FB7020
:1071DC0001210C20FCF710FE01214FF48040FCF73C
:1071EC000BFE01210120FCF707FE01210420FCF716
:1071FC00A1FC2023A7F84C30032387F84E30102332
:10720C0087F84F3007F14C0319464948FCF7BEFB91
:10721C008023A7F84C30042387F84F30032387F8DA
:10722C004E3007F14C0319464148FCF7AFFB4023A5
:10723C00A7F84C30182387F84F3007F14C03194648
:10724C003B48FCF7A3FB252387F84830002387F83D
:10725C004930002387F84A30012387F84B3007F177
:10726C0048031846FBF76CFF7B68BB63FB78002B6D
:10727C0002D04FF4805300E00023BB870023FB8730
:10728C00FB78002B02D04FF4806300E00023A7F8BA
:10729C0040300023A7F844300C23A7F8423007F104
:1072AC00380319462348FDF747F92348FCF762F9E0
:1072BC00224BFB60224B3B6100237B614FF48073BC
:1072CC00BB610023FB6180233B624FF400737B6244
:1072DC000023BB622023FB624FF400533B6300236B
:1072EC007B6307F10C0319461348FCF7FFF90121E6
:1072FC001148FCF739FA10237B610023FB6207F17C
:10730C000C0319460F48FCF7F1F9012240210948FA
:10731C00FDF7EBF9012280210648FDF7E6F9012182
:10732C000448FDF7C3F900BF5037BD4680BD00BF10
:10733C00000C014000380140580002400438014064
:10734C00AC0600204400024080B400AF0A4B9B897D
:10735C009BB2094A23F040039BB29381074B202236
:10736C005A61074B1A6806494FF6FE7313400B60BF
:10737C0000BFBD4680BC704700380140000C014086
:10738C004400024080B483B000AF7860064B1A68AA
:10739C007B68134403F00F03044AD35C18460C3784
:1073AC00BD4680BC704700BFC4070020B407002056
:1073BC0080B483B000AF7860084B1A687B681344C4
:1073CC00064A1360054B1B6803F00F03034A136056
:1073DC0000BF0C37BD4680BC704700BFC4070020FF
:1073EC0080B500AF0020FFF7CDFF03465BB2DBB2E8
:1073FC00DB09DBB2184680BD80B500AF0020FFF77B
:10740C00C1FF03461B1103F00703184680BD80B46F
:10741C0083B000AF78607B6800221A647B6800221E
:10742C005A647B6818460C37BD4680BC704780B4E4
:10743C0083B000AF78607B681B6C18460C37BD4678
:10744C0080BC704780B483B000AF78607B6818460E
:10745C000C37BD4680BC704780B400AF064B5B68F0
:10746C00064A12681344C3F1100303F00F031846C5
:10747C00BD4680BC704700BF6C000240C4070020B2
:10748C0080B590B000AF3C4B1B7883F00103DBB2AE
:10749C00002B6DD0384B01221A7001210C20FCF707
:1074AC00ABFC01214FF40030FCF7C4FC4FF48063BB
:1074BC00BB87032387F83E30102387F83F3007F152
:1074CC003C0319462D48FCF761FA2C4B4FF48062B3
:1074DC001A610823BB87042387F83F30032387F8FE
:1074EC003E3007F13C0319462448FCF74FFA0423BD
:1074FC00BB87182387F83F3007F13C0319461F4818
:10750C00FCF744FA1E4BFB6200233B8600237B8670
:10751C000023BB8600233B870823FB8607F12C0343
:10752C0019461848FDF708F8174B3B601023FB6011
:10753C0000233B6180237B614FF40073BB6100230C
:10754C00FB614FF400537B620023BB621023BB60D2
:10755C0000233B623B4619460C48FCF7C7F8012256
:10756C0080210848FDF7C1F801210648FDF79EF877
:10757C0000BF4037BD4680BDCC070020000801404D
:10758C0040420F0000440040044400408000024090
:10759C0080B582B000AF78603960FFF75DFF0346BD
:1075AC00002B14BF01230023DBB218460837BD465D
:1075BC0080BD80B582B000AF786079680020FFF79D
:1075CC00E7FF034618460837BD4680BD80B483B03C
:1075DC0000AF7860024B18460C37BD4680BC704734
:1075EC00BF75000880B582B000AF78603960FFF7D6
:1075FC0033FF02463B681B689A42ACBF0123002351
:10760C00DBB218460837BD4680BD80B582B000AFEE
:10761C00786079680020FFF7E5FF034618460837C5
:10762C00BD4680BD80B483B000AF7860024B184675
:10763C000C37BD4680BC70471776000880B586B005
:10764C0000AF78603960FFF707FF0346002B0CBFD3
:10765C0001230023DBB2002B09D007F110031846DD
:10766C00FFF7B4FF03461946002000F0B9FFFFF7FF
:10767C00B7FE034683F00103DBB2002B3BD0FFF7D0
:10768C00BBFE0346002B0CBF01230023DBB2002BF7
:10769C0031D00523FB60FB68002B2CD007F11403C1
:1076AC001846FFF7BFFF024607F10C0311461846B8
:1076BC0000F080F9124B1B68012219461148FDF7A6
:1076CC00CFF9FB6819460F48FDF767FA0346002B04
:1076DC0011D0FB681846FFF76BFE00BF0948FDF799
:1076EC0028FA0246084B1B6803FB02F319460748AD
:1076FC00FFF7C4FCA7E70120FFF75AFEA3E700BF82
:10770C00C4070020D0070020C8070020A0060020D6
:10771C0080B582B000AF786079680020FFF78EFFEB
:10772C000837BD4680BD000080B483B000AF7860E0
:10773C00024B18460C37BD4680BC70471D770008BD
:10774C0080B596B002AF7860634B1B7883F0010371
:10775C00DBB2002B00F0BB805F4B01221A705F4A3A
:10776C007B68136001210C20FCF746FB01214FF4D0
:10777C000030FCF75FFB4FF48063A7F8483003231D
:10778C0087F84A30102387F84B3007F14803194625
:10779C005348FCF7FBF8524B4FF480625A610823B4
:1077AC00A7F84830042387F84B30032387F84A3076
:1077BC0007F1480319464A48FCF7E8F80423A7F8F0
:1077CC004830182387F84B3007F1480319464448D2
:1077DC00FCF7DCF8434BBB630023BB870023FB8720
:1077EC000023A7F840300023A7F844300423A7F85F
:1077FC00423007F1380319463B48FCF79DFE3B48E5
:10780C00FBF7B8FE3A4BFB603A4B3B6100237B61C4
:10781C001023BB610023FB6180233B624FF4007398
:10782C007B620023BB622023FB624FF400533B635B
:10783C0000237B6307F10C0319462C48FBF756FF1A
:10784C0001212A48FBF790FF012240212648FCF732
:10785C004CFF254B1B889BB2234A23F020039BB281
:10786C00138001212048FCF721FF234B1B78BFF329
:10787C005B8FDBB203F00103002B0CBF0123002351
:10788C00DBB2002B17D01C4802F01DFB0346002B6B
:10789C0014BF01230023DBB2002B0CD0174B1B6849
:1078AC001AB200230093102312491548FDF7B6F8BD
:1078BC00114802F014FB07F14C031846FFF734FF94
:1078CC000246002300214FF4967000F035FE00BFF5
:1078DC005037BD4680BD00BFCD070020C807002033
:1078EC000008014040420F00004400406C00024080
:1078FC0004440040B4070020E4070020C407002023
:10790C00D007002080B582B000AF7860254B1B7883
:10791C00002B43D0244B1B78BFF35B8FDBB203F0FF
:10792C000103002B0CBF01230023DBB2002B10D072
:10793C001D4802F0C8FA0346002B14BF0123002394
:10794C00DBB2002B05D01948FFF761FD164802F099
:10795C00C6FA002200211548FCF781FF796813480C
:10796C00FCF74BFF1148FCF7B1FF114B1A6810499B
:10797C004FF6FE7313400B600C48FFF758FD0246A0
:10798C000B4B5A600948FFF75DFD0246084BDA6065
:10799C00074B1B68064A43F00103136000BF08370E
:1079AC00BD4680BDCC07002030080020E807002031
:1079BC008000024080B582B000AF786039603968D1
:1079CC00786800F00DFE00BF0837BD4680BD80B45E
:1079DC0083B000AF7860002318460C37BD4680BCDE
:1079EC007047000080B483B000AF78603960064BFC
:1079FC001A683B681344DBB2044AD35C18460C3754
:107A0C00BD4680BC704700BFAC070020AC06002010
:107A1C0080B483B000AF78603960084B1A683B685B
:107A2C001344064A1360054B1B68DBB2034A136010
:107A3C0000BF0C37BD4680BC704700BFAC070020B0
:107A4C0080B584B000AFF860B9607A60FB687A6882
:107A5C00B9681846FDF712F9034AFB681A60FB680F
:107A6C0018461037BD4680BDB0A4000880B582B062
:107A7C0000AF7860786800F00FF80246054B5B6841
:107A8C009A420CBF01230023DBB218460837BD46CF
:107A9C0080BD00BFE004002080B582B000AF7860EC
:107AAC007B6800211846FFF79DFF034603F00F0388
:107ABC0018460837BD4680BD80B582B000AF7860EF
:107ACC007B6800211846FFF78DFF03461B1103F05E
:107ADC00070318460837BD4680BD80B582B000AF9D
:107AEC0078607B6800211846FFF77CFF03465BB289
:107AFC00DBB2DB09DBB218460837BD4680BD80B46B
:107B0C0083B000AF7860012318460C37BD4680BCAB
:107B1C00704780B582B000AF78607868FDF7DEF80A
:107B2C0002467B681B6A9A42CCBF01230023DBB25E
:107B3C0018460837BD4680BD80B483B000AF78606E
:107B4C007B689A6A7B685B6A9A42CCBF01230023EC
:107B5C00DBB218460C37BD4680BC704780B483B08E
:107B6C0000AF78607B681B6818460C37BD4680BC3C
:107B7C007047000080B400AFBFF34F8F00BF074BBE
:107B8C00DB6803F4E0620549054B1343CB60BFF39C
:107B9C004F8F00BF00BF00BFFCE700BF00ED00E04F
:107BAC000400FA0580B582B000AF78607B680022D3
:107BBC0005211846FFF744FF054A7B681A607B686D
:107BCC00044A1A617B6818460837BD4680BD00BF61
:107BDC0088A40008C0C62D0080B582B000AF7860C4
:107BEC000E48FFF7BBFF0346002B0CBF01230023FD
:107BFC00DBB2002B0ED00A4B0A4A1A600A4BDB6828
:107C0C001946786800F09AFA7B681B6900211846BF
:107C1C00FFF7D8FA00BF0837BD4680BDF40400203A
:107C2C00A80600207C080020E004002080B582B06B
:107C3C0000AF78603960FFF7ADFA0346002B14BF34
:107C4C0001230023DBB218460837BD4680BD80B542
:107C5C0082B000AF786079680020FFF7E7FF034639
:107C6C0018460837BD4680BD80B483B000AF78603D
:107C7C00024B18460C37BD4680BC70475B7C000835
:107C8C0080B582B000AF78603960FFF783FA0246A6
:107C9C003B681B689A42ACBF01230023DBB2184639
:107CAC000837BD4680BD80B582B000AF786079687A
:107CBC000020FFF7E5FF034618460837BD4680BD98
:107CCC0080B483B000AF7860024B18460C37BD46C9
:107CDC0080BC7047B37C0008B0B58CB002AF786044
:107CEC00A64B1B78BFF35B8FDBB203F00103002BB9
:107CFC000CBF01230023DBB2002B18D09F4802F0ED
:107D0C00E2F80346002B14BF01230023DBB2002B47
:107D1C000DD09B4B1B681AB2002300934FF4807359
:107D2C0098499948FCF77AFE944802F0D8F8FFF786
:107D3C0031FA0346002B0CBF01230023DBB2002BCE
:107D4C0009D007F110031846FFF78EFF03461946BA
:107D5C00002000F045FC7868FFF7BFFE034683F077
:107D6C000103DBB2002B3BD07868FFF77FFE0346A4
:107D7C00002B35D07868FFF79FFE0346834A1360CB
:107D8C00824B1B68824A52F82330FB60FB68002B45
:107D9C0026D007F114031846FFF792FF024607F1AD
:107DAC000C0311461846FFF705FE754B1B680122A4
:107DBC0019467548FCF754FEFB6819467248FCF7E7
:107DCC00ECFE0346002B0BD07B68FA681146184674
:107DDC00FFF71EFE00BF6D4B1B68002B06D090E01A
:107DEC007B6801211846FFF713FEA0E76648FCF7F5
:107DFC00A0FEB861674B1B78002B04D1BB6947F61A
:107E0C00F97293424AD1BB6947F6F872934206D194
:107E1C00604B00221A706048FEF7FCFB36E0BB6931
:107E2C0047F6BC72934206DD5C4ABB691360594B42
:107E3C0001221A702AE0594B1B68A3F5FF43743BCF
:107E4C00032B1FD801A252F823F000BF877E000835
:107E5C007D7E0008737E0008697E0008B969504871
:107E6C00FDF7A6FB0EE0B9694D48FDF7C1FB09E033
:107E7C00B9694B48FDF7CBFB04E0B9694848FDF7FD
:107E8C00D5FB00BF454B47F6F9721A60434B1B6894
:107E9C00002219464348FCF745FD60E0424B1A6846
:107EAC00414B1B681B6804331B68B9691046984723
:107EBC003B48FDF7D6F905463B4B1A683A4B1B6815
:107ECC001B680C331B681046984703469C003748C8
:107EDC00FFF71FFE0346002B01D0012300E0002317
:107EEC001C433248FFF728FE0346002B01D0022327
:107EFC0000E0002323431A4629462A48FCF712FDCA
:107F0C002DE0224B1B68052B11D11F48FCF711FEED
:107F1C0038621D48FCF71CFEF861FA69396A78680A
:107F2C0000F09EF8F9691F48FCF714FD17E0174B99
:107F3C001B68062B0DD11448FCF7FBFD7862796A9F
:107F4C00786800F035F8034619461648FCF715FD1D
:107F5C0005E00E4B1B68072B0ED1FFF70BFE1148EB
:107F6C00FFF770FA04460F48FFF761FA034619460B
:107F7C002046FFF7DBF8DAE600BFD8E6A4080020BD
:107F8C00AC070020AC06002090080020A8080020B8
:107F9C0014000020AC080020DC040020B0080020F5
:107FAC00EC00002034080020FC040020BC00002061
:107FBC0080B582B000AF786039603B68B3F5FA7F6A
:107FCC0031D03B68B3F5FA7F38DC3B68042B13DC0B
:107FDC003B68002B32DB3B68042B2FD801A252F8F4
:107FEC0023F000BF0D8000081380000817800008E4
:107FFC001D800008238000083B68642B0ED01DE018
:10800C0040F29A7321E02A231FE0124B5B681CE0BC
:10801C00104B9B6819E00F4BDB6816E00E48FEF71F
:10802C00D0FA034611E00D4B1A680C4B1B681B6809
:10803C0008331B6810469847034606E07B6839688E
:10804C00184600F049FC034600BF18460837BD46E9
:10805C0080BD00BFE0040020F8040020FC040020D8
:10806C0080B584B000AFF860B9607A60BB68B3F5D6
:10807C00FA7F3FD0BB68B3F5FA7F46DCBB68052BB3
:10808C0012DCBB68022B40DBBB68023B032B3CD8E9
:10809C0001A252F823F000BFBD800008CB8000087D
:1080AC00D9800008E9800008BB68642B1DD02CE047
:1080BC001E4A7B6853601E48FEF7ACFA32E01B4A3E
:1080CC007B6893601A48FEF78DF82BE07968F868A6
:1080DC0000F034F81648FEF79DFA23E0FB687A6846
:1080EC001A611348FEF77EF81CE079681148FEF718
:1080FC0074FF17E0104B1A680F4B1B681B68043396
:10810C001B687968104698470CE0FB687A68B96878
:10811C00184600F00BFC0346002B03D00448FEF776
:10812C0079FAFFE700BF1037BD4680BDE0040020A0
:10813C00DC04002094060020FC04002080B582B0F2
:10814C0000AF786039603B68002B06D1244B254A80
:10815C001A60254A3B68D3603EE03B68012B08D18E
:10816C001F4B224A1A60204A3B68D360FFF788F9FC
:10817C0032E03B68052B06D1194B1D4A1A601A4A8E
:10818C003B68D36028E03B68062B0BD1144B154A97
:10819C001A60154A3B68D36040F2DC511148FEF777
:1081AC001CFF19E03B68072B0AD10D4B114A1A60D2
:1081BC000D4A3B68D3604FF0FF30FFF7C1FA0BE07C
:1081CC003B68082B08D1064B0A4A1A60064A3B68E2
:1081DC00D3600120FFF7B4FA00BF0837BD4680BD5D
:1081EC00FC04002094060020E00400200005002080
:1081FC0060050020A006002080B582B000AF78603A
:10820C0039607B683968184600F004FB7B681B6991
:10821C0019463868FCF70FFD00BF0837BD4680BD16
:10822C0080B582B000AF786039607B6839681846D9
:10823C0000F0FAFA7B68103319463868FCF70CFD2D
:10824C0000BF0837BD4680BD80B483B000AF7860F6
:10825C0039603B68002B02D17B681B6900E000236E
:10826C0018460C37BD4680BC704780B485B000AF53
:10827C00F860B9607A60BB68002B02D1FB687A6841
:10828C001A61012318461437BD4680BC70470000A4
:10829C0080B483B000AF78607B68054A1A61054BE7
:1082AC000122DA6000BF0C37BD4680BC704700BFAE
:1082BC00C0C62D00E004002080B582B000AF78600D
:1082CC0039607B68012B0AD13B684FF6FF729342F1
:1082DC0005D10548FFF79BF80448FFF763FC00BF86
:1082EC000837BD4680BD00BF340800207C08002044
:1082FC0080B500AF4FF6FF710120FFF7DDFF80BDA9
:10830C0080B483B000AF7860044B1A687B68134468
:10831C0018460C37BD4680BC704700BF840A00204D
:10832C0080B483B000AF7860054B1A687B68D31AB1
:10833C00DB43DB0FDBB218460C37BD4680BC704705
:10834C00840A002080B483B000AF786039607B6809
:10835C001B68002B0AD17B685B68002B04D07B6800
:10836C005B683A689A4201D8012300E00023184662
:10837C000C37BD4680BC704780B582B000AF7860CA
:10838C0000F00CFA0D4B0E4A1A600C4B1B680B4A92
:10839C0012689A60094B1B680A4A12681A60074BEC
:1083AC001B687A685A60074B1A687B689B00D31A63
:1083BC00044A136000BF0837BD4680BD7C0A00200C
:1083CC00B4080020780A002080B500AF1F4B1B6852
:1083DC005B691E4A1268D268104698471B4B1B6893
:1083EC001B4A13601A4B1B689A68184B1B689A42FD
:1083FC0005D0174B1B689B68154A1360F2E7134BAB
:10840C001A68134B1B6892689A60104B1B689B6828
:10841C000F4A13600D4B1B689B680D4A13600C4B85
:10842C001B681B690A4A1268D268104698470346B3
:10843C0083F00103DBB2002B05D0054B1B689B6856
:10844C00034A1360EBE700F08FF9BFE77C0A0020CA
:10845C00800A002080B483B000AF786001231846F6
:10846C000C37BD4680BC704780B485B000AFF86057
:10847C00B9607A603B60FB687A68DA60FB68144A22
:10848C001A61FB683A685A61124B1A68FB681A60E9
:10849C00104B1A68BB689B00D31A0E4A1360FB681A
:1084AC00BA685A60FB683A7E1A760B4B1B689A685E
:1084BC00FB689A60094AFB681360074B1B68074A04
:1084CC0012689A6000BF1437BD4680BC704700BF6D
:1084DC0061840008780A00207C0A0020800A0020B1
:1084EC0080B485B000AFF860B9607A60FB70FB684F
:1084FC00BA68DA60FB680D4A1A61FB687A685A61DF
:10850C00FB68FA781A760A4B1B689A68FB689A60C3
:10851C00084AFB681360064B1B68064A12689A608F
:10852C0000BF1437BD4680BC704700BF6184000893
:10853C007C0A0020800A002080B588B002AFF86069
:10854C00B9607A60FB70FB78002B02D0224B0122C1
:10855C001A7000237B617B690F2B3ADC7A69134616
:10856C00DB009B1A9B001D4A1344F9681846FFF761
:10857C00E9FE0346002B28D018497A691346DB0024
:10858C009B1A9B000B4404331B68002B0CD07A699C
:10859C001346DB009B1A9B00104A9818FB787A68EC
:1085AC00B968FFF79DFF14E07A691346DB009B1A4C
:1085BC009B000A4A9818FB7800937B68BA68F968A4
:1085CC00FFF752FF00F0F2F803E07B6901337B61A7
:1085DC00C1E71837BD4680BD740A0020B4080020DE
:1085EC0080B582B000AF786039603B4B1B687A680D
:1085FC00DA60394B1B683A681A61384B1B78002BD0
:10860C0045D0354B1B689B68354A1360344B1A6850
:10861C00314B1B689A421BD0314B1B681B7E002BC5
:10862C000CD02F4B1B681B692D4A1268D268104660
:10863C0098470346002B01D0012300E00023002BB8
:10864C0005D1274B1B689B68254A1360DEE700BFEA
:10865C00234B1A68204B1B689A4231D11E4B1B6866
:10866C009B681F4A13601E4B1B681B691C4A1268CF
:10867C00D26810469847034683F00103DBB2002B07
:10868C001ED0174B1B689B68154A1360EBE7124B07
:10869C001B689B68124A1360114B1B681B69104ABC
:1086AC001268D26810469847034683F00103DBB288
:1086BC00002B05D00A4B1B689B68094A1360EBE73B
:1086CC00074B1A68044B1B689A4201D000F04CF817
:1086DC0000BF0837BD4680BD7C0A0020740A00200C
:1086EC00800A002080B582B000AF786039603B68AA
:1086FC001B681846FFF714FE034618460837BD469C
:10870C0080BD80B582B000AF786079680020FFF73B
:10871C00E9FF034618460837BD4680BD80B483B0D8
:10872C0000AF7860024B18460C37BD4680BC7047D2
:10873C000F87000880B584B000AF78607B6818465E
:10874C00FFF7DEFD03467B6007F10C031846FFF7CD
:10875C00E5FF02463B1D11461846FFF72BF900BFFB
:10876C001037BD4680BD00002DE9F01F00B509484B
:10877C000468C4F800D0084D2E680660D6F800D006
:10878C005DF804EBBDE8F01F70477C0A0020800AFE
:10879C00002000007C0A0020800A00200249684664
:1087AC0008607047780A0020780A0020084968465B
:1087BC00084A1268D2F800D02DE9F01F02B4C2F8B2
:1087CC0000D085467047D5830008800A0020000041
:1087DC00D5830008800A002090B583B000AF786084
:1087EC0039607B689B683A689A420EDB7B689C68B0
:1087FC007B681B6808331B687868984703462344DA
:10880C003A689A4201DA012300E0002318460C373B
:10881C00BD4690BD80B483B000AF7860396000BFB6
:10882C000C37BD4680BC704780B483B000AF786015
:10883C00396000BF0C37BD4680BC704780B483B034
:10884C0000AF78603960002318460C37BD4680BCF9
:10885C00704780B485B000AFF860B9607A600023CF
:10886C0018461437BD4680BC704780B584B000AF45
:10887C00786039607B68FB60FB68002B0CD0FB6870
:10888C001B681B683968F8689847FB6804331846FE
:10889C0000F0C1F8F860EFE700BF1037BD4680BDAF
:1088AC0080B584B000AF786039607B68FB60FB6892
:1088BC00002B0DD0FB681B6804331B683968F86803
:1088CC009847FB680433184600F0A5F8F860EEE70B
:1088DC0000BF1037BD4680BD80B584B000AF786056
:1088EC0039607B68FB60FB68002B1AD03968F8682C
:1088FC00FFF772FF0346002B0CD0FB681B680C3390
:10890C001B68FA68926839688A1A1146F8689847A1
:10891C00034607E0FB680433184600F07CF8F86067
:10892C00E1E7002318461037BD4680BD80B586B000
:10893C0000AFF860B9607A60FB687B617B69002BE3
:10894C001AD0B9687869FFF747FF0346002B0CD0A3
:10895C007B691B6810331B687A699268B968891A3D
:10896C007A6878699847034607E07B6904331846B0
:10897C0000F051F87861E1E7002318461837BD463E
:10898C0080BD80B584B000AF78607B68FB60FB680D
:10899C00002B09D0F86800F00BF8FB68043318467C
:1089AC0000F039F8F860F2E700BF1037BD4680BD23
:1089BC0080B584B000AF78607B681B6814331B688B
:1089CC00786898477B68DB68002B20D00023FB601D
:1089DC007B68DA68FB68DB0013441B68002B16DB32
:1089EC007B681B6810331B687A68D168FA68D20000
:1089FC000A4410687A68D168FA68D2000A4452684E
:108A0C00014678689847FB680133FB60E0E700BFDC
:108A1C001037BD4680BD80B483B000AF78607B68F2
:108A2C001B6818460C37BD4680BC704780B483B0B9
:108A3C0000AF7860072318460C37BD4680BC7047E2
:108A4C0080B584B000AFF860B9607A60FB687A6872
:108A5C00B9681846FCF712F9034AFB681A60FB6800
:108A6C0018461037BD4680BDF8A4000890B583B0F9
:108A7C0000AF786039607B685B6A184600F016F9C5
:108A8C00034641F288329342CCBF01230023DBB270
:108A9C00002B01D0002339E0386800F007F90246BA
:108AAC007B681B6A9A42B4BF01230023DAB27B684D
:108ABC0083F828207B6893F82830002B0DD07B6836
:108ACC005C6A7B685B6A184600F0FDF802467B68BE
