:020000040800F2
:1030000000500020598D0008698B0008758B00085E
:103010007B8B0008818B0008878B00080000000074
:103020000000000000000000000000008D8B000880
:10303000998B000800000000A58B0008B18B0008E8
:10304000A18D0008A18D0008A18D0008A18D0008A8
:10305000A18D0008A18D0008A18D0008A18D000898
:10306000A18D0008A18D0008A18D0008A18D000888
:10307000A18D0008A18D0008A18D0008A18D000878
:10308000A18D0008A18D0008A18D0008A18D000868
:10309000A18D0008A18D0008A18D0008A18D000858
:1030A000A18D0008A18D0008A18D0008A18D000848
:1030B000ED5500089D630008A18D0008A18D000852
:1030C000A18D0008A18D0008A18D0008715600088F
:1030D000A18D0008416D0008A18D0008A18D000898
:1030E000A18D0008A18D0008A18D0008000000003E
:1030F00000000000000000000000000000000000D0
:0C31000000000000000000005FF808F173
:10310C0010B5054C237833B9044B13B10448AFF315
:10311C0000800123237010BDA000002000000000DF
:10312C00C88F000808B5034B1BB103490348AFF324
:10313C00008008BD00000000A4000020C88F00081B
:10314C0080B487B000AF786000237B6100233B61C3
:10315C000F23FB607B68DB78002B3AD0274BDB68B6
:10316C00DB431B0A03F007037B617B69C3F1040398
:10317C003B61FA687B6922FA03F3FB607B685B783E
:10318C001A463B6902FA03F37B617B689B781A460B
:10319C00FB6813407A6913437B617B691B017B617C
:1031AC00174A7B681B787969C9B213440A4683F8BD
:1031BC0000237B681B7803F01F0311497A6812788F
:1031CC005209D2B21046012202FA03F341F8203020
:1031DC000FE07B681B7803F01F0309497A681278AB
:1031EC005209D2B2104601229A4000F1200341F854
:1031FC00232000BF1C37BD4680BC704700ED00E0AB
:10320C0000E100E080B485B000AF78603960002345
:10321C00FB600023FB727B685B68FB60FB6823F43C
:10322C00702323F48073FB603B681A683B681B793E
:10323C001B021343FA681343FB607B68FA685A60FD
:10324C007B689B68FB60FA68164B1340FB603B681D
:10325C00DA683B689B681A433B685B795B001343F5
:10326C00FA681343FB607B68FA689A607B68DB6AD8
:10327C00FB60FB6823F47003FB603B681B7C013B29
:10328C00DAB2FB7A1343FB72FB7A1B05FA68134321
:10329C00FB607B68FA68DA6200BF1437BD4680BCFD
:1032AC00704700BFFDF7F1FF80B483B000AF7860CA
:1032BC000B46FB70FB78002B06D07B689B6843F0B9
:1032CC0001027B689A6005E07B689B6823F0010231
:1032DC007B689A6000BF0C37BD4680BC704780B4D9
:1032EC0083B000AF78600B46FB70FB78002B06D0E8
:1032FC007B689B6843F480727B689A6005E07B680E
:10330C009B6823F480727B689A6000BF0C37BD46C3
:10331C0080BC704780B483B000AF78607B689B68DA
:10332C0043F008027B689A6000BF0C37BD4680BC36
:10333C00704780B485B000AF78600023FB737B6866
:10334C009B6803F00803002B02D00123FB7301E000
:10335C000023FB73FB7B18461437BD4680BC7047BB
:10336C0080B483B000AF78607B689B6843F0040244
:10337C007B689A6000BF0C37BD4680BC704780B438
:10338C0085B000AF78600023FB737B689B6803F00B
:10339C000403002B02D00123FB7301E00023FB7319
:1033AC00FB7B18461437BD4680BC704780B485B093
:1033BC0000AF7860084611461A460346FB700B4670
:1033CC00BB7013467B700023FB600023BB60FB7853
:1033DC00092B23D97B68DB68FB60FB78A3F10A021D
:1033EC0013465B001344072202FA03F3BB60BB686D
:1033FC00DB43FA681340FB607978FB78A3F10A028F
:10340C0013465B00134401FA03F3BB60FA68BB6814
:10341C001343FB607B68FA68DA601EE07B681B690B
:10342C00FB60FA7813465B001344072202FA03F39D
:10343C00BB60BB68DB43FA681340FB607978FA78B1
:10344C0013465B00134401FA03F3BB60FA68BB68D4
:10345C001343FB607B68FA681A61BB78062B21D892
:10346C007B685B6BFB60BB785A1E13469B00134456
:10347C001F2202FA03F3BB60BB68DB43FA681340FC
:10348C00FB60F978BB785A1E13469B00134401FA73
:10349C0003F3BB60FA68BB681343FB607B68FA6894
:1034AC005A6347E0BB780C2B21D87B681B6BFB6005
:1034BC00BB78DA1F13469B0013441F2202FA03F356
:1034CC00BB60BB68DB43FA681340FB60F978BB78E0
:1034DC00DA1F13469B00134401FA03F3BB60FA682E
:1034EC00BB681343FB607B68FA681A6322E07B6855
:1034FC00DB6AFB60BB78A3F10D0213469B001344FF
:10350C001F2202FA03F3BB60BB68DB43FA6813406B
:10351C00FB60F978BB78A3F10D0213469B001344B2
:10352C0001FA03F3BB60FA68BB681343FB607B686A
:10353C00FA68DA6200BF1437BD4680BC704780B4AD
:10354C0083B000AF78600B46FB70FB78002B06D085
:10355C007B689B6843F480127B689A6005E07B680B
:10356C009B6823F480127B689A6000BF0C37BD46C1
:10357C0080BC704780B483B000AF78607B681A68F9
:10358C004FF6FE7313407A6813607B6800221A6052
:10359C007B6800225A607B6800229A607B6800225C
:1035AC00DA607B68434A934206D1434B5B68424ADC
:1035BC0043F00F03536077E07B68404A934206D197
:1035CC003D4B5B683C4A43F0F00353606CE07B6816
:1035DC003B4A934206D1384B5B68374A43F47063DD
:1035EC00536061E07B68374A934206D1324B5B688B
:1035FC00314A43F47043536056E07B68324A93423D
:10360C0006D12D4B5B682C4A43F4702353604BE07E
:10361C007B682E4A934206D1274B5B68264A43F4BB
:10362C007003536040E07B68294A934206D1224BD9
:10363C005B68214A43F07063536035E07B68254A30
:10364C00934206D1244B5B68234A43F00F0353602B
:10365C002AE07B68214A934206D11F4B5B681E4AC5
:10366C0043F0F00353601FE07B681D4A934206D180
:10367C00194B5B68184A43F47063536014E07B6821
:10368C00184A934206D1144B5B68134A43F47043B7
:10369C00536009E07B68144A934205D10E4B5B687A
:1036AC000D4A43F47023536000BF0C37BD4680BCF9
:1036BC00704700BF08000240000002401C0002409E
:1036CC003000024044000240580002406C000240AE
:1036DC008000024008040240000402401C04024026
:1036EC0030040240440402405804024080B485B0C7
:1036FC0000AF786039600023FB607B681B68FB605F
:10370C00FB6823F4FF4323F07003FB603B689A686B
:10371C003B681B6A1A433B681B691A433B685B692D
:10372C001A433B689B691A433B68DB691A433B6845
:10373C005B6A1A433B689B6A1343FA681343FB604A
:10374C007B68FA681A603B68DA687B685A603B6889
:10375C001A687B689A603B685A687B68DA6000BFBD
:10376C001437BD4680BC704780B483B000AF78601E
:10377C000B46FB70FB78002B06D07B681B6843F074
:10378C0001027B681A6006E07B681A684FF6FE73CC
:10379C0013407A68136000BF0C37BD4680BC70477D
:1037AC0080B400AF044B054A5A60034B044A5A607C
:1037BC0000BFBD4680BC7047002002402301674516
:1037CC00AB89EFCD80B400AF044B1B69034A43F0C7
:1037DC008003136100BFBD4680BC704700200240CF
:1037EC0080B584B000AF78600423FB734FF43020B5
:1037FC0000F0AAF80346FB73FB7B042B1BD1104B88
:10380C001B690F4A43F0020313610D4A7B68536135
:10381C000B4B1B690A4A43F0400313614FF43020F1
:10382C0000F092F80346FB73054B1A69044941F604
:10383C00FD7313400B61FB7B18461037BD4680BDF2
:10384C000020024080B584B000AF7860396004235A
:10385C00FB730023BB604FF4005000F075F8034677
:10386C00FB73FB7B042B2FD11A4B1B69194A43F0BA
:10387C00010313617B683A6892B21A804FF40050CE
:10388C0000F062F80346FB73FB7B042B15D17B68BD
:10389C000233BB603B681A0CBB6892B21A804FF4BF
:1038AC00005000F051F80346FB730A4B1A690949A2
:1038BC0041F6FE7313400B6106E0064B1A6905498D
:1038CC0041F6FE7313400B61FB7B18461037BD4667
:1038DC0080BD00BF0020024080B483B000AF786090
:1038EC00034A7B68D36000BF0C37BD4680BC704771
:1038FC000020024080B483B000AF0423FB71114B55
:10390C00DB6803F00103012B02D10123FB7113E0EF
:10391C000C4BDB6803F00403002B02D00223FB7179
:10392C000AE0084BDB6803F01003002B02D00323E2
:10393C00FB7101E00423FB71FB7918460C37BD4683
:10394C0080BC70470020024080B584B000AF786026
:10395C000423FB73FFF7CEFF0346FB7306E0FFF770
:10396C00C9FF0346FB737B68013B7B60FB7B012B30
:10397C0002D17B68002BF2D17B68002B01D105238F
:10398C00FB73FB7B18461037BD4680BD80B489B0F5
:10399C0000AF786039600023FB6100233B6100239A
:1039AC00BB610023FB6000237B610023BB603B6891
:1039BC00DB7803F00F03FB613B68DB7803F010034B
:1039CC00002B05D03B689B781A46FB691343FB61BF
:1039DC003B681B88DBB2002B44D07B681B687B6187
:1039EC000023BB6138E00122BB6902FA03F3FB60E0
:1039FC003B681B881A46FB6813403B613A69FB68BD
:103A0C009A4226D1BB699B00FB600F22FB6802FA2D
:103A1C0003F3BB60BB68DB437A6913407B61FA69D3
:103A2C00FB6802FA03F37A6913437B613B68DB782A
:103A3C00282B05D10122BB699A407B685A6108E0AA
:103A4C003B68DB78482B04D10122BB699A407B6828
:103A5C001A61BB690133BB61BB69072BC3D97B6896
:103A6C007A691A603B681B88FF2B46D97B685B68B8
:103A7C007B610023BB613AE0BB690833012202FA87
:103A8C0003F3FB603B681B881A46FB6813403B61E1
:103A9C003A69FB689A4227D1BB699B00FB600F22F5
:103AAC00FB6802FA03F3BB60BB68DB437A69134023
:103ABC007B61FA69FB6802FA03F37A6913437B6151
:103ACC003B68DB78282B05D1BB69083301229A406F
:103ADC007B685A613B68DB78482B05D1BB6908339E
:103AEC0001229A407B681A61BB690133BB61BB69D7
:103AFC00072BC1D97B687A695A6000BF2437BD4651
:103B0C0080BC704780B483B000AF78600B467B807C
:103B1C0013467B707B78002B03D07A887B681A6104
:103B2C0002E07A887B685A6100BF0C37BD4680BCC6
:103B3C007047000080B487B000AF78600B46FB7014
:103B4C0000233B610023FB6000237B610023BB60EF
:103B5C007B68002B03DA2E4BDB697B6102E02C4B7C
:103B6C005B687B617B681B0C03F00F03BB607B689D
:103B7C009BB23B617B6803F44013B3F5401F0AD141
:103B8C007B6923F070637B61214B5B68204A23F0D7
:103B9C007063536021E07B6803F48013002B0ED01C
:103BAC000322BB6802FA03F3FB60FB68DB437A6910
:103BBC0013407B617B6943F070637B610DE07B6834
:103BCC005B0D1B013A6902FA03F3DB437A6913407C
:103BDC007B617B6943F070637B61FB78002B08D0C1
:103BEC007B685B0D1B013A6902FA03F37A69134394
:103BFC007B617B68002B03DA054A7B69D36102E0A9
:103C0C00034A7B69536000BF1C37BD4680BC7047BC
:103C1C000000014080B485B000AF78600023FB60E9
:103C2C00094B5B68FB60FB6823F44043FB60FA685C
:103C3C007B681343FB60044AFB68536000BF143776
:103C4C00BD4680BC704700BF0010024080B487B0F6
:103C5C0000AF786000237B6100233B610023FB6095
:103C6C000023BB604F4B5B6803F00C037B617B69EB
:103C7C00082B11D07B69082B3AD87B69002B03D019
:103C8C007B69042B04D033E07B68474A1A6033E02D
:103C9C007B68464A1A602FE0424B5B6803F4701352
:103CAC003B61404B5B6803F48033FB603B699B0CCE
:103CBC0002333B61FB68002B06D13B693C4A02FB9B
:103CCC0003F27B681A6017E0364B5B6803F4003331
:103CDC00002B06D03B69344A02FB03F27B681A6066
:103CEC000AE03B69314A02FB03F27B681A6003E08D
:103CFC007B682D4A1A6000BF2A4B5B6803F0F00307
:103D0C007B617B691B097B612A4A7B6913441B78A5
:103D1C00DBB2BB607B681A68BB68DA407B685A60B0
:103D2C00204B5B6803F4E0637B617B691B0A7B615E
:103D3C00204A7B6913441B78DBB2BB607B685A68F2
:103D4C00BB68DA407B689A60164B5B6803F460537F
:103D5C007B617B69DB0A7B61164A7B6913441B78A8
:103D6C00DBB2BB607B685A68BB68DA407B68DA60A0
:103D7C000C4B5B6803F440437B617B699B0B7B6161
:103D8C000D4A7B6913441B78DBB2BB607B68DA6835
:103D9C00BB68B2FBF3F27B681A6100BF1C37BD46EF
:103DAC0080BC70470010024000127A000024F4001E
:103DBC0000093D00000000201000002080B483B0FA
:103DCC0000AF78600B46FB70FB78002B06D0094BDC
:103DDC005A6908497B6813434B6106E0054B5A69E5
:103DEC007B68DB43034913404B6100BF0C37BD4676
:103DFC0080BC70470010024080B483B000AF786084
:103E0C000B46FB70FB78002B06D0094B9A690849CE
:103E1C007B6813438B6106E0054B9A697B68DB4337
:103E2C00034913408B6100BF0C37BD4680BC704703
:103E3C000010024080B483B000AF78600B46FB707A
:103E4C00FB78002B06D0094BDA6908497B681343D1
:103E5C00CB6106E0054BDA697B68DB430349134011
:103E6C00CB6100BF0C37BD4680BC704700100240D0
:103E7C0080B485B000AF786039600023FB817B682B
:103E8C001B88FB81FB8903F44153FB813B681A8837
:103E9C003B685B8813439AB23B689B8813439AB286
:103EAC003B68DB8813439AB23B681B8913439AB275
:103EBC003B685B8913439AB23B689B8913439AB264
:103ECC003B68DB8913439AB2FB891343FB817B6804
:103EDC00FA891A807B689B8B9BB223F400639AB29D
:103EEC007B689A833B681A8A7B681A8200BF1437F6
:103EFC00BD4680BC704780B483B000AF78600B4681
:103F0C00FB70FB78002B08D07B681B889BB243F0BE
:103F1C0040039AB27B681A8007E07B681B889BB2CF
:103F2C0023F040039AB27B681A8000BF0C37BD4661
:103F3C0080BC704780B485B000AF78600B46FB70D6
:103F4C001346BB700023FB810023BB81FB781B094C
:103F5C00DBB2FB81FB89012202FA03F3BB81BB7844
:103F6C00002B08D07B689B889AB2BB8913439AB20A
:103F7C007B689A8009E07B689B889AB2BB89DB439B
:103F8C009BB213409AB27B689A8000BF1437BD462F
:103F9C0080BC704780B483B000AF78600B467B80E8
:103FAC007B687A889A8100BF0C37BD4680BC70470D
:103FBC0080B483B000AF78607B689B899BB2184655
:103FCC000C37BD4680BC704780B485B000AF7860BC
:103FDC0039600023FB817B681B88FB817B682E4A40
:103FEC00934213D07B682D4A93420FD07B68B3F178
:103FFC00804F0BD07B682A4A934207D07B68294AB2
:10400C00934203D07B68284A934208D1FB8923F062
:10401C007003FB813B685A88FB891343FB817B68E7
:10402C00224A93420CD07B68214A934208D0FB89E8
:10403C0023F44073FB813B68DA88FB891343FB81D3
:10404C007B68FA891A803B689A887B689A853B68FA
:10405C001A887B681A857B680F4A93420FD07B685D
:10406C000E4A93420BD07B68124A934207D07B686E
:10407C00114A934203D07B68104A934204D13B68A7
:10408C001B7A9AB27B681A867B6801229A8200BFDF
:10409C001437BD4680BC7047002C014000340140F1
:1040AC000004004000080040000C004000100040DC
:1040BC000014004000400140004401400048014011
:1040CC0080B485B000AF7860396000237B81002319
:1040DC00FB810023BB817B681B8C9BB223F001030B
:1040EC009AB27B681A847B681B8CFB817B689B88EB
:1040FC00BB817B681B8B7B817B8923F070037B816D
:10410C007B8923F003037B813B681A887B891343EB
:10411C007B81FB8923F00203FB813B681A89FB89B5
:10412C001343FB813B685A88FB891343FB817B68F3
:10413C00244A93420FD07B68234A93420BD07B686E
:10414C00224A934207D07B68214A934203D07B6872
:10415C00204A934223D1FB8923F00803FB813B685F
:10416C005A89FB891343FB81FB8923F00403FB81F0
:10417C003B689A88FB891343FB81BB8923F48073CA
:10418C00BB81BB8923F40073BB813B689A89BB89D3
:10419C001343BB813B68DA89BB891343BB817B68C2
:1041AC00BA899A807B687A891A833B68DA887B683B
:1041BC009A867B68FA891A8400BF1437BD4680BC86
:1041CC00704700BF002C014000340140004001400A
:1041DC00004401400048014080B485B000AF7860D5
:1041EC00396000237B810023FB810023BB817B682A
:1041FC001B8C9BB223F010039AB27B681A847B68E9
:10420C001B8CFB817B689B88BB817B681B8B7B81B8
:10421C007B8923F4E0437B817B8923F440737B818E
:10422C003B681B881B029AB27B8913437B81FB89F9
:10423C0023F02003FB813B681B891B019AB2FB898D
:10424C001343FB813B685B881B019AB2FB891343C8
:10425C00FB817B68224A934203D07B68214A9342BC
:10426C002BD1FB8923F08003FB813B685B891B010D
:10427C009AB2FB891343FB81FB8923F04003FB813A
:10428C003B689B881B019AB2FB891343FB81BB895A
:10429C0023F48063BB81BB8923F40063BB813B683F
:1042AC009B899B009AB2BB891343BB813B68DB891A
:1042BC009B009AB2BB891343BB817B68BA899A80F5
:1042CC007B687A891A833B68DA887B681A877B68F3
:1042DC00FA891A8400BF1437BD4680BC704700BFF2
:1042EC00002C01400034014080B485B000AF7860F0
:1042FC00396000237B810023FB810023BB817B6819
:10430C001B8C9BB223F480739AB27B681A847B68F3
:10431C001B8CFB817B689B88BB817B689B8B7B8127
:10432C007B8923F070037B817B8923F003037B81E2
:10433C003B681A887B8913437B81FB8923F40073C8
:10434C00FB813B681B891B029AB2FB891343FB81DF
:10435C003B685B881B029AB2FB891343FB817B6829
:10436C00224A934203D07B68214A93422BD1FB898A
:10437C0023F40063FB813B685B891B029AB2FB89C7
:10438C001343FB81FB8923F48063FB813B689B888F
:10439C001B029AB2FB891343FB81BB8923F4805324
:1043AC00BB81BB8923F40053BB813B689B891B01F8
:1043BC009AB2BB891343BB813B68DB891B019AB260
:1043CC00BB891343BB817B68BA899A807B687A89E5
:1043DC009A833B68DA887B689A877B68FA891A84A7
:1043EC0000BF1437BD4680BC704700BF002C014095
:1043FC000034014080B483B000AF78600B46FB7092
:10440C00FB78002B08D07B681B889BB243F0010320
:10441C009AB27B681A8007E07B681B889BB223F0FA
:10442C0001039AB27B681A8000BF0C37BD4680BC72
:10443C00704780B483B000AF78600B46FB70FB789C
:10444C00002B0CD07B68B3F844309BB26FEA43432B
:10445C006FEA53439AB27B68A3F8442009E07B6867
:10446C00B3F844309BB2C3F30E039AB27B68A3F843
:10447C00442000BF0C37BD4680BC704780B483B06D
:10448C0000AF78600B467B8013467B707B78002BEB
:10449C0008D07B689B899AB27B8813439AB27B685D
:1044AC009A8109E07B689B899AB27B88DB439BB23B
:1044BC0013409AB27B689A8100BF0C37BD4680BC12
:1044CC00704780B483B000AF78600B467B807B680C
:1044DC007A889A8600BF0C37BD4680BC704780B482
:1044EC0083B000AF78600B467B807B687A881A8734
:1044FC0000BF0C37BD4680BC704780B483B000AFA2
:10450C0078600B467B807B687A889A8700BF0C3773
:10451C00BD4680BC704780B483B000AF78600B465A
:10452C007B807B88DB439AB27B681A8200BF0C3796
:10453C00BD4680BC7047000080B58CB000AF786081
:10454C0039600023FB620023BB6200237B620023E3
:10455C003B620023FB617B68FB617B681B8A9BB21F
:10456C00FB62FA6A4CF6FF731340FB623B68DB8814
:10457C001A46FB6A1343FB62FB6A9AB27B681A8287
:10458C007B689B899BB2FB62FA6A4EF6F31313406D
:10459C00FB623B689A883B681B8913439AB23B6861
:1045AC005B8913439BB21A46FB6A1343FB62FB6A9B
:1045BC009AB27B689A817B689B8A9BB2FB62FA6A8F
:1045CC004FF6FF431340FB623B689B891A46FB6A1C
:1045DC001343FB62FB6A9AB27B689A8207F1080369
:1045EC001846FFF733FBFB692E4A934202D17B69D5
:1045FC00BB6201E03B69BB627B689B899BB21BB2CF
:10460C00002B0CDABA6A13469B0013449A001A4426
:10461C003B681B685B00B2FBF3F37B620BE0BA6A8E
:10462C0013469B0013449A001A443B681B689B007A
:10463C00B2FBF3F37B627B6A1B4AA2FB03235B098D
:10464C001B01FB62FB6A1B09642202FB03F37A6AFF
:10465C00D31A3B627B689B899BB21BB2002B0CDA92
:10466C003B6ADB003233104AA2FB03235B0903F0E5
:10467C000703FA6A1343FB620BE03B6A1B013233FC
:10468C00094AA2FB03235B0903F00F03FA6A1343E5
:10469C00FB62FB6A9AB27B681A8100BF3037BD4659
:1046AC0080BD00BF003801401F85EB5180B483B042
:1046BC0000AF78600B46FB70FB78002B08D07B6852
:1046CC009B899BB243F400539AB27B689A8107E0B2
:1046DC007B689B899BB223F400539AB27B689A81C6
:1046EC0000BF0C37BD4680BC704780B483B000AFB0
:1046FC0078600B467B8013467B707B78002B08D050
:10470C007B689B8A9AB27B8813439AB27B689A82A5
:10471C0009E07B689B8A9AB27B88DB439BB213408F
:10472C009AB27B689A8200BF0C37BD4680BC70473A
:10473C0080B483B000AF786039607B685B683A689E
:10474C0013443B607B681A687B689B6839689942A4
:10475C0004DB7B689B683968CB1A00E03B68134428
:10476C001B7818460C37BD4680BC704780B485B0AA
:10477C0000AF786039607B681B6C591C7A681164D7
:10478C007A68D15C7A68526C386800FA02F2D2B25C
:10479C000A43D2B262F07F02D1B27A68D1547B68FC
:1047AC005B6CC3F10703FB60FB68C3F108027B6819
:1047BC005A643B68DAB2FB6842FA03F35BB263F00B
:1047CC007F035AB27B681B6CD1B27A68D1547B6878
:1047DC005B6C072B0CD17B681B6C5A1C7B681A64B6
:1047EC007B681B6C7A680021D1547B6800225A6468
:1047FC0000BF1437BD4680BC704780B582B000AF97
:10480C007860396039687868FFF7B0FF3B681B1235
:10481C0019467868FFF7AAFF00BF0837BD4680BD70
:10482C0080B582B000AF7860396039687868FFF77E
:10483C009DFF3B681B1219467868FFF797FF3B6892
:10484C001B1419467868FFF791FF3B681B16194635
:10485C007868FFF78BFF00BF0837BD4680BD80B47A
:10486C0083B000AF78607B6800225A647B680022BA
:10487C001A647B6800221A7000BF0C37BD4680BCDE
:10488C00704780B582B000AF78607B685B6C002BA2
:10489C0004D07B681B6C5A1C7B681A6478687B6834
:1048AC00196C0023002200F057F803465BB263F04A
:1048BC007F035AB27B681B6CD1B27A68D1547B6887
:1048CC001B6C5A1C7B681A647B681B6C7A68002111
:1048DC00D15400BF0837BD4680BD80B584B000AF51
:1048EC00F860B9607A60F868FFF7B9FFB968F868E2
:1048FC00FFF783FF7968F868FFF77FFFF868FFF729
:10490C00C0FF00BF1037BD4680BD80B582B000AF80
:10491C00786039607868FFF7A2FF39687868FFF72C
:10492C007FFF7868FFF7ADFF00BF0837BD4680BD3D
:10493C0080B582B000AF786039607868FFF78FFF80
:10494C0039687868FFF76CFF7868FFF79AFF00BF4B
:10495C000837BD4680BD000080B487B000AFF8605A
:10496C00B9607A603B60FF23FB75BB685A1EBA6066
:10497C00002B14BF01230023DBB2002B0BD0FB68F0
:10498C005A1CFA601A78FB7D5340DBB21A46104B66
:10499C009B5CFB75E9E73B685A1E3A60002B14BF21
:1049AC0001230023DBB2002B0BD07B685A1C7A60EE
:1049BC001A78FB7D5340DBB21A46054B9B5CFB75AA
:1049CC00E9E7FB7D18461C37BD4680BC704700BF2D
:1049DC00E08F000880B485B000AFF860B960114674
:1049EC001A460B46FB801346BB80FB68BA681A60FC
:1049FC00B7F90620FB685A60B7F90420FB689A6087
:104A0C00FB68BA69DA60FB6800221A61FB68184619
:104A1C001437BD4680BC704780B485B000AFF860D9
:104A2C00B9607A60FB68BA685A60FB687A68DA60C9
:104A3C00FB6800221A6100BF1437BD4680BC70476A
:104A4C0080B584B000AF78607B68DB68591C7A68ED
:104A5C00D16019467868FFF76BFE034603F07F02BE
:104A6C007B681B6942FA03F3FB607B681B69C3F12B
:104A7C000703BB607B68DB6819467868FFF758FE54
:104A8C00034603F07F02BB6802FA03F3DBB2FA6859
:104A9C001343FB60BB68C3F108027B681A617B6837
:104AAC001B69072B07D17B68DB685A1C7B68DA60B3
:104ABC007B6800221A61FB6818461037BD4680BD22
:104ACC0080B584B000AF78607868FFF7B9FFF86004
:104ADC007868FFF7B5FF03461B02FA681343FB60C7
:104AEC00FB6818461037BD4680BD80B584B000AF5A
:104AFC0078607868FFF7E4FF0346FB81B7F90E3066
:104B0C0018461037BD4680BD80B584B000AF7860C4
:104B1C007868FFF795FFF8607868FFF791FF034618
:104B2C001B02FA681343FB607868FFF789FF0346A2
:104B3C001B04FA681343FB607868FFF781FF034698
:104B4C001B06FA681343FB60FB6818461037BD461A
:104B5C0080BD90B587B000AF786039603B68013B91
:104B6C003B607B689A687B685B68D31A7B617A6967
:104B7C003B689A421BDB7B681B687A685268981802
:104B8C00002300223968FFF7E7FE034643F0800359
:104B9C00FB6039687868FFF7CBFD0346BB60FA68A9
:104BAC00BB689A420CBF01230023DBB21BE03A68BE
:104BBC007B69D31A3B617B681B687A6852689818CA
:104BCC007B681A683B697969FFF7C6FE034643F0B8
:104BDC00800439687868FFF7ABFD03469C420CBF34
:104BEC0001230023DBB218461C37BD4690BD0000E4
:104BFC0080B584B000AFF860B9607A60FB680433AC
:104C0C00184600F09DF9074AFB681A60FB68BA6801
:104C1C009A60FB687A68DA60FB6818461037BD4604
:104C2C0080BD00BF0093000880B483B000AF7860F3
:104C3C0000BF0C37BD4680BC704780B483B000AF5A
:104C4C0078607B681B8A18460C37BD4680BC704761
:104C5C0080B483B000AF78607B685B8A18460C37F1
:104C6C00BD4680BC704780B483B000AF786006232B
:104C7C0018460C37BD4680BC7047000080B582B02A
:104C8C0000AF78607B680022C8211846FFF7B0FFA0
:104C9C00094A7B681A607B684FF47A725A617B68A8
:104CAC00064A9A617B6840F25232DA617B68184698
:104CBC000837BD4680BD00BFE8900008404B4C0053
:104CCC0080B594B000AF786001214FF40070FFF70D
:104CDC0093F8032387F84E30002387F84F300223D4
:104CEC00A7F84C3007F14C0319464148FEF74EFE2D
:104CFC000223A7F84C3007F14C0319463D48FEF748
:104D0C0045FE3D48FEF736FC3C4BFB607B681033A0
:104D1C003B6100237B610223BB610023FB61802389
:104D2C003B624FF480737B624FF48063BB62202341
:104D3C00FB624FF400533B6300237B6307F10C03CE
:104D4C0019462D48FEF7D2FC01212B48FEF70CFD2D
:104D5C000023BB63012387F83C30002387F83D30E8
:104D6C004FF480233B6400237B64022387F8483094
:104D7C0007F1380319462248FEF744FA04230122AE
:104D8C0009211F48FEF712FB0123022201211C48B6
:104D9C00FEF70CFB01211A48FEF7A1FA0121184875
:104DAC00FEF782FA1648FEF7B5FA1548FEF7C1FA77
:104DBC000346002B14BF01230023DBB2002B00D0D1
:104DCC00F3E70F48FEF7CCFA0D48FEF7D8FA034686
:104DDC00002B14BF01230023DBB2002B00D0F3E720
:104DEC0001210748FEF7ABFB00BF5037BD4680BD25
:104DFC0000080140000C0140080002404C24014016
:104E0C000024014090B583B000AF78607B6893F8C4
:104E1C00243083F00103DBB2002B09D07868FFF754
:104E2C0017FF02467B685B699A4201DA012300E0B6
:104E3C000023002B03D07B68012283F824207B689D
:104E4C001C6A7868FFF7F9FE0346E2187B68DB6999
:104E5C00D31A4FF0E0421946002000F07EF80246CB
:104E6C007B681A627B681A6A7B689B699A4203DDCD
:104E7C007B68012283F8252000BF0C37BD4690BD0E
:104E8C0080B582B000AF786039603B68052B25D8BF
:104E9C0001A252F823F000BFBD4E0008C74E000817
:104EAC00D14E0008D74E0008DD4E0008E34E000836
:104EBC007868FFF7C2FE034611E07868FFF7C8FE7A
:104ECC0003460CE07B689B6909E07B68DB6906E0C4
:104EDC007B681B6A03E07B685B6900E00023184673
:104EEC000837BD4680BD00BF80B485B000AFF86008
:104EFC00B9607A60BB68023B032B1BD801A252F845
:104F0C0023F000BF214F0008294F0008314F000843
:104F1C00394F0008FB687A689A610BE0FB687A6885
:104F2C00DA6107E0FB687A681A6203E0FB687A686A
:104F3C005A6100BF002318461437BD4680BC704729
:104F4C0080B483B000AF78607B6800221A607B6805
:104F5C0018460C37BD4680BC704780B485B000AF96
:104F6C00F860B9607A60BA68FB689A4207DBBA6885
:104F7C007B689A4201DD7B6802E0BB6800E0FB685D
:104F8C0018461437BD4680BC7047000080B582B00F
:104F9C0000AF786039607B68012B07D13B684FF616
:104FAC00FF72934202D10348FFF768FE00BF083737
:104FBC00BD4680BDBC00002080B500AF4FF6FF7130
:104FCC000120FFF7E3FF80BD80B582B000AF7860B1
:104FDC0039607B681B6808331B6839460422786883
:104FEC00984700BF0837BD4680BD80B582B000AF82
:104FFC00786039607B681B6808331B680422396849
:10500C007868984700BF0837BD4680BD80B483B030
:10501C0000AF0346FB71FB79002B01D0012300E0AC
:10502C00002318460C37BD4680BC704780B483B053
:10503C0000AF78607B68002B14BF01230023DBB228
:10504C0018460C37BD4680BC704790B585B000AF94
:10505C0078603960786800F086F8F8607B683A68A8
:10506C00C3F82C233B689B11BB603B6803F03F03E8
:10507C003B607B68BA68103233F8123019467A6894
:10508C00BB68134403F50B731B781A463B6803FB90
:10509C0002F39B110B44C3F30D027B68C3F830235E
:1050AC007B68D3F830237B68D3F82432D31A1A46A2
:1050BC007B6893F82032002B01D0002301E04FF0E5
:1050CC00FF33534003F57A73C3F30D027B68C3F8C7
:1050DC0034237B6893F83833002B1BD07B68D3F8D0
:1050EC00343343F2AF62934208DC7B68D3F8343339
:1050FC0003F580427B68C3F8342316E07B68D3F851
:10510C00343343F6CF1293420FDC7B68002283F8D2
:10511C0038230AE07B68D3F8343343F6F0429342E9
:10512C0003DD7B68012283F838237B6803F57173F8
:10513C00FA6812B21146184600F0ECFB7B6803F5D6
:10514C004F74786800F00FF803469AB2FB689BB274
:10515C00D31A9BB21BB21946204600F00AFC00BFC2
:10516C001437BD4690BD80B483B000AF78607B68C7
:10517C00D3F83433A3F57A727B68D3F82832D31A78
:10518C0018460C37BD4680BC704780B483B000AF66
:10519C0078600B2318460C37BD4680BC704780B432
:1051AC0083B000AF78607B6801229A7000BF0C3727
:1051BC00BD4680BC7047000080B582B000AF7860FF
:1051CC007B6800220A211846FFF712FD144A7B68FF
:1051DC001A607B6800225A617B68124A9A617B686C
:1051EC0041F65832DA617B68012283F820227B6811
:1051FC000022C3F824227B68002283F838237B68C2
:10520C0003F54F73184600F0E7FB7B6803F57173E9
:10521C00184600F0F8FB7B6818460837BD4680BD81
:10522C0008910008A8E4FFFF80B58CB000AF78604F
:10523C00102387F82F30032387F82E301023BB85DB
:10524C0007F12C0319464B48FEF7A0FB0122102155
:10525C004848FEF757FC182387F82F302023BB85CE
:10526C0007F12C0319464348FEF790FB042387F8FB
:10527C002F304023BB8507F12C0319463D48FEF720
:10528C0085FB182387F82F308023BB8507F12C036F
:10529C0019463848FEF77AFB232387F82830042375
:1052AC0087F82930002387F82A30012387F82B3020
:1052BC0007F128031846FDF743FF01214FF48050F6
:1052CC00FEF79AFD0023BB824FF48273FB824FF4EE
:1052DC0000633B8300237B830123BB834FF4007368
:1052EC00FB8328233B8400237B8407F1140319469A
:1052FC002148FEF7BDFD012260211F48FEF71AFE72
:10530C0001211D48FEF7F7FD1C2387F828300423E4
:10531C0087F82930002387F82A30012387F82B30AF
:10532C0007F128031846FDF70BFF01210120FEF7BA
:10533C0081FD00233B8100237B8141F63F73BB81C0
:10534C000023FB8100233B7407F1080319464FF03F
:10535C008040FEF739FE012201214FF08040FFF71B
:10536C008DF801214FF08040FFF744F800BF303733
:10537C00BD4680BD000801400030014080B582B0C0
:10538C0000AF786039607B68D3F8283258427B686C
:10539C00DB691A463968FFF7E0FD03461846083703
:1053AC00BD4680BD80B584B000AF78603960012106
:1053BC003868FFF709FE0023FB60FB68FF2B10DC4D
:1053CC003B681B6808331B687A6802F12001FA6895
:1053DC0052001144042238689847FB680233FB6082
:1053EC00EBE700BF1037BD4680BD80B586B000AF7F
:1053FC007860396007F10C0319463868FFF7F5FD42
:10540C00FB68012B15D100237B617B69FF2B29DC09
:10541C003B681B6808331B687A6802F120017A69C3
:10542C00520011440422386898477B6902337B612F
:10543C00EBE700233B613B69FF2B13DC3B699BB221
:10544C009B0199B27B683A69103223F812107A6882
:10545C003B69134403F50B7340221A703B6901330B
:10546C003B61E8E7786800F02AFA00BF1837BD46C0
:10547C0080BD80B584B000AF78607868FFF773FEAC
:10548C00F8607B6893F82032002B06D07B685A6951
:10549C00FB681A447B685A6105E07B685A69FB68B3
:1054AC00D21A7B685A61786800F0D2F900BF1037C5
:1054BC00BD4680BD80B582B000AF786039607B6836
:1054CC00012283F820227B683A681A617B680022EB
:1054DC005A617B68064A9A617B6841F65832DA61F8
:1054EC00786800F0B5F900BF0837BD4680BD00BF35
:1054FC00A8E4FFFF80B582B000AF786039607B68AC
:10550C003A685A61786800F0A3F900BF0837BD46C5
:10551C0080BD80B582B000AF786039607B683A6836
:10552C009A61786800F094F900BF0837BD4680BDD9
:10553C0080B582B000AF786039603B6883EAE37273
:10554C00A2EBE3727B68DA61786800F081F900BF46
:10555C000837BD4680BD80B582B000AF7860396039
:10556C007B681B6919463868FFF72EFD7B685B6901
:10557C0019463868FFF728FD7B689B69194638681F
:10558C00FFF722FD7B68DB6919463868FFF71CFDC5
:10559C0000BF0837BD4680BD80B582B000AF7860D3
:1055AC0039607B68103319463868FFF71EFD7B683D
:1055BC00143319463868FFF718FD7B681833194601
:1055CC003868FFF712FD7B681C3319463868FFF703
:1055DC000CFD786800F03CF900BF0837BD4680BD73
:1055EC0080B582B000AF002210211A48FEF78AFA6B
:1055FC0001214FF08040FEF78EFF174B1B681A12EB
:10560C00154B1B6853407B607B681B117A685340B9
:10561C007B607B689B107A6853407B607B685B1077
:10562C007A6853407B607B6803F00103002B07D141
:10563C00094B1B68C3F30D0319460848FFF705FD1A
:10564C004FF6FF710648FEF7A5FC00BF0837BD46B4
:10565C0080BD00BF00080140D0040020E400002001
:10566C000030014080B500AF012210210548FEF743
:10567C0049FA0548FEF79CFC03461A46034B1A6090
:10568C0000BF80BD0008014000300140D004002064
:10569C0080B582B000AF786039603B680A2B44D883
:1056AC0001A252F823F000BFE1560008F1560008A1
:1056BC00F95600080157000809570008135700084D
:1056CC00175700081D5700082357000829570008D2
:1056DC00315700087B6893F820321846FFF796FC88
:1056EC00034623E07B68D3F824321FE07B68D3F8B1
:1056FC002C331BE07B68D3F8343317E07868FFF762
:10570C0032FD034612E0002310E07B689B690DE03C
:10571C007B685B690AE07B68DB6907E07B68D3F830
:10572C00303303E07B681B6900E000231846083720
:10573C00BD4680BD80B584B000AFF860B9607A60BA
:10574C00BB680A2B5BD801A252F823F085570008DE
:10575C00975700080B5800080B5800080B58000806
:10576C00AB570008B3570008BD570008C7570008CF
:10577C00DB570008D15700087868FFF757FC034641
:10578C001A46FB6883F820223BE0FB68D3F83023F1
:10579C00FB68C3F82422F86800F05AF831E0F86886
:1057AC00FFF767FE2DE07968F868FFF7B2FE28E096
:1057BC007968F868FFF79EFE23E07968F868FFF7D0
:1057CC00B7FE1EE07968F868FFF774FE19E07B6895
:1057DC009BB27A681214D2B2C3F30D0399B2FB6870
:1057EC00103223F812107B681B14FF2B05D1F868BC
:1057FC0000F065F80548FFF7D2FC002302E0002317
:10580C0000E0012318461037BD4680BDD4040020AB
:10581C0080B582B000AF78607B68012283F82022CB
:10582C007B6841F658321A617B6800225A617B68AA
:10583C00064A9A617B6841F65832DA61786800F062
:10584C0007F800BF0837BD4680BD00BFA8E4FFFFC6
:10585C0080B483B000AF78607B681A697B685B6941
:10586C001A447B689B691344C3F30D027B68C3F82D
:10587C0024227B689B69DB0FDAB27B6883F82022D9
:10588C007B6893F82032002B03D07B689B695B42CA
:10589C0001E07B689B697A68C2F828327B68D3F890
:1058AC00283203F57A727B68C3F834237B680022B4
:1058BC0083F8382300BF0C37BD4680BC704780B4DA
:1058CC0085B000AF78600023FB60FB68FF2B1CDC0D
:1058DC00FB680133DAB27B68103233F81230BB60EC
:1058EC00BB68DAB27B68F968103133F81130DBB27F
:1058FC00D31AD9B27A68FB68134403F50B730A46C2
:10590C001A70FB680133FB60DFE700BF1437BD463C
:10591C0080BC704780B483B000AF78600B467B804E
:10592C007B685A6A7B681B6879685B000B44B3F927
:10593C000430D21A7B685A627B681A687968530003
:10594C000B4479889980796853000B44B3F904208F
:10595C007B685B6A1A447B685A627B681B680133FC
:10596C0003F00F027B681A6000BF0C37BD4680BC89
:10597C00704780B483B000AF78600B467B807B6847
:10598C00D3F884207B681B6879685B000B44B3F9FF
:10599C000430D21A7B68C3F884207B681A68796853
:1059AC0053000B4479889980796853000B44B3F900
:1059BC0004207B68D3F884301A447B68C3F88420B5
:1059CC007B681B68013303F03F027B681A6000BFE1
:1059DC000C37BD4680BC704780B582B000AF786094
:1059EC007B6800221A607B680022C3F884207B68E5
:1059FC00043380220021184603F028FA7B681846ED
:105A0C000837BD4680BD80B582B000AF78607B683A
:105A1C0000221A607B6800225A627B6804332022C1
:105A2C000021184603F012FA7B6818460837BD4669
:105A3C0080BD000080B582B000AF786039607B68B3
:105A4C00012B07D13B684FF6FF72934202D10348FA
:105A5C00FFF7B2FB00BF0837BD4680BDE400002055
:105A6C0080B500AF4FF6FF710120FFF7E3FF80BD5B
:105A7C0080B483B000AF7860044A7B681A607B689E
:105A8C0018460C37BD4680BC704700BF64910008B7
:105A9C0080B483B000AF7860044A7B681A607B687E
:105AAC0018460C37BD4680BC704700BF6491000897
:105ABC0080B582B000AF78607868FFF7E9FF042109
:105ACC00786803F068F97B6818460837BD4680BDD6
:105ADC0080B483B000AF7860044A7B681A607B683E
:105AEC0018460C37BD4680BC704700BF509100086B
:105AFC0080B483B000AF7860044A7B681A607B681E
:105B0C0018460C37BD4680BC704700BF509100084A
:105B1C0080B582B000AF78607868FFF7E9FF0421A8
:105B2C00786803F038F97B6818460837BD4680BDA5
:105B3C0080B582B000AF786039607B681B6819460D
:105B4C003868FFF741FA7B685B6819463868FFF7DD
:105B5C003BFA7B689B6819463868FFF735FA7B6817
:105B6C00DB6819463868FFF72FFA00BF0837BD46C7
:105B7C0080BD80B582B000AF786039607B68194613
:105B8C003868FFF732FA7B68043319463868FFF738
:105B9C002CFA7B68083319463868FFF726FA7B68BD
:105BAC000C3319463868FFF720FA00BF0837BD469A
:105BBC0080BD80B483B000AF786039607B683A6890
:105BCC001A607B680022DA607B68DA687B689A600E
:105BDC007B689A687B685A6000BF0C37BD4680BCF6
:105BEC007047000080B400AFBFF34F8F00BF074B6E
:105BFC00DB6803F4E0620549054B1343CB60BFF34C
:105C0C004F8F00BF00BF00BFFCE700BF00ED00E0FE
:105C1C000400FA0580B582B000AF786039607B680B
:105C2C001846FFF725FF074A7B681A607B6800223D
:105C3C005A607B683A689A607B6818460837BD469C
:105C4C0080BD00BF3C91000880B584B000AFF86007
:105C5C00B9607A607B68012B0DD1FB689A68FB6890
:105C6C005B689B0013441A46BB681B7819461046A8
:105C7C00FDF7E8FD20E07B68022B0DD1FB689A68EC
:105C8C00FB685B689B0013441A46BB681B8819466B
:105C9C001046FDF7D7FD0FE07B68042B12D1FB6893
:105CAC009A68FB685B689B0013441A46BB681B68C8
:105CBC0019461046FDF7C6FDFB685B685A1CFB686D
:105CCC005A6000E000BF1037BD4680BD80B582B081
:105CDC0000AF786039607B681846FFF7F9FE074A19
:105CEC007B681A607B6800225A607B683A689A600D
:105CFC007B6818460837BD4680BD00BF2891000858
:105D0C0080B485B000AFF860B9607A607B68012B15
:105D1C0009D1FB689A68FB685B689B0013441A788E
:105D2C00BB681A7018E07B68022B09D1FB689A6873
:105D3C00FB685B689B0013441A88BB681A800BE0F5
:105D4C007B68042B0ED1FB689A68FB685B689B0030
:105D5C0013441A68BB681A60FB685B685A1CFB68C2
:105D6C005A6000E000BF1437BD4680BC704700008D
:105D7C0080B586B000AF78607B681B78002B06D0AE
:105D8C007B6800221A70786800F07AF8F4E77B6878
:105D9C009B78002B1DD07B6800229A70FDF700FDCC
:105DAC003420FDF799FD1348FDF71AFD07F10C039C
:105DBC0010491846FFF72EFF07F10C0319460E4841
:105DCC00FFF7F0FAFDF7FEFC07F10C03184600F0A4
:105DDC00BFF87B685B78002B08D07B681B7883F05E
:105DEC000103DBB2002B01D0FFF7FCFE00BF18371C
:105DFC00BD4680BD00200008E400002080B588B0BE
:105E0C0000AF786007F1140318491846FFF75EFFDE
:105E1C0007F1140319461648FFF7ABFE144B1B6829
:105E2C00122B06D107F114031946124801F0EEFEAD
:105E3C0002E0786800F056F807F108030E4918469E
:105E4C00FFF744FF07F1080319460C48FFF7CDFA9A
:105E5C0007F10803184600F059F807F11403184627
:105E6C0000F054F800BF2037BD4680BD0028000864
:105E7C00D80400203807002000200008E40000208F
:105E8C0080B586B000AF7860FDF78AFC3420FDF752
:105E9C0023FD1148FDF7A4FC07F10C030E4918462D
:105EAC00FFF7B8FE0D4B12221A6007F10C031946CE
:105EBC000A48FFF73DFE07F10C031946084801F0AC
:105ECC008AFEFDF77FFC07F10C03184600F040F842
:105EDC0000BF1837BD4680BD00280008D80400203C
:105EEC003807002080B582B000AF786012210548D9
:105EFC00FFF75FFE044801F0FAFE00BF0837BD460D
:105F0C0080BD00BFD80400203807002080B582B0C7
:105F1C0000AF7860054A7B681A607B681846FFF70B
:105F2C00E7FD7B6818460837BD4680BD2891000800
:105F3C0080B582B000AF78607868FFF7E7FF0C217E
:105F4C00786802F028FF7B6818460837BD4680BD8C
:105F5C0080B582B000AF7860054A7B681A607B68B8
:105F6C001846FFF795FD7B6818460837BD4680BD7F
:105F7C003C91000880B582B000AF78607868FFF77C
:105F8C00E7FF0C21786802F006FF7B68184608379B
:105F9C00BD4680BD80B483B000AF78607B6893F859
:105FAC002430002B04D17B6893F82530002B01D0D2
:105FBC00012300E0002318460C37BD4680BC704717
:105FCC0080B582B000AF0346FB71FB79002B01D08A
:105FDC00002300E001231A4608210348FDF792FD37
:105FEC0000BF0837BD4680BD0008014080B582B0B7
:105FFC0000AF786039601948FFF7CCFF034683F097
:10600C000103DBB2002B0ED00120FFF7D9FF4FF4B8
:10601C00967001F045FD0020FFF7D2FF4FF496700B
:10602C0001F03EFDE7E70120FFF7CAFFC82001F0B1
:10603C0037FD0020FFF7C4FFC82001F031FD01201F
:10604C00FFF7BEFFC82001F02BFD0020FFF7B8FFC3
:10605C004FF42F7001F024FDCDE700BFBC000020F1
:10606C0080B582B000AF786079680020FFF7BEFF82
:10607C000837BD4680BD000080B483B000AF7860A7
:10608C00024B18460C37BD4680BC70476D6000084B
:10609C0080B584B000AF78601023FB720323BB7211
:1060AC0008233B8107F1080319460948FDF76EFCEC
:1060BC0007F10C031846FFF7DFFF0246002300210F
:1060CC00642001F0EFFB00BF1037BD4680BD00BF60
:1060DC000008014080B483B000AF78607B68012277
:1060EC005A707B685A787B681A7000BF0C37BD46B3
:1060FC0080BC704780B483B000AF78607B6893F845
:10610C00203218460C37BD4680BC704780B483B033
:10611C0000AF78607B6800221A627B68002283F8EB
:10612C0025207B6893F825207B6883F8242000BF0A
:10613C000C37BD4680BC704780B58CB000AF786022
:10614C0001214FF40060FDF757FE01210220FDF7FD
:10615C0071FE4FF40073BB85032387F82E30182390
:10616C0087F82F3007F12C0319463F48FDF70EFC3A
:10617C004FF48073BB8507F12C0319463A48FDF7A1
:10618C0005FC00233B8400237B8440F6B733BB849F
:10619C000023FB84002387F8283007F120031946DD
:1061AC003248FDF711FF70233B8201237B820423CD
:1061BC00BB820023FB8200233B8300237B834FF4B1
:1061CC008073BB830023FB8307F110031946274818
:1061DC00FDF776FF07F1100319462448FDF7FCFF85
:1061EC0070233B8201237B820023BB820123FB8231
:1061FC0000233B8300237B834FF48073BB830023FA
:10620C00FB8307F1100319461848FEF76DF81F239E
:10621C003B8440F6B733BB8407F12003194614487E
:10622C00FDF7D2FE1D233B7304237B730023BB734A
:10623C000123FB7307F10C031846FCF781FF0122C5
:10624C0001210B48FEF71AF901210848FEF7D2F894
:10625C0001210748FEF7CEF801210448FEF7E9F8C2
:10626C0000BF3037BD4680BD00080140002C014006
:10627C000004004080B582B000AF786039602B48D4
:10628C00FFF788FE0346002B03D0786800F066F811
:10629C0047E02748FFF72EFF0346002B01D03B6851
:1062AC0001E03B685B4240F6B83219462148FEF7E4
:1062BC0054FE38607B683A681A603B68002B16DB2A
:1062CC0000211D48FEF70BF93B689BB219461A4892
:1062DC00FEF7F7F83B68323B1946012000F072F8E4
:1062EC0003469BB219461448FEF707F919E0002142
:1062FC001148FEF7E6F83B689BB25B429BB219462D
:10630C000D48FEF7ECF83A686FF031039B1A19460A
:10631C00012000F057F803469BB219460648FEF7D9
:10632C00ECF800BF0837BD4680BD00BFBC000020A4
:10633C00E400002048F4FFFF002C014080B582B03F
:10634C0000AF7860786800F009F80348FFF7DEFECC
:10635C0000BF0837BD4680BDBC00002080B582B0B0
:10636C0000AF786040F6B8310848FEF7B8F840F650
:10637C00B8310648FEF7A5F840F686310348FEF71B
:10638C00BCF800BF0837BD4680BD00BF002C0140E3
:10639C0080B500AF01210848FEF7BDF8074B1A681D
:1063AC00064B1B681B6810331B6810469847044843
:1063BC00FEF728FD00BF80BD00040040F40400205F
:1063CC00BC00002080B483B000AF786039607A687C
:1063DC003B689A4201DD7B6800E03B6818460C374D
:1063EC00BD4680BC704780B483B000AF7860396024
:1063FC003B6818460C37BD4680BC704780B483B0F0
:10640C0000AF7860002318460C37BD4680BC70473F
:10641C0080B483B000AF786000BF0C37BD4680BC41
:10642C007047000080B584B000AFF860B9607A6046
:10643C00FB687A68B9681846FEF7DAFB034AFB6812
:10644C001A60FB6818461037BD4680BD6093000883
:10645C0080B483B000AF786039607B683A689A6129
:10646C0000BF0C37BD4680BC704780B483B000AF12
:10647C0078607B685B6918460C37BD4680BC7047FA
:10648C0080B483B000AF78607B685B6818460C37CB
:10649C00BD4680BC704780B582B000AF78607B6829
:1064AC0008331846FFF7E1FF034618460837BD4688
:1064BC0080BD80B582B000AF78607B6803F57173E6
:1064CC00184600F01DF9034618460837BD4680BD36
:1064DC0080B582B000AF78607B6803F54F731846C7
:1064EC0000F01BF9034618460837BD4680BD80B442
:1064FC0083B000AF78607B6801221A7000BF0C3744
:10650C00BD4680BC7047000080B483B000AF78609B
:10651C00044A7B681A607B6818460C37BD4680BC01
:10652C00704700BFE491000880B582B000AF78607E
:10653C007B681846FFF7E8FF0B4A7B681A607B689C
:10654C0047F6FF725A607B680833084A4FF416719D
:10655C001846FFF767FF7B68002283F858207B689A
:10656C0018460837BD4680BDC891000870910008D8
:10657C0080B582B000AF786039603B681A1D7B68CB
:10658C0008331946104600F0D4F80346184608376D
:10659C00BD4680BD90B583B000AF786039603B6874
:1065AC0047F6FA72934204D17B68012283F8582093
:1065BC0051E03B6847F6FC7293424CD03B6847F67F
:1065CC00BB7293420FDC7B683A685A607B6803F1BC
:1065DC00080439682248FEF7D1FE034619462046C6
:1065EC0001F05FFF37E03B6847F6FE7293420ED135
:1065FC007B683A685A607B6803F108041848FEF718
:10660C00B2FD03461946204601F04BFF23E03B68E0
:10661C0047F6FB7293421BD17B6893F85830002BE2
:10662C0019D00F48FEF725FF0E48FFF760FF7B6877
:10663C0003F108027B68002159607B685B6819468E
:10664C00104601F02EFF7B68002283F8582002E0F0
:10665C007B683A685A6000BF0C37BD4690BD00BFDE
:10666C00E4000020D404002080B584B000AF786032
:10667C002148FFF71EFFB8601F48FFF729FFF8609D
:10668C00FB68082B03DDFB68083BFB6009E0FB683B
:10669C0013F1080F03DAFB680833FB6001E00023F9
:1066AC00FB607B685B6847F6FE72934204D1002165
:1066BC001248FFF7DFFD15E07B685B6847F6FF7259
:1066CC00934203D10D48FFF739FE0BE07B6808338A
:1066DC00FA68B968184601F014FE034619460748D3
:1066EC00FFF7C8FD7B680833B9681846FFF7B0FEA2
:1066FC0000BF1037BD4680BDE4000020F004002030
:10670C0080B483B000AF78607B685B6A1B111BB2EE
:10671C0018460C37BD4680BC704780B483B000AFC0
:10672C0078607B68D3F8843018460C37BD4680BC43
:10673C00704780B483B000AF786039607B681A68AA
:10674C003B685A607B683A681A603B6818460C379D
:10675C00BD4680BC7047000080B582B000AF786049
:10676C0039607B68012B07D13B684FF6FF7293426F
:10677C0002D10348FFF7D8FE00BF0837BD4680BDE5
:10678C00F804002080B500AF4FF6FF710120FFF731
:10679C00E3FF80BD80B584B000AFF860B9607A606B
:1067AC00FB687A68B9681846FEF722FA034AFB6858
:1067BC001A60FB6818461037BD4680BD2093000850
:1067CC0080B483B000AF786039607B683A681A6136
:1067DC0000BF0C37BD4680BC704780B483B000AF9F
:1067EC0078607B685B6918460C37BD4680BC704787
:1067FC0080B584B000AFF860B9607A60FB687A68E5
:10680C00B9681846FFF7C6FF064AFB681A60FB68B2
:10681C000022DA62FB6800221A63FB681846103704
:10682C00BD4680BD4093000880B483B000AF786053
:10683C007B685B6818460C37BD4680BC704780B5DA
:10684C0082B000AF78607B6808331846FFF7C5FF4D
:10685C00034618460837BD4680BD80B483B000AFF0
:10686C0078607B68D3F82C3318460C37BD4680BC57
:10687C007047000080B582B000AF78607B68184626
:10688C00FFF742FE0D4A7B681A607B6847F6FF7281
:10689C005A607B6808330A4A4FF4B9711846FFF7FF
:1068AC00A7FF7B685C33074A4FF4AF71184601F0C1
:1068BC007BFF7B6818460837BD4680BD7892000880
:1068CC00F89100086092000880B582B000AF786043
:1068DC0039603B681A1D7B68083319461046FFF770
:1068EC0028FF03461A1D7B685C3319461046FFF7D8
:1068FC0020FF034618460837BD4680BD90B583B0CF
:10690C0000AF786039607B683A685A607B685B6876
:10691C0047F6BB7293420ADC7B6803F108023B68C2
:10692C00C3F30D0319461046FFF74AFF16E07B68C8
:10693C005B6847F6FE72934205D07B685B6847F64E
:10694C00FC7293420AD17B6803F108040548FFF7F7
:10695C0084FF034619462046FFF732FF00BF0C3771
:10696C00BD4690BDE400002080B584B000AF7860D7
:10697C002948FFF772FFF8607B685C33F9681846AA
:10698C0001F03AFF0346002B41D07B685B6803F5AE
:10699C000053C3F30D03BB607B685B68BA689A4213
:1069AC0008DDFA68BB689A4204DDFB68A3F58043F6
:1069BC00FB600CE07B685B68BA689A4207DAFA689D
:1069CC00BB689A4203DAFB6803F58043FB607B6883
:1069DC005B6847F6FE72934204D100210F48FFF723
:1069EC0049FC14E07B685B6847F6FF72934203D165
:1069FC000A48FFF7A3FC0AE07B680833F9681846DD
:106A0C0001F014FC034619460448FFF733FC00BFA1
:106A1C001037BD4680BD00BFE4000020F00400200C
:106A2C0080B582B000AF786039607B68012B07D1EC
:106A3C003B684FF6FF72934202D10348FFF71AFFEF
:106A4C0000BF0837BD4680BD5405002080B500AF9F
:106A5C004FF6FF710120FFF7E3FF80BD80B582B0D8
:106A6C0000AF78607B681846FFF74EFD064A7B68DE
:106A7C001A607B6800225A607B6800229A607B68EF
:106A8C0018460837BD4680BD9492000880B483B088
:106A9C0000AF78607B685B6818460C37BD4680BCDD
:106AAC00704780B483B000AF786039607B683A6817
:106ABC005A6000BF0C37BD4680BC704780B582B0B1
:106ACC0000AF78607B685B6819460348FFF7D2FB20
:106ADC0000BF0837BD4680BDF004002080B582B0F1
:106AEC0000AF786039607B68012B07D13B684FF6AB
:106AFC00FF72934202D10348FFF7B0FF00BF083783
:106B0C00BD4680BDD805002080B500AF4FF6FF71A3
:106B1C000120FFF7E3FF80BD80B483B000AF786045
:106B2C003960144B20221A61134A3B685360124A95
:106B3C007B68D36072B600BF0F4B1B680E4A43F0E4
:106B4C00010313600D4B1B889BB20C4A23F04003CE
:106B5C009BB21380094B9B899BB2084A43F04003BC
:106B6C009BB2938162B600BF00BF0C37BD4680BCA0
:106B7C00704700BF000C0140440002400038014047
:106B8C0080B400AF074B5B68074A12681344C3F527
:106B9C008073DBB2054A1360044B1B681846BD4674
:106BAC0080BC704758000240E8060020EC0600202C
:106BBC0080B594B000AF78600B46FB7001210C20BF
:106BCC00FDF71AF901214FF48040FDF715F9012169
:106BDC000120FDF711F901210420FCF7ABFF202364
:106BEC00A7F84C30032387F84E30102387F84F302A
:106BFC0007F14C0319464948FCF7C8FE8023A7F857
:106C0C004C30042387F84F30032387F84E3007F1BC
:106C1C004C0319464148FCF7B9FE4023A7F84C3009
:106C2C00182387F84F3007F14C0319463B48FCF703
:106C3C00ADFE252387F84830002387F84930002320
:106C4C0087F84A30012387F84B3007F14803184680
:106C5C00FCF776FA7B68BB63FB78002B02D04FF411
:106C6C00805300E00023BB870023FB87FB78002BBD
:106C7C0002D04FF4806300E00023A7F840300023DB
:106C8C00A7F844300C23A7F8423007F13803194613
:106C9C002348FDF751FC2348FCF76CFC224BFB60AE
:106CAC00224B3B6100237B614FF48073BB6100235B
:106CBC00FB6180233B624FF400737B620023BB6259
:106CCC002023FB624FF400533B6300237B6307F1EB
:106CDC000C0319461348FCF709FD01211148FCF778
:106CEC0043FD10237B610023FB6207F10C03194663
:106CFC000F48FCF7FBFC012240210948FDF7F5FC8D
:106D0C00012280210648FDF7F0FC01210448FDF723
:106D1C00CDFC00BF5037BD4680BD00BF000C01400C
:106D2C00003801405800024004380140E8050020BA
:106D3C004400024080B400AF0A4B9B899BB2094AC5
:106D4C0023F040039BB29381074B20225A61074BDF
:106D5C001A6806494FF6FE7313400B6000BFBD4620
:106D6C0080BC704700380140000C014044000240D8
:106D7C0080B483B000AF78607B6800221A647B68B3
:106D8C0000225A647B6818460C37BD4680BC70479D
:106D9C0080B483B000AF78607B681B6C18460C37EE
:106DAC00BD4680BC704780B483B000AF78607B6810
:106DBC0018460C37BD4680BC704780B483B000AF1A
:106DCC007860002318460C37BD4680BC7047000025
:106DDC0080B483B000AF78603960064B1A683B68AA
:106DEC001344DBB2044AD35C18460C37BD4680BC56
:106DFC00704700BFE8060020E805002080B483B08F
:106E0C0000AF78603960084B1A683B681344064A37
:106E1C001360054B1B68DBB2034A136000BF0C37D1
:106E2C00BD4680BC704700BFE806002080B584B02A
:106E3C0000AFF860B9607A60FB687A68B968184688
:106E4C00FDF7D6FE034AFB681A60FB68184610373C
:106E5C00BD4680BDD892000880B582B000AF786086
:106E6C00786800F00FF80246054B5B689A420CBF3D
:106E7C0001230023DBB218460837BD4680BD00BF96
:106E8C00D804002080B582B000AF78607B68002108
:106E9C001846FFF79DFF034603F00F03184608370B
:106EAC00BD4680BD80B582B000AF78607B680021A4
:106EBC001846FFF78DFF03461B1103F00703184616
:106ECC000837BD4680BD80B582B000AF78607B6866
:106EDC0000211846FFF77CFF03465BB2DBB2DB09EF
:106EEC00DBB218460837BD4680BD80B483B000AF16
:106EFC007860012318460C37BD4680BC704780B4BF
:106F0C0083B000AF78607B681B6818460C37BD46B1
:106F1C0080BC704780B483B000AF78607B681B681E
:106F2C0018460C37BD4680BC7047000080B400AFDB
:106F3C00BFF34F8F00BF074BDB6803F4E0620549DA
:106F4C00054B1343CB60BFF34F8F00BF00BF00BF97
:106F5C00FCE700BF00ED00E00400FA0580B582B04C
:106F6C0000AF78607B68002205211846FFF75EFFB2
:106F7C00054A7B681A607B68044A1A617B6818466C
:106F8C000837BD4680BD00BFB0920008C0C62D00BA
:106F9C0080B582B000AF78600E48FFF7BBFF0346A8
:106FAC00002B0CBF01230023DBB2002B0ED00A4BAD
:106FBC000A4A1A600A4BDB681946786800F084FAB2
:106FCC007B681B6900211846FFF7F2FD00BF0837EC
:106FDC00BD4680BDEC040020E405002038070020ED
:106FEC00D804002080B582B000AF78603960FFF71C
:106FFC00C7FD0346002B14BF01230023DBB2184648
:10700C000837BD4680BD80B582B000AF7860796826
:10701C000020FFF7E7FF034618460837BD4680BD42
:10702C0080B483B000AF7860024B18460C37BD4675
:10703C0080BC70471370000880B582B000AF7860D8
:10704C003960FFF79DFD02463B681B689A42ACBF56
:10705C0001230023DBB218460837BD4680BD80B53E
:10706C0082B000AF786079680020FFF7E5FF034637
:10707C0018460837BD4680BD80B483B000AF786039
:10708C00024B18460C37BD4680BC70476B7000082D
:10709C0090B58DB002AF78609C4B1B78BFF35B8FC3
:1070AC00DBB203F00103002B0CBF01230023DBB286
:1070BC00002B18D0954801F070FE0346002B14BF2E
:1070CC0001230023DBB2002B0DD0914B1B681AB2AD
:1070DC00002300934FF480738E498F48FDF77AFCA0
:1070EC008A4801F066FEFFF74BFD0346002B0CBFF0
:1070FC0001230023DBB2002B09D007F11003184643
:10710C00FFF78EFF03461946002000F01FFC78683D
:10711C00FFF7D9FE034683F00103DBB2002B3BD013
:10712C007868FFF799FE0346002B35D07868FFF797
:10713C00B9FE0346794A1360784B1B68784A52F8BB
:10714C002330FB60FB68002B26D007F11403184694
:10715C00FFF792FF024607F10C031146184600F0A8
:10716C0053FA6B4B1B68012219466B48FDF754FC14
:10717C00FB6819466848FDF7ECFC0346002B0BD066
:10718C007B68FA6811461846FFF738FE00BF634B60
:10719C001B68002B06D07BE07B6801211846FFF7AB
:1071AC002DFEA0E75C48FDF7A0FCB8615D4B1B7899
:1071BC00002B04D1BB6947F6F97293424AD1BB69E3
:1071CC0047F6F872934206D1564B00221A70564875
:1071DC00FFF78DF936E0BB6947F6BC72934206DDCA
:1071EC00524ABB6913604F4B01221A702AE04F4B75
:1071FC001B68A3F5FF43743B032B1FD801A252F865
:10720C0023F000BF3F720008357200082B72000893
:10721C0021720008B9694648FEF74CF90EE0B969CD
:10722C004348FEF767F909E0B9694148FEF771F97F
:10723C0004E0B9693E48FEF77BF900BF3B4B47F6CB
:10724C00F9721A60394B1B68002219463948FDF750
:10725C0044FB4BE0384B1A68374B1B681B680433F4
:10726C001B68B969104698473148FDF77CFF044606
:10727C00314B1A68304B1B681B680C331B6810466B
:10728C00984703461A4621462A48FDF726FB2DE06F
:10729C00224B1B68052B11D11F48FDF726FC3862C9
:1072AC001D48FDF731FCF861FA69396A786800F01D
:1072BC009DF8F9691F48FDF728FB17E0174B1B6871
:1072CC00062B0DD11448FDF710FC7862796A7868AA
:1072DC0000F034F8034619461648FDF729FB05E083
:1072EC000E4B1B68072B0ED1FFF720FE1148FFF742
:1072FC005AFD04460F48FFF74BFD0346194620463E
:10730C00FFF70AFCEFE600BFEDE600BF60070020C8
:10731C00E8060020E80500204C0700206407002048
:10732C001400002068070020D40400206C07002003
:10733C00E4000020F0060020F404002080B582B0A8
:10734C0000AF786039603B68B3F5FA7F31D03B68A9
:10735C00B3F5FA7F38DC3B68042B13DC3B68002B5D
:10736C0032DB3B68042B2FD801A252F823F000BF6C
:10737C00997300089F730008A3730008A973000891
:10738C00AF7300083B68642B0ED01DE040F29C7379
:10739C0021E045231FE0124B5B681CE0104B9B68FF
:1073AC0019E00F4BDB6816E00E48FFF7A8FD03460B
:1073BC0011E00D4B1A680C4B1B681B6808331B68DB
:1073CC0010469847034606E07B683968184600F07B
:1073DC0039FC034600BF18460837BD4680BD00BFC8
:1073EC00D8040020F0040020F404002080B584B000
:1073FC0000AFF860B9607A60BB68B3F5FA7F3FD034
:10740C00BB68B3F5FA7F46DCBB68052B12DCBB68A6
:10741C00022B40DBBB68023B032B3CD801A252F889
:10742C0023F000BF49740008577400086574000805
:10743C0075740008BB68642B1DD02CE01E4A7B6859
:10744C0053601E48FFF753F832E01B4A7B68936089
:10745C001A48FEF73FFE2BE07968F86800F034F824
:10746C001648FFF744F823E0FB687A681A61134862
:10747C00FEF730FE1CE079681148FFF712FB17E0AD
:10748C00104B1A680F4B1B681B6804331B68796818
:10749C00104698470CE0FB687A68B968184600F00B
:1074AC00FBFB0346002B03D00448FFF720F8FFE753
:1074BC0000BF1037BD4680BDD8040020D404002086
:1074CC00D8050020F404002080B582B000AF7860AD
:1074DC0039603B68002B06D1164B174A1A60174AC5
:1074EC003B68D36021E03B68012B06D1114B144A59
:1074FC001A60124A3B68D36017E03B68052B06D133
:10750C000C4B104A1A600D4A3B68D3600DE03B6887
:10751C00062B0AD1074B084A1A60084A3B68D3600D
:10752C0040F2DC510448FFF7BCFA00BF0837BD46F7
:10753C0080BD00BFF4040020D8050020D804002032
:10754C00F80400205405002080B582B000AF7860AC
:10755C0039607B683968184600F012FB7B681B6940
:10756C0019463868FDF730FD00BF0837BD4680BDB1
:10757C0080B582B000AF786039607B683968184696
:10758C0000F008FB7B68103319463868FDF72DFDB9
:10759C0000BF0837BD4680BD80B483B000AF7860B3
:1075AC0039603B68002B02D17B681B6900E000232B
:1075BC0018460C37BD4680BC704780B485B000AF10
:1075CC00F860B9607A60BB68002B02D1FB687A68FE
:1075DC001A61012318461437BD4680BC7047000061
:1075EC0080B483B000AF78607B68054A1A61054BA4
:1075FC000122DA6000BF0C37BD4680BC704700BF6B
:10760C00C0C62D00D804002080B582B000AF7860D1
:10761C0039603968786800F099F900BF0837BD46C1
:10762C0080BD000080B582B000AF786039607B68A7
:10763C00012B0AD13B684FF6FF72934205D10548E6
:10764C00FFF796FB0448FFF789FC00BF0837BD46DF
:10765C0080BD00BFF00600203807002080B500AFC9
:10766C004FF6FF710120FFF7DDFF80BD80B483B0C2
:10767C0000AF7860044B1A687B68134418460C37CB
:10768C00BD4680BC704700BF4009002080B483B069
:10769C0000AF7860054B1A687B68D31ADB43DB0FAD
:1076AC00DBB218460C37BD4680BC70474009002041
:1076BC0080B483B000AF786039607B681B68002BA6
:1076CC000AD17B685B68002B04D07B685B683A68E6
:1076DC009A4201D8012300E0002318460C37BD461E
:1076EC0080BC704780B582B000AF786000F00CFAB7
:1076FC000D4B0E4A1A600C4B1B680B4A12689A60B1
:10770C00094B1B680A4A12681A60074B1B687A6897
:10771C005A60074B1A687B689B00D31A044A1360A3
:10772C0000BF0837BD4680BD380900207007002017
:10773C003409002080B500AF1F4B1B685B691E4AE3
:10774C001268D268104698471B4B1B681B4A136083
:10775C001A4B1B689A68184B1B689A4205D0174B3A
:10776C001B689B68154A1360F2E7134B1A68134B9E
:10777C001B6892689A60104B1B689B680F4A1360D9
:10778C000D4B1B689B680D4A13600C4B1B681B69E7
:10779C000A4A1268D26810469847034683F00103E0
:1077AC00DBB2002B05D0054B1B689B68034A1360AA
:1077BC00EBE700F08FF9BFE7380900203C09002007
:1077CC0080B483B000AF7860012318460C37BD46F7
:1077DC0080BC704780B485B000AFF860B9607A6047
:1077EC003B60FB687A68DA60FB68144A1A61FB68D4
:1077FC003A685A61124B1A68FB681A60104B1A6887
:10780C00BB689B00D31A0E4A1360FB68BA685A60B7
:10781C00FB683A7E1A760B4B1B689A68FB689A6079
:10782C00094AFB681360074B1B68074A12689A6089
:10783C0000BF1437BD4680BC704700BFCD77000831
:10784C0034090020380900203C09002080B485B0A0
:10785C0000AFF860B9607A60FB70FB68BA68DA60F8
:10786C00FB680D4A1A61FB687A685A61FB68FA7802
:10787C001A760A4B1B689A68FB689A60084AFB6880
:10788C001360064B1B68064A12689A6000BF1437D7
:10789C00BD4680BC704700BFCD770008380900207A
:1078AC003C09002080B588B002AFF860B9607A60FE
:1078BC00FB70FB78002B02D0224B01221A700023A4
:1078CC007B617B690F2B3ADC7A691346DB009B1AD0
:1078DC009B001D4A1344F9681846FFF7E9FE03465E
:1078EC00002B28D018497A691346DB009B1A9B00A1
:1078FC000B4404331B68002B0CD07A691346DB0055
:10790C009B1A9B00104A9818FB787A68B968FFF7A5
:10791C009DFF14E07A691346DB009B1A9B000A4A10
:10792C009818FB7800937B68BA68F968FFF752FFE8
:10793C0000F0F2F803E07B6901337B61C1E7183793
:10794C00BD4680BD300900207007002080B582B094
:10795C0000AF786039603B4B1B687A68DA60394B52
:10796C001B683A681A61384B1B78002B45D0354B95
:10797C001B689B68354A1360344B1A68314B1B6883
:10798C009A421BD0314B1B681B7E002B0CD02F4B0B
:10799C001B681B692D4A1268D2681046984703462B
:1079AC00002B01D0012300E00023002B05D1274B35
:1079BC001B689B68254A1360DEE700BF234B1A68DF
:1079CC00204B1B689A4231D11E4B1B689B681F4A87
:1079DC0013601E4B1B681B691C4A1268D268104648
:1079EC009847034683F00103DBB2002B1ED0174BE4
:1079FC001B689B68154A1360EBE7124B1B689B686E
:107A0C00124A1360114B1B681B69104A1268D2682A
:107A1C0010469847034683F00103DBB2002B05D0D8
:107A2C000A4B1B689B68094A1360EBE7074B1A6803
:107A3C00044B1B689A4201D000F04CF800BF083789
:107A4C00BD4680BD38090020300900203C090020CB
:107A5C0080B582B000AF786039603B681B6818460F
:107A6C00FFF714FE034618460837BD4680BD80B5A7
:107A7C0082B000AF786079680020FFF7E9FF034619
:107A8C0018460837BD4680BD80B483B000AF78601F
:107A9C00024B18460C37BD4680BC70477B7A0008F9
:107AAC0080B584B000AF78607B681846FFF7DEFDC8
:107ABC0003467B6007F10C031846FFF7E5FF02460F
:107ACC003B1D11461846FFF79FFD00BF1037BD4602
:107ADC0080BD00002DE9F01F00B509480468C4F80A
:107AEC0000D0084D2E680660D6F800D05DF804EB87
:107AFC00BDE8F01F7047380900203C090020000049
:107B0C00380900203C09002002496846086070478B
:107B1C00340900203409002008496846084A1268D4
:107B2C00D2F800D02DE9F01F02B4C2F800D085467F
:107B3C007047417700083C0900200000417700089D
:107B4C003C09002090B583B000AF786039607B6849
:107B5C009B683A689A420EDB7B689C687B681B6862
:107B6C0008331B6878689847034623443A689A425E
:107B7C0001DA012300E0002318460C37BD4690BD06
:107B8C0080B483B000AF7860396000BF0C37BD465D
:107B9C0080BC704780B483B000AF7860396000BFA0
:107BAC000C37BD4680BC704780B483B000AF7860A2
:107BBC003960002318460C37BD4680BC704780B432
:107BCC0085B000AFF860B9607A60002318461437AE
:107BDC00BD4680BC704780B584B000AF786039601A
:107BEC007B68FB60FB68002B0CD0FB681B681B6878
:107BFC003968F8689847FB680433184600F0C1F8F8
:107C0C00F860EFE700BF1037BD4680BD80B584B08B
:107C1C0000AF786039607B68FB60FB68002B0DD08F
:107C2C00FB681B6804331B683968F8689847FB6865
:107C3C000433184600F0A5F8F860EEE700BF1037E3
:107C4C00BD4680BD80B584B000AF786039607B687C
:107C5C00FB60FB68002B1AD03968F868FFF772FFDD
:107C6C000346002B0CD0FB681B680C331B68FA68AE
:107C7C00926839688A1A1146F8689847034607E0F3
:107C8C00FB680433184600F07CF8F860E1E7002349
:107C9C0018461037BD4680BD80B586B000AFF86081
:107CAC00B9607A60FB687B617B69002B1AD0B9687C
:107CBC007869FFF747FF0346002B0CD07B691B68E4
:107CCC0010331B687A699268B968891A7A6878697E
:107CDC009847034607E07B690433184600F051F8D7
:107CEC007861E1E7002318461837BD4680BD80B5A2
:107CFC0084B000AF78607B68FB60FB68002B09D018
:107D0C00F86800F00BF8FB680433184600F039F8FB
:107D1C00F860F2E700BF1037BD4680BD80B584B077
:107D2C0000AF78607B681B6814331B6878689847D1
:107D3C007B68DB68002B20D00023FB607B68DA6853
:107D4C00FB68DB0013441B68002B16DB7B681B688D
:107D5C0010331B687A68D168FA68D2000A4410683C
:107D6C007A68D168FA68D2000A4452680146786889
:107D7C009847FB680133FB60E0E700BF1037BD4656
:107D8C0080BD80B483B000AF78607B681B681846F8
:107D9C000C37BD4680BC704780B485B000AF7860AE
:107DAC0039607B681A693B68D31AFB607B689B6AF5
:107DBC00002B16D07B689B6AFA689A4204DD7B68BC
:107DCC009B6AFA68D31A0DE07B689B6A5B42FA687F
:107DDC009A4204DA7B689A6AFB68134402E0002337
:107DEC0000E0FB6818461437BD4680BC704780B471
:107DFC0083B000AF7860072318460C37BD4680BCB3
:107E0C00704780B582B000AF786039607B683968A4
:107E1C001846FFF7B5FE7B689B6919463868FDF775
:107E2C00D3F87B68DB6919463868FDF7CDF87B68B9
:107E3C001B6A19463868FDF7C7F87B685B6A1946F8
:107E4C003868FDF7C1F87B689B6A19463868FDF7FE
:107E5C00BBF800BF0837BD4680BD80B582B000AF0F
:107E6C00786039607B6839681846FFF793FE7B6849
:107E7C00183319463868FDF7B8F87B681C33194677
:107E8C003868FDF7B2F87B68203319463868FDF77F
:107E9C00ACF87B68243319463868FDF7A6F87B6884
:107EAC00283319463868FDF7A0F800BF0837BD46DF
:107EBC0080BD000080B582B000AF786039603B684F
:107ECC00062B26D801A252F823F000BFF57E00083D
:107EDC00FB7E0008017F0008077F00080D7F00086B
:107EEC00137F0008197F00087B689B6918E07B688A
:107EFC00DB6915E07B681B6A12E07B685B6A0FE04C
:107F0C007B681B690CE07B685B6909E07B689B6A9A
:107F1C0006E07B6839681846FFF746FE034600BF4B
:107F2C0018460837BD4680BD80B584B000AFF860F8
:107F3C00B9607A60BB68062B2ED801A252F823F0E8
:107F4C00697F0008717F0008797F0008817F000835
:107F5C00917F00089B7F0008897F0008FB687A6886
:107F6C009A6121E0FB687A68DA611DE0FB687A6847
:107F7C001A6219E0FB687A685A6215E0FB687A6845
:107F8C009A6211E0FB687A681A6100230DE0FB68C5
:107F9C007A685A61002308E0FB687A68B968184669
:107FAC00FFF70DFE034600E0012318461037BD46CF
:107FBC0080BD00BF80B483B000AF78607B68002BBD
:107FCC00B8BF5B4218460C37BD4680BC704780B4C6
:107FDC0085B000AF786039607B681B6B3A68D31A48
:107FEC00FB607B683A681A63FB6818461437BD4619
:107FFC0080BC704780B483B000AF78601323184600
:10800C000C37BD4680BC704780B582B000AF78603D
:10801C0039607B6839681846FFF7F3FE7B685B6B49
:10802C0019463868FCF7D0FF7B689B6B194638689B
:10803C00FCF7CAFF7B68DB6B19463868FCF7C4FF9A
:10804C007B681B6C19463868FCF7BEFF7B685B6C61
:10805C0019463868FCF7B8FF7B689B6C1946386882
:10806C00FCF7B2FF7B68DB6C19463868FCF7ACFF99
:10807C007B681B6D19463868FCF7A6FF00BF0837F4
:10808C00BD4680BD80B582B000AF786039607B683A
:10809C0039681846FFF7E1FE7B68343319463868B7
:1080AC00FCF7A3FF7B68383319463868FCF79DFF53
:1080BC007B683C3319463868FCF797FF7B68403384
:1080CC0019463868FCF791FF7B68443319463868C9
:1080DC00FCF78BFF7B68483319463868FCF785FF43
:1080EC007B684C3319463868FCF77FFF7B6850334C
:1080FC0019463868FCF779FF00BF0837BD4680BDCC
:10810C0080B582B000AF786039603B680A3B082BC1
:10811C002FD801A252F823F0498100084F810008A2
:10812C00558100085B8100086181000867810008A7
:10813C006D81000873810008798100087B685B6B96
:10814C001EE07B689B6B1BE07B68DB6B18E07B683D
:10815C001B6C15E07B68DB6A12E07B685B6C0FE0E4
:10816C007B689B6C0CE07B68DB6C09E07B681B6DAF
:10817C0006E07B6839681846FFF79CFE034600BF93
:10818C0018460837BD4680BD80B584B000AFF86096
:10819C00B9607A60BB680A3B082B3AD801A252F846
:1081AC0023F000BFD5810008DD810008E5810008BF
:1081BC00ED810008F5810008FF81000807820008A6
:1081CC000F82000817820008FB687A685A6328E05F
:1081DC00FB687A689A6324E0FB687A68DA6320E0CB
:1081EC00FB687A681A641CE0FB687A68DA62002320
:1081FC0018E0FB687A685A6413E0FB687A689A6442
:10820C000FE0FB687A68DA640BE0FB687A681A6541
:10821C0007E0FB687A68B9681846FFF785FE0346E5
:10822C0000E0012318461037BD4680BD80B586B0EE
:10823C0000AF786039607B6839681846FFF7ACFD91
:10824C00786179697868FFF7C2FE38617869FFF761
:10825C00B1FEF8607B689B6BFA689A4203DD7B6821
:10826C000022DA6212E07B685B6BFA689A420DDDE1
:10827C007B68586C7B68DA6A7B69D1187B689B6C6D
:10828C001A46FCF76AFE02467B68DA627B681B6A58
:10829C007A6902FB03F27B685B6A1A417B68DB6AD2
:1082AC007968C96B01FB03F17B681B6C41FA03F322
:1082BC001A447B68DB6C396901FB03F17B681B6D2D
:1082CC0041FA03F31A447B685A617B6898697B68AE
:1082DC0059697B68DB691A46FCF73FFE02467B68EE
:1082EC005A617B685B6918461837BD4680BD80B4FF
:1082FC0083B000AF78600D2318460C37BD4680BCA8
:10830C00704790B589B000AFF860B9607A60FB68CF
:10831C001A69BB68D31AFB61FB689B69BA68D31AEC
:10832C00BB61BB6903FB03F4B869FFF743FE02466C
:10833C001346DB009B1A23447B61FB68DB6BFA69F9
:10834C009A4205DDFB68DB6BFA69D31AFB610DE021
:10835C00FB68DB6B5B42FA699A4205DAFB68DB6B04
:10836C00FA691344FB6101E00023FB61FB68DB69E4
:10837C00002B1DD0FB68DB695A1EFB68DA61FB68B9
:10838C009B6BFA6902FB03F35A11FB685A61FB6899
:10839C00DB69002B73D1F869FFF70CFE0346312B18
:1083AC00D4BF01230023DAB2FB6883F8202066E0F7
:1083BC00FB6893F82030002B1DD07868FFF7FAFD8E
:1083CC000346022BCCBF01230023DBB2002B09D0C8
:1083DC007B685B42FA68526C02FB03F31A11FB6870
:1083EC005A614CE0FB681B6BFA6902FB03F35A11F0
:1083FC00FB685A6143E0FB685B6A002B08D1F869A3
:10840C00FFF7D8FD02467B69934201DB012300E0B4
:10841C000023002B06D0F86900F0A6F903465A4257
:10842C00FB685A62FB685B6A002B1ED0FB685B6AB8
:10843C00FA68526B02FB03F2FB685A61FB689B699A
:10844C00BA689A4207D0B86900F08EF90246FB6808
:10845C005B6A9A4201D1012300E00023002B0ED06D
:10846C00FB68012283F8202009E0F86900F07CF910
:10847C000246FB685B6B03FB02F2FB685A61FB680C
:10848C00986AFB685969FB68DB6A1A46FCF765FD5C
:10849C000246FB685A61FB685B6918462437BD4687
:1084AC0090BD80B483B000AF786039607B681B6985
:1084BC003A689A420DD07B683A681A617B680C2244
:1084CC00DA617B68002283F820207B6800225A62E4
:1084DC0002E07B683A681A6100BF0C37BD4680BC6D
:1084EC00704780B582B000AF786039607B683968BE
:1084FC001846FFF745FB7B689B6A19463868FCF702
:10850C0063FD7B68DB6A19463868FCF75DFD7B68A8
:10851C001B6B19463868FCF757FD7B685B6B19467B
:10852C003868FCF751FD7B689B6B19463868FCF783
:10853C004BFD7B68DB6B19463868FCF745FD7B68A7
:10854C001B6C19463868FCF73FFD7B685B6C194661
:10855C003868FCF739FD7B689B6C19463868FCF76A
:10856C0033FD7B68DB6C19463868FCF72DFD00BFCA
:10857C000837BD4680BD80B582B000AF78603960E9
:10858C007B6839681846FFF705FB7B68283319466A
:10859C003868FCF72AFD7B682C3319463868FCF7E1
:1085AC0024FD7B68303319463868FCF71EFD7B6868
:1085BC00343319463868FCF718FD7B683833194694
:1085CC003868FCF712FD7B683C3319463868FCF7B9
:1085DC000CFD7B68403319463868FCF706FD7B6858
:1085EC00443319463868FCF700FD7B68483319465C
:1085FC003868FCF7FAFC7B684C3319463868FCF792
:10860C00F4FC00BF0837BD4680BD000080B483B0C9
:10861C0000AF786039603B680C2B41D801A252F84E
:10862C0023F000BF658600086B8600087186000881
:10863C00AD860008778600087D86000883860008D2
:10864C00898600088F860008958600089B8600089E
:10865C00A1860008A78600087B689B6A21E07B68DE
:10866C00DB6A1EE07B681B6B1BE07B681B6918E0F8
:10867C007B685B6915E07B685B6B12E07B68DB6B8E
:10868C000FE07B681B6C0CE07B685B6C09E07B6823
:10869C009B6C06E07B68DB6C03E07B689B6B00E00B
:1086AC00002318460C37BD4680BC704780B485B09B
:1086BC0000AFF860B9607A60BB680C2B4ED801A291
:1086CC0052F823F0058700080D870008158700086D
:1086DC00698700081D870008278700083187000874
:1086EC00398700084187000849870008518700082E
:1086FC005987000861870008FB687A689A622DE048
:10870C00FB687A68DA6229E0FB687A681A6325E00C
:10871C00FB687A681A61002321E0FB687A685A6169
:10872C0000231CE0FB687A685A6317E0FB687A68E0
:10873C00DA6313E0FB687A681A640FE0FB687A6806
:10874C005A640BE0FB687A689A6407E0FB687A6805
:10875C00DA6403E0FB687A689A6300BF0123184669
:10876C001437BD4680BC704780B483B000AF7860CE
:10877C007B68002B07DC7B68002B02DA4FF0FF33A1
:10878C0002E0002300E0012318460C37BD4680BCF4
:10879C00704780B483B000AF7860032318460C3761
:1087AC00BD4680BC7047000080B584B000AFF86057
:1087BC00B9607A60FB687A68B9681846FCF718FAF1
:1087CC000C4AFB681A60FB6800221A61FB680022E5
:1087DC005A61FB6800229A61FB680022DA61FB682F
:1087EC0000221A62FB6812225A62FB681846103784
:1087FC00BD4680BD8093000880B483B000AF786024
:10880C0039607B681B695A1C7B681A617B681A6922
:10881C007B685B6A9A4218DB7B685B693A68D21AA0
:10882C007B689A617B683A685A617B689A697B6855
:10883C001B6AD21A7B68DA617B689A697B681A6258
:10884C007B6800221A61012300E0002318460C37D4
:10885C00BD4680BC704780B582B000AF786039608F
:10886C007B6839681846FFF78BF97B685B6A194699
:10887C003868FCF7A9FB00BF0837BD4680BD80B542
:10888C0082B000AF786039607B6839681846FFF7B2
:10889C0081F97B68243319463868FCF7A6FB00BFC6
:1088AC000837BD4680BD80B483B000AF78603960B6
:1088BC003B68022B0FD03B68022B0FDC3B68002B74
:1088CC0003D03B68012B03D008E07B685B6A06E0B1
:1088DC007B689B6903E07B68DB6900E0002318463A
:1088EC000C37BD4680BC704780B485B000AFF860D3
:1088FC00B9607A60BB68022B0FD0BB68022B14DC0A
:10890C00BB68002B03D0BB68012B0BD00DE0FB68C0
:10891C007A685A6200BF012308E0FB687A68DA6162
:10892C00002303E0FB687A689A6100231846143729
:10893C00BD4680BC704780B483B000AF78607B6864
:10894C00002283F8382300BF0C37BD4680BC70472B
:10895C0080B483B000AF03463960FB7197F90730E0
:10896C00002B0CDA3B68DAB20C4997F9073003F0AC
:10897C000F03043B1201D2B20B441A7609E03B6898
:10898C00DAB2074997F907301201D2B20B4483F8D7
:10899C00002300BF0C37BD4680BC704700ED00E0E3
:1089AC0000E100E080B582B000AF78607B68013BED
:1089BC00B3F1807F01D301230FE00A4A7B68013BAE
:1089CC0053600F214FF0FF30FFF7C2FF054B002221
:1089DC009A60044B07221A60002318460837BD46DC
:1089EC0080BD00BF10E000E080B582B000AF7860C1
:1089FC003960064B1A68054B1B681B681C331B68D7
:108A0C001046984700BF0837BD4680BDE4050020DE
:108A1C0080B582B000AF786079680020FFF7E4FF82
:108A2C000837BD4680BD000080B483B000AF7860CD
:108A3C00024B18460C37BD4680BC70471D8A000897
:108A4C0080B582B000AF62B600BF2F4B1B682F4AB7
:108A5C00A2FB03239B091846FFF7A4FF01210D205D
:108A6C00FBF7CAF901210120FBF7A8F94FF40040EC
:108A7C00FBF7D0F84FF49670FEF734FE24492548E6
:108A8C0000F05AF8034604332349184600F054F812
:108A9C00786079682148FDF7A6FC786079682048F1
:108AAC00FDF766FD786079681E48FDF70DFF78606C
:108ABC001D48FDF7A3F91D48FDF7EAFA1C48FEF71F
:108ACC0067FA1348FCF7FCF81A48FDF735FB124817
