:020000040800F2
:100000000000022035690008F9650008FF65000856
:10001000056600080B660008116600080000000075
:10002000000000000000000000000000176600084B
:1000300025660008000000003366000841660008DD
:1000400085690008856900088569000885690008D8
:1000500085690008856900088569000885690008C8
:1000600085690008856900088569000885690008B8
:1000700085690008856900088569000885690008A8
:100080008569000885690008856900088569000898
:100090008569000885690008856900088569000888
:1000A0008569000885690008856900088569000878
:1000B0008569000885690008856900088569000868
:1000C0008569000885690008856900085D66000883
:1000D0006B66000855100008C90A010819100008CD
:1000E000856900088569000800000000856900082E
:1000F0008569000885690008856900088569000828
:100100008569000885690008856900088569000817
:10011000F10F00082D1000088569000885690008A6
:1001200085690008856900088569000885690008F7
:1001300085690008856900088569000885690008E7
:1001400000000000000000000000000000000000AF
:10015000856900088569000885690008450101086E
:1001600085690008856900088569000885690008B7
:10017000856900088569000885690008000000009D
:10018000856900088569000805100008411000080D
:100190008569000885690008856900088569000887
:1001A0008569000885690008856900088569000877
:1001B0008569000885690008856900088569000867
:1001C0008569000885690008856900088569000857
:1001D0008569000879660008856900088569000856
:1001E0008569000885690008856900088569000837
:1001F0008569000885690008856900088569000827
:100200008569000885690008856900088569000816
:1002100085690008856900088D6600088569000801
:1002200085690008856900088569000800000000EC
:1002300085690008856900080000000085690008DC
:1002400085690008856900088569000885690008D6
:1002500085690008856900088569000885690008C6
:1002600085690008856900088569000885690008B6
:10027000856900088569000885690008000000009C
:10028000856900088569000885690008000000008C
:08029000000000008569000870
:1002A00010B5054C237833B9044B13B10448AFF3B0
:1002B00000800123237010BD2002002400000000F4
:1002C000E039020808B5034B1BB103490348AFF3FB
:1002D000008008BD0000000024020024E03902086C
:1002E00001F0FF01102A2BDB10F0070F08D010F8E7
:1002F000013B013A8B422DD010F0070F42B3F6D1EB
:10030000F0B441EA012141EA014122F007047FF003
:1003100000070023F0E80256083C85EA010586EA5A
:10032000010685FA47F5A3FA87F586FA47F6A5FA96
:1003300087F68EB9EED1F0BC01F0FF0102F00702A2
:1003400032B110F8013B013A83EA010313B1F8D14D
:100350000020704701387047002D06BF354603382E
:10036000073815F0010F07D1013015F4807F02BF67
:10037000013015F4C03F0130F0BC0138704700BFB8
:1003800081F0004102E000BF83F0004330B54FEA46
:1003900041044FEA430594EA050F08BF90EA020FB3
:1003A0001FBF54EA000C55EA020C7FEA645C7FEA46
:1003B000655C00F0E2804FEA5454D4EB5555B8BF69
:1003C0006D420CDD2C4480EA020281EA030382EADA
:1003D000000083EA010180EA020281EA0303362D6C
:1003E00088BF30BD11F0004F4FEA01314FF4801C3F
:1003F0004CEA113102D0404261EB410113F0004F51
:100400004FEA03334CEA133302D0524263EB430307
:1004100094EA050F00F0A780A4F10104D5F1200EA5
:100420000DDB02FA0EFC22FA05F2801841F1000100
:1004300003FA0EF2801843FA05F359410EE0A5F1D4
:1004400020050EF1200E012A03FA0EFC28BF4CF005
:10045000020C43FA05F3C01851EBE37101F00045BB
:1004600007D54FF0000EDCF1000C7EEB00006EEBC8
:100470000101B1F5801F1BD3B1F5001F0CD3490852
:100480005FEA30004FEA3C0C04F101044FEA4452A9
:1004900012F5800F80F09A80BCF1004F08BF5FEA30
:1004A000500C50F1000041EB045141EA050130BD10
:1004B0005FEA4C0C404141EB0101013C28BFB1F522
:1004C000801FE9D291F0000F04BF01460020B1FA6D
:1004D00081F308BF2033A3F10B03B3F120020CDA40
:1004E0000C3208DD02F1140CC2F10C0201FA0CF01E
:1004F00021FA02F10CE002F11402D8BFC2F1200C83
:1005000001FA02F120FA0CFCDCBF41EA0C01904038
:10051000E41AA2BF01EB0451294330BD6FEA040481
:100520001F3C1CDA0C340EDC04F11404C4F120026C
:1005300020FA04F001FA02F340EA030021FA04F37E
:1005400045EA030130BDC4F10C04C4F1200220FAD5
:1005500002F001FA04F340EA0300294630BD21FA13
:1005600004F0294630BD94F0000F83F4801306BFD9
:1005700081F480110134013D4EE77FEA645C18BFCD
:100580007FEA655C29D094EA050F08BF90EA020F64
:1005900005D054EA000C04BF1946104630BD91EA5C
:1005A000030F1EBF0021002030BD5FEA545C05D15F
:1005B0004000494128BF41F0004130BD14F580049E
:1005C0003CBF01F5801130BD01F0004545F0FE4112
:1005D00041F470014FF0000030BD7FEA645C1ABF47
:1005E000194610467FEA655C1CBF0B46024650EA7E
:1005F000013406BF52EA033591EA030F41F40021AA
:1006000030BD00BF90F0000F04BF0021704730B52F
:100610004FF4806404F132044FF000054FF0000104
:1006200050E700BF90F0000F04BF0021704730B5C5
:100630004FF4806404F1320410F0004548BF40429A
:100640004FF000013EE700BF42004FEAE2014FEAEF
:1006500031014FEA02701FBF12F07F4393F07F4FCA
:1006600081F06051704732F07F4208BF704793F0CD
:100670007F4F04BF41F40021704730B54FF46074E0
:1006800001F0004521F000411CE700BF50EA0102E3
:1006900008BF704730B54FF000050AE050EA01028C
:1006A00008BF704730B511F0004502D5404261EBFC
:1006B00041014FF4806404F132045FEA915C3FF43D
:1006C000D8AE4FF003025FEADC0C18BF03325FEADA
:1006D000DC0C18BF033202EBDC02C2F1200300FA8B
:1006E00003FC20FA02F001FA03FE40EA0E0021FAB0
:1006F00002F11444BDE600BF53B94AB9002908BF4E
:1007000000281CBF4FF0FF314FF0FF3000F06EB9F2
:10071000ADF1080C6DE904CE00F006F8DDF804E058
:10072000DDE9022304B070472DE9F047089D044637
:100730008C46002B40F083808A42174647D9B2FA94
:1007400082F242B1C2F1200024FA00F091409740B9
:1007500040EA010C94404FEA1748230CBCFBF8F622
:100760001FFA87FE08FB16C143EA014306FB0EF1A0
:10077000994209D9FB1806F1FF3080F0198199429E
:1007800040F21681023E3B445B1AA4B2B3FBF8F080
:1007900008FB103344EA034400FB0EFEA64509D9CA
:1007A0003C1900F1FF3380F00581A64540F202813B
:1007B00002383C4440EA0640A4EB0E0400261DB17A
:1007C000D4400023C5E900433146BDE8F08702B9B3
:1007D000FFDEB2FA82F2002A50D1CB1B4FEA174E4D
:1007E0001FFA87F80126B3FBFEFC210C0EFB1C331D
:1007F00041EA034108FB0CF38B4207D979180CF14D
:10080000FF3002D28B4200F2E9808446C91AA3B2BB
:10081000B1FBFEF00EFB101143EA014408FB00F8A7
:10082000A04507D93C1900F1FF3302D2A04500F2E0
:10083000D9801846A4EB080440EA0C40BFE78B427D
:1008400009D9002D00F0B1800026C5E9000130462D
:100850003146BDE8F087B3FA83F6002E4AD18B42C9
:1008600002D3824200F2B880841A61EB03010120B6
:100870008C46002DA8D0C5E9004CA5E7C2F12003A5
:1008800020FA03F6974001FA02F04FEA174ED940DA
:100890003043030CB1FBFEF61FFA87F80EFB16116E
:1008A00043EA014306FB08F1994204FA02F409D92C
:1008B000FB1806F1FF3C80F08D80994240F28A805F
:1008C000023E3B445B1A81B2B3FBFEF00EFB1033D9
:1008D00041EA034100FB08F38B4207D9791800F184
:1008E000FF3C73D28B4271D902383944CB1A40EAAB
:1008F000064678E7C6F1200C03FA06F422FA0CF358
:100900001C4320FA0CF701FA06F34FEA144E21FAC1
:100910000CF11F433B0CB1FBFEF91FFA84F80EFBF0
:10092000191143EA014109FB08FA8A4502FA06F265
:1009300000FA06F308D9611809F1FF3048D28A4558
:1009400046D9A9F102092144A1EB0A01BFB2B1FBCA
:10095000FEF00EFB101147EA014700FB08F8B8450E
:1009600007D9E71900F1FF312ED2B8452CD902384A
:10097000274440EA0940A7EB0807A0FB02894F453E
:10098000C64649461AD317D05DB1B3EB0E0267EBEA
:10099000010707FA0CFCF2404CEA0202F740C5E9F5
:1009A000002700263146BDE8F0872E4628460BE793
:1009B0000646E9E61846FDE64345E5D2B8EB020EE9
:1009C00069EB04010138DFE70846D2E760468DE7AE
:1009D0008146B9E7664675E730464AE7ACF1020C56
:1009E000394413E702383C4424E700BF704700BF96
:1009F00080B582B000AF7860786800F005F87B6859
:100A000018460837BD4680BD80B485B000AF786019
:100A10007A6842F21003134400221A607A6842F2A4
:100A2000100313441A68796842F214030B441A60E5
:100A30000023FB60FB68032B08DC7B68FA6800215D
:100A400043F82210FB680133FB60F3E700BF143763
:100A5000BD465DF8047B704780B582B000AF78601A
:100A600039607B68012B07D13B684FF6FF729342D8
:100A700002D10348FFF7BCFF00BF0837BD4680BD69
:100A80003C02002480B500AF4FF6FF710120FFF754
:100A9000E3FF80BD80B483B000AF786039607B68CD
:100AA0005B683A6813443B607B681A687B689B68A4
:100AB0003968994204DB7B689B683968CB1A00E08F
:100AC0003B6813441B7818460C37BD465DF8047B21
:100AD000704780B582B000AF786000217868FFF77A
:100AE000D9FF034618460837BD4680BD80B483B0A1
:100AF00000AF7860044A7B681A607B6818460C3740
:100B0000BD465DF8047B7047743A020880B582B038
:100B100000AF78607868FFF7E9FF042178681FF07C
:100B2000B3FC7B6818460837BD4680BD80B483B0EF
:100B300000AF78607B6815221A6000BF0C37BD4695
:100B40005DF8047B704780B485B000AFF860B96091
:100B50007A60FB68BA68DA60FB687A681A61FB68D9
:100B600000225A6100BF1437BD465DF8047B704710
:100B700080B586B002AFF860B9607A603B603B68D0
:100B800000937B68BA680449F86802F0E8F900BF8E
:100B90001037BD4680BD00BF844A020880B586B0CC
:100BA00002AFF860B9607A603B603B6800937B6895
:100BB000BA680449F86802F0D2F900BF1037BD46A0
:100BC00080BD00BF803A020880B483B000AF786077
:100BD0007B681B68002B0CBF01230023DBB2184687
:100BE0000C37BD465DF8047B704780B483B000AF1E
:100BF00078607B681B68012B03D07B681B68022B25
:100C000001D1012300E0002318460C37BD465DF8F2
:100C1000047B704780B483B000AF78607B685B680A
:100C200018460C37BD465DF8047B704780B483B02E
:100C300000AF78607B689B6818460C37BD465DF84E
:100C4000047B704780B483B000AF786039607A6805
:100C50003B6802339B0013445B6818460C37BD4663
:100C60005DF8047B704780B483B000AF78607B6828
:100C70001B6918460C37BD465DF8047B704780B48D
:100C800083B000AF78607B689B6818460C37BD4620
:100C90005DF8047B704780B483B000AF78607B68F8
:100CA000DB6818460C37BD465DF8047B704780B49E
:100CB00083B000AF78607B681B6918460C37BD466F
:100CC0005DF8047B704780B584B000AFF860B96010
:100CD0007A603B60FB681B69002B36DB3B68B3F135
:100CE000FF3F32D03B68002B03D1FB6800221A6122
:100CF0002CE03B68012B03D1FB6801221A6125E03F
:100D00003B68022B05D17A68B968F86800F021F8D1
:100D10001CE03B68032B05D17A68B968F86800F0DD
:100D200034F813E03B68042B05D17A68B968F86899
:100D300000F048F80AE03B68052B07D16FF000424D
:100D40000021F86800F03EF800E000BF1037BD4613
:100D500080BD80B485B000AFF860B9607A60FB6890
:100D60001B69002B0BDBFB68BA685A61FB687A6869
:100D70009A61FB680022DA61FB6802221A6100BFF7
:100D80001437BD465DF8047B704780B485B000AF72
:100D9000F860B9607A60FB681B69002B0CDBFB68AC
:100DA000BA685A61FB687A689A61FB689A68FB685E
:100DB000DA61FB6802221A6100BF1437BD465DF894
:100DC000047B704780B485B000AFF860B9607A608A
:100DD000FB681B69002B08DBFB68BA685A61FB687B
:100DE0007A689A61FB6803221A6100BF1437BD4616
:100DF0005DF8047B704780B483B000AF78607B6897
:100E00001B69002B01DC00232FE07B681B69012B91
:100E100001DC012329E07B681B69022B15DC7B6860
:100E20001A687B685B699A4205DB7B681A687B6895
:100E30009B699A4205DD7B689A687B68DB699A4208
:100E400001DA012311E000230FE07B681A687B6858
:100E50005B699A4205DB7B681A687B689B699A42EA
:100E600001DD012300E0002300BF18460C37BD461A
:100E70005DF8047B704780B582B000AF78607B6816
:100E80001B69012B02DC7B681B6909E07868FFF7AE
:100E9000B2FF0346002B01D0012300E0042300BF72
:100EA00018460837BD4680BD80B483B000AF786077
:100EB0007B6803F5C05318460C37BD465DF8047BCC
:100EC0007047000080B483B000AF786039607A6802
:100ED000054B13443A685201134418460C37BD467B
:100EE0005DF8047B704700BFA4AE010080B483B0FE
:100EF00000AF78607A6842F60403134418460C3752
:100F0000BD465DF8047B704780B483B000AF786065
:100F1000044B1A687B68134418460C37BD465DF8CD
:100F2000047B7047C872022480B483B000AF78603D
:100F3000064B1A687B68D31ADB43DB0FDBB218461B
:100F40000C37BD465DF8047B704700BFC8720224B1
:100F500080B483B000AF78607B681B6C9BB218468E
:100F60000C37BD465DF8047B704780B483B000AF9A
:100F700078607B689A6A7B685B6A9A42B4BF012397
:100F80000023DBB218460C37BD465DF8047B704782
:100F900080B483B000AF78607B681B6818460C375C
:100FA000BD465DF8047B704780B483B000AF7860C5
:100FB0007B685B6818460C37BD465DF8047B70475C
:100FC00080B483B000AF78607B689B6818460C37AC
:100FD000BD465DF8047B704780B400AF034B1B68CF
:100FE0001846BD465DF8047B704700BF8456022456
:100FF00080B500AF024811F09CF800BF80BD00BF73
:1010000044E3012480B500AF024811F092F800BF1C
:1010100080BD00BFFCE5012480B500AF024811F09F
:1010200088F800BF80BD00BFB4E8012480B500AFE0
:10103000024811F07EF800BF80BD00BF6CEB0124B8
:1010400080B500AF024811F074F800BF80BD00BF4A
:1010500024EE012480B500AF024811F09FFE00BFCE
:1010600080BD00BFDCF0012480B500AF034811F063
:101070006FFE00F02BF800BF80BD00BFDCF0012444
:1010800080B500AF0548FFF70FFF02464FF48053CD
:10109000FF21034813F089FF00BF80BDA423002473
:1010A000FC57022480B500AF0648FFF7FDFE02465C
:1010B0004FF480534FF47F21034813F050FF00BFDB
:1010C00080BD00BFA4230024FC57022480B588B053
:1010D00000AF604B604A1A600023FB61FB69042B80
:1010E0000ADC5E4AFB6952F82330184610F020FFF4
:1010F000FB690133FB61F1E7594819F073FC58486B
:1011000019F096FCFFF7CEFF4FF40063554A00211B
:10111000554813F024FF3B1D5249184612F0C2FCFB
:101120003B1D1946514801F02DFD514B00221A601C
:101130004F4B1B684F4A13600023BB61BB69272BD1
:1011400066DCBB694FF41C7202FB03F30833474AA9
:10115000134404331846FFF75DFD386104223969F2
:10116000002001F0C7FB0346002B4DD0BB694FF4B4
:101170001C7202FB03F308333C4A13440433184641
:10118000FFF722FD034683F00103DBB2002B3BD0C7
:10119000324A3B6952F82320BB694FF41C7101FBB2
:1011A00003F335490B441946104610F00AFFBB699A
:1011B0004FF41C7202FB03F32F4A1A442D4B1B6899
:1011C000591C2C4801602D4941F82320BB694FF47C
:1011D0001C7202FB03F30833244A134404331846F9
:1011E000FFF703FD0346002B0ED0BB694FF41C72C2
:1011F00002FB03F3204A1A441D4B1B68591C1C4870
:1012000001601F4941F82320BB690133BB6195E7A9
:1012100000F03AF800237B61154B1B687A699A420B
:101220000ADA174A7B6952F82330184601F01AFE91
:101230007B6901337B61EFE71248FFF7E5FB002094
:1012400000F08EF83B1D184601F038FC00BF203737
:10125000BD4680BD3CE30124E114000800000024E9
:10126000A42300243CD30124FC570224E0F00124F1
:101270009823002494230024ECF001245422002419
:10128000F42200243C02002480B582B000AF002389
:101290007B607B68272B12DC7B684FF41C7202FB9F
:1012A00003F30833084A1344181D0023002247F6AD
:1012B000FF71FFF75DFC7B6801337B60E9E700BFEE
:1012C0000837BD4680BD00BFE0F0012480B582B084
:1012D00000AF00F01DF800237B607B68272B11DC3A
:1012E0007B684FF41C7202FB03F30833074A134474
:1012F000181D002332220021FFF73AFC7B680133DE
:101300007B60EAE700BF0837BD4680BDE0F00124FE
:1013100080B582B000AF00237B600D4B1B687A68FC
:101320009A420ADA0B4A7B6852F82330184602F0D8
:1013300093F87B6801337B60EFE7074819F052FBB5
:10134000064B41221A6000BF0837BD4680BD00BF72
:1013500098230024F4220024A4230024A0230024A2
:1013600090B583B000AF78607B68B3F1FF3F74D075
:101370007B68B3F1FF3F37DB7B68452B34DC7B6850
:10138000412B31DB7B68413B042B2DD801A252F865
:1013900023F000BFA9130008AF130008B913000819
:1013A000C3130008D5130008FFF7B2FF56E0012170
:1013B0002C4819F073FB51E000212A4819F06EFB0C
:1013C0004CE0284A284B13444FF0FF321A60FFF7D5
:1013D0007DFF43E0234A244B134400221A60FFF7A9
:1013E00097FFFFF751FF39E07B68002B36DB7B6806
:1013F0003F2B33DC1D4A7B681360FFF789FF1C4AD3
:101400007B6803F63143DB0013449B68002B25DD2A
:10141000174A7B6803F63143DB0013449B68154A87
:1014200093421BDC124A7B6803F63143DB00134412
:101430005C680C48FFF75AFD02460D497B6803F6CD
:101440003143DB000B449B6821460B4813F087FDBA
:101450000121044819F022FB00E000BF00BF0C3757
:10146000BD4690BDA42300245CAF0100A02300244E
:10147000E0F001249F860100FC57022480B582B071
:1014800000AF786039603B68002B06DD3A680021C8
:10149000044819F083FE034600E00023184608378D
:1014A000BD4680BDA423002480B582B000AF786023
:1014B00079680020FFF7E2FF034618460837BD466B
:1014C00080BD000080B483B000AF7860034B184645
:1014D0000C37BD465DF8047B704700BFA9140008B7
:1014E00080B584B000AF0023FB60FB68042B0ADCEE
:1014F000204AFB6852F82330184610F07AFDFB684A
:101500000133FB60F1E70023BB601B4B1B68BA682B
:101510009A420ADA194ABB6852F82330184601F099
:10152000A1FCBB680133BB60EFE70121144816F052
:1015300017FD134A134B13441B68002B0CDB104A96
:10154000104B13441B681846FFF70AFF0C4A0D4B5B
:1015500013444FF0FF321A603B1D1846FFF7B2FFED
:1015600003461946084801F0DCF900BF1037BD46B4
:1015700080BD00BF0000002498230024F422002432
:10158000A423002428AF01003C02002480B485B0CD
:1015900000AF786039600023FB60FB68272B11DC0B
:1015A000FB684FF41C7202FB03F30C4A13447A6885
:1015B0009A4203D10A4AFB68136003E0FB680133D7
:1015C000FB60EAE7074A3B681360074B074A1A606B
:1015D00000BF1437BD465DF8047B7047ECF0012472
:1015E00038D3012434D301243CE30124911A0008A8
:1015F00080B586B000AF786000237B617B69042BE7
:101600000ADC204A7B6952F82330184610F0F1FCBE
:101610007B6901337B61F1E77868FFF775FC7860DF
:101620007868FFF781FC034683F00103DBB2002BEF
:1016300023D00123FB740023FB60FB68042B14DC24
:10164000FB7C83F00103DBB2002B0ED10D4AFB685B
:1016500052F823301846FFF788FC034683F0010355
:10166000FB74FB680133FB60E7E7FB7C002B03D1D5
:10167000012012F0B5F9D3E700BF00BF1837BD460F
:1016800080BD00BF0000002480B584B000AF78604A
:1016900039600023FB600C4B1B68FA689A420CDA35
:1016A0000A4AFB6852F823303A6879681846FFF70F
:1016B0004AFAFB680133FB60EDE70420FFF798FF6F
:1016C00000BF1037BD4680BD94230024542200245F
:1016D00080B590B000AF0023FB63FB6B092B36DCB9
:1016E00000210020FFF7D0FF012387F83B300023C3
:1016F0007B63994B1B687A6B9A421CDA97F83B30F4
:1017000083F00103DBB2002B15D1944A7B6B52F8B6
:10171000233002211846FFF795FA03469BB240F2A8
:10172000947293420CBF0123002387F83B307B6BFC
:1017300001337B63DDE797F83B30002B06D10A20AD
:1017400012F04EF9FB6B0133FB63C6E700BFFB6B86
:10175000092B26DD00233B637F4B1B683A6B9A42C3
:101760001FDA7E4A3B6B52F8233002211846FFF7FE
:1017700069FA03469BB240F29472934214BF01236C
:101780000023DBB2002B08D0744A3B6B52F82330A5
:1017900001211846FFF7FAFE6EE13B6B01333B6314
:1017A000DAE76F4B1B6801336D4A13600023FB635C
:1017B000FB6B012B3BDC00210E20FFF765FF40F6A1
:1017C000B83012F00DF900210020FFF75DFF012372
:1017D00087F82F300023BB625F4B1B68BA6A9A42BE
:1017E0001CDA97F82F3083F00103DBB2002B15D100
:1017F0005A4ABB6A52F8233002211846FFF722FAF0
:1018000003469BB240F2947293420CBF0123002323
:1018100087F82F30BB6A0133BB62DDE797F82F30C2
:10182000002B03D1FB6B0133FB63C1E700BFFB6BF4
:10183000012B26DD00237B62474B1B687A6A9A42A4
:101840001FDA464A7B6A52F8233002211846FFF716
:10185000F9F903469BB240F29472934214BF0123FC
:101860000023DBB2002B08D03C4A7B6A52F82330BD
:1018700002211846FFF78AFEFEE07B6A01337B6295
:10188000DAE7374B1B680133354A136000233B62AC
:101890003B6A042B0CDC334A3B6A52F8233044F693
:1018A0002061184610F07DFB3B6A01333B62EFE795
:1018B0002D4B1B682D4A82FB03121A44D211DB17F1
:1018C000D31AFB61FB69002B01DC0123FB61284B70
:1018D0001A68254B1B689A4280F2C480244B1B680F
:1018E0009B00BB602348FFF701FB7860BB687A6808
:1018F00013441B781946BB6801337A6813441B787C
:101900001B0241EA0302BB68023379680B441B786F
:101910001B041A43BB68033379680B441B781B060E
:1019200013433B60144B1B68BA681344BB6000232D
:10193000BB61094B1B68BA699A421FDA074ABB6947
:1019400052F823303A68B9681846FFF7FCF8BB69CB
:101950000133BB61EDE700BF94230024542200242F
:1019600030D30124000000242CD301240904028177
:1019700028D30124A423002424D301240023FB63BF
:10198000FB6B092B36DC4FF47A70FFF731FE012335
:10199000FB7500233B613A4B1B683A699A421EDA99
:1019A000384A3B6952F8233000211846FFF74AF9BC
:1019B0000346002B14BF01230023DBB2002B0AD007
:1019C000304A3B6952F823303A68B9681846FFF745
:1019D000BAF80023FB753B6901333B61DBE7FB7D14
:1019E000002B06D11E2011F0FBFFFB6B0133FB63C4
:1019F000C6E700BFFB6B092B23DD0023FB60204BF8
:101A00001B68FA689A421CDA1E4AFB6852F82330B7
:101A100000211846FFF716F90346002B14BF0123D7
:101A20000023DBB2002B08D0164AFB6852F82330A3
:101A3000B9681846FFF7AAFD1EE0FB680133FB609A
:101A4000DDE7114B1B6801330F4A13600E4B1A6818
:101A5000FB6992FBF3F302330C4A1360012011F08F
:101A6000BFFF34E700210A20FFF70EFEFFF72EFB31
:101A7000064B40F201121A604037BD4680BD00BFE0
:101A8000942300245422002428D3012430D3012499
:101A900080B400AF00BFBD465DF8047B7047000016
:101AA00080B586B000AF7860396000237B617B69C8
:101AB000072B60DC3A687B6942FA03F303F0010309
:101AC000002B54D07A687B6913443B613B694FF427
:101AD0001C7202FB03F30833294A134404331846EB
:101AE000FFF798F8F8600422F968002000F002FF80
:101AF0000346002B3BD03B694FF41C7202FB03F3FF
:101B000008331F4A134404331846FFF75DF80346B1
:101B100083F00103DBB2002B29D03B694FF41C7228
:101B200002FB03F30833164A134404331846FEF746
:101B3000FDFF144AFB6852F823203B694FF41C71E7
:101B400001FB03F310490B441946104610F039FA13
:101B50003B694FF41C7202FB03F30B4A1A440B4B14
:101B60001B68591C09480160094941F823207B6919
:101B700001337B619BE700BF1837BD4680BD00BFC6
:101B8000E0F0012400000024ECF001249423002460
:101B90005422002480B586B000AFF860B9607A6046
:101BA0003B6000237B617B69042B0ADC1C4A7B6958
:101BB00052F82330184610F0BBF97B6901337B6182
:101BC000F1E7184818F00EFF174B00221A60F96869
:101BD0000020FFF765FFB9680820FFF761FF79680B
:101BE0001020FFF75DFF39681820FFF759FF396AA9
:101BF0002020FFF755FF0D4B00221A600B4B1B688E
:101C00000B4A13600B4B00221A600A4B1B680A4AEE
:101C100013600A4B0A4A1A6000BF1837BD4680BDE0
:101C200000000024A42300249423002434D301249E
:101C300038D3012430D3012428D301243CE30124E8
:101C4000D116000890B5B1B002AF786039607868FD
:101C5000FEF73FFF0346413B352B00F2668401A2AD
:101C600052F823F003220008B5240008951E00084E
:101C70002B250008811E0008311E000801230008E2
:101C80002B2500083D1D00082B2500082B250008EA
:101C9000A5230008192400082B2500082B2500087F
:101CA000B12000082B25000835230008011F00087B
:101CB000411F0008AD220008852100082B250008DF
:101CC0002B2500082B2500082B2500082B250008B4
:101CD0002B2500082B2500082B2500082B250008A4
:101CE0002B2500082B2500082B2500082B25000894
:101CF0008D1D00082B2500082B2500082B2500082A
:101D00002B2500082B2500082B2500082B25000873
:101D10002B2500082B2500082B2500082B25000863
:101D20002B2500082B2500082B2500082B25000853
:101D30002B2500082B250008BF21000869213868E1
:101D40000DF01CF92022764938680DF0C1F8A52164
:101D500038680DF08BF8734B5B68194638680DF0E6
:101D600098F8704B9B68194638680DF092F8FFF7A9
:101D700033F90346194638680DF08BF801213868AD
:101D80000DF074F838680DF014F9D5E378680DF0AB
:101D900019FBC7F8B400D7F8B430634A12685A4048
:101DA000624B1340002B05D0D7F8B4205F4B134093
:101DB0005D4A1360D7F8B430C3F30B03C7F8B430EF
:101DC0000023C7F8B030D7F8B0301F2B11DC78688B
:101DD0000DF078FA0346D9B2D7F8B4305A1CC7F8D8
:101DE000B420534AD154D7F8B0300133C7F8B030DB
:101DF000E9E7D7F8B430C3F30B03002B08D14A4B03
:101E00001B6819134FF48053494A4A4813F0CDF820
:101E10004F2138680DF0B2F838680DF0CAF8424B1F
:101E20001B681B13FF2B40F08483FFF74FF980E3FF
:101E300078680DF0C7FAF8610023C7F8AC30D7F81E
:101E4000AC301F2B10DC78680DF03CFA0346D9B299
:101E5000374AD7F8AC3013440A461A70D7F8AC307A
:101E60000133C7F8AC30EAE73149F86911F054FBA7
:101E7000662138680DF082F838680DF09AF85BE357
:101E800011F02AFB652138680DF078F838680DF0FC
:101E900090F851E378680DF095FAB861BB69002BB2
:101EA00001D1FFF735FABB69002B21DBBB69224A60
:101EB00093421DDC2148FFF719F80246BB69134421
:101EC0007B610023C7F8A830D7F8A8301F2B0FDCA0
:101ED00078680DF0F7F90146D7F8A8307A6913440D
:101EE000CAB21A70D7F8A8300133C7F8A830EBE7A8
:101EF000732138680DF042F838680DF05AF81BE38A
:101F000078680DF0DFF97864786CFFF729FA7321AF
:101F100038680DF033F838680DF04BF80CE300BF6B
:101F20004C3A0208E0F001249C23002400F0FFFF5B
:101F30003CD30124FC5702247F860100A423002403
:101F400078680DF0BFF9034627221946002000F0FB
:101F500028FDF86678680DF026FA034640F6E84258
:101F60001946002000F01DFDB86678680DF01BFAD8
:101F7000034640F6E8421946002000F012FD78665C
:101F800078680DF01FFA386678680DF09BF9034603
:101F900003221946002000F004FDF86578680DF072
:101FA00011FA0346BC4A1946002000F0FAFCB86555
:101FB00078680DF007FA0346B74A1946002000F08A
:101FC000F0FC786578680DF07DF93865F96DB348F7
:101FD000FEF778FFF8643B6D7A6DB96DF86CFEF72B
:101FE00072FE7B6E002B05D03B6E7A6EF96CAB48AF
:101FF00018F0ECFDFB6E4FF41C7202FB03F3083388
:10200000A74A13440433BB64742138680CF0B6FF4C
:10201000F96E38680CF099FE0021B86CFEF712FEDC
:102020000346194638680CF021FF0121B86CFEF711
:1020300009FE0346194638680CF018FF0221B86CF7
:10204000FEF700FE0346194638680CF00FFFB86C27
:1020500001F02EFA0346194638680CF076FEB96E88
:1020600038680CF003FFBB6E002B06DDBA6E002152
:102070008A4819F093F8034600E0002319463868AF
:102080000CF007FFF96D38680CF05FFEFB6C1B6805
:10209000194638680CF0FDFEF86CFEF7ECFE0346BE
:1020A000194638680CF051FE38680CF082FF43E2A4
:1020B00078680DF007F9034604221946002000F065
:1020C00070FC7863774A7B6B52F823303B63502176
:1020D00038680CF053FF796B38680CF036FE3B6BB8
:1020E0004833184601F0ADFB0346194638680CF03A
:1020F0002CFE3B6B48331846FEF7C1FD03461946DC
:1021000038680CF022FE3B6B48331846FEF7C3FDDF
:102110000346194638680CF0A9FE3B6B4833184655
:10212000FEF7C5FD0346194638680CF0B2FE386864
:102130000CF03FFF78680DF0C5F8F862FB6A032BDE
:1021400040F3F98178680DF0BDF8B86278680DF059
:102150002AF97862FB6A042B07D13B6B48337A6A11
:10216000B96A184601F058FBE5E13B6B03F14804FE
:1021700078680DF027F903467A6AB96A204601F0BB
:1021800032FBD8E178680DF00EF9C7F88800D7F86F
:10219000880000F0E7F9C7F88400762138680CF071
:1021A000EDFED7F8881038680CF060FED7F8841080
:1021B00038680CF06EFE38680CF0FBFEBCE1786805
:1021C0000DF0F1F8C7F8900078680DF0FBF8C7F84B
:1021D0008C00D7F88C10D7F8900000F04BFA7621DD
:1021E00038680CF0CBFED7F8901038680CF03EFE43
:1021F000D7F88C1038680CF04CFE38680CF0D9FE1B
:102200009AE178680DF0CFF8F860612138680CF039
:10221000B5FEF96838680CF029FE234800F0DAFBB7
:102220000346194638680CF021FE0023C7F8A43095
:10223000D7F8A430032B2ADC0023C7F8A0301A48B3
:1022400000F0D7FB0246D7F8A0309342B4BF012379
:102250000023DBB2002B14D0FA68D7F8A430134463
:102260001A46D7F8A010104800F0CEFB03461946D6
:1022700038680CF0FBFDD7F8A0300133C7F8A03068
:10228000DDE7D7F8A4300133C7F8A430D0E73868C9
:102290000CF08FFE50E100BF9F860100A4230024B4
:1022A000E0F00124000000243C02002478680CF0D7
:1022B000C9FFC7F8800078680CF0C4FFF867786839
:1022C0000CF0C0FFB86778680CF0BCFF78677868DE
:1022D0000CF0B8FF386778680DF074F80346984A38
:1022E000136078680DF06EF80346964A13603B6FF2
:1022F00000937B6FBA6FF96FD7F88000FFF74AFC45
:10230000752138680CF03AFE8F4B1B681946386807
:102310000CF01BFD8D4B1B68194638680CF0B9FD9D
:102320008B4B1B68194638680CF0A0FD38680CF020
:1023300040FE01E178680CF085FF034687F84330E2
:10234000844B1B7897F843209A422BD0814A97F808
:10235000433013700023C7F89C30D7F89C30182BFB
:1023600020DC78680DF01FF8F863D7F89C304FF444
:102370001C7202FB03F30833774A13440433BB6334
:10238000B86BFEF732FC0346002B05D00023032276
:10239000F96BB86BFEF702FCD7F89C300133C7F835
:1023A0009C30DAE7722138680CF0E8FD0122002148
:1023B0006A4818F0F3FE0346194638680CF0C5FC6D
:1023C0000023C7F89830D7F89830182B20DCD7F8BE
:1023D00098304FF41C7202FB03F308335E4A134437
:1023E00004333B62386AFEF700FC0346002B04D03E
:1023F000386AFEF738FC034600E0002319463868C7
:102400000CF034FDD7F898300133C7F89830DAE78C
:1024100038680CF0CEFD8FE06D2138680CF0AEFD11
:102420004F4BB3F95430194638680CF01FFD4C4B34
:10243000B3F95630194638680CF018FD484BB3F91B
:102440005830194638680CF011FD454BB3F950313E
:10245000194638680CF00AFD414BB3F95231194660
:1024600038680CF003FD3E4BB3F954311946386817
:102470000CF0FCFC3A4BB3F94430194638680CF0C8
:10248000F5FC374BB3F94630194638680CF0EEFCD2
:10249000334BB3F94830194638680CF0E7FC304B41
:1024A000B3F94A30194638680CF0E0FC38680CF093
:1024B00080FD41E0622138680CF060FD01220021BE
:1024C000264818F06BFE0346194638680CF03DFCB0
:1024D0000023C7F89430D7F89430182B21DCD7F8B4
:1024E00094304FF41C7202FB03F308331A4A13446E
:1024F00004333B613869FEF778FB0346002B05D0B7
:1025000002213869FEF79EFB034600E000231946CE
:1025100038680CF0ABFCD7F894300133C7F894302E
:10252000D9E738680CF045FD06E038680CF013FD7B
:1025300002E000BF00E000BF00BFBC37BD4690BD59
:1025400024D301242CD3012438D3012434D30124EF
:1025500030D3012440E30124E0F00124A42300242B
:102560009859022480B582B000AF78607B68632BF5
:1025700011DD7B688B2B0EDC7B68643B4FF41C7297
:1025800002FB03F30833384A134404331846FEF7BA
:102590006AFB034664E07B68132B60D801A252F803
:1025A00023F000BFF52500085F260008F925000884
:1025B0005F2600085F2600085F2600085F260008E7
:1025C0005F2600085F2600085F2600080326000833
:1025D0000D260008172600082126000829260008D5
:1025E0002F260008372600083F2600084726000847
:1025F0004F260008A52333E01C48FEF7A9FC03463C
:102600002EE01B48FEF7C4FC034629E01848FEF7FD
:10261000CBFC034624E01648FEF7D2FC03461FE03D
:10262000134B93F860301BE0114B1B6D18E0104BFF
:10263000B3F9443014E00E4BB3F9463010E00C4BC4
:10264000B3F948300CE00A4BB3F94A3008E0084BC4
:10265000D3ED107AFDEEE77A17EE903A00E0002312
:1026600018460837BD4680BDE0F001240020024036
:102670009859022480B483B000AF7860396000BFFD
:102680000C37BD465DF8047B7047000080B582B012
:1026900000AF78607A680021034818F07FFD034698
:1026A00018460837BD4680BDA423002490B585B0E8
:1026B00000AF786039607B68002B11DB7B68272BCB
:1026C0000EDC7B684FF41C7202FB03F30833214AD3
:1026D000134404331846FEF777FA0346002B01D063
:1026E000012300E00023002B01D000232DE07B68B4
:1026F0004FF41C7202FB03F30833164A13440433ED
:102700001846FEF787FAF860FB68002B02DBFB68CF
:10271000042B01DD002318E00F4AFB6852F8233038
:1027200003F148047B684FF41C7202FB03F3083387
:10273000084A134404331846FEF778FA03463A6809
:102740001946204601F068F8012318461437BD46A3
:1027500090BD00BFE0F001240000002490B587B0D8
:1027600000AFF860B9607A60FB68002B11DBFB6892
:10277000272B0EDCFB684FF41C7202FB03F30833BB
:10278000204A134404331846FEF71EFA0346002B72
:1027900001D0012300E00023002B01D000232DE015
:1027A000FB684FF41C7202FB03F30833154A134411
:1027B00004331846FEF72EFA78617B69002B02DBA2
:1027C0007B69042B01DD002318E00F4A7B6952F876
:1027D000233003F14804FB684FF41C7202FB03F33F
:1027E0000833084A134404331846FEF71FFA01461B
:1027F0007B68BA68204600F0F6FF012318461C37B4
:10280000BD4690BDE0F001240000002490B587B0E3
:1028100000AFF860B9607A60FB68002B11DBFB68E1
:10282000272B0EDCFB684FF41C7202FB03F308330A
:102830002E4A134404331846FEF7C6F90346002B0C
:1028400001D0012300E00023002B01D0002348E049
:10285000FB684FF41C7202FB03F30833234A134452
:1028600004331846FEF7D6F978617B69002B02DB4A
:102870007B69042B01DD002333E01D4A7B6952F89C
:10288000233048333B61386900F0DBFF0346002BFF
:102890001BD03869FEF7FFF90246BB68934214D19A
:1028A000FB684FF41C7202FB03F308330F4A134416
:1028B00004331846FEF7BAF904463869FEF7DFF923
:1028C00003469C4201D1012300E00023002B07D0E6
:1028D0003869FEF7ECF902467B681A60012300E0D4
:1028E000002318461C37BD4690BD00BFE0F0012410
:1028F0000000002480B485B000AFF860B9607A6051
:10290000FA68BB689A4205DCBA687B689A4201DCC7
:10291000012300E0002318461437BD465DF8047B10
:10292000704780B584B000AF786039607A6842F251
:10293000100313441A68796842F214030B441B68AD
:102940009A422ADA7A6842F2100313441B689B0009
:10295000BB600023FB60FB68032B13DC3B687A68D9
:10296000F96852F82120104698470146BA68FB687A
:102970001A4409B27B68083223F81210FB6801334D
:10298000FB60E8E77A6842F2100313441B685A1CA4
:10299000796842F210030B441A6000BF1037BD463D
:1029A00080BD80B485B000AFF860B9607A60BA6865
:1029B000FB689A4207DBBA687B689A4201DD7B6854
:1029C00002E0BB6800E0FB6818461437BD465DF8BE
:1029D000047B704780B483B000AF78607A6842F2BD
:1029E000100313441B6818460C37BD465DF8047B82
:1029F000704780B483B000AF7860042318460C376A
:102A0000BD465DF8047B704780B485B000AFF860C8
:102A1000B9607A607B689A00BB681A44FB68083228
:102A200033F9123018461437BD465DF8047B704701
:102A300080B582B000AF786039607B68012B1FD110
:102A40003B684FF6FF7293421AD10F4815F042FAD5
:102A50000E490F480FF04FFA0E490F480FF04BFA8E
:102A60000E490F480FF047FA0E490F480FF043FA8E
:102A70000E490F480FF03FFA0E490F480FF0CCFDFA
:102A800000BF0837BD4680BDA4230024004C004091
:102A900044E3012400780040FCE5012400480040A4
:102AA000B4E80124005000406CEB0124007C00409D
:102AB00024EE012400100140DCF0012480B582B036
:102AC00000AF7860054A7B681A607B681846FEF79D
:102AD0000DF87B6818460837BD4680BD8C02040897
:102AE00080B582B000AF78607868FFF7E7FF0C210F
:102AF00078681DF0C9FC7B6818460837BD4680BD64
:102B000080B500AF4FF6FF710120FFF791FF80BD48
:102B100080B582B000AF78603960786811F001F854
:102B200002463B681A6000BF0837BD4680BD80B5CD
:102B300082B000AF786039607B6819463868FFF76B
:102B4000E7FF7B68043319463868FFF7E1FF00BFF1
:102B50000837BD4680BDB0B582B000AF78607B68F5
:102B60000C3327241D46002C07DB0021284600F0EB
:102B700049F905F51C75013CF5E77B6818460837EF
:102B8000BD46B0BD80B586B000AF786039607B6867
:102B900019463868FFF7BCFF7B681B68052B25D1F9
:102BA0007B68043319463868FFF7B2FF7B68083347
:102BB00019463868FFF7ACFF7B680C3328221946AA
:102BC000386800F0B5F87A6846F28C131344402256
:102BD0001946386800F0CBF87A6846F28C33134413
:102BE00040221946386800F0C2F89DE07B681B68F7
:102BF000042B3AD17B68043319463868FFF788FF05
:102C00007B68083319463868FFF782FF7B680C330E
:102C100028221946386800F08BF87A6846F28C133F
:102C2000134440221946386800F0A1F800237B6164
:102C30007B693F2B78DC7A687B6903F67143DB00A4
:102C4000134400229A607A687B6903F67143DB00C3
:102C500013449A6879687B6903F67143DB000B447F
:102C60005A607B6901337B61E2E77B6805221A6069
:102C70007B6800225A607B6800229A6000233B61D7
:102C80003B69272B12DC3B694FF41C7202FB03F3F8
:102C900008337A681344181D0023002247F6FF7199
:102CA000FDF766FF3B6901333B61E9E70023FB6009
:102CB000FB683F2B19DC7A68FB6803F63143DB00C5
:102CC000134400229A607A68FB6803F63143DB0004
:102CD00013449A687968FB6803F63143DB000B44C0
:102CE0005A60FB680133FB60E2E70023BB60BB680E
:102CF0003F2B19DC7A68BB6803F67143DB00134491
:102D000000229A607A68BB6803F67143DB001344C3
:102D10009A687968BB6803F67143DB000B445A601C
:102D2000BB680133BB60E2E700BF1837BD4680BD1A
:102D300080B586B000AFF860B9607A6000237B612F
:102D40007A697B689A420EDA7B694FF41C7202FB47
:102D500003F3BA681344F968184600F087FD7B69ED
:102D600001337B61ECE700BF1837BD4680BD80B5FD
:102D700086B000AFF860B9607A6000237B617A6941
:102D80007B689A420BDA7B69DB00BA681344F96806
:102D90001846FFF7CCFE7B6901337B61EFE700BF8C
:102DA0001837BD4680BD000080B582B000AF7860A6
:102DB00039607B68012B07D13B684FF6FF72934265
:102DC00002D10348FFF7C7FE00BF0837BD4680BDEC
:102DD000E0F0012480B500AF4FF6FF710120FFF74E
:102DE000E3FF80BD80B582B000AF7860396078685D
:102DF00010F0B4FE02463B681A6000BF0837BD46BB
:102E000080BD000080B485B000AF786039607B6819
:102E10003A681A607B6800225A607B6800229A60D8
:102E20007B68002283F848207B680D4AC3F86C2237
:102E30000023FB60FB68022B0ADC7B680022DA625D
:102E40007B68DA6A7B68DA60FB680133FB60F1E774
:102E50007B6818461437BD465DF8047B704700BF99
:102E6000844A020880B483B000AF78607B685B6EF0
:102E7000002B18D07B689B6E591C7A6891667A6823
:102E800034335B001344B3F904301A467B68DA60CC
:102E90007B689B6EDAB27B689A667B685B6E5A1EB3
:102EA0007B685A6638E07B681B6E002B09D07B6814
:102EB0001B6E5A1E7B681A667B68DA6C7B68DA6068
:102EC0002AE07B68DB6D002B1FD07B68DB6D5A1E10
:102ED0007B68DA657B685A6D7B689B6D1A447B68FA
:102EE0005A657B68DA6C7B681B6D7968D1F86C0277
:102EF0007968496D091289000144096801FB03F3EF
:102F00009B121A447B68DA6006E07B68DA6C7B68A7
:102F10001B6D1A447B68DA607B68DB68B3F5FA4F97
:102F200006DA7B68DA687B689B6A1A447B68DA6039
:102F300000BF0C37BD465DF8047B704780B483B09A
:102F400000AF786039607B68DB6C3A68D21A7B68C6
:102F50001A6500BF0C37BD465DF8047B704780B42E
:102F600085B000AFF860B9607A603B60FB68002212
:102F70005A66FB68BA68C3F86C227B68B3F5FA4FEF
:102F80003CDA3B68002B39DDFB68DB6CB3F5FA4FAC
:102F900004DBFB681A69FB68DA641EE0FB68DB6D22
:102FA000002B13D0FB68DA6CFB681B6DF968D1F855
:102FB0006C02F968496D091289000144096801FB36
:102FC00003F39B121A44FB68DA6406E0FB68DA6CD0
:102FD000FB681B6D1A44FB68DA64FB68DB6C7A687B
:102FE000D21AFB681A65FB6800225A654FF48022EA
:102FF0003B6892FBF3F2FB689A6509E000233B60B3
:103000003B68BB61FB687A68DA64FB6800221A657A
:10301000FB68BA691A66FB683A68DA6500BF14375C
:10302000BD465DF8047B704780B48BB000AFF8609C
:10303000B9607A60FB680022DA65FB68DA6DFB68CC
:103040001A66FB685A6E7B681344FF2B02DC7B68B0
:10305000002B01DC002375E0BB68B3F5FA4F57DAAB
:10306000FB685B6E002B08D0FB68DA6CFB681B6D9D
:103070001344BA68D31A7B6217E0FB68DA6CFB680A
:103080001B6D1A44FB68DA64FB68DB6CB3F5FA4F1E
:1030900003DBFB681A69FB68DA64FB6800221A65C7
:1030A000FB68DB6CBA68D31A7B627A6A7B6892FB36
:1030B000F3F3BB6100233B623A6A7B689A423ADAD7
:1030C000FB689A6EFB685B6E581CF968486613448F
:1030D000DBB27B61FB68DB6C9AB2FB681B6D9BB259
:1030E00013449AB23B6A013399B2BB699BB211FB9C
:1030F00003F39BB213449BB219B2FA687B69343371
:103100005B0013440A469A803B6A01333B62D3E773
:10311000FB689A6EFB685B6E581CF968486613443E
:10312000DBB2FB61BB6819B2FA68FB6934335B0040
:1031300013440A469A80FB68DB6CBA68D21AFB68B3
:103140001A65012318462C37BD465DF8047B70478D
:1031500080B487B000AFF8600B467A607B81FB6873
:103160000022DA65FB68DA6DFB681A66FB685A6E46
:103170007B681344FF2B02DC7B68002B01DC0023FF
:103180002CE0FB689A6EFB685B6E13447B61FB6806
:103190005A6E7B681A44FB685A667B685A1E7A60CE
:1031A000002B14BF01230023DBB2002B0ED07B6960
:1031B000DBB27B61B7F90A107B695A1C7A61FA6845
:1031C00034335B0013440A469A80E6E7B7F90A20D5
:1031D000FB68DA64FB6800221A65012318461C3775
:1031E000BD465DF8047B704780B487B000AFF860DF
:1031F0007A603B600B467B81FB680022DA65FB68E6
:10320000DA6DFB681A66FB685A6E3B681344FF2B45
:1032100002DC3B68002B01DC002336E0FB689A6E81
:10322000FB685B6E13447B61FB685A6E3B681A4413
:10323000FB685A663B685A1E3A60002B14BF012394
:103240000023DBB2002B18D07B685A1C7A6093F9FC
:1032500000309AB27B8913449BB27B817B69DBB2DD
:103260007B61B7F90A107B695A1C7A61FA683433BA
:103270005B0013440A469A80DCE7B7F90A20FB6832
:10328000DA64FB6800221A65012318461C37BD4624
:103290005DF8047B704780B487B000AFF8607A6057
:1032A0003B600B467B81FB680022DA65FB68DA6DC8
:1032B000FB681A66FB685A6E3B681344FF2B02DCFE
:1032C0003B68002B01DC00233FE0FB689A6EFB6843
:1032D0005B6E13447B61FB685A6E3B681A44FB6863
:1032E0005A663B685A1E3A60002B14BF0123002324
:1032F000DBB2002B21D07B685A1C7A601B787B8262
:103300007B685A1C7A601B781B021AB27B8A1343B3
:103310007B827A897B8A13449BB27B817B69DBB297
:103320007B61B7F90A107B695A1C7A61FA683433F9
:103330005B0013440A469A80D3E7B7F90A20FB687A
:10334000DA64FB6800221A65012318461C37BD4663
:103350005DF8047B7047000080B489B000AFF8606E
:103360007B600B467B8113463B81FB680022DA655C
:10337000FB68DA6DFB681A66FB685A6E7B6813445B
:10338000FF2B02DC7B68012B01DC00235CE0B7F93A
:103390000820B7F90A30D31A7B610023FB614FF490
:1033A00080627B6892FBF3F33B61FB689A6EFB687B
:1033B0005B6E1344BB61FB685A6E7B681A44FB6802
:1033C0005A667B68013B7B607B685A1E7A60002BE3
:1033D00014BF01230023DBB2002B1DD0FA693B6927
:1033E0001344FB61BB69DBB2BB611A4AFB6952F84B
:1033F00023307A6902FB03F39B129AB27B89134450
:103400009BB219B2BB695A1CBA61FA6834335B00CB
:1034100013440A469A80D7E7BB69DBB2BB61FA68FE
:10342000BB6934335B0013443A899A80FA68BB69FC
:1034300034335B001344B3F904301A46FB68DA6492
:10344000FB6800221A65012318462437BD465DF843
:10345000047B7047844A020880B483B000AF786070
:103460007B6800229A617B685B6E002B03D07B68CF
:1034700000225A6616E07B68DB6D002B12D07B6859
:103480001B6D7A68D2F86C127A68526D1212920033
:103490000A44126802FB03F39A127B681A657B6880
:1034A0000022DA6500BF0C37BD465DF8047B70472B
:1034B00080B483B000AF78607B6893F84830002B0D
:1034C00001D0012300E0002318460C37BD465DF80B
:1034D000047B704780B582B000AF78607B681B6862
:1034E000012B15D17B68DA687B68DA627B681A6B1E
:1034F0007B681A617B685A6B7B685A617B68002223
:103500009A617B680022DA617B6800221A626CE0B3
:103510007B681B68022B1CD17B68DA687B68DA62E7
:103520007B685A6A7B685A647B681A6B7B681A618D
:103530007B689A6B7B689A617B68DA6B7B68DA617F
:103540007B685A6B7B685A617B681A6C7B681A626D
:103550004BE07B681B68032B0CD17B68DA6A7B68C5
:10356000DA607B681A6B7B681A617B685A6B7B68D0
:103570005A613AE07B681B68142B36D17B685B6B21
:10358000012B1BD17B6803F10C027B682C3319469D
:10359000104600F090F97B6803F110027B6830332D
:1035A0001946104600F087F97B6803F114027B6826
:1035B00034331946104600F07EF916E07B68DA686D
:1035C0007B68DA627B681A697B681A637B685A6970
:1035D0007B685A637B6800225A617B685A697B6802
:1035E0001A617B681A697B68DA607B6893F8492006
:1035F0007B6883F8482000BF0837BD4680BD80B592
:1036000084B000AFF860B9607A60FB681B68012B7A
:103610000BD1FB689968FB68DB6A1A46B8680BF047
:103620000CFD7B6806221A6053E0FB681B68022BC6
:103630000CD1FB689968FB68DA6AFB685B6CB86858
:103640000BF011FD7B6809221A6042E0FB681B68E1
:10365000032B09D1FB689B681946B8680BF01EFD67
:103660007B6808221A6034E0FB681B68142B20D1A9
:10367000FB685B6B032B1CDDFB685B6B042B0BD1C6
:10368000FB689968FB68DB6A1A46B8680BF032FD84
:103690007B6806221A601CE0FB689968FB68DA6A9E
:1036A000FB681B6BB8680BF00AFD7B6806221A608A
:1036B0000FE0FB681B68152B0BD1FB689968FB6852
:1036C000DA68FB681B69B8680BF02AFD7B68062284
:1036D0001A60FB68002283F8492000BF1037BD46FE
:1036E00080BD90B585B002AF786039607B681B689B
:1036F000012B0CD138680BF056FE02467B681A632A
:1037000038680BF050FE02467B685A6363E07B68C2
:103710001B68022B18D17B682C33191D7B682C3356
:1037200003F108007B682C3303F10C047B682C3315
:1037300010337A682C3214320192009323460246E9
:1037400038680BF0B2FE46E07B681B68032B12D191
:1037500038680BF028FE02467B68DA6238680BF0A6
:1037600022FE02467B681A6338680BF01CFE024694
:103770007B685A632FE07B681B68142B1ED17B6823
:103780005B6B042B09D138680BF01CFE02467B688A
:103790001A637B6801225A631DE07B681C6B3868E2
:1037A0000BF010FE03469C420CBF01230023DBB24A
:1037B000002B10D07B6802225A630CE07B681B68E8
:1037C000152B08D138680BF0FDFD02467B685A6165
:1037D0007B680022DA607B68012283F8492000BF01
:1037E0000C37BD4690BD80B485B000AFF860B960BD
:1037F0007A603B60FB6805225A61FB683A681A618F
:10380000FB687A68DA60FB68BA689A6000BF1437B0
:10381000BD465DF8047B704780B485B000AFF860AA
:10382000B9607A60FB6804225A61FB687A68DA60E2
:10383000FB68BA689A6000BF1437BD465DF8047B28
:10384000704780B485B000AF78607B685B69FB60CF
:103850007B685B69022B02DC7B6800225A61FB6893
:1038600018461437BD465DF8047B704780B582B0BA
:1038700000AF786039607B6819463868FFF7B2FAA4
:103880007B68043319463868FFF7ACFA7B68083365
:1038900019463868FFF7A6FA00BF0837BD4680BD55
:1038A00080B483B000AF78607B6818460C37BD46A3
:1038B0005DF8047B704780B584B000AF78603960F4
:1038C0007868FFF7EDFF03461B68FB603868FFF779
:1038D000E7FF03461A687B681A6007F10C03184675
:1038E000FFF7DEFF03461A683B681A6000BF103717
:1038F000BD4680BD80B400AF044BDB681B0A03F0FB
:1039000007031846BD465DF8047B704700ED00E0F4
:1039100080B483B000AF0346FB80B7F90630002BBC
:103920000BDBFB8803F01F020749B7F906305B0980
:10393000012000FA02F241F8232000BF0C37BD46F7
:103940005DF8047B704700BF00E100E080B483B005
:1039500000AF0346FB80B7F90630002B12DBFB8873
:1039600003F01F020A49B7F906305B09012000FA8B
:1039700002F2203341F82320BFF34F8F00BFBFF383
:103980006F8F00BF00BF0C37BD465DF8047B7047EA
:1039900000E100E080B483B000AF03463960FB80F3
:1039A000B7F90630002B0ADB3B68DAB20C49B7F9ED
:1039B00006301201D2B20B4483F800230AE03B68C0
:1039C000DAB20849FB8803F00F03043B1201D2B2BC
:1039D0000B441A7600BF0C37BD465DF8047B704778
:1039E00000E100E000ED00E080B489B000AFF860D5
:1039F000B9607A60FB6803F00703FB61FB69C3F100
:103A00000703042B28BF0423BB61FB690433062B87
:103A100002D9FB69033B00E000237B614FF0FF32DA
:103A2000BB6902FA03F3DA43BB681A407B699A4028
:103A30004FF0FF317B6901FA03F3D9437B680B40F8
:103A4000134318462437BD465DF8047B704780B4A5
:103A500087B000AF786039603B68C3F31303002B75
:103A600007D13B689B0E03F01F03012202FA03F308
:103A700015E03B683B613B6993FAA3F3FB60FB688D
:103A80007B617B69002B01D1202303E07B69B3FAC2
:103A900083F3DBB203F01F03012202FA03F37A6817
:103AA000D2691A437B68DA6100BF1C37BD465DF8F6
:103AB000047B704780B487B000AFF860B9607A606B
:103AC000FB6830331A46BB681B0A9B0003F00C03EB
:103AD00013447B617B691A68BB6803F01F031F21D5
:103AE00001FA03F3DB431A407B689B0E03F01F01CE
:103AF000BB6803F01F0301FA03F31A437B691A60E2
:103B000000BF1C37BD465DF8047B704780B487B0AA
:103B100000AFF860B9607A60FB6814331A46BB687E
:103B20005B0E9B0003F0040313447B617B691A68FE
:103B3000BB681B0D03F01F03072101FA03F3DB43EE
:103B40001A40BB681B0D03F01F03796801FA03F3E9
:103B50001A437B691A6000BF1C37BD465DF8047BC1
:103B60007047000080B485B000AFF860B9607A603B
:103B7000FB68D3F8C020BB68C3F31303DB431A40D0
:103B80007B6803F018030849D940BB680B40C3F3B6
:103B900013031A43FB68C3F8C02000BF1437BD46A7
:103BA0005DF8047B704700BFFFFF0F0080B483B057
:103BB00000AF786039607B681A69064B13403A6839
:103BC0001A437B681A6100BF0C37BD465DF8047B61
:103BD000704700BFFCFBFFFF80B483B000AF78608C
:103BE0007B689A68044B13407A68936000BF0C3777
:103BF000BD465DF8047B7047C0FFFF5F80B483B0B3
:103C000000AF78607B689A68054B134043F08052A0
:103C10007B689A6000BF0C37BD465DF8047B704737
:103C2000C0FFFF6F80B483B000AF78607B689A6894
:103C3000054B134043F001027B689A6000BF0C37CC
:103C4000BD465DF8047B7047C0FFFF7F80B483B042
:103C500000AF78607B689A68054B134043F004021C
:103C60007B689A6000BF0C37BD465DF8047B7047E7
:103C7000C0FFFF7F80B487B000AFF860B9607A60A2
:103C8000FB687B610D4ABB6813441B781A467B694D
:103C900013441B6823F0C0020849BB680B441B781F
:103CA00019467B690B4419467B6813430B6000BFC0
:103CB0001C37BD465DF8047B704700BF885A020878
:103CC00080B487B000AFF860B9607A60FB687B6150
:103CD0000D4ABB6813441B781A467B6913441B6862
:103CE00023F490720849BB680B441B7819467B6922
:103CF0000B4419467B6813430B6000BF1C37BD465D
:103D00005DF8047B704700BF885A020880B487B012
:103D100000AFF860B9607A60FB687B610D4ABB68F0
:103D200013441B781A467B6913441B6823F4007202
:103D30000849BB680B441B7819467B690B4419463C
:103D40007B6813430B6000BF1C37BD465DF8047BE6
:103D5000704700BF885A020880B487B000AFF8608F
:103D6000B9607A60FB687B610D4ABB6813441B78BD
:103D70001A467B6913441B6823F480620849BB68B8
:103D80000B441B7819467B690B4419467B68134327
:103D90000B6000BF1C37BD465DF8047B704700BF59
:103DA000885A020880B487B000AFF860B9607A60C2
:103DB000FB687B610D4ABB6813441B781A467B691C
:103DC00013441B6823F4C0520849BB680B441B789A
:103DD00019467B690B4419467B6813430B6000BF8F
:103DE0001C37BD465DF8047B704700BF885A020847
:103DF00080B487B000AFF860B9607A60FB687B611F
:103E00000D4ABB6813441B781A467B6913441B6830
:103E100023F4C0420849BB680B441B7819467B69F0
:103E20000B4419467B6813430B6000BF1C37BD462B
:103E30005DF8047B704700BF885A020880B487B0E1
:103E400000AFF860B9607A60FB687B610D4ABB68BF
:103E500013441B781A467B6913441B6823F44032D1
:103E60000849BB680B441B7819467B690B4419460B
:103E70007B6813430B6000BF1C37BD465DF8047BB5
:103E8000704700BF885A020880B485B000AFF86060
:103E9000B9607A60BA68124B13449B00FA68114902
:103EA0008A4201D1002200E0202213441B6823F043
:103EB000FF02B9680A4B0B449B00F968094881422C
:103EC00001D1002100E020210B4419467B681343F7
:103ED0000B6000BF1437BD465DF8047B704700BF20
:103EE000008200100000024080B485B000AF78600E
:103EF00039607B68FB600C4A3B6813441B781A46A8
:103F0000FB6813445B6908493A680A441278114611
:103F1000FA680A4423F00403536100BF1437BD4616
:103F20005DF8047B704700BF885A020880B487B0F0
:103F300000AFF860B9607A603B60FB687B610E4A55
:103F4000BB6813441B781A467B6913445B6923F0F2
:103F5000070279683B680B430748B9680144097850
:103F600008467969014413434B6100BF1C37BD46C5
:103F70005DF8047B704700BF885A020880B487B0A0
:103F800000AFF860B9607A60FB687B61074ABB6884
:103F900013441B781A467B6913441A467B68936066
:103FA00000BF1C37BD465DF8047B7047885A020885
:103FB00080B400AF054B1B68044A43F480331360A0
:103FC00000BFBD465DF8047B704700BF0044025847
:103FD00080B400AF074B1B6803F40033B3F5003F18
:103FE00001D1012300E000231846BD465DF8047BA3
:103FF000704700BF0044025880B483B000AF7860BF
:10400000064B1B6923F0070204497B6813430B61CD
:1040100000BF0C37BD465DF8047B70470044025872
:1040200080B483B000AF7860064B9B6923F4706264
:1040300004497B6813438B6100BF0C37BD465DF8B4
:10404000047B70470044025880B483B000AF7860AE
:10405000064B9B6923F00F0204497B6813438B6175
:1040600000BF0C37BD465DF8047B70470044025822
:1040700080B483B000AF7860064BDB6923F0700238
:1040800004497B681343CB6100BF0C37BD465DF824
:10409000047B70470044025880B483B000AF78605E
:1040A000064BDB6923F4E06204497B681343CB6170
:1040B00000BF0C37BD465DF8047B704700440258D2
:1040C00080B483B000AF7860064B9B6923F0700228
:1040D00004497B6813438B6100BF0C37BD465DF814
:1040E000047B70470044025880B483B000AF78600E
:1040F000064B1B6A23F0700204497B6813430B6272
:1041000000BF0C37BD465DF8047B70470044025881
:1041100080B485B000AF78607B68DAB2104B13448E
:10412000FB60FB681A687B68190E7B681B0A03F04A
:104130001F0301FA03F3DB431A407B681B0CD9B25F
:104140007B681B0A03F01F0301FA03F31A43FB68A1
:104150001A6000BF1437BD465DF8047B704700BF8E
:104160004C44025880B582B000AF78607868FFF7A1
:10417000CFFF00BF0837BD4680BD80B582B000AF1D
:1041800078607868FFF7C4FF00BF0837BD4680BD80
:1041900080B483B000AF7860064B9B6D23F440324F
:1041A00004497B6813438B6500BF0C37BD465DF83F
:1041B000047B70470044025880B483B000AF78603D
:1041C000064B9B6A23F0030204497B6813438B620E
:1041D00000BF0C37BD465DF8047B704700440258B1
:1041E00080B400AF054B1B68044A43F08073136032
:1041F00000BFBD465DF8047B704700BF0044025815
:1042000080B400AF074B1B6803F00073B3F1007F6D
:1042100001D1012300E000231846BD465DF8047B70
:10422000704700BF0044025880B400AF054BDB6A02
:10423000044A43F48033D36200BFBD465DF8047B7B
:10424000704700BF0044025880B400AF054BDB6AE2
:10425000044A43F40033D36200BFBD465DF8047BDB
:10426000704700BF0044025880B400AF054BDB6AC2
:10427000044A43F48023D36200BFBD465DF8047B4B
:10428000704700BF0044025880B483B000AF78602C
:10429000074BDB6A23F002027B685B00044913438F
:1042A000CB6200BF0C37BD465DF8047B704700BF92
:1042B0000044025880B483B000AF7860074BDB6ADB
:1042C00023F00C027B689B0004491343CB6200BFC0
:1042D0000C37BD465DF8047B704700BF00440258B0
:1042E00080B483B000AF7860074B1A6B074B134064
:1042F0007A68013A044913430B6300BF0C37BD468B
:104300005DF8047B704700BF0044025800FEFFFFC9
:1043100080B483B000AF7860074B9B6A23F47C7253
:104320007B681B01044913438B6200BF0C37BD46F9
:104330005DF8047B704700BF0044025880B483B02E
:1043400000AF7860074B1B6B23F47E427B68013B18
:104350005B02044913430B6300BF0C37BD465DF895
:10436000047B70470044025880B483B000AF78608B
:10437000074B1B6B23F4FE027B68013B1B040449C3
:1043800013430B6300BF0C37BD465DF8047B7047D9
:104390000044025880B483B000AF7860074B1B6BB9
:1043A00023F0FE427B68013B1B06044913430B6369
:1043B00000BF0C37BD465DF8047B704700440258CF
:1043C00080B400AF054B1B68044A43F08063136060
:1043D00000BFBD465DF8047B704700BF0044025833
:1043E00080B400AF074B1B6803F00063B3F1006FAC
:1043F00001D1012300E000231846BD465DF8047B8F
:10440000704700BF0044025880B400AF054BDB6A20
:10441000044A43F40023D36200BFBD465DF8047B29
:10442000704700BF0044025880B483B000AF78608A
:10443000074BDB6A23F020027B685B0104491343CE
:10444000CB6200BF0C37BD465DF8047B704700BFF0
:104450000044025880B483B000AF7860074BDB6A39
:1044600023F0C0027B689B0104491343CB6200BF69
:104470000C37BD465DF8047B704700BF004402580E
:1044800080B483B000AF7860074B9A6B074B134042
:104490007A68013A044913438B6300BF0C37BD4669
:1044A0005DF8047B704700BF0044025800FEFFFF28
:1044B00080B483B000AF7860074B9B6A23F47C32F2
:1044C0007B681B03044913438B6200BF0C37BD4656
:1044D0005DF8047B704700BF0044025880B483B08D
:1044E00000AF7860074B9B6B23F47E427B68013BF7
:1044F0005B02044913438B6300BF0C37BD465DF874
:10450000047B70470044025880B483B000AF7860E9
:10451000074B9B6B23F4FE027B68013B1B040449A1
:1045200013438B6300BF0C37BD465DF8047B7047B7
:104530000044025880B483B000AF7860074B9B6B97
:1045400023F0FE427B68013B1B06044913438B6347
:1045500000BF0C37BD465DF8047B7047004402582D
:1045600080B400AF054B1B68044A43F080531360CE
:1045700000BFBD465DF8047B704700BF0044025891
:1045800080B400AF074B1B6803F00053B3F1005F2A
:1045900001D1012300E000231846BD465DF8047BED
:1045A000704700BF0044025880B400AF054BDB6A7F
:1045B000044A43F40003D36200BFBD465DF8047BA8
:1045C000704700BF0044025880B483B000AF7860E9
:1045D000074BDB6A23F400727B685B0204491343D8
:1045E000CB6200BF0C37BD465DF8047B704700BF4F
:1045F0000044025880B483B000AF7860074BDB6A98
:1046000023F440627B689B0204491343CB6200BFE2
:104610000C37BD465DF8047B704700BF004402586C
:1046200080B483B000AF7860074B1A6C074B13401F
:104630007A68013A044913430B6400BF0C37BD4646
:104640005DF8047B704700BF0044025800FEFFFF86
:1046500080B483B000AF7860074B9B6A23F07C7214
:104660007B681B05044913438B6200BF0C37BD46B2
:104670005DF8047B704700BF0044025880B483B0EB
:1046800000AF7860074B1B6C23F47E427B68013BD4
:104690005B02044913430B6400BF0C37BD465DF851
:1046A000047B70470044025880B483B000AF786048
:1046B000074B1B6C23F4FE027B68013B1B0404497F
:1046C00013430B6400BF0C37BD465DF8047B704795
:1046D0000044025880B483B000AF7860074B1B6C75
:1046E00023F0FE427B68013B1B06044913430B6425
:1046F00000BF0C37BD465DF8047B7047004402588C
:1047000080B485B000AF78600A4BD3F8D82009494F
:104710007B681343C1F8D830064BD3F8D8207B68A8
:104720001340FB60FB6800BF1437BD465DF8047B97
:10473000704700BF0044025880B485B000AF786075
:104740000A4BD3F8E02009497B681343C1F8E030F5
:10475000064BD3F8E0207B681340FB60FB6800BF8A
:104760001437BD465DF8047B704700BF0044025813
:1047700080B485B000AF78600A4BD3F8E8200949CF
:104780007B681343C1F8E830064BD3F8E8207B6818
:104790001340FB60FB6800BF1437BD465DF8047B27
:1047A000704700BF0044025880B485B000AF786005
:1047B0000A4BD3F8F02009497B681343C1F8F03065
:1047C000064BD3F8F0207B681340FB60FB6800BF0A
:1047D0001437BD465DF8047B704700BF00440258A3
:1047E00080B487B000AF78603960184A3B6803F046
:1047F0000303023352F823203B681B0CDB4302EA1D
:1048000003013B681B0C3B613B6993FAA3F3FB601C
:10481000FB687B617B69002B01D1202303E07B696E
:10482000B3FA83F3DBB203F01F037A689A400748B8
:104830003B6803F003030A43023340F8232000BF20
:104840001C37BD465DF8047B704700BF000400586C
:1048500080B483B000AF7860064B1B6823F00F0272
:1048600004497B6813430B6000BF0C37BD465DF8FD
:10487000047B70470020005280B400AF044B1B68DB
:1048800003F00F031846BD465DF8047B704700BF78
:104890000020005280B483B000AF7860064BDB6824
:1048A00023F0070204497B681343CB6000BF0C3739
:1048B000BD465DF8047B70470048025880B483B061
:1048C00000AF7860064B9B6923F4404204497B6843
:1048D00013438B6100BF0C37BD465DF8047B704706
:1048E0000048025880B483B000AF78607B68DB6812
:1048F00043F000427B68DA6000BF0C37BD465DF8CC
:10490000047B704780B483B000AF786039607B6807
:10491000DB6823F460123B681A437B68DA6000BFEF
:104920000C37BD465DF8047B704780B483B000AFA0
:1049300078607B68DB6843F080427B68DA6000BFA8
:104940000C37BD465DF8047B704780B483B000AF80
:1049500078607B681B6823F080027B681A6000BF68
:104960000C37BD465DF8047B7047000080B485B00D
:1049700000AF786039603B68012B28D03B68042B7E
:1049800023D03B68102B1ED03B68402B19D03B68CE
:10499000B3F5807F13D03B68B3F5806F0DD03B68D3
:1049A000B3F5805F07D03B68B3F5803F01D10723A3
:1049B0000EE008230CE006230AE0052308E00423A8
:1049C00006E0032304E0022302E0012300E00023C9
:1049D000FB737B6818331946FB7B0A4AD35C0B4494
:1049E000BB60BB681A68FB7B0749CB5C1946042394
:1049F0008B401A43BB681A6000BF1437BD465DF890
:104A0000047B7047905A02089C5A020880B485B013
:104A100000AF786039603B68012B28D03B68042BDD
:104A200023D03B68102B1ED03B68402B19D03B682D
:104A3000B3F5807F13D03B68B3F5806F0DD03B6832
:104A4000B3F5805F07D03B68B3F5803F01D1072302
:104A50000EE008230CE006230AE0052308E0042307
:104A600006E0032304E0022302E0012300E0002328
:104A7000FB737B6818331946FB7B0A4AD35C0B44F3
:104A8000BB60BB681A68FB7B0749CB5C19460823EF
:104A90008B401A43BB681A6000BF1437BD465DF8EF
:104AA000047B7047905A02089C5A020880B483B075
:104AB00000AF786039607B689A68064B13403A68AB
:104AC0001A437B689A6000BF0C37BD465DF8047BD3
:104AD000704700BFF8BFFEFF80B483B000AF7860BE
:104AE00039607B685B6823F070023B681A437B681F
:104AF0005A6000BF0C37BD465DF8047B704780B438
:104B000083B000AF786039607B685B6823F4700223
:104B10003B681A437B685A6000BF0C37BD465DF89E
:104B2000047B704780B483B000AF78607B689B687B
:104B300023F080027B689A6000BF0C37BD465DF8A9
:104B4000047B704780B483B000AF78607B681B68DB
:104B500043F001027B681A6000BF0C37BD465DF868
:104B6000047B704780B483B000AF78607B681B68BB
:104B700043F000527B681A6000BF0C37BD465DF8F9
:104B8000047B704780B489B000AF786039607B687F
:104B90000833FB60FB6853E8003FBB60BB6823F051
:104BA00060423B685B071343FB617B680833FA692B
:104BB000BA617B617969BA6941E800233B613B696D
:104BC000002BE4D100BF00BF2437BD465DF8047B55
:104BD000704780B489B000AF786039607B68083373
:104BE000FB60FB6853E8003FBB60BB6823F060627A
:104BF0003B685B061343FB617B680833FA69BA6163
:104C00007B617969BA6941E800233B613B69002B0C
:104C1000E4D100BF00BF2437BD465DF8047B704778
:104C200080B483B000AF786039607B685B6823F440
:104C300080323B681A437B685A6000BF0C37BD4620
:104C40005DF8047B704780B483B000AF7860396052
:104C50007B685B6823F400323B681A437B685A60C8
:104C600000BF0C37BD465DF8047B704780B483B04D
:104C700000AF786039607B681B6823F4F8123B68EA
:104C80001B041A437B681A6000BF0C37BD465DF8F1
:104C9000047B704780B483B000AF786039607B6874
:104CA0001B6823F078723B685B051A437B681A60C7
:104CB00000BF0C37BD465DF8047B704780B483B0FD
:104CC00000AF78607B689B6843F480427B689A60A1
:104CD00000BF0C37BD465DF8047B704780B483B0DD
:104CE00000AF786039607B689B6823F400423B68C2
:104CF0001A437B689A6000BF0C37BD465DF8047BA1
:104D0000704780B483B000AF78607B685B6823F441
:104D100090427B685A607B689B6823F02A027B681C
:104D20009A6000BF0C37BD465DF8047B704780B4C5
:104D300083B000AF78607B68DB6903F40013B3F5E0
:104D4000001F01D1012300E0002318460C37BD46A7
:104D50005DF8047B704780B483B000AF78607B68F7
:104D6000DB6903F48003B3F5800F01D1012300E078
:104D7000002318460C37BD465DF8047B704780B4AD
:104D800085B000AFF860B9607A60FB68D968BB682D
:104D900003FB03F213465B001344DB4301EA030207
:104DA000BB6803FB03F3796801FB03F31A43FB6859
:104DB000DA6000BF1437BD465DF8047B704780B4ED
:104DC00083B000AF786039607B683A689A6100BF51
:104DD0000C37BD465DF8047B704780B483B000AFEC
:104DE000786039603B681A047B689A6100BF0C37B1
:104DF000BD465DF8047B704780B500AF01F0C4FD8F
:104E000000F028F800F090F801F0BEFA01F0B2FAD4
:104E10001AF0F4FD00F0CCF800F08CF900F082FA02
:104E200000F038FD00F0DCFD00F07EFE00F0F8FE42
:104E300000F084FF01F026F801F00CF901F0F4F91C
:104E400000F0F0FC00F066FB00F044FC0CF0A4FC69
:104E5000FEE7000080B500AF0420FFF7F9FC00BFBB
:104E6000FFF70AFD0346042BFAD10220FFF712FDDB
:104E70004FF44040FFF722FDFFF79AF800BFFFF71D
:104E8000A7F80346012BFAD10220FFF795F9FFF7A7
:104E9000CBF9FFF7D9F9FFF7E7F90120FFF70AFA95
:104EA0000020FFF7F1F90820FFF732FA4FF4F07015
:104EB000FFF716FA0220FFF741FA0820FFF754FA2D
:104EC0000420FFF767FAFFF78BF900BFFFF798F9A7
:104ED0000346012BFAD10820FFF7B6F80320FFF7AD
:104EE0008BF80020FFF79CF80820FFF7ADF8402072
:104EF000FFF7BEF84FF48060FFF7CEF84020FFF7D1
:104F0000DFF84020FFF7F0F8064808F07FFA0020AD
:104F100001F076FD0346002B01D001F037FB00BF06
:104F200080BD00BF00389C1C80B500AFFFF76CFA55
:104F30000120FFF78FFA0120FFF776FA0820FFF72C
:104F4000B7FA8820FFF79CFA0820FFF7C7FA042079
:104F5000FFF7DAFA0220FFF7EDFAFFF731FA00BFA8
:104F6000FFF73EFA0346012BFAD1FFF71DFB0120A4
:104F7000FFF740FB0020FFF727FB0820FFF768FB47
:104F8000C020FFF74DFB0220FFF778FB0820FFF75A
:104F90008BFB0620FFF79EFBFFF7E2FA00BFFFF74F
:104FA000EFFA0346012BFAD100BF00BF80BD00001D
:104FB00080B594B000AF07F1400300221A605A6038
:104FC0009A6007F1280300221A605A609A60DA603A
:104FD0001A615A6107F1180300221A605A609A6038
:104FE000DA603B4600221A605A609A60DA601A6101
:104FF0005A610020FFF7CCF82020FFF781FB042046
:10500000FFF79AFB20233B6003237B6000233B6177
:105010003B461946404805F07AF808233B640023D4
:10502000BB6407F1400319463C4804F00FFC002321
:10503000BB620023FB6200233B634FF400537B639E
:105040004FF48053FB6307F128031946334804F0FB
:1050500029FC00213148FEF7A9FD4FF48013BB6104
:105060000023FB6107F1180319462D4804F096FB55
:105070002A48FEF7B1FD2948FEF7C0FD294B1B6801
:105080009B09294AA2FB03239A0913469B00134458
:105090005B001A46254BA3FB0223DB08FB6402E0FE
:1050A000FB6C013BFB64FB6C002BF9D1204A062111
:1050B0001A48FEF7FFFC04221D491848FEF726FD9A
:1050C00040F2FF721A491548FEF74CFD1849134883
:1050D000FEF7BDFC1148FEF7A5FD124B1B689B09AE
:1050E000114AA2FB03239A0913469B0013445B0059
:1050F0001A460E4BA3FB0223DB08FB6402E0FB6CA9
:10510000013BFB64FB6C002BF9D10448FEF79EFDCC
:1051100000BF5037BD4680BD000802580020024045
:105120000023024014000024632D3E05CDCCCCCCDE
:105130000001802180B590B000AF07F1180328224C
:10514000002118461DF052FC3B4600221A605A60AE
:105150009A60DA601A615A616B48FFF70EF84FF4F3
:105160008050FFF721FB0820FFF7E6FA0220FFF747
:10517000E3FA80233B6002237B600023BB600023B3
:10518000FB6000233B6105237B613B4619465F487A
:1051900004F0BDFF18233B6002237B600023BB604B
:1051A0000023FB6000233B6105237B613B461946DE
:1051B000574804F0ACFF252202215648FEF764FE52
:1051C000002202215348FEF755FD002202215148DA
:1051D000FEF734FE002202214E48FEF771FD002248
:1051E00002214C48FEF792FD4FF4806202214948AB
:1051F000FEF7B2FD002202214648FEF7D3FD002251
:1052000002214448FEF7F4FD02214248FEF76CFEFD
:10521000262203213F48FEF737FE402203213D4866
:10522000FEF728FD002203213A48FEF707FE002280
:1052300003213848FEF744FD002203213548FEF7DC
:1052400065FD4FF4806203213248FEF785FD0022A0
:1052500003213048FEF7A6FD002203212D48FEF76A
:10526000C7FD03212B48FEF73FFEFEF743FB034635
:10527000002200211846FEF7B7FB034619462320FB
:10528000FEF788FB2320FEF743FB0023BB614FF4AE
:105290008003FB6107233B6200237B620023BB6228
:1052A0004FF08063FB624FF0A0433B6300237B63BE
:1052B0000023BB630023FB6307F11803194616485C
:1052C00005F078FE00211448FFF71CFB1248FFF799
:1052D0002CFB0323002203210E48FEF727FE0F4A72
:1052E00002210C48FEF74AFE0D4A03210948FEF749
:1052F00045FE2320FEF72AFB0748FFF7F3FA00BF1D
:105300004037BD4680BD00BF040C0007000C0258AA
:1053100000040258000002400030014030300140DB
:105320002030014080B590B000AF07F1180328226B
:10533000002118461DF05AFB3B4600221A605A60B5
:105340009A60DA601A615A616B48FEF716FF4FF4F3
:105350008040FFF70DFA0420FFF7EEF90820FFF771
:10536000EBF906233B6002237B600323BB60002331
:10537000FB6000233B6105237B613B4619465F4888
:1053800004F0C5FE08233B6002237B600323BB605F
:105390000023FB6000233B6105237B613B461946EC
:1053A000574804F0B4FE272200215648FEF76CFD52
:1053B000002200215348FEF75DFC002200215148E5
:1053C000FEF73CFD002200214E48FEF779FC00224A
:1053D00000214C48FEF79AFC4FF4806200214948B6
:1053E000FEF7BAFC002200214648FEF7DBFC002253
:1053F00000214448FEF7FCFC00214248FEF774FD02
:10540000282201213F48FEF73FFD402201213D486F
:10541000FEF730FC002201213A48FEF70FFD002282
:1054200001213848FEF74CFC002201213548FEF7E7
:105430006DFC4FF4806201213248FEF78DFC0022A2
:1054400001213048FEF7AEFC002201212D48FEF775
:10545000CFFC01212B48FEF747FDFEF74BFA034630
:10546000002200211846FEF7BFFA03461946242001
:10547000FEF790FA2420FEF74BFA0023BB614FF4AD
:105480008003FB6107233B6200237B620023BB6236
:105490004FF08063FB624FF0A0433B6300237B63CC
:1054A0000023BB630023FB6307F11803194616486A
:1054B00005F080FD00211448FFF724FA1248FFF799
:1054C00034FA0323002201210E48FEF72FFD0F4A74
:1054D00000210C48FEF752FD0D4A01210948FEF754
:1054E0004DFD2420FEF732FA0748FFF7FBF900BF15
:1054F0004037BD4680BD00BF040C000700080258BD
:10550000000C0258000002400038004030380040D3
:105510002038004080B590B000AF07F11803282272
:10552000002118461DF062FA3B4600221A605A60BC
:105530009A60DA601A615A616048FEF71EFE4FF405
:105540000050FFF731F91020FFF7F6F84FF48353BE
:105550003B6002237B600023BB600023FB600023D1
:105560003B6105237B613B461946554804F0CFFD5E
:10557000532204215348FEF787FC0022042151489E
:10558000FEF778FB002204214E48FEF757FC00226C
:1055900004214C48FEF794FB002204214948FEF701
:1055A000B5FB4FF4806204214648FEF7D5FB00228C
:1055B00004214448FEF7F6FB002204214148FEF78F
:1055C00017FC04213F48FEF78FFC542205213D487B
:1055D000FEF75AFC402205213A48FEF74BFB002219
:1055E00005213848FEF72AFC002205213548FEF740
:1055F00067FB002205213348FEF788FB4FF48062E9
:1056000005213048FEF7A8FB002205212D48FEF7B2
:10561000C9FB002205212B48FEF7EAFB052129489A
:10562000FEF762FCFEF766F90346002200211846E9
:10563000FEF7DAF9034619465420FEF7ABF9542079
:10564000FEF766F90023BB614FF48003FB6107237B
:105650003B6200237B620023BB624FF08063FB62EE
:105660004FF000533B6300237B630023BB630023A5
:10567000FB6307F118031946134805F09BFC002152
:105680001148FFF73FF91048FFF74FF903230022B5
:1056900005210C48FEF74AFC0C4A04210948FEF794
:1056A0006DFC0B4A05210748FEF768FC5420FEF705
:1056B0004DF900BF4037BD4680BD00BF0410000754
:1056C0000010025800000240003401403034014014
:1056D0002034014080B59EB000AF07F16403002282
:1056E0001A605A609A60DA601A6107F14403202256
:1056F000002118461DF07AF907F11C032822002129
:1057000018461DF073F93B1D00221A605A609A601A
:10571000DA601A615A610120FFF746F84FF4F0731E
:10572000A7F864300023BB664FF4FA73FB660023CE
:105730003B6700237B6707F164031946374805F090
:1057400049FD3648FFF701F900213448FFF7AEF96B
:1057500001213248FFF75AF960237B640023BB64C0
:105760000023FB6400233B6500237B650023BB65AE
:105770000023FB6500233B6607F144031A46012121
:10578000264805F0BBFD01212448FFF7EFF8002172
:105790002248FFF7A1F900212048FFF7B0F91F4880
:1057A000FFF7C0F94FF40063FB614FF480633B6285
:1057B00000237B62002387F8283000237B854FF489
:1057C0000053FB6200233B6300237B634FF00073B5
:1057D000BB630023FB634FF480433B6407F11C036E
:1057E00019460E4805F0EAFD0120FEF7A5FF4FF42B
:1057F00080737B600223BB600023FB6000233B615E
:1058000000237B610123BB613B1D1946044804F062
:105810007EFC00BF7837BD4680BD00BF0000014060
:105820000000025880B586B000AF3B1D00221A6010
:105830005A609A60DA601A614FF48020FEF7B4FF74
:10584000FEF758F80346002200211846FEF7CCF870
:10585000034619467620FEF79DF87620FEF758F8A5
:1058600045F6C053BB800023BB6044F62063FB6059
:1058700000233B6100237B613B1D1946044805F072
:10588000A9FC0348FFF761F800BF1837BD4680BD8B
:105890000048014080B58EB000AF07F11803202208
:1058A000002118461DF0A2F83B4600221A605A60FB
:1058B0009A60DA601A615A614448FEF753FC4FF46B
:1058C0000020FEF755FF0220FEF736FF0420FEF70A
:1058D00033FF4FF480433B6002237B600023BB60B7
:1058E0000023FB6000233B6108237B613B46194694
:1058F000374804F00CFC4FF440633B6002237B60AC
:105900000023BB600023FB6000233B6108237B6115
:105910003B4619462F4804F0FAFBFDF7EBFF034620
:10592000002200211846FEF75FF80346194634208E
:10593000FEF730F83420FDF7EBFF0023BB61264B68
:10594000FB6100233B6200237B620023BB620C23CC
:10595000FB6200233B6300237B6307F118031946B6
:105960001E4806F0FFF81D48FFF7A8F900211B4864
:10597000FFF7B4F901211948FFF78CF90121174805
:10598000FFF774F91548FFF7EDF804211348FFF706
:10599000F9F801211148FFF71CF91048FFF7B1F998
:1059A0000E48FFF7CFF800BF0C48FFF7C0F90346D9
:1059B000002BF9D00948FFF7CEF90346002BF3D0AE
:1059C00000BF00BF3837BD4680BD00BF08000007DC
:1059D0000004025800080258C0C62D00004C0040C8
:1059E00080B58EB000AF07F11803202200211846C1
:1059F0001CF0FCFF3B4600221A605A609A60DA6095
:105A00001A615A614348FEF7ADFB4FF48010FEF770
:105A1000AFFE0420FEF790FE0220FEF78DFE4FF44D
:105A200080733B6002237B600023BB600023FB602C
:105A300000233B6108237B613B461946364804F04E
:105A400066FB60233B6002237B600023BB60002376
:105A5000FB6000233B610E237B613B4619462F48C8
:105A600004F055FBFDF746FF0346002200211846CF
:105A7000FDF7BAFF034619463520FDF78BFF3520A9
:105A8000FDF746FF0023BB61254BFB6100233B6212
:105A900000237B620023BB620C23FB6200233B6379
:105AA00000237B6307F1180319461E4806F05AF8D5
:105AB0001C48FFF703F900211A48FFF70FF90121ED
:105AC0001848FFF7E7F801211648FFF7CFF8154807
:105AD000FFF748F804211348FFF754F80121114853
