:020000040800F2
:1030000000500020E59A0008F59800080199000892
:10301000079900080D9900081399000800000000A6
:1030200000000000000000000000000019990008E6
:103030002599000800000000319900083D9900081A
:103040002D9B00082D9B00082D9B00082D9B000840
:103050002D9B00082D9B00082D9B00082D9B000830
:103060002D9B00082D9B00082D9B00082D9B000820
:103070002D9B00082D9B00082D9B00082D9B000810
:103080002D9B00082D9B00082D9B00082D9B000800
:103090002D9B00082D9B00082D9B00082D9B0008F0
:1030A0002D9B00082D9B00082D9B00082D9B0008E0
:1030B000015D0008ED660008216700082D9B0008EF
:1030C0002D9B00082D9B00082D9B0008495D0008E2
:1030D0002D9B0008397500082D9B00082D9B0008CA
:1030E0002D9B00082D9B00082D9B00080000000070
:1030F00000000000000000000000000000000000D0
:0C31000000000000000000005FF808F173
:10310C0010B5054C237833B9044B13B10448AFF315
:10311C0000800123237010BDA400002000000000DB
:10312C00549D000808B5034B1BB103490348AFF38A
:10313C00008008BD00000000A8000020549D00087D
:10314C0080B487B000AF786000237B6100233B61C3
:10315C000F23FB607B68DB78002B3AD0274BDB68B6
:10316C00DB431B0A03F007037B617B69C3F1040398
:10317C003B61FA687B6922FA03F3FB607B685B783E
:10318C001A463B6902FA03F37B617B689B781A460B
:10319C00FB6813407A6913437B617B691B017B617C
:1031AC00174A7B681B787969C9B213440A4683F8BD
:1031BC0000237B681B7803F01F0311497A6812788F
:1031CC005209D2B21046012202FA03F341F8203020
:1031DC000FE07B681B7803F01F0309497A681278AB
:1031EC005209D2B2104601229A4000F1200341F854
:1031FC00232000BF1C37BD4680BC704700ED00E0AB
:10320C0000E100E080B485B000AF78603960002345
:10321C00FB600023FB727B685B68FB60FB6823F43C
:10322C00702323F48073FB603B681A683B681B793E
:10323C001B021343FA681343FB607B68FA685A60FD
:10324C007B689B68FB60FA68164B1340FB603B681D
:10325C00DA683B689B681A433B685B795B001343F5
:10326C00FA681343FB607B68FA689A607B68DB6AD8
:10327C00FB60FB6823F47003FB603B681B7C013B29
:10328C00DAB2FB7A1343FB72FB7A1B05FA68134321
:10329C00FB607B68FA68DA6200BF1437BD4680BCFD
:1032AC00704700BFFDF7F1FF80B483B000AF7860CA
:1032BC000B46FB70FB78002B06D07B689B6843F0B9
:1032CC0001027B689A6005E07B689B6823F0010231
:1032DC007B689A6000BF0C37BD4680BC704780B4D9
:1032EC0083B000AF78600B46FB70FB78002B06D0E8
:1032FC007B689B6843F480727B689A6005E07B680E
:10330C009B6823F480727B689A6000BF0C37BD46C3
:10331C0080BC704780B483B000AF78607B689B68DA
:10332C0043F008027B689A6000BF0C37BD4680BC36
:10333C00704780B485B000AF78600023FB737B6866
:10334C009B6803F00803002B02D00123FB7301E000
:10335C000023FB73FB7B18461437BD4680BC7047BB
:10336C0080B483B000AF78607B689B6843F0040244
:10337C007B689A6000BF0C37BD4680BC704780B438
:10338C0085B000AF78600023FB737B689B6803F00B
:10339C000403002B02D00123FB7301E00023FB7319
:1033AC00FB7B18461437BD4680BC704780B485B093
:1033BC0000AF7860084611461A460346FB700B4670
:1033CC00BB7013467B700023FB600023BB60FB7853
:1033DC00092B23D97B68DB68FB60FB78A3F10A021D
:1033EC0013465B001344072202FA03F3BB60BB686D
:1033FC00DB43FA681340FB607978FB78A3F10A028F
:10340C0013465B00134401FA03F3BB60FA68BB6814
:10341C001343FB607B68FA68DA601EE07B681B690B
:10342C00FB60FA7813465B001344072202FA03F39D
:10343C00BB60BB68DB43FA681340FB607978FA78B1
:10344C0013465B00134401FA03F3BB60FA68BB68D4
:10345C001343FB607B68FA681A61BB78062B21D892
:10346C007B685B6BFB60BB785A1E13469B00134456
:10347C001F2202FA03F3BB60BB68DB43FA681340FC
:10348C00FB60F978BB785A1E13469B00134401FA73
:10349C0003F3BB60FA68BB681343FB607B68FA6894
:1034AC005A6347E0BB780C2B21D87B681B6BFB6005
:1034BC00BB78DA1F13469B0013441F2202FA03F356
:1034CC00BB60BB68DB43FA681340FB60F978BB78E0
:1034DC00DA1F13469B00134401FA03F3BB60FA682E
:1034EC00BB681343FB607B68FA681A6322E07B6855
:1034FC00DB6AFB60BB78A3F10D0213469B001344FF
:10350C001F2202FA03F3BB60BB68DB43FA6813406B
:10351C00FB60F978BB78A3F10D0213469B001344B2
:10352C0001FA03F3BB60FA68BB681343FB607B686A
:10353C00FA68DA6200BF1437BD4680BC704780B4AD
:10354C0083B000AF78600B46FB70FB78002B06D085
:10355C007B689B6843F480127B689A6005E07B680B
:10356C009B6823F480127B689A6000BF0C37BD46C1
:10357C0080BC704780B483B000AF78607B681A68F9
:10358C004FF6FE7313407A6813607B6800221A6052
:10359C007B6800225A607B6800229A607B6800225C
:1035AC00DA607B68434A934206D1434B5B68424ADC
:1035BC0043F00F03536077E07B68404A934206D197
:1035CC003D4B5B683C4A43F0F00353606CE07B6816
:1035DC003B4A934206D1384B5B68374A43F47063DD
:1035EC00536061E07B68374A934206D1324B5B688B
:1035FC00314A43F47043536056E07B68324A93423D
:10360C0006D12D4B5B682C4A43F4702353604BE07E
:10361C007B682E4A934206D1274B5B68264A43F4BB
:10362C007003536040E07B68294A934206D1224BD9
:10363C005B68214A43F07063536035E07B68254A30
:10364C00934206D1244B5B68234A43F00F0353602B
:10365C002AE07B68214A934206D11F4B5B681E4AC5
:10366C0043F0F00353601FE07B681D4A934206D180
:10367C00194B5B68184A43F47063536014E07B6821
:10368C00184A934206D1144B5B68134A43F47043B7
:10369C00536009E07B68144A934205D10E4B5B687A
:1036AC000D4A43F47023536000BF0C37BD4680BCF9
:1036BC00704700BF08000240000002401C0002409E
:1036CC003000024044000240580002406C000240AE
:1036DC008000024008040240000402401C04024026
:1036EC0030040240440402405804024080B485B0C7
:1036FC0000AF786039600023FB607B681B68FB605F
:10370C00FB6823F4FF4323F07003FB603B689A686B
:10371C003B681B6A1A433B681B691A433B685B692D
:10372C001A433B689B691A433B68DB691A433B6845
:10373C005B6A1A433B689B6A1343FA681343FB604A
:10374C007B68FA681A603B68DA687B685A603B6889
:10375C001A687B689A603B685A687B68DA6000BFBD
:10376C001437BD4680BC704780B483B000AF78601E
:10377C000B46FB70FB78002B06D07B681B6843F074
:10378C0001027B681A6006E07B681A684FF6FE73CC
:10379C0013407A68136000BF0C37BD4680BC70477D
:1037AC0080B483B000AF78600B467B807A887B68EE
:1037BC005A6000BF0C37BD4680BC704780B400AF68
:1037CC00044B054A5A60034B044A5A6000BFBD467D
:1037DC0080BC70470020024023016745AB89EFCDC8
:1037EC0080B400AF044B1B69034A43F080031361A0
:1037FC0000BFBD4680BC70470020024080B584B03D
:10380C0000AF78600423FB734FF4302000F0AAF86B
:10381C000346FB73FB7B042B1BD1104B1B690F4A1C
:10382C0043F0020313610D4A7B6853610B4B1B6918
:10383C000A4A43F0400313614FF4302000F092F831
:10384C000346FB73054B1A69044941F6FD7313409B
:10385C000B61FB7B18461037BD4680BD0020024033
:10386C0080B584B000AF786039600423FB7300230B
:10387C00BB604FF4005000F075F80346FB73FB7B04
:10388C00042B2FD11A4B1B69194A43F00103136106
:10389C007B683A6892B21A804FF4005000F062F8DC
:1038AC000346FB73FB7B042B15D17B680233BB6097
:1038BC003B681A0CBB6892B21A804FF4005000F0AF
:1038CC0051F80346FB730A4B1A69094941F6FE731A
:1038DC0013400B6106E0064B1A69054941F6FE736D
:1038EC0013400B61FB7B18461037BD4680BD00BFF3
:1038FC000020024080B483B000AF7860034A7B683C
:10390C00D36000BF0C37BD4680BC7047002002401E
:10391C0080B483B000AF0423FB71114BDB6803F060
:10392C000103012B02D10123FB7113E00C4BDB686B
:10393C0003F00403002B02D00223FB710AE0084BB6
:10394C00DB6803F01003002B02D00323FB7101E0B2
:10395C000423FB71FB7918460C37BD4680BC7047BD
:10396C000020024080B584B000AF78600423FB7364
:10397C00FFF7CEFF0346FB7306E0FFF7C9FF0346D4
:10398C00FB737B68013B7B60FB7B012B02D17B686B
:10399C00002BF2D17B68002B01D10523FB73FB7B41
:1039AC0018461037BD4680BD80B489B000AF786032
:1039BC0039600023FB6100233B610023BB610023C2
:1039CC00FB6000237B610023BB603B68DB7803F06A
:1039DC000F03FB613B68DB7803F01003002B05D071
:1039EC003B689B781A46FB691343FB613B681B8859
:1039FC00DBB2002B44D07B681B687B610023BB616E
:103A0C0038E00122BB6902FA03F3FB603B681B88B8
:103A1C001A46FB6813403B613A69FB689A4226D10F
:103A2C00BB699B00FB600F22FB6802FA03F3BB60CF
:103A3C00BB68DB437A6913407B61FA69FB6802FA65
:103A4C0003F37A6913437B613B68DB78282B05D140
:103A5C000122BB699A407B685A6108E03B68DB78BD
:103A6C00482B04D10122BB699A407B681A61BB695F
:103A7C000133BB61BB69072BC3D97B687A691A60B8
:103A8C003B681B88FF2B46D97B685B687B610023F6
:103A9C00BB613AE0BB690833012202FA03F3FB6015
:103AAC003B681B881A46FB6813403B613A69FB680C
:103ABC009A4227D1BB699B00FB600F22FB6802FA7C
:103ACC0003F3BB60BB68DB437A6913407B61FA6923
:103ADC00FB6802FA03F37A6913437B613B68DB787A
:103AEC00282B05D1BB69083301229A407B685A61A7
:103AFC003B68DB78482B05D1BB69083301229A401F
:103B0C007B681A61BB690133BB61BB69072BC1D9E7
:103B1C007B687A695A6000BF2437BD4680BC704709
:103B2C0080B483B000AF78600B467B8013467B700B
:103B3C007B78002B03D07A887B681A6102E07A8844
:103B4C007B685A6100BF0C37BD4680BC70470000D3
:103B5C0080B487B000AF78600B46FB7000233B61EC
:103B6C000023FB6000237B610023BB607B68002B80
:103B7C0003DA2E4BDB697B6102E02C4B5B687B61CB
:103B8C007B681B0C03F00F03BB607B689BB23B6133
:103B9C007B6803F44013B3F5401F0AD17B6923F013
:103BAC0070637B61214B5B68204A23F07063536028
:103BBC0021E07B6803F48013002B0ED00322BB683A
:103BCC0002FA03F3FB60FB68DB437A6913407B6109
:103BDC007B6943F070637B610DE07B685B0D1B01BF
:103BEC003A6902FA03F3DB437A6913407B617B6920
:103BFC0043F070637B61FB78002B08D07B685B0D16
:103C0C001B013A6902FA03F37A6913437B617B68FF
:103C1C00002B03DA054A7B69D36102E0034A7B6916
:103C2C00536000BF1C37BD4680BC7047000001408C
:103C3C0080B485B000AF78600023FB60094B5B68F3
:103C4C00FB60FB6823F44043FB60FA687B6813431A
:103C5C00FB60044AFB68536000BF1437BD4680BC50
:103C6C00704700BF0010024080B487B000AF78608E
:103C7C0000237B6100233B610023FB600023BB60BE
:103C8C004F4B5B6803F00C037B617B69082B11D0F5
:103C9C007B69082B3AD87B69002B03D07B69042BFA
:103CAC0004D033E07B68474A1A6033E07B68464AAD
:103CBC001A602FE0424B5B6803F470133B61404B7E
:103CCC005B6803F48033FB603B699B0C02333B6104
:103CDC00FB68002B06D13B693C4A02FB03F27B6874
:103CEC001A6017E0364B5B6803F40033002B06D0E8
:103CFC003B69344A02FB03F27B681A600AE03B69B9
:103D0C00314A02FB03F27B681A6003E07B682D4AA0
:103D1C001A6000BF2A4B5B6803F0F0037B617B6980
:103D2C001B097B612A4A7B6913441B78DBB2BB609D
:103D3C007B681A68BB68DA407B685A60204B5B680A
:103D4C0003F4E0637B617B691B0A7B61204A7B691E
:103D5C0013441B78DBB2BB607B685A68BB68DA40E3
:103D6C007B689A60164B5B6803F460537B617B69DC
:103D7C00DB0A7B61164A7B6913441B78DBB2BB60A0
:103D8C007B685A68BB68DA407B68DA600C4B5B680E
:103D9C0003F440437B617B699B0B7B610D4A7B6920
:103DAC0013441B78DBB2BB607B68DA68BB68B2FB80
:103DBC00F3F27B681A6100BF1C37BD4680BC7047AC
:103DCC000010024000127A000024F40000093D00AB
:103DDC00000000201000002080B483B000AF786099
:103DEC000B46FB70FB78002B06D0094B5A6908492F
:103DFC007B6813434B6106E0054B5A697B68DB43D8
:103E0C00034913404B6100BF0C37BD4680BC704763
:103E1C000010024080B483B000AF78600B46FB709A
:103E2C00FB78002B06D0094B9A6908497B68134331
:103E3C008B6106E0054B9A697B68DB4303491340B1
:103E4C008B6100BF0C37BD4680BC70470010024030
:103E5C0080B483B000AF78600B46FB70FB78002B0E
:103E6C0006D0094BDA6908497B681343CB6106E03D
:103E7C00054BDA697B68DB4303491340CB6100BF18
:103E8C000C37BD4680BC70470010024080B485B032
:103E9C0000AF786039600023FB817B681B88FB8155
:103EAC00FB8903F44153FB813B681A883B685B88B0
:103EBC0013439AB23B689B8813439AB23B68DB88E6
:103ECC0013439AB23B681B8913439AB23B685B89D4
:103EDC0013439AB23B689B8913439AB23B68DB89C4
:103EEC0013439AB2FB891343FB817B68FA891A80CE
:103EFC007B689B8B9BB223F400639AB27B689A839A
:103F0C003B681A8A7B681A8200BF1437BD4680BC96
:103F1C00704780B483B000AF78600B46FB70FB78C1
:103F2C00002B08D07B681B889BB243F040039AB2ED
:103F3C007B681A8007E07B681B889BB223F04003E8
:103F4C009AB27B681A8000BF0C37BD4680BC7047A4
:103F5C0080B483B000AF78600B467B8013467B70D7
:103F6C007B78002B08D07B689B889AB27B881343A4
:103F7C009AB27B689A8009E07B689B889AB27B88AE
:103F8C00DB439BB213409AB27B689A8000BF0C371C
:103F9C00BD4680BC704780B483B000AF78600B46E0
:103FAC007B807B687A889A8100BF0C37BD4680BCC9
:103FBC00704780B483B000AF78607B689B899BB2FC
:103FCC0018460C37BD4680BC704780B485B000AF36
:103FDC0078600B467B800023FB737B681B899AB24D
:103FEC007B8813409BB2002B02D00123FB7301E0B2
:103FFC000023FB73FB7B18461437BD4680BC70470F
:10400C0080B483B000AF78600B467B807B88DB4349
:10401C009AB27B681A8100BF0C37BD4680BC7047D2
:10402C0080B485B000AF786039600023FB817B6879
:10403C001B88FB817B682E4A934213D07B682D4AE8
:10404C0093420FD07B68B3F1804F0BD07B682A4A28
:10405C00934207D07B68294A934203D07B68284A55
:10406C00934208D1FB8923F07003FB813B685A888B
:10407C00FB891343FB817B68224A93420CD07B68FB
:10408C00214A934208D0FB8923F44073FB813B689F
:10409C00DA88FB891343FB817B68FA891A803B68B9
:1040AC009A887B689A853B681A887B681A857B6836
:1040BC000F4A93420FD07B680E4A93420BD07B6819
:1040CC00124A934207D07B68114A934203D07B6813
:1040DC00104A934204D13B681B7A9AB27B681A86C9
:1040EC007B6801229A8200BF1437BD4680BC7047A2
:1040FC00002C014000340140000400400008004046
:10410C00000C004000100040001400400040014032
:10411C00004401400048014080B485B000AF786095
:10412C00396000237B810023FB810023BB817B68EA
:10413C001B8C9BB223F001039AB27B681A847B68B8
:10414C001B8CFB817B689B88BB817B681B8B7B8179
:10415C007B8923F070037B817B8923F003037B81B4
:10416C003B681A887B8913437B81FB8923F002030C
:10417C00FB813B681A89FB891343FB813B685A8896
:10418C00FB891343FB817B68244A93420FD07B68E5
:10419C00234A93420BD07B68224A934207D07B6818
:1041AC00214A934203D07B68204A934223D1FB8956
:1041BC0023F00803FB813B685A89FB891343FB817D
:1041CC00FB8923F00403FB813B689A88FB8913432A
:1041DC00FB81BB8923F48073BB81BB8923F40073FF
:1041EC00BB813B689A89BB891343BB813B68DA89E5
:1041FC00BB891343BB817B68BA899A807B687A89B7
:10420C001A833B68DA887B689A867B68FA891A84F9
:10421C0000BF1437BD4680BC704700BF002C014066
:10422C00003401400040014000440140004801407E
:10423C0080B485B000AF7860396000237B810023A7
:10424C00FB810023BB817B681B8C9BB223F010038A
:10425C009AB27B681A847B681B8CFB817B689B8879
:10426C00BB817B681B8B7B817B8923F4E0437B8147
:10427C007B8923F440737B813B681B881B029AB2B9
:10428C007B8913437B81FB8923F02003FB813B68F3
:10429C001B891B019AB2FB891343FB813B685B882A
:1042AC001B019AB2FB891343FB817B68224A934220
:1042BC0003D07B68214A93422BD1FB8923F08003E6
:1042CC00FB813B685B891B019AB2FB891343FB8121
:1042DC00FB8923F04003FB813B689B881B019AB24E
:1042EC00FB891343FB81BB8923F48063BB81BB89AE
:1042FC0023F40063BB813B689B899B009AB2BB890A
:10430C001343BB813B68DB899B009AB2BB89134387
:10431C00BB817B68BA899A807B687A891A833B68EF
:10432C00DA887B681A877B68FA891A8400BF14378D
:10433C00BD4680BC704700BF002C014000340140DA
:10434C0080B485B000AF7860396000237B81002396
:10435C00FB810023BB817B681B8C9BB223F4807395
:10436C009AB27B681A847B681B8CFB817B689B8868
:10437C00BB817B689B8B7B817B8923F070037B816A
:10438C007B8923F003037B813B681A887B89134369
:10439C007B81FB8923F40073FB813B681B891B0227
:1043AC009AB2FB891343FB813B685B881B029AB270
:1043BC00FB891343FB817B68224A934203D07B68C1
:1043CC00214A93422BD1FB8923F40063FB813B6888
:1043DC005B891B029AB2FB891343FB81FB8923F493
:1043EC008063FB813B689B881B029AB2FB89134359
:1043FC00FB81BB8923F48053BB81BB8923F400531D
:10440C00BB813B689B891B019AB2BB891343BB815F
:10441C003B68DB891B019AB2BB891343BB817B6868
:10442C00BA899A807B687A899A833B68DA887B6838
:10443C009A877B68FA891A8400BF1437BD4680BC02
:10444C00704700BF002C01400034014080B483B0A1
:10445C0000AF78600B46FB70FB78002B08D07B68B4
:10446C001B889BB243F001039AB27B681A8007E069
:10447C007B681B889BB223F001039AB27B681A807D
:10448C0000BF0C37BD4680BC704780B483B000AF12
:10449C0078600B46FB70FB78002B0CD07B68B3F874
:1044AC0044309BB26FEA43436FEA53439AB27B6842
:1044BC00A3F8442009E07B68B3F844309BB2C3F303
:1044CC000E039AB27B68A3F8442000BF0C37BD469C
:1044DC0080BC704780B483B000AF78600B467B80A3
:1044EC0013467B707B78002B08D07B689B899AB233
:1044FC007B8813439AB27B689A8109E07B689B891D
:10450C009AB27B88DB439BB213409AB27B689A8148
:10451C0000BF0C37BD4680BC704780B483B000AF81
:10452C0078600B467B807B687A889A8600BF0C3754
:10453C00BD4680BC704780B483B000AF78600B463A
:10454C007B807B687A881A8700BF0C37BD4680BC9D
:10455C00704780B483B000AF78600B467B807B885B
:10456C00DB439AB27B681A8200BF0C37BD4680BC15
:10457C007047000080B58CB000AF786039600023C4
:10458C00FB620023BB6200237B6200233B6200239F
:10459C00FB617B68FB617B681B8A9BB2FB62FA6ADE
:1045AC004CF6FF731340FB623B68DB881A46FB6AD0
:1045BC001343FB62FB6A9AB27B681A827B689B8905
:1045CC009BB2FB62FA6A4EF6F3131340FB623B6834
:1045DC009A883B681B8913439AB23B685B891343E7
:1045EC009BB21A46FB6A1343FB62FB6A9AB27B6866
:1045FC009A817B689B8A9BB2FB62FA6A4FF6FF43F7
:10460C001340FB623B689B891A46FB6A1343FB62AF
:10461C00FB6A9AB27B689A8207F108031846FFF787
:10462C0023FBFB692E4A934202D17B69BB6201E0FA
:10463C003B69BB627B689B899BB21BB2002B0CDA7B
:10464C00BA6A13469B0013449A001A443B681B68D1
:10465C005B00B2FBF3F37B620BE0BA6A13469B0080
:10466C0013449A001A443B681B689B00B2FBF3F39B
:10467C007B627B6A1B4AA2FB03235B091B01FB6267
:10468C00FB6A1B09642202FB03F37A6AD31A3B62AE
:10469C007B689B899BB21BB2002B0CDA3B6ADB005C
:1046AC003233104AA2FB03235B0903F00703FA6AB7
:1046BC001343FB620BE03B6A1B013233094AA2FB3A
:1046CC0003235B0903F00F03FA6A1343FB62FB6AD3
:1046DC009AB27B681A8100BF3037BD4680BD00BFDF
:1046EC00003801401F85EB5180B483B000AF786077
:1046FC000B46FB70FB78002B08D07B689B899BB228
:10470C0043F400539AB27B689A8107E07B689B89DB
:10471C009BB223F400539AB27B689A8100BF0C378A
:10472C00BD4680BC704780B483B000AF78600B4648
:10473C007B8013467B707B78002B08D07B689B8A30
:10474C009AB27B8813439AB27B689A8209E07B68A1
:10475C009B8A9AB27B88DB439BB213409AB27B68EC
:10476C009A8200BF0C37BD4680BC704780B483B0C2
:10477C0000AF786039607B685B683A6813443B60D3
:10478C007B681A687B689B683968994204DB7B6894
:10479C009B683968CB1A00E03B6813441B781846B9
:1047AC000C37BD4680BC704780B485B000AF7860D4
:1047BC0039607B681B6C591C7A6811647A68D15C0F
:1047CC007A68526C386800FA02F2D2B20A43D2B25A
:1047DC0062F07F02D1B27A68D1547B685B6CC3F112
:1047EC000703FB60FB68C3F108027B685A643B68F3
:1047FC00DAB2FB6842FA03F35BB263F07F035AB29E
:10480C007B681B6CD1B27A68D1547B685B6C072BCC
:10481C000CD17B681B6C5A1C7B681A647B681B6C04
:10482C007A680021D1547B6800225A6400BF143787
:10483C00BD4680BC704780B582B000AF78603960EF
:10484C0039687868FFF7B0FF3B681B121946786827
:10485C00FFF7AAFF00BF0837BD4680BD80B582B008
:10486C0000AF7860396039687868FFF79DFF3B6866
:10487C001B1219467868FFF797FF3B681B14194603
:10488C007868FFF791FF3B681B1619467868FFF7AD
:10489C008BFF00BF0837BD4680BD80B485B000AF2C
:1048AC00F8600B467A60FB72FB6800225A64FB6866
:1048BC0001221A64FB7A1B015BB203F070035AB23B
:1048CC007B685BB203F00F035BB213435BB2DAB2EB
:1048DC00FB681A70FB6800225A7000BF1437BD4683
:1048EC0080BC704780B483B000AF78607B680022D6
:1048FC005A647B6800221A647B6800221A7000BF1D
:10490C000C37BD4680BC704780B582B000AF786074
:10491C007B685B6C002B04D07B681B6C5A1C7B681F
:10492C001A6478687B68196C0023002200F056F832
:10493C0003465BB263F07F035AB27B681B6CD1B247
:10494C007A68D1547B681B6C5A1C7B681A647B6830
:10495C001B6C7A680021D15400BF0837BD4680BD5E
:10496C0080B584B000AFF860B9607A60F868FFF782
:10497C00B9FFB968F868FFF75EFF7968F868FFF768
:10498C005AFFF868FFF7C0FF00BF1037BD4680BD67
:10499C0080B582B000AF786039607868FFF7A2FF0D
:1049AC0039687868FFF75AFF7868FFF7ADFF00BFEA
:1049BC000837BD4680BD80B582B000AF78603960E5
:1049CC007868FFF78FFF39687868FFF747FF7868DA
:1049DC00FFF79AFF00BF0837BD4680BD80B487B093
:1049EC0000AFF860B9607A603B60FF23FB75BB6871
:1049FC005A1EBA60002B14BF01230023DBB2002B1C
:104A0C000BD0FB685A1CFA601A78FB7D5340DBB262
:104A1C001A46104B9B5CFB75E9E73B685A1E3A60E3
:104A2C00002B14BF01230023DBB2002B0BD07B68BF
:104A3C005A1C7A601A78FB7D5340DBB21A46054B40
:104A4C009B5CFB75E9E7FB7D18461C37BD4680BCBB
:104A5C00704700BF6C9D000880B485B000AFF86053
:104A6C00B96011461A460B46FB801346BB80FB68A7
:104A7C00BA681A60B7F90620FB685A60B7F90420C7
:104A8C00FB689A60FB68BA69DA60FB6800221A61FD
:104A9C00FB6818461437BD4680BC704780B485B09F
:104AAC0000AFF860B9607A60FB68BA685A60FB685E
:104ABC007A68DA60FB6800221A6100BF1437BD46C1
:104ACC0080BC704780B584B000AF78607B68DB68D1
:104ADC00591C7A68D16019467868FFF747FE03467F
:104AEC0003F07F027B681B6942FA03F3FB607B686F
:104AFC001B69C3F10703BB607B68DB6819467868E8
:104B0C00FFF734FE034603F07F02BB6802FA03F39F
:104B1C00DBB2FA681343FB60BB68C3F108027B6825
:104B2C001A617B681B69072B07D17B68DB685A1CF1
:104B3C007B68DA607B6800221A61FB6818461037C4
:104B4C00BD4680BD80B584B000AF78607868FFF753
:104B5C00B9FFF8607868FFF7B5FF03461B02FA68E7
:104B6C001343FB60FB6818461037BD4680BD80B50B
:104B7C0084B000AF78607868FFF7E4FF0346FB81F0
:104B8C00B7F90E3018461037BD4680BD80B584B0DD
:104B9C0000AF78607868FFF795FFF8607868FFF7EA
:104BAC0091FF03461B02FA681343FB607868FFF71A
:104BBC0089FF03461B04FA681343FB607868FFF710
:104BCC0081FF03461B06FA681343FB60FB6818461B
:104BDC001037BD4680BD90B587B000AF78603960A6
:104BEC003B68013B3B607B689A687B685B68D31AC7
:104BFC007B617A693B689A421BDB7B681B687A682D
:104C0C0052689818002300223968FFF7E7FE034624
:104C1C0043F08003FB6039687868FFF7A7FD034613
:104C2C00BB60FA68BB689A420CBF01230023DBB25D
:104C3C001BE03A687B69D31A3B617B681B687A6816
:104C4C00526898187B681A683B697969FFF7C6FE49
:104C5C00034643F0800439687868FFF787FD034604
:104C6C009C420CBF01230023DBB218461C37BD4607
:104C7C0090BD80B582B000AF786039607B681B68EE
:104C8C0008331B68394604227868984700BF0837F8
:104C9C00BD4680BD80B582B000AF786039607B685E
:104CAC001B6808331B68042239687868984700BF72
:104CBC000837BD4680BD000080B584B000AFF860F9
:104CCC00B9607A60FB680433184600F0F9F9074ABA
:104CDC00FB681A60FB68BA689A60FB687A68DA60ED
:104CEC00FB6818461037BD4680BD00BF74A2000893
:104CFC0080B483B000AF786000BF0C37BD4680BC79
:104D0C00704780B483B000AF78607B681B8AA3F5D2
:104D1C00006318460C37BD4680BC704780B483B026
:104D2C0000AF78607B685B8A18460C37BD4680BC48
:104D3C00704780B483B000AF7860062318460C37F8
:104D4C00BD4680BC7047000080B582B000AF786073
:104D5C007B680C4AC8211846FFF7AEFF0A4A7B68ED
:104D6C001A607B684FF47A725A617B68074A9A61C1
:104D7C007B6840F25232DA617B6818460837BD46D0
:104D8C0080BD00BF6C9E0008949E0008404B4C00F8
:104D9C0080B594B000AF786001214FF40070FFF73C
:104DAC0039F8032387F84E30002387F84F3002235D
:104DBC00A7F84C3007F14C0319464148FEF7F4FDB7
:104DCC000223A7F84C3007F14C0319463D48FEF777
:104DDC00EBFD3D48FEF7CEFB3C4BFB607B68103394
:104DEC003B6100237B610223BB610023FB618023B9
:104DFC003B624FF480737B624FF48063BB62202371
:104E0C00FB624FF400533B6300237B6307F10C03FD
:104E1C0019462D48FEF76AFC01212B48FEF7A4FC2D
:104E2C000023BB63012387F83C30002387F83D3017
:104E3C004FF480233B6400237B64022387F84830C3
:104E4C0007F1380319462248FEF7DCF90423012246
:104E5C0009211F48FEF7AAFA0123022201211C484E
:104E6C00FEF7A4FA01211A48FEF739FA0121184875
:104E7C00FEF71AFA1648FEF74DFA1548FEF759FADE
:104E8C000346002B14BF01230023DBB2002B00D000
:104E9C00F3E70F48FEF764FA0D48FEF770FA034685
:104EAC00002B14BF01230023DBB2002B00D0F3E74F
:104EBC0001210748FEF743FB00BF5037BD4680BDBC
:104ECC0000080140000C0140080002404C24014045
:104EDC000024014090B583B000AF78607B6893F8F4
:104EEC002C3083F00103DBB2002B09D07868FFF77C
:104EFC0015FF02467B685B699A4201DA012300E0E8
:104F0C000023002B03D07B68012283F82C207B68C4
:104F1C009C6A7868FFF7F5FE0346E2187B68DB694C
:104F2C00D31A4FF0E0421946002000F0D6F80246A2
:104F3C007B689A627B689A6A7B689B699A4203DDFC
:104F4C007B68012283F82D2000BF0C37BD4690BD35
:104F5C0080B582B000AF786039607B689B69194678
:104F6C003868FFF786FE7B68DB6919463868FFF7FF
:104F7C0080FE7B685B6919463868FFF77AFE00BFD4
:104F8C000837BD4680BD80B582B000AF786039600F
:104F9C007B68183319463868FFF77CFE7B681C3336
:104FAC0019463868FFF776FE7B6814331946386863
:104FBC00FFF770FE7B685A691346DB009B1ADA1008
:104FCC007B681A627B689A691346DB009B1ADA10BD
:104FDC007B685A6200BF0837BD4680BD80B582B081
:104FEC0000AF786039603B68052B25D801A252F8D8
:104FFC0023F000BF19500008235000082D50000862
:10500C0033500008395000083F5000087868FFF70B
:10501C0078FE034611E07868FFF780FE03460CE04B
:10502C007B689B6909E07B68DB6906E07B689B6AAF
:10503C0003E07B685B6900E0002318460837BD4637
:10504C0080BD00BF80B485B000AFF860B9607A60F5
:10505C00BB68023B032B2BD801A252F823F000BFF4
:10506C007D500008955000089D500008A550000880
:10507C00FB687A689A61FB689A691346DB009B1A95
:10508C00DA10FB685A6215E0FB687A68DA6111E0A5
:10509C00FB687A689A620DE0FB687A685A61FB6873
:1050AC005A691346DB009B1ADA10FB681A6201E09E
:1050BC00002300E0012318461437BD4680BC70471E
:1050CC0080B483B000AF78607B6800221A607B6884
:1050DC0018460C37BD4680BC704780B485B000AF15
:1050EC00F860B9607A60BA68FB689A4207DBBA6804
:1050FC007B689A4201DD7B6802E0BB6800E0FB68DC
:10510C0018461437BD4680BC7047000080B582B08D
:10511C0000AF786039607B68012B07D13B684FF694
:10512C00FF72934202D10348FFF70EFE00BF08370F
:10513C00BD4680BDC000002080B500AF4FF6FF71AA
:10514C000120FFF7E3FF80BD80B483B000AF78602F
:10515C00044A7B681A607B6818460C37BD4680BCD5
:10516C00704700BFF09E000880B483B000AF786039
:10517C00044A7B681A607B6818460C37BD4680BCB5
:10518C00704700BFF09E000880B582B000AF786019
:10519C007868FFF7E9FF0421786804F0C2FC7B68AB
:1051AC0018460837BD4680BD80B483B000AF786028
:1051BC00044A7B681A607B6818460C37BD4680BC75
:1051CC00704700BFDC9E000880B483B000AF7860ED
:1051DC00044A7B681A607B6818460C37BD4680BC55
:1051EC00704700BFDC9E000880B582B000AF7860CD
:1051FC007868FFF7E9FF0421786804F092FC7B687B
:10520C0018460837BD4680BD80B582B000AF7860C7
:10521C0039607B681B6819463868FFF72AFD7B6884
:10522C005B6819463868FFF724FD7B689B68194654
:10523C003868FFF71EFD7B68DB6819463868FFF796
:10524C0018FD00BF0837BD4680BD80B582B000AFE9
:10525C00786039607B6819463868FFF71BFD7B68FE
:10526C00043319463868FFF715FD7B680833194677
:10527C003868FFF70FFD7B680C3319463868FFF769
:10528C0009FD00BF0837BD4680BD80B483B000AFB8
:10529C00786039607B683A681A607B680022DA6053
:1052AC007B68DA687B689A607B689A687B685A606E
:1052BC0000BF0C37BD4680BC7047000080B400AF07
:1052CC00BFF34F8F00BF074BDB6803F4E062054967
:1052DC00054B1343CB60BFF34F8F00BF00BF00BF24
:1052EC00FCE700BF00ED00E00400FA0580B582B0D9
:1052FC0000AF786039607B681846FFF725FF074AD6
:10530C007B681A607B6800225A607B683A689A60F6
:10531C007B6818460837BD4680BD00BFC89E000894
:10532C0080B584B000AFF860B9607A607B68012BFF
:10533C000DD1FB689A68FB685B689B0013441A46A6
:10534C00BB681B7819461046FEF78AFA20E07B688A
:10535C00022B0DD1FB689A68FB685B689B001344B9
:10536C001A46BB681B8819461046FEF779FA0FE0FF
:10537C007B68042B12D1FB689A68FB685B689B0006
:10538C0013441A46BB681B6819461046FEF768FAA8
:10539C00FB685B685A1CFB685A6000E000BF103762
:1053AC00BD4680BD80B582B000AF786039607B6847
:1053BC001846FFF7F9FE074A7B681A607B680022E3
:1053CC005A607B683A689A607B6818460837BD4615
:1053DC0080BD00BFB49E000880B485B000AFF860FB
:1053EC00B9607A607B68012B09D1FB689A68FB680D
:1053FC005B689B0013441A78BB681A7018E07B68D2
:10540C00022B09D1FB689A68FB685B689B0013440C
:10541C001A88BB681A800BE07B68042B0ED1FB68E2
:10542C009A68FB685B689B0013441A68BB681A6037
:10543C00FB685B685A1CFB685A6000E000BF1437BD
:10544C00BD4680BC7047000080B586B000AF786068
:10545C007B681B78002B06D07B6800221A7078685A
:10546C0000F07AF8F4E77B689B78002B1DD07B6802
:10547C0000229A70FEF7A2F93420FEF73BFA13488B
:10548C00FEF7BCF907F10C0310491846FFF72EFF85
:10549C0007F10C0319460E4800F074FCFEF7A0F956
:1054AC0007F10C03184600F0BFF87B685B78002B03
:1054BC0008D07B681B7883F00103DBB2002B01D092
:1054CC00FFF7FCFE00BF1837BD4680BD002000086A
:1054DC000801002080B588B000AF786007F1140394
:1054EC0018491846FFF75EFF07F1140319461648D2
:1054FC00FFF7ABFE144B1B68122B06D107F11403FC
:10550C001946124803F07CFA02E0786800F056F86D
:10551C0007F108030E491846FFF744FF07F108038B
:10552C0019460C4800F051FC07F10803184600F02E
:10553C0059F807F11403184600F054F800BF20374F
:10554C00BD4680BD00280008F40000208C08002017
:10555C00002000080801002080B586B000AF7860FC
:10556C00FEF72CF93420FEF7C5F91148FEF746F981
:10557C0007F10C030E491846FFF7B8FE0D4B12222B
:10558C001A6007F10C0319460A48FFF73DFE07F1B4
:10559C000C031946084803F018FAFEF721F907F135
:1055AC000C03184600F040F800BF1837BD4680BD0C
:1055BC0000280008F40000208C08002080B582B080
:1055CC0000AF786012210548FFF75FFE044803F036
:1055DC0088FA00BF0837BD4680BD00BFF40000202C
:1055EC008C08002080B582B000AF7860054A7B68DB
:1055FC001A607B681846FFF7E7FD7B68184608378A
:10560C00BD4680BDB49E000880B582B000AF786006
:10561C007868FFF7E7FF0C21786804F082FA7B6862
:10562C0018460837BD4680BD80B582B000AF7860A3
:10563C00054A7B681A607B681846FFF795FD7B6806
:10564C0018460837BD4680BDC89E000880B582B09C
:10565C0000AF78607868FFF7E7FF0C21786804F0FA
:10566C0060FA7B6818460837BD4680BD80B483B0AD
:10567C0000AF78607B6893F82C30002B04D17B68EA
:10568C0093F82D30002B01D0012300E000231846A5
:10569C000C37BD4680BC704780B582B000AF034666
:1056AC00FB71FB79002B01D0012300E000231A468B
:1056BC004FF400410348FEF733FA00BF0837BD46EC
:1056CC0080BD00BF0008014080B582B000AF78609B
:1056DC0039601948FFF7CAFF034683F00103DBB2B8
:1056EC00002B0ED00120FFF7D7FF4FF4967003F07C
:1056FC00D1F80020FFF7D0FF4FF4967003F0CAF8F2
:10570C00E7E70120FFF7C8FFC82003F0C3F800202B
:10571C00FFF7C2FFC82003F0BDF80120FFF7BCFF64
:10572C00C82003F0B7F80020FFF7B6FF4FF42F7036
:10573C0003F0B0F8CDE700BFC000002080B582B008
:10574C0000AF786079680020FFF7BEFF0837BD46D0
:10575C0080BD000080B483B000AF7860024B184667
:10576C000C37BD4680BC70474957000880B584B0E3
:10577C0000AF7860104B5B680F4A43F000735360C6
:10578C001023FB720323BB724FF400433B8107F1E0
:10579C00080319460948FEF707F907F10C031846E8
:1057AC00FFF7D8FF024600230021642002F074FFAB
:1057BC0000BF1037BD4680BD00000140000801400D
:1057CC0080B483B000AF0346FB71FB79002B01D092
:1057DC00012300E0002318460C37BD4680BC7047FF
:1057EC0080B483B000AF78607B68002B14BF0123BA
:1057FC000023DBB218460C37BD4680BC7047000056
:10580C0080B586B000AF78603960786800F0C8F871
:10581C007861786800F024FD0346002B00F0B88016
:10582C007B68D3F82C333B617B6893F83D335A0388
:10583C007B6893F83E335B011A437B6893F83F33E4
:10584C00DB101A43544B53407A68C2F82C337B68F4
:10585C00D3F82C33DB113B603B689B11FB603B683E
:10586C0003F03F033B607B68FA68103233F8123068
:10587C0019467A68FB68134403F50B731B781A46B8
:10588C003B6803FB02F39B110B44C3F30D027B68D3
:10589C00C3F830237B68D3F830237B68D3F82432E9
:1058AC00D31A1A467B6893F82032002B01D00023C0
:1058BC0001E04FF0FF33534003F57A73C3F30D024D
:1058CC007B68C3F834237B6893F83C33002B1BD0E4
:1058DC007B68D3F8343343F2AF62934208DC7B68C5
:1058EC00D3F8343303F580427B68C3F8342316E0D5
:1058FC007B68D3F8343343F6CF1293420FDC7B68CA
:10590C00002283F83C230AE07B68D3F8343343F657
:10591C00F042934203DD7B68012283F83C237B68D1
:10592C0003F573737A6912B21146184600F0C4FC81
:10593C007B68D3F82C233B69D21A7B68C3F83823D5
:10594C007B68D3F83833B3F5801F08DB7B68D3F85A
:10595C003823124B13447A68C2F838330DE07B6855
:10596C00D3F8383313F5801F07DC7B68D3F8382362
:10597C00094B13447A68C2F838337B6803F55172CB
:10598C007B68D3F838331BB21946104600F0C3FCC1
:10599C0000BF1837BD4680BDFFFF1F000100E0FFB0
:1059AC0080B483B000AF78607B68D3F83433A3F550
:1059BC007A727B68D3F82832D31A18460C37BD4656
:1059CC0080BC704780B582B000AF78607B6803F50F
:1059DC005173184600F0D2FC034618460837BD46F2
:1059EC0080BD80B483B000AF78600D2318460C37AF
:1059FC00BD4680BC704780B483B000AF78607B68D4
:105A0C0001229A7000BF0C37BD4680BC7047000065
:105A1C0080B582B000AF78607B6800220A211846FE
:105A2C00FFF74AF9144A7B681A607B6800225A61B6
:105A3C007B68124A9A617B6841F65832DA617B685E
:105A4C00012283F820227B680022C3F824227B6881
:105A5C00002283F83C237B6803F55173184600F051
:105A6C0099FC7B6803F57373184600F0AAFC7B68FD
:105A7C0018460837BD4680BD04A00008A8E4FFFF07
:105A8C0080B582B000AF78601048FEF792FA0346FA
:105A9C001A460F4B1A6001210C48FEF7B1FA7B68CD
:105AAC009BB219460948FEF776FA01210748FEF722
:105ABC008CFA0346002B0CBF01230023DBB2002B16
:105ACC0000D0F2E700BF0837BD4680BD0030014072
:105ADC00FC04002080B598B000AF7860102387F8E4
:105AEC005F30032387F85E301023A7F85C3007F192
:105AFC005C0319467848FDF757FF012210217648C0
:105B0C00FEF70EF8182387F85F302023A7F85C30D7
:105B1C0007F15C0319467048FDF746FF042387F82C
:105B2C005F304023A7F85C3007F15C0319466A48E4
:105B3C00FDF73AFF182387F85F308023A7F85C3015
:105B4C0007F15C0319466448FDF72EFF232387F801
:105B5C005830042387F85930002387F85A30012332
:105B6C0087F85B3007F158031846FDF7E9FA012175
:105B7C004FF48050FEF74EF95848FDF7FBFC584B9C
:105B8C00FB627B6803F23D333B6300237B6304239E
:105B9C00BB630023FB6380233B6400237B640023F3
:105BAC00BB642023FB644FF400533B6500237B65EF
:105BBC0007F12C0319464948FDF798FD4948FDF7B4
:105BCC00D9FC474BFB62484B3B6310237B6304239C
:105BDC00BB630023FB6380233B6400237B640023B3
:105BEC00BB640023FB644FF400533B6500237B65CF
:105BFC0007F12C0319463B48FDF778FD00233B8346
:105C0C004FF482737B830023BB830223FB8301232A
:105C1C003B844FF400737B841823BB840023FB84E8
:105C2C0007F1180319463148FEF730F901212F48C6
:105C3C00FEF76FF91C2387F85830042387F8593086
:105C4C00002387F85A30012387F85B3007F158039B
:105C5C001846FDF775FA01210120FEF7F9F800232B
:105C6C00BB810023FB8148F6B7033B8200237B8278
:105C7C0000233B7507F10C0319464FF08040FEF7EB
:105C8C00CFF9012201214FF08040FEF723FC0022C6
:105C9C0010211148FDF744FFA020FFF7F1FE03206F
:105CAC00FFF7EEFE1148FEF784F903461A46104B37
:105CBC001A6001210D48FEF7A3F9012203210B48BC
:105CCC00FEF746F901214FF08040FEF7BFFB00BF05
:105CDC006037BD4680BD00BF000801401C0002407B
:105CEC000C30014030000240140000200030014014
:105CFC00FC04002080B500AF01214FF08040FEF77E
:105D0C0028FC00210A48FFF77BFD00210948FDF71C
:105D1C002BFD04210748FDF743FD01210648FDF743
:105D2C0023FD01210348FDF71FFD00BF80BD00BF0F
:105D3C0008010020300002401C00024080B500AF7A
:105D4C00012210210348FDF7EBFE0348FEF731F961
:105D5C0000BF80BD000801400030014080B582B01A
:105D6C0000AF786039607B68D3F8283258427B6882
:105D7C00DB691A463968FFF7B0F90346184608374D
:105D8C00BD4680BD80B584B000AF7860396001211C
:105D9C003868FEF76EFF0023FB60FB68FF2B10DCFE
:105DAC003B681B6808331B687A6802F12001FA68AB
:105DBC0052001144042238689847FB680233FB6098
:105DCC00EBE700BF1037BD4680BD80B586B000AF95
:105DDC007860396007F10C0319463868FEF75AFFF2
:105DEC00FB68012B15D100237B617B69FF2B29DC20
:105DFC003B681B6808331B687A6802F120017A69DA
:105E0C00520011440422386898477B6902337B6145
:105E1C00EBE700233B613B69FF2B13DC3B699BB237
:105E2C009B0199B27B683A69103223F812107A6898
:105E3C003B69134403F50B7340221A703B69013321
:105E4C003B61E8E7786800F0E0F900BF1837BD4621
:105E5C0080BD80B584B000AF78607868FFF7A0FD96
:105E6C00F8607B6893F82032002B06D07B685A6967
:105E7C00FB681A447B685A6105E07B685A69FB68C9
:105E8C00D21A7B685A61786800F088F900BF103725
:105E9C00BD4680BD80B582B000AF786039607B684C
:105EAC00012283F820227B683A681A617B68002201
:105EBC005A617B68064A9A617B6841F65832DA610E
:105ECC00786800F06BF900BF0837BD4680BD00BF95
:105EDC00A8E4FFFF80B582B000AF786039607B68C2
:105EEC003A685A61786800F059F900BF0837BD4626
:105EFC0080BD80B582B000AF786039607B683A684D
:105F0C009A61786800F04AF900BF0837BD4680BD39
:105F1C0080B582B000AF786039603B6883EAE37289
:105F2C00A2EBE3727B68DA61786800F037F900BFA6
:105F3C000837BD4680BD80B582B000AF786039604F
:105F4C007B681B6919463868FEF793FE7B685B69B2
:105F5C0019463868FEF78DFE7B689B6919463868D0
:105F6C00FEF787FE7B68DB6919463868FEF781FE11
:105F7C0000BF0837BD4680BD80B582B000AF7860E9
:105F8C0039607B68103319463868FEF783FE7B68EE
:105F9C00143319463868FEF77DFE7B6818331946B2
:105FAC003868FEF777FE7B681C3319463868FEF7B5
:105FBC0071FE786800F0F2F800BF0837BD4680BD6E
:105FCC0080B582B000AF786039603B680C2B51D83B
:105FDC0001A252F823F000BF1960000829600008E4
:105FEC003160000839600008416000084B6000080F
:105FFC004F600008556000085B6000086160000895
:10600C00696000086F600008776000087B6893F88F
:10601C0020321846FFF7D4FB03462CE07B68D3F8FC
:10602C00243228E07B68D3F82C3324E07B68D3F847
:10603C00343320E07868FFF7B3FC03461BE0002301
:10604C0019E07B689B6916E07B685B6913E07B68F1
:10605C00DB6910E07B68D3F830330CE07B681B699C
:10606C0009E07B68D3F8383305E07868FFF7AAFCC1
:10607C00034600E0002318460837BD4680BD00BF2C
:10608C0080B584B000AFF860B9607A60BB680A2B49
:10609C005BD801A252F823F0D1600008E36000083D
:1060AC00576100085761000857610008F760000845
:1060BC00FF600008096100081361000827610008EF
:1060CC001D6100087868FFF78BFB03461A46FB68D6
:1060DC0083F820223BE0FB68D3F83023FB68C3F83D
:1060EC002422F86800F05AF831E0F868FFF7B1FEA6
:1060FC002DE07968F868FFF7FCFE28E07968F8680D
:10610C00FFF7E8FE23E07968F868FFF701FF1EE06F
:10611C007968F868FFF7BEFE19E07B689BB27A6875
:10612C001214D2B2C3F30D0399B2FB68103223F8E8
:10613C0012107B681B14FF2B05D1F86800F065F872
:10614C000548FFF758FC002302E0002300E0012380
:10615C0018461037BD4680BDF000002080B582B0D7
:10616C0000AF78607B68012283F820227B6841F6BF
:10617C0058321A617B6800225A617B68064A9A6120
:10618C007B6841F65832DA61786800F007F800BF96
:10619C000837BD4680BD00BFA8E4FFFF80B483B0C4
:1061AC0000AF78607B681A697B685B691A447B680E
:1061BC009B691344C3F30D027B68C3F824227B68EC
:1061CC009B69DB0FDAB27B6883F820227B6893F83B
:1061DC002032002B03D07B689B695B4201E07B681B
:1061EC009B697A68C2F828327B68D3F8283203F5A9
:1061FC007A727B68C3F834237B68002283F83C23D3
:10620C0000BF0C37BD4680BC704780B485B000AF72
:10621C0078600023FB60FB68FF2B1CDCFB68013300
:10622C00DAB27B68103233F81230BB60BB68DAB27A
:10623C007B68F968103133F81130DBB2D31AD9B25C
:10624C007A68FB68134403F50B730A461A70FB68F3
:10625C000133FB60DFE700BF1437BD4680BC7047DD
:10626C0080B485B000AF78600023FB730023BB6063
:10627C00BB68022B10DC7A68BB68134403F23D3315
:10628C001A78FB7B5340DBB21A460A4B9B5CFB73C0
:10629C00BB680133BB60EBE77B6893F84033FA7B58
:1062AC009A420CBF01230023DBB218461437BD46BB
:1062BC0080BC7047FC9E000880B483B000AF78604F
:1062CC000B467B807B685A6A7B681B6879685B002D
:1062DC000B44B3F90430D21A7B685A627B681A6893
:1062EC00796853000B4479889980796853000B4482
:1062FC00B3F904207B685B6A1A447B685A627B683A
:10630C001B68013303F00F027B681A6000BF0C3767
:10631C00BD4680BC704780B483B000AF78600B463C
:10632C007B807B68D3F884207B681B6879685B0072
:10633C000B44B3F90430D21A7B68C3F884207B6811
:10634C001A68796853000B447988998079685300EE
:10635C000B44B3F904207B68D3F884301A447B686F
:10636C00C3F884207B681B68013303F03F027B6811
:10637C001A6000BF0C37BD4680BC704780B483B038
:10638C0000AF78607B68D3F8843018460C37BD4674
:10639C0080BC704780B582B000AF78607B6800220B
:1063AC001A607B680022C3F884207B680433802247
:1063BC000021184603F010FC7B6818460837BD46D0
:1063CC0080BD80B582B000AF78607B6800221A6017
:1063DC007B6800225A627B68043320220021184615
:1063EC0003F0FAFB7B6818460837BD4680BD0000F9
:1063FC0080B582B000AF786039607B68012B07D123
:10640C003B684FF6FF72934202D10348FFF700FB43
:10641C0000BF0837BD4680BD0801002080B500AF25
:10642C004FF6FF710120FFF7E3FF80BD80B483B00E
:10643C0000AF78607B6801225A707B685A787B6861
:10644C001A7000BF0C37BD4680BC704780B483B057
:10645C0000AF78607B6893F8203218460C37BD4645
:10646C0080BC704780B483B000AF78607B6800223A
:10647C009A627B68002283F82D207B6893F82D208C
:10648C007B6883F82C2000BF0C37BD4680BC70475E
:10649C0080B58CB000AF786001214FF40060FDF73F
:1064AC00B9FC01210220FDF7D3FC01210420FDF7EA
:1064BC00CFFC4FF40073BB85032387F82E301823D1
:1064CC0087F82F3007F12C0319464A48FDF76CFA70
:1064DC004FF48073BB8507F12C0319464548FDF733
:1064EC0063FA00233B8420237B8440F2CF73BB846C
:1064FC000023FB84002387F8283007F1200319467A
:10650C003D48FDF78DFD70233B8201237B820423E4
:10651C00BB820023FB8200233B8300237B834FF44D
:10652C008073BB830023FB8307F1100319463248A9
:10653C00FDF7F2FD07F1100319462F48FDF778FE21
:10654C0070233B8201237B820023BB820123FB82CD
:10655C0000233B8300237B834FF48073BB83002396
:10656C00FB8307F1100319462348FDF7E9FE0423CA
:10657C003B8448F2FA43BB8407F1200319461F48B9
:10658C00FDF74EFD1D233B7304237B730023BB736C
:10659C000123FB7307F10C031846FCF7D1FD012214
:1065AC0001211648FDF796FF00233B8441F63C730E
:1065BC00BB8407F1200319461148FDF731FD1E235A
:1065CC003B7307F10C031846FCF7BAFD01210A488E
:1065DC00FDF73CFF01210A48FDF738FF0121074870
:1065EC00FDF734FF01210448FDF74FFF00BF3037A2
:1065FC00BD4680BD00080140002C01400004004055
:10660C000008004080B582B000AF786039601E4849
:10661C00FFF72CF80346002B03D0786800F04CF8F9
:10662C002DE01A48FFF712FF0346002B01D03B6800
:10663C0001E03B685B424FF4FA6219461448FEF7DE
:10664C004CFD38607B683A681A603B68002B0ADBAB
:10665C0000211048FDF76FFF3B689BB219460D48AF
:10666C00FDF75BFF0BE000210A48FDF756FF3B6886
:10667C009BB25B429BB219460648FDF75CFF00BF1C
:10668C000837BD4680BD00BFC000002008010020B7
:10669C0030F8FFFF002C014080B582B000AF78606D
:1066AC00786800F009F80348FFF7DCFE00BF0837F4
:1066BC00BD4680BDC000002080B582B000AF7860C0
:1066CC004FF4FA610548FDF736FF4FF4FA610348C1
:1066DC00FDF723FF00BF0837BD4680BD002C0140ED
:1066EC0080B500AF01210848FDF733FF074B1A684E
:1066FC00064B1B681B6810331B68104698470448F0
:10670C00FEF7E8FB00BF80BD000400400805002038
:10671C00C000002080B500AF01210748FDF719FF2C
:10672C00064B1A68054B1B681B6814331B68104614
:10673C00984700BF80BD00BF00080040080500203E
:10674C0080B483B000AF786039603B6818460C3772
:10675C00BD4680BC704780B483B000AF7860002326
:10676C0018460C37BD4680BC704780B483B000AF70
:10677C00786000BF0C37BD4680BC704780B483B0D6
:10678C0000AF786000BF0C37BD4680BC704700007E
:10679C0080B584B000AFF860B9607A60FB687A6845
:1067AC00B9681846FEF788FA034AFB681A60FB685A
:1067BC0018461037BD4680BDB4A2000880B483B023
:1067CC0000AF786039607B683A681A6100BF0C379B
:1067DC00BD4680BC704780B483B000AF78607B68E6
:1067EC005B6918460C37BD4680BC704780B584B0D9
:1067FC0000AFF860B9607A60FB687A68B9681846CF
:10680C00FFF7C6FF064AFB681A60FB680022DA62D3
:10681C00FB6800221A63FB6818461037BD4680BD22
:10682C00D4A2000880B483B000AF78607B685B684A
:10683C0018460C37BD4680BC704780B582B000AF9F
:10684C0078607B680C331846FFF7C5FF0346184683
:10685C000837BD4680BD80B483B000AF78607B68DC
:10686C001B6818460C37BD4680BC704780B582B09B
:10687C0000AF78607B6803F57373184600F06AF913
:10688C00034618460837BD4680BD80B483B000AFC0
:10689C0078607B6893F82032002B03D07B68D3F8A8
:1068AC00383303E07B68D3F838335B4218460C3737
:1068BC00BD4680BC704780B483B000AF78607B6805
:1068CC0001221A7000BF0C37BD4680BC7047000017
:1068DC0080B483B000AF7860044A7B681A607B6830
:1068EC0018460C37BD4680BC704700BFB4A00008EA
:1068FC0080B582B000AF78607B681846FFF7E8FF80
:10690C000D4A7B681A607B6847F6FF725A607B6899
:10691C000C330A4A3C211846FFF768FF7B680022BB
:10692C0083F860207B68002283F861207B6818461E
:10693C000837BD4680BD00BF94A000081CA000080D
:10694C0080B582B000AF786039603B681A1D7B68F7
:10695C000C331946104600F00AF90346184608375E
:10696C00BD4680BD90B583B000AF786039603B68A0
:10697C0047F6FA72934204D17B68012283F86020B7
:10698C0088E03B6847F6F27293420AD14348FFF71E
:10699C0062FF02467B689A607B68012283F8612063
:1069AC0078E03B6847F6F172934218D13C48FEF709
:1069BC00F7FF02467B685A607B6803F10C047B6826
:1069CC005B6819463648FFF7C9F903461946204655
:1069DC00FFF7F4FE7B68002283F861205AE03B68E5
:1069EC0047F6FC72934255D03B6847F6BB72934214
:1069FC0018DC7B6893F86130002B03D07B683A6815
:106A0C009A6047E07B683A685A607B6803F10C0433
:106A1C0039682348FFF7A2F9034619462046FFF7C9
:106A2C00CDFE37E03B6847F6FE7293420ED17B6891
:106A3C003A685A607B6803F10C041948FEF7B0FF02
:106A4C00034619462046FFF7B9FE23E03B6847F69C
:106A5C00FB7293421BD17B6893F86030002B19D0EA
:106A6C000F48FFF7F6F90F48FFF725FF7B6803F196
:106A7C000C027B68002159607B685B6819461046E4
:106A8C00FFF79CFE7B68002283F8602002E07B68A5
:106A9C003A685A6000BF0C37BD4690BD0405002013
:106AAC0008010020F000002090B585B000AF7860A0
:106ABC002648FFF7DBFEF8607B685B6847F6FE72E2
:106ACC00934207D100212248FFF79CFD002001F0E2
:106ADC000BF837E07B685B6847F6FF72934207D18F
:106AEC001B48FFF7D9FD4FF4FA6000F0FDFF29E0D9
:106AFC007B6893F86130002B06D07B689B68194645
:106B0C001348FFF77FFD1DE07B6803F10C040F4871
:106B1C00FFF7BBFE03461A46F968204602F0C2FB9B
:106B2C00B860B9680A48FFF76DFD0848FFF78EFC9E
:106B3C000346002B01D0BB6801E0BB685B421846E2
:106B4C0000F0D2FF00BF1437BD4690BD08010020F5
:106B5C000405002080B483B000AF78607B685B6A6A
:106B6C001B111BB218460C37BD4680BC704780B455
:106B7C0083B000AF786039607B681A683B685A60F4
:106B8C007B683A681A603B6818460C37BD4680BC77
:106B9C007047000080B582B000AF786039607B68C8
:106BAC00012B07D13B684FF6FF72934202D1034889
:106BBC00FFF79EFE00BF0837BD4680BD0C050020C8
:106BCC0080B500AF4FF6FF710120FFF7E3FF80BDEA
:106BDC0080B483B000AF78607B685B6818460C3774
:106BEC00BD4680BC704780B582B000AF78607B68D2
:106BFC0008331846FFF7EFFD034618460837BD4625
:106C0C0080BD80B483B000AF78607B68D3F82C3340
:106C1C00DB1118460C37BD4680BC704780B582B07E
:106C2C0000AF78607B681846FFF752FE0D4A7B6810
:106C3C001A607B6847F6FF725A607B6808330A4A11
:106C4C004FF4B9711846FFF7D1FD7B685C33074AE6
:106C5C004FF4AF71184602F07FFC7B68184608377A
:106C6C00BD4680BD4CA10008CCA0000834A1000892
:106C7C0080B582B000AF786039603B681A1D7B68C4
:106C8C00083319461046FFF772FF03461A1D7B683E
:106C9C005C3319461046FFF76AFF0346184608375F
:106CAC00BD4680BD90B583B000AF786039607B681D
:106CBC003A685A607B685B6847F6BB7293420ADCA1
:106CCC007B6803F108023B68C3F30D0319461046B9
:106CDC00FFF774FD16E07B685B6847F6FE72934223
:106CEC0005D07B685B6847F6FC7293420AD17B68DF
:106CFC0003F108040548FFF784FF034619462046B4
:106D0C00FFF75CFD00BF0C37BD4690BD08010020AD
:106D1C0090B585B000AF78602C48FFF772FFF86033
:106D2C007B685C33F968184602F03EFC0346002B86
:106D3C0047D07B685B6803F50053C3F30D03BB605E
:106D4C007B685B68BA689A4208DDFA68BB689A424D
:106D5C0004DDFB68A3F58043FB600CE07B685B689B
:106D6C00BA689A4207DAFA68BB689A4203DAFB6897
:106D7C0003F58043FB607B685B6847F6FE729342C9
:106D8C0004D100211248FFF73DFC1AE07B685B68D8
:106D9C0047F6FF72934203D10D48FFF77DFC10E0DC
:106DAC007B6803F108040948FFF76FFD03461A4698
:106DBC00F968204602F076FA034619460448FFF7B4
:106DCC0021FC00BF1437BD4690BD00BF0801002058
:106DDC000405002080B582B000AF786039607B6814
:106DEC00012B07D13B684FF6FF72934202D1034847
:106DFC00FFF714FF00BF0837BD4680BD70050020AB
:106E0C0080B500AF4FF6FF710120FFF7E3FF80BDA7
:106E1C0080B483B000AF78607B689B6918460C37F0
:106E2C00BD4680BC704780B483B000AF78607B688F
:106E3C001B6918460C37BD4680BC704780B483B0C4
:106E4C0000AF786039607B683A685A6100BF0C37D4
:106E5C00BD4680BC704780B483B000AF78607B685F
:106E6C005B6918460C37BD4680BC704780B582B054
:106E7C0000AF78607B682C331846FFF7D4FF0346CD
:106E8C0018460837BD4680BD80B582B000AF78602B
:106E9C007B681846FFF71CFD0A4A7B681A607B6802
:106EAC000433094ADC21184602F056FB7B682C336C
:106EBC00064AF021184602F031FA7B68184608376A
:106ECC00BD4680BDA4A1000864A1000874A10008FF
:106EDC0080B582B000AF786039607B682C3339683C
:106EEC001846FFF7ABFF00BF0837BD4680BD00005A
:106EFC0090B585B000AF78601A48FEF751FDF86088
:106F0C007B680433F968184602F04EFB0346002BED
:106F1C0024D07B682C331846FFF79DFF034642F2C2
:106F2C0010729342CCBF01230023DBB2002B03D0A1
:106F3C000D48FFF7B1FB11E07B6803F12C047B6873
:106F4C0004331846FFF764FF03461946204602F047
:106F5C00FBF9034619460448FFF754FB00BF1437EE
:106F6C00BD4690BD080100200405002080B582B00C
:106F7C0000AF786039603B681A1D7B680433194692
:106F8C001046FFF7F4FD03461A1D7B682C33194697
:106F9C001046FFF7ECFD034618460837BD4680BD8A
:106FAC0080B582B000AF786039607B68012B07D167
:106FBC003B684FF6FF72934202D10348FFF764FF20
:106FCC0000BF0837BD4680BDF405002080B500AF7A
:106FDC004FF6FF710120FFF7E3FF80BD80B483B053
:106FEC0000AF786039607B683A685A6200BF0C3732
:106FFC00BD4680BC704780B483B000AF78607B68BE
:10700C009B6D18460C37BD4680BC704780B582B06E
:10701C0000AF78607B681846FFF75AFC0B4A7B6818
:10702C001A607B68043300224FF49671184602F004
:10703C0093FA7B682C3300224FF49B71184601F0B5
:10704C00AFFD7B6818460837BD4680BDC4A100085B
:10705C0080B582B000AF786039607B682C333968BA
:10706C001846FFF7BBFF00BF0837BD4680BD0000C8
:10707C0090B583B000AF78607B681C1D1248FEF79A
:10708C008FFC03461946204602F08EFA0346002B6D
:10709C0015D07B6803F12C047B6804331846FFF78A
:1070AC00B7FE03461946204601F090FD02467B6868
:1070BC009A657B689B6D19460448FFF7A3FA00BFDD
:1070CC000C37BD4690BD00BF080100200405002010
:1070DC0080B582B000AF786039603B681A1D7B6860
:1070EC0004331946104600F00DF803461A1D7B6850
:1070FC002C331946104600F005F80346184608379D
:10710C00BD4680BD80B483B000AF786039607B68C9
:10711C001A683B685A607B683A681A603B68184684
:10712C000C37BD4680BC704780B582B000AF78602C
:10713C0039607B68012B07D13B684FF6FF72934295
:10714C0002D10348FFF762FF00BF0837BD4680BD80
:10715C004806002080B500AF4FF6FF710120FFF705
:10716C00E3FF80BD80B582B000AF78607B681846C5
:10717C00FFF7AEFB064A7B681A607B6800225A60F8
:10718C007B6800229A607B6818460837BD4680BD34
:10719C00E4A1000880B483B000AF78607B685B68C2
:1071AC0018460C37BD4680BC704780B483B000AF26
:1071BC0078607B685B6818460C37BD4680BC7047AE
:1071CC0080B483B000AF786039607B683A685A60ED
:1071DC0000BF0C37BD4680BC7047000080B582B044
:1071EC0000AF78607B685B6819460348FFF70AFAC2
:1071FC0000BF0837BD4680BD0405002080B582B0B5
:10720C0000AF786039607B68012B07D13B684FF683
:10721C00FF72934202D10348FFF7A4FF00BF083767
:10722C00BD4680BDA406002080B500AF4FF6FF71AF
:10723C000120FFF7E3FF80BD80B582B000AF78601E
:10724C007B681846FFF744FB054A7B681A607B682D
:10725C0000225A607B6818460837BD4680BD00BFC7
:10726C0004A2000880B582B000AF786039607B68FA
:10727C003A685A603B6813F5FA6F03DD3B68B3F567
:10728C00FA6F03DB0748FFF707FA06E07B685B68D9
:10729C0019460448FFF7B6F900BF00BF0837BD46D2
:1072AC0080BD00BF0405002080B483B000AF7860BF
:1072BC00396000BF0C37BD4680BC704780B483B0CA
:1072CC0000AF78607B685B6818460C37BD4680BCA5
:1072DC007047000080B582B000AF786039607B6881
:1072EC00012B07D13B684FF6FF72934202D1034842
:1072FC00FFF7A2FF00BF0837BD4680BDB0060020D7
:10730C0080B500AF4FF6FF710120FFF7E3FF80BDA2
:10731C0080B483B000AF78603960144B20221A61BE
:10732C00134A3B685360124A7B68D36072B600BF45
:10733C000F4B1B680E4A43F0010313600D4B1B8867
:10734C009BB20C4A23F040039BB21380094B9B89E0
:10735C009BB2084A43F040039BB2938162B600BFD4
:10736C0000BF0C37BD4680BC704700BF000C01400D
:10737C00440002400038014080B400AF074B5B680A
:10738C00074A12681344C3F58073DBB2054A1360D5
:10739C00044B1B681846BD4680BC70475800024021
:1073AC00BC070020C007002080B594B000AF786007
:1073BC000B46FB7001210C20FCF72CFD01214FF436
:1073CC008040FCF727FD01210120FCF723FD012162
:1073DC000420FCF7BDFB2023A7F84C30032387F8CF
:1073EC004E30102387F84F3007F14C0319464948AB
:1073FC00FCF7DAFA8023A7F84C30042387F84F30D7
:10740C00032387F84E3007F14C0319464148FCF72B
:10741C00CBFA4023A7F84C30182387F84F3007F1EC
:10742C004C0319463B48FCF7BFFA252387F8483034
:10743C00002387F84930002387F84A30012387F866
:10744C004B3007F148031846FBF77AFE7B68BB63A9
:10745C00FB78002B02D04FF4805300E00023BB8755
:10746C000023FB87FB78002B02D04FF4806300E0F5
:10747C000023A7F840300023A7F844300C23A7F8CA
:10748C00423007F1380319462348FDF773F82348B7
:10749C00FCF770F8224BFB60224B3B6100237B61B5
:1074AC004FF48073BB610023FB6180233B624FF47C
:1074BC0000737B620023BB622023FB624FF40053FA
:1074CC003B6300237B6307F10C0319461348FCF75D
:1074DC000DF901211148FCF747F910237B610023BA
:1074EC00FB6207F10C0319460F48FCF7FFF8012269
:1074FC0040210948FDF717F9012280210648FDF7C4
:10750C0012F901210448FDF7EFF800BF5037BD46D2
:10751C0080BD00BF000C0140003801405800024003
:10752C0004380140BC0600204400024080B400AF87
:10753C000A4B9B899BB2094A23F040039BB293816F
:10754C00074B20225A61074B1A6806494FF6FE7307
:10755C0013400B6000BFBD4680BC70470038014033
:10756C00000C01404400024080B483B000AF78604E
:10757C00064B1A687B68134403F00F03044AD35C70
:10758C0018460C37BD4680BC704700BFD40700209E
:10759C00C407002080B483B000AF7860084B1A6831
:1075AC007B681344064A1360054B1B6803F00F03FA
:1075BC00034A136000BF0C37BD4680BC704700BF48
:1075CC00D407002080B500AF0020FFF7CDFF0346A5
:1075DC005BB2DBB2DB09DBB2184680BD80B500AF15
:1075EC000020FFF7C1FF03461B1103F007031846E9
:1075FC0080BD80B483B000AF78607B6800221A64D1
:10760C007B6800225A647B6818460C37BD4680BCE8
:10761C00704780B483B000AF78607B681B6C1846F1
:10762C000C37BD4680BC704780B483B000AF786027
:10763C007B6818460C37BD4680BC704780B400AFE1
:10764C00064B5B68064A12681344C3F1100303F03F
:10765C000F031846BD4680BC704700BF6C0002404B
:10766C00D407002080B590B000AF3C4B1B7883F062
:10767C000103DBB2002B6DD0384B01221A700121B3
:10768C000C20FCF7C7FB01214FF40030FCF7E0FBAA
:10769C004FF48063BB87032387F83E30102387F8B1
:1076AC003F3007F13C0319462D48FCF77DF92C4B74
:1076BC004FF480621A610823BB87042387F83F309C
:1076CC00032387F83E3007F13C0319462448FCF7A6
:1076DC006BF90423BB87182387F83F3007F13C0371
:1076EC0019461F48FCF760F91E4BFB6200233B86D2
:1076FC0000237B860023BB8600233B870823FB8665
:10770C0007F12C0319461848FCF734FF174B3B6064
:10771C001023FB6000233B6180237B614FF40073DB
:10772C00BB610023FB614FF400537B620023BB62FF
:10773C001023BB6000233B623B4619460C48FBF709
:10774C00D5FF012280210848FCF7EDFF01210648F6
:10775C00FCF7CAFF00BF4037BD4680BDDC070020E8
:10776C000008014040420F00004400400444004027
:10777C008000024080B582B000AF78603960FFF7BE
:10778C005DFF0346002B14BF01230023DBB2184618
:10779C000837BD4680BD80B582B000AF786079688F
:1077AC000020FFF7E7FF034618460837BD4680BDAB
:1077BC0080B483B000AF7860024B18460C37BD46DE
:1077CC0080BC7047A377000880B582B000AF7860AA
:1077DC003960FFF733FF02463B681B689A42ACBF27
:1077EC0001230023DBB218460837BD4680BD80B5A7
:1077FC0082B000AF786079680020FFF7E5FF0346A0
:10780C0018460837BD4680BD80B483B000AF7860A1
:10781C00024B18460C37BD4680BC7047FB770008FE
:10782C0080B586B000AF78603960FFF707FF03467C
:10783C00002B0CBF01230023DBB2002B09D007F176
:10784C0010031846FFF7B4FF03461946002000F05A
:10785C0077FFFFF7B7FE034683F00103DBB2002B83
:10786C003BD0FFF7BBFE0346002B0CBF01230023CC
:10787C00DBB2002B31D00523FB60FB68002B2CD036
:10788C0007F114031846FFF7BFFF024607F10C037C
:10789C001146184600F080F9124B1B68012219465C
:1078AC001148FDF7FBF8FB6819460F48FDF793F9F3
:1078BC000346002B11D0FB681846FFF76BFE00BF88
:1078CC000948FDF754F90246084B1B6803FB02F309
:1078DC0019460748FFF7C6FCA7E70120FFF75AFE39
:1078EC00A3E700BFD4070020E0070020D807002042
:1078FC00B006002080B582B000AF786079680020B7
:10790C00FFF78EFF0837BD4680BD000080B483B002
:10791C0000AF7860024B18460C37BD4680BC7047F0
:10792C000179000880B596B002AF7860634B1B7884
:10793C0083F00103DBB2002B00F0BB805F4B012214
:10794C001A705F4A7B68136001210C20FCF762FA05
:10795C0001214FF40030FCF77BFA4FF48063A7F859
:10796C004830032387F84A30102387F84B3007F14F
:10797C00480319465348FCF717F8524B4FF48062F2
:10798C005A610823A7F84830042387F84B300323A7
:10799C0087F84A3007F1480319464A48FCF704F8BF
:1079AC000423A7F84830182387F84B3007F1480315
:1079BC0019464448FBF7F8FF434BBB630023BB87D6
:1079CC000023FB870023A7F840300023A7F844309E
:1079DC000423A7F8423007F1380319463B48FCF75B
:1079EC00C9FD3B48FBF7C6FD3A4BFB603A4B3B618C
:1079FC0000237B611023BB610023FB6180233B626E
:107A0C004FF400737B620023BB622023FB624FF4B4
:107A1C0000533B6300237B6307F10C0319462C488E
:107A2C00FBF764FE01212A48FBF79EFE0122402150
:107A3C002648FCF778FE254B1B889BB2234A23F083
:107A4C0020039BB2138001212048FCF74DFE234BF1
:107A5C001B78BFF35B8FDBB203F00103002B0CBF71
:107A6C0001230023DBB2002B17D01C4802F05BF87B
:107A7C000346002B14BF01230023DBB2002B0CD0D8
:107A8C00174B1B681AB20023009310231249154898
:107A9C00FCF7E2FF114802F052F807F14C031846CC
:107AAC00FFF734FF0246002300214FF4967000F0DC
:107ABC00F3FD00BF5037BD4680BD00BFDD07002081
:107ACC00D80700200008014040420F00004400404D
:107ADC006C00024004440040C4070020F40700205E
:107AEC00D4070020E007002080B582B000AF78609A
:107AFC00254B1B78002B43D0244B1B78BFF35B8F9B
:107B0C00DBB203F00103002B0CBF01230023DBB21B
:107B1C00002B10D01D4802F006F80346002B14BFB2
:107B2C0001230023DBB2002B05D01948FFF761FDC0
:107B3C00164802F004F8002200211548FCF7ADFEAF
:107B4C0079681348FCF777FE1148FCF7DDFE114B02
:107B5C001A6810494FF6FE7313400B600C48FFF780
:107B6C0058FD02460B4B5A600948FFF75DFD024673
:107B7C00084BDA60074B1B68064A43F0010313609D
:107B8C0000BF0837BD4680BDDC0700204008002040
:107B9C00F80700208000024080B582B000AF78600A
:107BAC0039603968786800F0CBFD00BF0837BD46F6
:107BBC0080BD80B483B000AF7860002318460C37CA
:107BCC00BD4680BC7047000080B483B000AF7860C5
:107BDC003960064B1A683B681344DBB2044AD35C29
:107BEC0018460C37BD4680BC704700BFBC07002050
:107BFC00BC06002080B483B000AF78603960084BBD
:107C0C001A683B681344064A1360054B1B68DBB2C9
:107C1C00034A136000BF0C37BD4680BC704700BFE1
:107C2C00BC07002080B584B000AFF860B9607A6002
:107C3C00FB687A68B9681846FDF73EF8034AFB689A
:107C4C001A60FB6818461037BD4680BD4CA2000870
:107C5C0080B582B000AF7860786800F00FF802460B
:107C6C00054B5B689A420CBF01230023DBB218461C
:107C7C000837BD4680BD00BFF400002080B582B03F
:107C8C0000AF78607B6800211846FFF79DFF034624
:107C9C0003F00F0318460837BD4680BD80B582B08F
:107CAC0000AF78607B6800211846FFF78DFF034614
:107CBC001B1103F0070318460837BD4680BD80B57D
:107CCC0082B000AF78607B6800211846FFF77CFF1C
:107CDC0003465BB2DBB2DB09DBB218460837BD46A4
:107CEC0080BD80B483B000AF7860012318460C3798
:107CFC00BD4680BC704780B483B000AF78607B68B1
:107D0C001B6818460C37BD4680BC704780B400AF6A
:107D1C00BFF34F8F00BF074BDB6803F4E0620549EC
:107D2C00054B1343CB60BFF34F8F00BF00BF00BFA9
:107D3C00FCE700BF00ED00E00400FA0580B582B05E
:107D4C0000AF78607B68002205211846FFF76AFFB8
:107D5C00054A7B681A607B68044A1A617B6818467E
:107D6C000837BD4680BD00BF24A20008C0C62D0048
:107D7C0080B582B000AF78600E48FFF7BCFF0346B9
:107D8C00002B0CBF01230023DBB2002B0ED00A4BBF
:107D9C000A4A1A600A4BDB681946786800F07EFACA
:107DAC007B681B6900211846FFF7FEFA00BF0837F5
:107DBC00BD4680BD00050020B80600208C080020C0
:107DCC00F400002080B582B000AF78603960FFF716
:107DDC00D3FA0346002B14BF01230023DBB2184651
:107DEC000837BD4680BD80B582B000AF7860796839
:107DFC000020FFF7E7FF034618460837BD4680BD55
:107E0C0080B483B000AF7860024B18460C37BD4687
:107E1C0080BC7047F37D000880B582B000AF7860FD
:107E2C003960FFF7A9FA02463B681B689A42ACBF5F
:107E3C0001230023DBB218460837BD4680BD80B550
:107E4C0082B000AF786079680020FFF7E5FF034649
:107E5C0018460837BD4680BD80B483B000AF78604B
:107E6C00024B18460C37BD4680BC70474B7E000851
:107E7C0090B58DB002AF7860994B1B78BFF35B8FD8
:107E8C00DBB203F00103002B0CBF01230023DBB298
:107E9C00002B18D0924801F046FE0346002B14BF6D
:107EAC0001230023DBB2002B0DD08E4B1B681AB2C2
:107EBC00002300934FF480738B498C48FCF7CCFD66
:107ECC00874801F03CFEFFF757FA0346002B0CBF26
:107EDC0001230023DBB2002B09D007F11003184655
:107EEC00FFF78EFF03461946002000F029FC786846
:107EFC00FFF7E5FE034683F00103DBB2002B3BD01A
:107F0C007868FFF7A5FE0346002B35D07868FFF79D
:107F1C00C5FE0346764A1360754B1B68754A52F8CA
:107F2C002330FB60FB68002B26D007F114031846A6
:107F3C00FFF792FF024607F10C0311461846FFF7B4
:107F4C002BFE684B1B68012219466848FCF7A6FDFE
:107F5C00FB6819466548FCF73EFE0346002B0BD028
:107F6C007B68FA6811461846FFF744FE00BF604B69
:107F7C001B68002B06D075E07B6801211846FFF7C3
:107F8C0039FEA0E75948FCF7F2FDB8615A4B1B7853
:107F9C00002B04D1BB6947F6F97293424AD1BB69F5
:107FAC0047F6F872934206D1534B00221A7053488D
:107FBC00FEF781FC36E0BB6947F6BC72934206DDE6
:107FCC004F4ABB6913604C4B01221A702AE04C4B90
:107FDC001B68A3F5FF43743B032B1FD801A252F877
:107FEC0023F000BF1F800008158000080B800008DC
:107FFC0001800008B9694348FDF74CFF0EE0B969F0
:10800C004048FDF767FF09E0B9693E48FDF771FF8D
:10801C0004E0B9693B48FDF77BFF00BF384B47F6DE
:10802C00F9721A60364B1B68002219463648FCF769
:10803C0097FC45E0354B1A68344B1B681B680433BE
:10804C001B68B969104698472E48FDF7A9FC0446F1
:10805C002C48FEF71AFC03461A4621462A48FCF720
:10806C007FFC2DE0224B1B68052B11D11F48FCF720
:10807C007EFD38621D48FCF789FDF861FA69396AA2
:10808C00786800F09DF8F9691F48FCF781FC17E04F
:10809C00174B1B68062B0DD11448FCF768FD786252
:1080AC00796A786800F034F8034619461648FCF7EC
:1080BC0082FC05E00E4B1B68072B0ED1FFF726FE4A
:1080CC001148FFF7B1FA04460F48FFF7A2FA03462E
:1080DC0019462046FFF71CF9F5E600BFF3E600BF92
:1080EC00B4080020BC070020BC060020A00800201B
:1080FC00B808002018000020BC080020F000002068
:10810C00C0080020080100204408002008050020B9
:10811C0080B582B000AF786039603B68B3F5FA7F08
:10812C0031D03B68B3F5FA7F38DC3B68042B13DCA9
:10813C003B68002B32DB3B68042B2FD801A252F892
:10814C0023F000BF6D81000873810008778100085F
:10815C007D810008838100083B68642B0ED01DE0F4
:10816C0040F29D7321E031231FE0124B5B681CE051
:10817C00104B9B6819E00F4BDB6816E00E48FEF7BE
:10818C006AFB034611E00D4B1A680C4B1B681B680D
:10819C0008331B6810469847034606E07B6839682D
:1081AC00184600F049FC034600BF18460837BD4688
:1081BC0080BD00BFF400002004050020080500204D
:1081CC0080B584B000AFF860B9607A60BB68B3F575
:1081DC00FA7F3FD0BB68B3F5FA7F46DCBB68052B52
:1081EC0012DCBB68022B40DBBB68023B032B3CD888
:1081FC0001A252F823F000BF1D8200082B82000858
:10820C003982000849820008BB68642B1DD02CE021
:10821C001E4A7B6853601E48FEF74DFB32E01B4A3A
:10822C007B6893601A48FEF701F92BE07968F868CF
:10823C0000F034F81648FEF73EFB23E0FB687A6842
:10824C001A611348FEF7F2F81CE079681148FEF742
:10825C00B7FF17E0104B1A680F4B1B681B680433F1
:10826C001B687968104698470CE0FB687A68B96817
:10827C00184600F00BFC0346002B03D00448FEF715
:10828C001AFBFFE700BF1037BD4680BDF40000208D
:10829C00F0000020A40600200805002080B582B064
:1082AC0000AF786039603B68002B06D1244B254A1F
:1082BC001A60254A3B68D3603EE03B68012B08D12D
:1082CC001F4B224A1A60204A3B68D360FFF7CAF959
:1082DC0032E03B68052B06D1194B1D4A1A601A4A2D
:1082EC003B68D36028E03B68062B0BD1144B154A36
:1082FC001A60154A3B68D36040F2DC511148FEF716
:10830C005FFF19E03B68072B0AD10D4B114A1A602D
:10831C000D4A3B68D3604FF0FF30FFF703FB0BE0D7
:10832C003B68082B08D1064B0A4A1A60064A3B6880
:10833C00D3600120FFF7F6FA00BF0837BD4680BDB9
:10834C0008050020A4060020F40000200C050020E5
:10835C0070050020B006002080B582B000AF7860B8
:10836C0039607B683968184600F004FB7B681B6930
:10837C0019463868FCF77DFC00BF0837BD4680BD48
:10838C0080B582B000AF786039607B683968184678
:10839C0000F0FAFA7B68103319463868FCF77AFC5F
:1083AC0000BF0837BD4680BD80B483B000AF786095
:1083BC0039603B68002B02D17B681B6900E000230D
:1083CC0018460C37BD4680BC704780B485B000AFF2
:1083DC00F860B9607A60BB68002B02D1FB687A68E0
:1083EC001A61012318461437BD4680BC7047000043
:1083FC0080B483B000AF78607B68054A1A61054B86
:10840C000122DA6000BF0C37BD4680BC704700BF4C
:10841C00C0C62D00F400002080B582B000AF78609B
:10842C0039607B68012B0AD13B684FF6FF7293428F
:10843C0005D10548FFF7DDF80448FFF77FFC00BFC6
:10844C000837BD4680BD00BF440800208C080020C2
:10845C0080B500AF4FF6FF710120FFF7DDFF80BD47
:10846C0080B483B000AF7860044B1A687B68134407
:10847C0018460C37BD4680BC704700BF940A0020DC
:10848C0080B483B000AF7860054B1A687B68D31A50
:10849C00DB43DB0FDBB218460C37BD4680BC7047A4
:1084AC00940A002080B483B000AF786039607B6898
:1084BC001B68002B0AD17B685B68002B04D07B689F
:1084CC005B683A689A4201D8012300E00023184601
:1084DC000C37BD4680BC704780B582B000AF786069
:1084EC0000F00CFA0D4B0E4A1A600C4B1B680B4A31
:1084FC0012689A60094B1B680A4A12681A60074B8B
:10850C001B687A685A60074B1A687B689B00D31A01
:10851C00044A136000BF0837BD4680BD8C0A00209A
:10852C00C4080020880A002080B500AF1F4B1B68D0
:10853C005B691E4A1268D268104698471B4B1B6831
:10854C001B4A13601A4B1B689A68184B1B689A429B
:10855C0005D0174B1B689B68154A1360F2E7134B49
:10856C001A68134B1B6892689A60104B1B689B68C7
:10857C000F4A13600D4B1B689B680D4A13600C4B24
:10858C001B681B690A4A1268D26810469847034652
:10859C0083F00103DBB2002B05D0054B1B689B68F5
:1085AC00034A1360EBE700F08FF9BFE78C0A002059
:1085BC00900A002080B483B000AF78600123184685
:1085CC000C37BD4680BC704780B485B000AFF860F6
:1085DC00B9607A603B60FB687A68DA60FB68144AC1
:1085EC001A61FB683A685A61124B1A68FB681A6088
:1085FC00104B1A68BB689B00D31A0E4A1360FB68B9
:10860C00BA685A60FB683A7E1A760B4B1B689A68FC
:10861C00FB689A60094AFB681360074B1B68074AA2
:10862C0012689A6000BF1437BD4680BC704700BF0B
:10863C00C1850008880A00208C0A0020900A0020BE
:10864C0080B485B000AFF860B9607A60FB70FB68ED
:10865C00BA68DA60FB680D4A1A61FB687A685A617D
:10866C00FB68FA781A760A4B1B689A68FB689A6062
:10867C00084AFB681360064B1B68064A12689A602E
:10868C0000BF1437BD4680BC704700BFC1850008D1
:10869C008C0A0020900A002080B588B002AFF860E8
:1086AC00B9607A60FB70FB78002B02D0224B012260
:1086BC001A7000237B617B690F2B3ADC7A691346B5
:1086CC00DB009B1A9B001D4A1344F9681846FFF700
:1086DC00E9FE0346002B28D018497A691346DB00C3
:1086EC009B1A9B000B4404331B68002B0CD07A693B
:1086FC001346DB009B1A9B00104A9818FB787A688B
:10870C00B968FFF79DFF14E07A691346DB009B1AEA
:10871C009B000A4A9818FB7800937B68BA68F96842
:10872C00FFF752FF00F0F2F803E07B6901337B6145
:10873C00C1E71837BD4680BD840A0020C40800205C
:10874C0080B582B000AF786039603B4B1B687A68AB
:10875C00DA60394B1B683A681A61384B1B78002B6E
:10876C0045D0354B1B689B68354A1360344B1A68EF
:10877C00314B1B689A421BD0314B1B681B7E002B64
:10878C000CD02F4B1B681B692D4A1268D2681046FF
:10879C0098470346002B01D0012300E00023002B57
:1087AC0005D1274B1B689B68254A1360DEE700BF89
:1087BC00234B1A68204B1B689A4231D11E4B1B6805
:1087CC009B681F4A13601E4B1B681B691C4A12686E
:1087DC00D26810469847034683F00103DBB2002BA6
:1087EC001ED0174B1B689B68154A1360EBE7124BA6
:1087FC001B689B68124A1360114B1B681B69104A5B
:10880C001268D26810469847034683F00103DBB226
:10881C00002B05D00A4B1B689B68094A1360EBE7D9
:10882C00074B1A68044B1B689A4201D000F04CF8B5
:10883C0000BF0837BD4680BD8C0A0020840A00208A
:10884C00900A002080B582B000AF786039603B6838
:10885C001B681846FFF714FE034618460837BD463A
:10886C0080BD80B582B000AF786079680020FFF7DA
:10887C00E9FF034618460837BD4680BD80B483B077
:10888C0000AF7860024B18460C37BD4680BC704771
:10889C006F88000880B584B000AF78607B6818469C
:1088AC00FFF7DEFD03467B6007F10C031846FFF76C
:1088BC00E5FF02463B1D11461846FFF76DF900BF58
:1088CC001037BD4680BD00002DE9F01F00B50948EA
:1088DC000468C4F800D0084D2E680660D6F800D0A5
:1088EC005DF804EBBDE8F01F70478C0A0020900A7D
:1088FC00002000008C0A0020900A002002496846E3
:10890C0008607047880A0020880A002008496846D9
:10891C00084A1268D2F800D02DE9F01F02B4C2F850
:10892C0000D08546704735850008900A002000006D
:10893C0035850008900A002090B583B000AF7860B0
:10894C0039607B689B683A689A420EDB7B689C684E
:10895C007B681B6808331B68786898470346234478
:10896C003A689A4201DA012300E0002318460C37DA
:10897C00BD4690BD80B483B000AF7860396000BF55
:10898C000C37BD4680BC704780B483B000AF7860B4
:10899C00396000BF0C37BD4680BC704780B483B0D3
:1089AC0000AF78603960002318460C37BD4680BC98
:1089BC00704780B485B000AFF860B9607A6000236E
:1089CC0018461437BD4680BC704780B584B000AFE4
:1089DC00786039607B68FB60FB68002B0CD0FB680F
:1089EC001B681B683968F8689847FB68043318469D
:1089FC0000F0C1F8F860EFE700BF1037BD4680BD4E
:108A0C0080B584B000AF786039607B68FB60FB6830
:108A1C00002B0DD0FB681B6804331B683968F868A1
:108A2C009847FB680433184600F0A5F8F860EEE7A9
:108A3C0000BF1037BD4680BD80B584B000AF7860F4
:108A4C0039607B68FB60FB68002B1AD03968F868CA
:108A5C00FFF772FF0346002B0CD0FB681B680C332E
:108A6C001B68FA68926839688A1A1146F868984740
:108A7C00034607E0FB680433184600F07CF8F86006
:108A8C00E1E7002318461037BD4680BD80B586B09F
:108A9C0000AFF860B9607A60FB687B617B69002B82
:108AAC001AD0B9687869FFF747FF0346002B0CD042
:108ABC007B691B6810331B687A699268B968891ADC
:108ACC007A6878699847034607E07B69043318464F
