:020000040800F2
:103000000050002055A6000865A4000871A400081F
:1030100077A400087DA4000883A400080000000035
:1030200000000000000000000000000089A400086B
:1030300095A4000800000000A1A40008ADA40008A9
:103040009DA600089DA600089DA600089DA6000854
:103050009DA600089DA600089DA600089DA6000844
:103060009DA600089DA600089DA600089DA6000834
:103070009DA600089DA600089DA600089DA6000824
:103080009DA600089DA600089DA600089DA6000814
:103090009DA600089DA600089DA600089DA6000804
:1030A0009DA600089DA600089DA600089DA60008F4
:1030B0003D5D0008296700085D6700089DA60008BF
:1030C0009DA600089DA600089DA60008855D000835
:1030D0009DA60008DD7B00089DA600089DA60008AF
:1030E0009DA600089DA600089DA6000800000000FF
:1030F00000000000000000000000000000000000D0
:0C31000000000000000000005FF808F173
:10310C0010B5054C237833B9044B13B10448AFF315
:10311C0000800123237010BDA400002000000000DB
:10312C00C4A8000808B5034B1BB103490348AFF30F
:10313C00008008BD00000000A8000020C4A8000802
:10314C0080B487B000AF786000237B6100233B61C3
:10315C000F23FB607B68DB78002B3AD0274BDB68B6
:10316C00DB431B0A03F007037B617B69C3F1040398
:10317C003B61FA687B6922FA03F3FB607B685B783E
:10318C001A463B6902FA03F37B617B689B781A460B
:10319C00FB6813407A6913437B617B691B017B617C
:1031AC00174A7B681B787969C9B213440A4683F8BD
:1031BC0000237B681B7803F01F0311497A6812788F
:1031CC005209D2B21046012202FA03F341F8203020
:1031DC000FE07B681B7803F01F0309497A681278AB
:1031EC005209D2B2104601229A4000F1200341F854
:1031FC00232000BF1C37BD4680BC704700ED00E0AB
:10320C0000E100E080B485B000AF78603960002345
:10321C00FB600023FB727B685B68FB60FB6823F43C
:10322C00702323F48073FB603B681A683B681B793E
:10323C001B021343FA681343FB607B68FA685A60FD
:10324C007B689B68FB60FA68164B1340FB603B681D
:10325C00DA683B689B681A433B685B795B001343F5
:10326C00FA681343FB607B68FA689A607B68DB6AD8
:10327C00FB60FB6823F47003FB603B681B7C013B29
:10328C00DAB2FB7A1343FB72FB7A1B05FA68134321
:10329C00FB607B68FA68DA6200BF1437BD4680BCFD
:1032AC00704700BFFDF7F1FF80B483B000AF7860CA
:1032BC000B46FB70FB78002B06D07B689B6843F0B9
:1032CC0001027B689A6005E07B689B6823F0010231
:1032DC007B689A6000BF0C37BD4680BC704780B4D9
:1032EC0083B000AF78600B46FB70FB78002B06D0E8
:1032FC007B689B6843F480727B689A6005E07B680E
:10330C009B6823F480727B689A6000BF0C37BD46C3
:10331C0080BC704780B483B000AF78607B689B68DA
:10332C0043F008027B689A6000BF0C37BD4680BC36
:10333C00704780B485B000AF78600023FB737B6866
:10334C009B6803F00803002B02D00123FB7301E000
:10335C000023FB73FB7B18461437BD4680BC7047BB
:10336C0080B483B000AF78607B689B6843F0040244
:10337C007B689A6000BF0C37BD4680BC704780B438
:10338C0085B000AF78600023FB737B689B6803F00B
:10339C000403002B02D00123FB7301E00023FB7319
:1033AC00FB7B18461437BD4680BC704780B485B093
:1033BC0000AF7860084611461A460346FB700B4670
:1033CC00BB7013467B700023FB600023BB60FB7853
:1033DC00092B23D97B68DB68FB60FB78A3F10A021D
:1033EC0013465B001344072202FA03F3BB60BB686D
:1033FC00DB43FA681340FB607978FB78A3F10A028F
:10340C0013465B00134401FA03F3BB60FA68BB6814
:10341C001343FB607B68FA68DA601EE07B681B690B
:10342C00FB60FA7813465B001344072202FA03F39D
:10343C00BB60BB68DB43FA681340FB607978FA78B1
:10344C0013465B00134401FA03F3BB60FA68BB68D4
:10345C001343FB607B68FA681A61BB78062B21D892
:10346C007B685B6BFB60BB785A1E13469B00134456
:10347C001F2202FA03F3BB60BB68DB43FA681340FC
:10348C00FB60F978BB785A1E13469B00134401FA73
:10349C0003F3BB60FA68BB681343FB607B68FA6894
:1034AC005A6347E0BB780C2B21D87B681B6BFB6005
:1034BC00BB78DA1F13469B0013441F2202FA03F356
:1034CC00BB60BB68DB43FA681340FB60F978BB78E0
:1034DC00DA1F13469B00134401FA03F3BB60FA682E
:1034EC00BB681343FB607B68FA681A6322E07B6855
:1034FC00DB6AFB60BB78A3F10D0213469B001344FF
:10350C001F2202FA03F3BB60BB68DB43FA6813406B
:10351C00FB60F978BB78A3F10D0213469B001344B2
:10352C0001FA03F3BB60FA68BB681343FB607B686A
:10353C00FA68DA6200BF1437BD4680BC704780B4AD
:10354C0083B000AF78600B46FB70FB78002B06D085
:10355C007B689B6843F480127B689A6005E07B680B
:10356C009B6823F480127B689A6000BF0C37BD46C1
:10357C0080BC704780B483B000AF78607B681A68F9
:10358C004FF6FE7313407A6813607B6800221A6052
:10359C007B6800225A607B6800229A607B6800225C
:1035AC00DA607B68434A934206D1434B5B68424ADC
:1035BC0043F00F03536077E07B68404A934206D197
:1035CC003D4B5B683C4A43F0F00353606CE07B6816
:1035DC003B4A934206D1384B5B68374A43F47063DD
:1035EC00536061E07B68374A934206D1324B5B688B
:1035FC00314A43F47043536056E07B68324A93423D
:10360C0006D12D4B5B682C4A43F4702353604BE07E
:10361C007B682E4A934206D1274B5B68264A43F4BB
:10362C007003536040E07B68294A934206D1224BD9
:10363C005B68214A43F07063536035E07B68254A30
:10364C00934206D1244B5B68234A43F00F0353602B
:10365C002AE07B68214A934206D11F4B5B681E4AC5
:10366C0043F0F00353601FE07B681D4A934206D180
:10367C00194B5B68184A43F47063536014E07B6821
:10368C00184A934206D1144B5B68134A43F47043B7
:10369C00536009E07B68144A934205D10E4B5B687A
:1036AC000D4A43F47023536000BF0C37BD4680BCF9
:1036BC00704700BF08000240000002401C0002409E
:1036CC003000024044000240580002406C000240AE
:1036DC008000024008040240000402401C04024026
:1036EC0030040240440402405804024080B485B0C7
:1036FC0000AF786039600023FB607B681B68FB605F
:10370C00FB6823F4FF4323F07003FB603B689A686B
:10371C003B681B6A1A433B681B691A433B685B692D
:10372C001A433B689B691A433B68DB691A433B6845
:10373C005B6A1A433B689B6A1343FA681343FB604A
:10374C007B68FA681A603B68DA687B685A603B6889
:10375C001A687B689A603B685A687B68DA6000BFBD
:10376C001437BD4680BC704780B483B000AF78601E
:10377C000B46FB70FB78002B06D07B681B6843F074
:10378C0001027B681A6006E07B681A684FF6FE73CC
:10379C0013407A68136000BF0C37BD4680BC70477D
:1037AC0080B483B000AF78600B467B807A887B68EE
:1037BC005A6000BF0C37BD4680BC704780B400AF68
:1037CC00044B054A5A60034B044A5A6000BFBD467D
:1037DC0080BC70470020024023016745AB89EFCDC8
:1037EC0080B400AF044B1B69034A43F080031361A0
:1037FC0000BFBD4680BC70470020024080B584B03D
:10380C0000AF78600423FB734FF4302000F0AAF86B
:10381C000346FB73FB7B042B1BD1104B1B690F4A1C
:10382C0043F0020313610D4A7B6853610B4B1B6918
:10383C000A4A43F0400313614FF4302000F092F831
:10384C000346FB73054B1A69044941F6FD7313409B
:10385C000B61FB7B18461037BD4680BD0020024033
:10386C0080B584B000AF786039600423FB7300230B
:10387C00BB604FF4005000F075F80346FB73FB7B04
:10388C00042B2FD11A4B1B69194A43F00103136106
:10389C007B683A6892B21A804FF4005000F062F8DC
:1038AC000346FB73FB7B042B15D17B680233BB6097
:1038BC003B681A0CBB6892B21A804FF4005000F0AF
:1038CC0051F80346FB730A4B1A69094941F6FE731A
:1038DC0013400B6106E0064B1A69054941F6FE736D
:1038EC0013400B61FB7B18461037BD4680BD00BFF3
:1038FC000020024080B483B000AF7860034A7B683C
:10390C00D36000BF0C37BD4680BC7047002002401E
:10391C0080B483B000AF0423FB71114BDB6803F060
:10392C000103012B02D10123FB7113E00C4BDB686B
:10393C0003F00403002B02D00223FB710AE0084BB6
:10394C00DB6803F01003002B02D00323FB7101E0B2
:10395C000423FB71FB7918460C37BD4680BC7047BD
:10396C000020024080B584B000AF78600423FB7364
:10397C00FFF7CEFF0346FB7306E0FFF7C9FF0346D4
:10398C00FB737B68013B7B60FB7B012B02D17B686B
:10399C00002BF2D17B68002B01D10523FB73FB7B41
:1039AC0018461037BD4680BD80B489B000AF786032
:1039BC0039600023FB6100233B610023BB610023C2
:1039CC00FB6000237B610023BB603B68DB7803F06A
:1039DC000F03FB613B68DB7803F01003002B05D071
:1039EC003B689B781A46FB691343FB613B681B8859
:1039FC00DBB2002B44D07B681B687B610023BB616E
:103A0C0038E00122BB6902FA03F3FB603B681B88B8
:103A1C001A46FB6813403B613A69FB689A4226D10F
:103A2C00BB699B00FB600F22FB6802FA03F3BB60CF
:103A3C00BB68DB437A6913407B61FA69FB6802FA65
:103A4C0003F37A6913437B613B68DB78282B05D140
:103A5C000122BB699A407B685A6108E03B68DB78BD
:103A6C00482B04D10122BB699A407B681A61BB695F
:103A7C000133BB61BB69072BC3D97B687A691A60B8
:103A8C003B681B88FF2B46D97B685B687B610023F6
:103A9C00BB613AE0BB690833012202FA03F3FB6015
:103AAC003B681B881A46FB6813403B613A69FB680C
:103ABC009A4227D1BB699B00FB600F22FB6802FA7C
:103ACC0003F3BB60BB68DB437A6913407B61FA6923
:103ADC00FB6802FA03F37A6913437B613B68DB787A
:103AEC00282B05D1BB69083301229A407B685A61A7
:103AFC003B68DB78482B05D1BB69083301229A401F
:103B0C007B681A61BB690133BB61BB69072BC1D9E7
:103B1C007B687A695A6000BF2437BD4680BC704709
:103B2C0080B483B000AF78600B467B8013467B700B
:103B3C007B78002B03D07A887B681A6102E07A8844
:103B4C007B685A6100BF0C37BD4680BC70470000D3
:103B5C0080B487B000AF78600B46FB7000233B61EC
:103B6C000023FB6000237B610023BB607B68002B80
:103B7C0003DA2E4BDB697B6102E02C4B5B687B61CB
:103B8C007B681B0C03F00F03BB607B689BB23B6133
:103B9C007B6803F44013B3F5401F0AD17B6923F013
:103BAC0070637B61214B5B68204A23F07063536028
:103BBC0021E07B6803F48013002B0ED00322BB683A
:103BCC0002FA03F3FB60FB68DB437A6913407B6109
:103BDC007B6943F070637B610DE07B685B0D1B01BF
:103BEC003A6902FA03F3DB437A6913407B617B6920
:103BFC0043F070637B61FB78002B08D07B685B0D16
:103C0C001B013A6902FA03F37A6913437B617B68FF
:103C1C00002B03DA054A7B69D36102E0034A7B6916
:103C2C00536000BF1C37BD4680BC7047000001408C
:103C3C0080B485B000AF78600023FB60094B5B68F3
:103C4C00FB60FB6823F44043FB60FA687B6813431A
:103C5C00FB60044AFB68536000BF1437BD4680BC50
:103C6C00704700BF0010024080B487B000AF78608E
:103C7C0000237B6100233B610023FB600023BB60BE
:103C8C004F4B5B6803F00C037B617B69082B11D0F5
:103C9C007B69082B3AD87B69002B03D07B69042BFA
:103CAC0004D033E07B68474A1A6033E07B68464AAD
:103CBC001A602FE0424B5B6803F470133B61404B7E
:103CCC005B6803F48033FB603B699B0C02333B6104
:103CDC00FB68002B06D13B693C4A02FB03F27B6874
:103CEC001A6017E0364B5B6803F40033002B06D0E8
:103CFC003B69344A02FB03F27B681A600AE03B69B9
:103D0C00314A02FB03F27B681A6003E07B682D4AA0
:103D1C001A6000BF2A4B5B6803F0F0037B617B6980
:103D2C001B097B612A4A7B6913441B78DBB2BB609D
:103D3C007B681A68BB68DA407B685A60204B5B680A
:103D4C0003F4E0637B617B691B0A7B61204A7B691E
:103D5C0013441B78DBB2BB607B685A68BB68DA40E3
:103D6C007B689A60164B5B6803F460537B617B69DC
:103D7C00DB0A7B61164A7B6913441B78DBB2BB60A0
:103D8C007B685A68BB68DA407B68DA600C4B5B680E
:103D9C0003F440437B617B699B0B7B610D4A7B6920
:103DAC0013441B78DBB2BB607B68DA68BB68B2FB80
:103DBC00F3F27B681A6100BF1C37BD4680BC7047AC
:103DCC000010024000127A000024F40000093D00AB
:103DDC00000000201000002080B483B000AF786099
:103DEC000B46FB70FB78002B06D0094B5A6908492F
:103DFC007B6813434B6106E0054B5A697B68DB43D8
:103E0C00034913404B6100BF0C37BD4680BC704763
:103E1C000010024080B483B000AF78600B46FB709A
:103E2C00FB78002B06D0094B9A6908497B68134331
:103E3C008B6106E0054B9A697B68DB4303491340B1
:103E4C008B6100BF0C37BD4680BC70470010024030
:103E5C0080B483B000AF78600B46FB70FB78002B0E
:103E6C0006D0094BDA6908497B681343CB6106E03D
:103E7C00054BDA697B68DB4303491340CB6100BF18
:103E8C000C37BD4680BC70470010024080B485B032
:103E9C0000AF786039600023FB817B681B88FB8155
:103EAC00FB8903F44153FB813B681A883B685B88B0
:103EBC0013439AB23B689B8813439AB23B68DB88E6
:103ECC0013439AB23B681B8913439AB23B685B89D4
:103EDC0013439AB23B689B8913439AB23B68DB89C4
:103EEC0013439AB2FB891343FB817B68FA891A80CE
:103EFC007B689B8B9BB223F400639AB27B689A839A
:103F0C003B681A8A7B681A8200BF1437BD4680BC96
:103F1C00704780B483B000AF78600B46FB70FB78C1
:103F2C00002B08D07B681B889BB243F040039AB2ED
:103F3C007B681A8007E07B681B889BB223F04003E8
:103F4C009AB27B681A8000BF0C37BD4680BC7047A4
:103F5C0080B483B000AF78600B467B8013467B70D7
:103F6C007B78002B08D07B689B889AB27B881343A4
:103F7C009AB27B689A8009E07B689B889AB27B88AE
:103F8C00DB439BB213409AB27B689A8000BF0C371C
:103F9C00BD4680BC704780B483B000AF78600B46E0
:103FAC007B807B687A889A8100BF0C37BD4680BCC9
:103FBC00704780B483B000AF78607B689B899BB2FC
:103FCC0018460C37BD4680BC704780B485B000AF36
:103FDC0078600B467B800023FB737B681B899AB24D
:103FEC007B8813409BB2002B02D00123FB7301E0B2
:103FFC000023FB73FB7B18461437BD4680BC70470F
:10400C0080B483B000AF78600B467B807B88DB4349
:10401C009AB27B681A8100BF0C37BD4680BC7047D2
:10402C0080B485B000AF786039600023FB817B6879
:10403C001B88FB817B682E4A934213D07B682D4AE8
:10404C0093420FD07B68B3F1804F0BD07B682A4A28
:10405C00934207D07B68294A934203D07B68284A55
:10406C00934208D1FB8923F07003FB813B685A888B
:10407C00FB891343FB817B68224A93420CD07B68FB
:10408C00214A934208D0FB8923F44073FB813B689F
:10409C00DA88FB891343FB817B68FA891A803B68B9
:1040AC009A887B689A853B681A887B681A857B6836
:1040BC000F4A93420FD07B680E4A93420BD07B6819
:1040CC00124A934207D07B68114A934203D07B6813
:1040DC00104A934204D13B681B7A9AB27B681A86C9
:1040EC007B6801229A8200BF1437BD4680BC7047A2
:1040FC00002C014000340140000400400008004046
:10410C00000C004000100040001400400040014032
:10411C00004401400048014080B485B000AF786095
:10412C00396000237B810023FB810023BB817B68EA
:10413C001B8C9BB223F001039AB27B681A847B68B8
:10414C001B8CFB817B689B88BB817B681B8B7B8179
:10415C007B8923F070037B817B8923F003037B81B4
:10416C003B681A887B8913437B81FB8923F002030C
:10417C00FB813B681A89FB891343FB813B685A8896
:10418C00FB891343FB817B68244A93420FD07B68E5
:10419C00234A93420BD07B68224A934207D07B6818
:1041AC00214A934203D07B68204A934223D1FB8956
:1041BC0023F00803FB813B685A89FB891343FB817D
:1041CC00FB8923F00403FB813B689A88FB8913432A
:1041DC00FB81BB8923F48073BB81BB8923F40073FF
:1041EC00BB813B689A89BB891343BB813B68DA89E5
:1041FC00BB891343BB817B68BA899A807B687A89B7
:10420C001A833B68DA887B689A867B68FA891A84F9
:10421C0000BF1437BD4680BC704700BF002C014066
:10422C00003401400040014000440140004801407E
:10423C0080B485B000AF7860396000237B810023A7
:10424C00FB810023BB817B681B8C9BB223F010038A
:10425C009AB27B681A847B681B8CFB817B689B8879
:10426C00BB817B681B8B7B817B8923F4E0437B8147
:10427C007B8923F440737B813B681B881B029AB2B9
:10428C007B8913437B81FB8923F02003FB813B68F3
:10429C001B891B019AB2FB891343FB813B685B882A
:1042AC001B019AB2FB891343FB817B68224A934220
:1042BC0003D07B68214A93422BD1FB8923F08003E6
:1042CC00FB813B685B891B019AB2FB891343FB8121
:1042DC00FB8923F04003FB813B689B881B019AB24E
:1042EC00FB891343FB81BB8923F48063BB81BB89AE
:1042FC0023F40063BB813B689B899B009AB2BB890A
:10430C001343BB813B68DB899B009AB2BB89134387
:10431C00BB817B68BA899A807B687A891A833B68EF
:10432C00DA887B681A877B68FA891A8400BF14378D
:10433C00BD4680BC704700BF002C014000340140DA
:10434C0080B485B000AF7860396000237B81002396
:10435C00FB810023BB817B681B8C9BB223F4807395
:10436C009AB27B681A847B681B8CFB817B689B8868
:10437C00BB817B689B8B7B817B8923F070037B816A
:10438C007B8923F003037B813B681A887B89134369
:10439C007B81FB8923F40073FB813B681B891B0227
:1043AC009AB2FB891343FB813B685B881B029AB270
:1043BC00FB891343FB817B68224A934203D07B68C1
:1043CC00214A93422BD1FB8923F40063FB813B6888
:1043DC005B891B029AB2FB891343FB81FB8923F493
:1043EC008063FB813B689B881B029AB2FB89134359
:1043FC00FB81BB8923F48053BB81BB8923F400531D
:10440C00BB813B689B891B019AB2BB891343BB815F
:10441C003B68DB891B019AB2BB891343BB817B6868
:10442C00BA899A807B687A899A833B68DA887B6838
:10443C009A877B68FA891A8400BF1437BD4680BC02
:10444C00704700BF002C01400034014080B483B0A1
:10445C0000AF78600B46FB70FB78002B08D07B68B4
:10446C001B889BB243F001039AB27B681A8007E069
:10447C007B681B889BB223F001039AB27B681A807D
:10448C0000BF0C37BD4680BC704780B483B000AF12
:10449C0078600B46FB70FB78002B0CD07B68B3F874
:1044AC0044309BB26FEA43436FEA53439AB27B6842
:1044BC00A3F8442009E07B68B3F844309BB2C3F303
:1044CC000E039AB27B68A3F8442000BF0C37BD469C
:1044DC0080BC704780B483B000AF78600B467B80A3
:1044EC0013467B707B78002B08D07B689B899AB233
:1044FC007B8813439AB27B689A8109E07B689B891D
:10450C009AB27B88DB439BB213409AB27B689A8148
:10451C0000BF0C37BD4680BC704780B483B000AF81
:10452C0078600B467B807B687A889A8600BF0C3754
:10453C00BD4680BC704780B483B000AF78600B463A
:10454C007B807B687A881A8700BF0C37BD4680BC9D
:10455C00704780B483B000AF78600B467B807B885B
:10456C00DB439AB27B681A8200BF0C37BD4680BC15
:10457C007047000080B58CB000AF786039600023C4
:10458C00FB620023BB6200237B6200233B6200239F
:10459C00FB617B68FB617B681B8A9BB2FB62FA6ADE
:1045AC004CF6FF731340FB623B68DB881A46FB6AD0
:1045BC001343FB62FB6A9AB27B681A827B689B8905
:1045CC009BB2FB62FA6A4EF6F3131340FB623B6834
:1045DC009A883B681B8913439AB23B685B891343E7
:1045EC009BB21A46FB6A1343FB62FB6A9AB27B6866
:1045FC009A817B689B8A9BB2FB62FA6A4FF6FF43F7
:10460C001340FB623B689B891A46FB6A1343FB62AF
:10461C00FB6A9AB27B689A8207F108031846FFF787
:10462C0023FBFB692E4A934202D17B69BB6201E0FA
:10463C003B69BB627B689B899BB21BB2002B0CDA7B
:10464C00BA6A13469B0013449A001A443B681B68D1
:10465C005B00B2FBF3F37B620BE0BA6A13469B0080
:10466C0013449A001A443B681B689B00B2FBF3F39B
:10467C007B627B6A1B4AA2FB03235B091B01FB6267
:10468C00FB6A1B09642202FB03F37A6AD31A3B62AE
:10469C007B689B899BB21BB2002B0CDA3B6ADB005C
:1046AC003233104AA2FB03235B0903F00703FA6AB7
:1046BC001343FB620BE03B6A1B013233094AA2FB3A
:1046CC0003235B0903F00F03FA6A1343FB62FB6AD3
:1046DC009AB27B681A8100BF3037BD4680BD00BFDF
:1046EC00003801401F85EB5180B483B000AF786077
:1046FC000B46FB70FB78002B08D07B689B899BB228
:10470C0043F400539AB27B689A8107E07B689B89DB
:10471C009BB223F400539AB27B689A8100BF0C378A
:10472C00BD4680BC704780B483B000AF78600B4648
:10473C007B8013467B707B78002B08D07B689B8A30
:10474C009AB27B8813439AB27B689A8209E07B68A1
:10475C009B8A9AB27B88DB439BB213409AB27B68EC
:10476C009A8200BF0C37BD4680BC704780B483B0C2
:10477C0000AF786039607B685B683A6813443B60D3
:10478C007B681A687B689B683968994204DB7B6894
:10479C009B683968CB1A00E03B6813441B781846B9
:1047AC000C37BD4680BC704780B485B000AF7860D4
:1047BC0039607B681B6C591C7A6811647A68D15C0F
:1047CC007A68526C386800FA02F2D2B20A43D2B25A
:1047DC0062F07F02D1B27A68D1547B685B6CC3F112
:1047EC000703FB60FB68C3F108027B685A643B68F3
:1047FC00DAB2FB6842FA03F35BB263F07F035AB29E
:10480C007B681B6CD1B27A68D1547B685B6C072BCC
:10481C000CD17B681B6C5A1C7B681A647B681B6C04
:10482C007A680021D1547B6800225A6400BF143787
:10483C00BD4680BC704780B582B000AF78603960EF
:10484C0039687868FFF7B0FF3B681B121946786827
:10485C00FFF7AAFF00BF0837BD4680BD80B582B008
:10486C0000AF7860396039687868FFF79DFF3B6866
:10487C001B1219467868FFF797FF3B681B14194603
:10488C007868FFF791FF3B681B1619467868FFF7AD
:10489C008BFF00BF0837BD4680BD80B485B000AF2C
:1048AC00F8600B467A60FB72FB6800225A64FB6866
:1048BC0001221A64FB7A1B015BB203F070035AB23B
:1048CC007B685BB203F00F035BB213435BB2DAB2EB
:1048DC00FB681A70FB6800225A7000BF1437BD4683
:1048EC0080BC704780B483B000AF78607B680022D6
:1048FC005A647B6800221A647B6800221A7000BF1D
:10490C000C37BD4680BC704780B582B000AF786074
:10491C007B685B6C002B04D07B681B6C5A1C7B681F
:10492C001A6478687B68196C0023002200F056F832
:10493C0003465BB263F07F035AB27B681B6CD1B247
:10494C007A68D1547B681B6C5A1C7B681A647B6830
:10495C001B6C7A680021D15400BF0837BD4680BD5E
:10496C0080B584B000AFF860B9607A60F868FFF782
:10497C00B9FFB968F868FFF75EFF7968F868FFF768
:10498C005AFFF868FFF7C0FF00BF1037BD4680BD67
:10499C0080B582B000AF786039607868FFF7A2FF0D
:1049AC0039687868FFF75AFF7868FFF7ADFF00BFEA
:1049BC000837BD4680BD80B582B000AF78603960E5
:1049CC007868FFF78FFF39687868FFF747FF7868DA
:1049DC00FFF79AFF00BF0837BD4680BD80B487B093
:1049EC0000AFF860B9607A603B60FF23FB75BB6871
:1049FC005A1EBA60002B14BF01230023DBB2002B1C
:104A0C000BD0FB685A1CFA601A78FB7D5340DBB262
:104A1C001A46104B9B5CFB75E9E73B685A1E3A60E3
:104A2C00002B14BF01230023DBB2002B0BD07B68BF
:104A3C005A1C7A601A78FB7D5340DBB21A46054B40
:104A4C009B5CFB75E9E7FB7D18461C37BD4680BCBB
:104A5C00704700BFDCA8000880B485B000AFF860D8
:104A6C00B96011461A460B46FB801346BB80FB68A7
:104A7C00BA681A60B7F90620FB685A60B7F90420C7
:104A8C00FB689A60FB68BA69DA60FB6800221A61FD
:104A9C00FB6818461437BD4680BC704780B485B09F
:104AAC0000AFF860B9607A60FB68BA685A60FB685E
:104ABC007A68DA60FB6800221A6100BF1437BD46C1
:104ACC0080BC704780B584B000AF78607B68DB68D1
:104ADC00591C7A68D16019467868FFF747FE03467F
:104AEC0003F07F027B681B6942FA03F3FB607B686F
:104AFC001B69C3F10703BB607B68DB6819467868E8
:104B0C00FFF734FE034603F07F02BB6802FA03F39F
:104B1C00DBB2FA681343FB60BB68C3F108027B6825
:104B2C001A617B681B69072B07D17B68DB685A1CF1
:104B3C007B68DA607B6800221A61FB6818461037C4
:104B4C00BD4680BD80B584B000AF78607868FFF753
:104B5C00B9FFF8607868FFF7B5FF03461B02FA68E7
:104B6C001343FB60FB6818461037BD4680BD80B50B
:104B7C0084B000AF78607868FFF7E4FF0346FB81F0
:104B8C00B7F90E3018461037BD4680BD80B584B0DD
:104B9C0000AF78607868FFF795FFF8607868FFF7EA
:104BAC0091FF03461B02FA681343FB607868FFF71A
:104BBC0089FF03461B04FA681343FB607868FFF710
:104BCC0081FF03461B06FA681343FB60FB6818461B
:104BDC001037BD4680BD90B587B000AF78603960A6
:104BEC003B68013B3B607B689A687B685B68D31AC7
:104BFC007B617A693B689A421BDB7B681B687A682D
:104C0C0052689818002300223968FFF7E7FE034624
:104C1C0043F08003FB6039687868FFF7A7FD034613
:104C2C00BB60FA68BB689A420CBF01230023DBB25D
:104C3C001BE03A687B69D31A3B617B681B687A6816
:104C4C00526898187B681A683B697969FFF7C6FE49
:104C5C00034643F0800439687868FFF787FD034604
:104C6C009C420CBF01230023DBB218461C37BD4607
:104C7C0090BD80B582B000AF786039607B681B68EE
:104C8C0008331B68394604227868984700BF0837F8
:104C9C00BD4680BD80B582B000AF786039607B685E
:104CAC001B6808331B68042239687868984700BF72
:104CBC000837BD4680BD000080B584B000AFF860F9
:104CCC00B9607A60FB680433184600F0F9F9074ABA
:104CDC00FB681A60FB68BA689A60FB687A68DA60ED
:104CEC00FB6818461037BD4680BD00BFE4AE000817
:104CFC0080B483B000AF786000BF0C37BD4680BC79
:104D0C00704780B483B000AF78607B681B8AA3F5D2
:104D1C00006318460C37BD4680BC704780B483B026
:104D2C0000AF78607B685B8A18460C37BD4680BC48
:104D3C00704780B483B000AF7860062318460C37F8
:104D4C00BD4680BC7047000080B582B000AF786073
:104D5C007B680C4AC8211846FFF7AEFF0A4A7B68ED
:104D6C001A607B684FF47A725A617B68074A9A61C1
:104D7C007B6840F25232DA617B6818460837BD46D0
:104D8C0080BD00BFDCA9000804AA0008404B4C0001
:104D9C0080B594B000AF786001214FF40070FFF73C
:104DAC0039F8032387F84E30002387F84F3002235D
:104DBC00A7F84C3007F14C0319464148FEF7F4FDB7
:104DCC000223A7F84C3007F14C0319463D48FEF777
:104DDC00EBFD3D48FEF7CEFB3C4BFB607B68103394
:104DEC003B6100237B610223BB610023FB618023B9
:104DFC003B624FF480737B624FF48063BB62202371
:104E0C00FB624FF400533B6300237B6307F10C03FD
:104E1C0019462D48FEF76AFC01212B48FEF7A4FC2D
:104E2C000023BB63012387F83C30002387F83D3017
:104E3C004FF480233B6400237B64022387F84830C3
:104E4C0007F1380319462248FEF7DCF90423012246
:104E5C0009211F48FEF7AAFA0123022201211C484E
:104E6C00FEF7A4FA01211A48FEF739FA0121184875
:104E7C00FEF71AFA1648FEF74DFA1548FEF759FADE
:104E8C000346002B14BF01230023DBB2002B00D000
:104E9C00F3E70F48FEF764FA0D48FEF770FA034685
:104EAC00002B14BF01230023DBB2002B00D0F3E74F
:104EBC0001210748FEF743FB00BF5037BD4680BDBC
:104ECC0000080140000C0140080002404C24014045
:104EDC000024014090B583B000AF78607B6893F8F4
:104EEC002C3083F00103DBB2002B09D07868FFF77C
:104EFC0015FF02467B685B699A4201DA012300E0E8
:104F0C000023002B03D07B68012283F82C207B68C4
:104F1C009C6A7868FFF7F5FE0346E2187B68DB694C
:104F2C00D31A4FF0E0421946002000F0D6F80246A2
:104F3C007B689A627B689A6A7B689B699A4203DDFC
:104F4C007B68012283F82D2000BF0C37BD4690BD35
:104F5C0080B582B000AF786039607B689B69194678
:104F6C003868FFF786FE7B68DB6919463868FFF7FF
:104F7C0080FE7B685B6919463868FFF77AFE00BFD4
:104F8C000837BD4680BD80B582B000AF786039600F
:104F9C007B68183319463868FFF77CFE7B681C3336
:104FAC0019463868FFF776FE7B6814331946386863
:104FBC00FFF770FE7B685A691346DB009B1ADA1008
:104FCC007B681A627B689A691346DB009B1ADA10BD
:104FDC007B685A6200BF0837BD4680BD80B582B081
:104FEC0000AF786039603B68052B25D801A252F8D8
:104FFC0023F000BF19500008235000082D50000862
:10500C0033500008395000083F5000087868FFF70B
:10501C0078FE034611E07868FFF780FE03460CE04B
:10502C007B689B6909E07B68DB6906E07B689B6AAF
:10503C0003E07B685B6900E0002318460837BD4637
:10504C0080BD00BF80B485B000AFF860B9607A60F5
:10505C00BB68023B032B2BD801A252F823F000BFF4
:10506C007D500008955000089D500008A550000880
:10507C00FB687A689A61FB689A691346DB009B1A95
:10508C00DA10FB685A6215E0FB687A68DA6111E0A5
:10509C00FB687A689A620DE0FB687A685A61FB6873
:1050AC005A691346DB009B1ADA10FB681A6201E09E
:1050BC00002300E0012318461437BD4680BC70471E
:1050CC0080B483B000AF78607B6800221A607B6884
:1050DC0018460C37BD4680BC704780B485B000AF15
:1050EC00F860B9607A60BA68FB689A4207DBBA6804
:1050FC007B689A4201DD7B6802E0BB6800E0FB68DC
:10510C0018461437BD4680BC7047000080B582B08D
:10511C0000AF786039607B68012B07D13B684FF694
:10512C00FF72934202D10348FFF70EFE00BF08370F
:10513C00BD4680BDC000002080B500AF4FF6FF71AA
:10514C000120FFF7E3FF80BD80B483B000AF78602F
:10515C00044A7B681A607B6818460C37BD4680BCD5
:10516C00704700BF60AA000880B483B000AF7860BD
:10517C00044A7B681A607B6818460C37BD4680BCB5
:10518C00704700BF60AA000880B582B000AF78609D
:10519C007868FFF7E9FF0421786805F07AFA7B68F4
:1051AC0018460837BD4680BD80B483B000AF786028
:1051BC00044A7B681A607B6818460C37BD4680BC75
:1051CC00704700BF4CAA000880B483B000AF786071
:1051DC00044A7B681A607B6818460C37BD4680BC55
:1051EC00704700BF4CAA000880B582B000AF786051
:1051FC007868FFF7E9FF0421786805F04AFA7B68C4
:10520C0018460837BD4680BD80B582B000AF7860C7
:10521C0039607B681B6819463868FFF72AFD7B6884
:10522C005B6819463868FFF724FD7B689B68194654
:10523C003868FFF71EFD7B68DB6819463868FFF796
:10524C0018FD00BF0837BD4680BD80B582B000AFE9
:10525C00786039607B6819463868FFF71BFD7B68FE
:10526C00043319463868FFF715FD7B680833194677
:10527C003868FFF70FFD7B680C3319463868FFF769
:10528C0009FD00BF0837BD4680BD80B483B000AFB8
:10529C00786039607B683A681A607B680022DA6053
:1052AC007B68DA687B689A607B689A687B685A606E
:1052BC0000BF0C37BD4680BC7047000080B400AF07
:1052CC00BFF34F8F00BF074BDB6803F4E062054967
:1052DC00054B1343CB60BFF34F8F00BF00BF00BF24
:1052EC00FCE700BF00ED00E00400FA0580B582B0D9
:1052FC0000AF786039607B681846FFF725FF074AD6
:10530C007B681A607B6800225A607B683A689A60F6
:10531C007B6818460837BD4680BD00BF38AA000818
:10532C0080B584B000AFF860B9607A607B68012BFF
:10533C000DD1FB689A68FB685B689B0013441A46A6
:10534C00BB681B7819461046FEF78AFA20E07B688A
:10535C00022B0DD1FB689A68FB685B689B001344B9
:10536C001A46BB681B8819461046FEF779FA0FE0FF
:10537C007B68042B12D1FB689A68FB685B689B0006
:10538C0013441A46BB681B6819461046FEF768FAA8
:10539C00FB685B685A1CFB685A6000E000BF103762
:1053AC00BD4680BD80B582B000AF786039607B6847
:1053BC001846FFF7F9FE074A7B681A607B680022E3
:1053CC005A607B683A689A607B6818460837BD4615
:1053DC0080BD00BF24AA000880B485B000AFF8607F
:1053EC00B9607A607B68012B09D1FB689A68FB680D
:1053FC005B689B0013441A78BB681A7018E07B68D2
:10540C00022B09D1FB689A68FB685B689B0013440C
:10541C001A88BB681A800BE07B68042B0ED1FB68E2
:10542C009A68FB685B689B0013441A68BB681A6037
:10543C00FB685B685A1CFB685A6000E000BF1437BD
:10544C00BD4680BC7047000080B586B000AF786068
:10545C007B681B78002B06D07B6800221A7078685A
:10546C0000F098F8F4E77B689B78002B1DD07B68E4
:10547C0000229A70FEF7A2F93420FEF73BFA13488B
:10548C00FEF7BCF907F10C0310491846FFF72EFF85
:10549C0007F10C0319460E4800F092FCFEF7A0F938
:1054AC0007F10C03184600F0DDF87B685B78002BE5
:1054BC0008D07B681B7883F00103DBB2002B01D092
:1054CC00FFF7FCFE00BF1837BD4680BD002000086A
:1054DC000801002080B588B000AF786007F1140394
:1054EC0024491846FFF75EFF07F1140319462248BA
:1054FC00FFF7ABFE204B1B68122B03D01E4B1B6817
:10550C00132B0FD107F1140319461C4803F0E6FDC9
:10551C001B4801F02BFB1B4801F080FE1A4801F0E0
:10552C0005FD0DE0144B1B68142B06D107F1140379
:10553C001946124803F0D2FD02E0786800F05CF8DE
:10554C0007F1080311491846FFF72CFF07F1080370
:10555C0019460F4800F057FC07F10803184600F0F5
:10556C005FF807F11403184600F05AF800BF203713
:10557C00BD4680BD00280008F40000205009002022
:10558C000C050020D00500206C0500200020000830
:10559C000801002080B586B000AF7860FEF70EF9E8
:1055AC003420FEF7A7F91148FEF728F907F10C0390
:1055BC000E491846FFF79AFE0D4B14221A6007F19C
:1055CC000C0319460A48FFF71FFE07F10C03194696
:1055DC00084803F068FDFEF703F907F10C031846C1
:1055EC0000F040F800BF1837BD4680BD0028000809
:1055FC00F40000205009002080B582B000AF786024
:10560C0014210548FFF741FE044803F0D8FD00BF04
:10561C000837BD4680BD00BFF400002050090020B3
:10562C0080B582B000AF7860054A7B681A607B68F1
:10563C001846FFF7C9FD7B6818460837BD4680BD84
:10564C0024AA000880B582B000AF78607868FFF7B4
:10565C00E7FF0C21786805F01CF87B6818460837C2
:10566C00BD4680BD80B582B000AF7860054A7B68CE
:10567C001A607B681846FFF777FD7B681846083779
:10568C00BD4680BD38AA000880B582B000AF7860F6
:10569C007868FFF7E7FF0C21786804F0FAFF7B6865
:1056AC0018460837BD4680BD80B483B000AF786023
:1056BC007B6893F82C30002B04D17B6893F82D3049
:1056CC00002B01D0012300E0002318460C37BD4607
:1056DC0080BC704780B582B000AF0346FB71FB798C
:1056EC00002B01D0012300E000231A464FF40041A7
:1056FC000348FEF715FA00BF0837BD4680BD00BF52
:10570C000008014080B582B000AF7860396019485C
:10571C00FFF7CAFF034683F00103DBB2002B0ED068
:10572C000120FFF7D7FF4FF4967003F021FC002007
:10573C00FFF7D0FF4FF4967003F01AFCE7E7012057
:10574C00FFF7C8FFC82003F013FC0020FFF7C2FFCF
:10575C00C82003F00DFC0120FFF7BCFFC82003F0AC
:10576C0007FC0020FFF7B6FF4FF42F7003F000FC8E
:10577C00CDE700BFC000002080B582B000AF7860DC
:10578C0079680020FFF7BEFF0837BD4680BD0000DA
:10579C0080B483B000AF7860024B18460C37BD461E
:1057AC0080BC70478557000880B584B000AF786026
:1057BC00104B5B680F4A43F0007353601023FB726D
:1057CC000323BB724FF400433B8107F108031946D6
:1057DC000948FEF7E9F807F10C031846FFF7D8FF64
:1057EC00024600230021642003F0C4FA00BF1037E6
:1057FC00BD4680BD000001400008014080B483B06C
:10580C0000AF0346FB71FB79002B01D0012300E0B4
:10581C00002318460C37BD4680BC704780B483B05B
:10582C0000AF78607B68002B14BF01230023DBB230
:10583C0018460C37BD4680BC7047000080B586B05A
:10584C0000AF78603960786800F0C8F878617868E3
:10585C0000F024FD0346002B00F0B8807B68D3F8E1
:10586C002C333B617B6893F83D335A037B6893F888
:10587C003E335B011A437B6893F83F33DB101A43CA
:10588C00544B53407A68C2F82C337B68D3F82C33D2
:10589C00DB113B603B689B11FB603B6803F03F03F3
:1058AC003B607B68FA68103233F8123019467A681C
:1058BC00FB68134403F50B731B781A463B6803FB18
:1058CC0002F39B110B44C3F30D027B68C3F8302326
:1058DC007B68D3F830237B68D3F82432D31A1A466A
:1058EC007B6893F82032002B01D0002301E04FF0AD
:1058FC00FF33534003F57A73C3F30D027B68C3F88F
:10590C0034237B6893F83C33002B1BD07B68D3F893
:10591C00343343F2AF62934208DC7B68D3F8343300
:10592C0003F580427B68C3F8342316E07B68D3F818
:10593C00343343F6CF1293420FDC7B68002283F89A
:10594C003C230AE07B68D3F8343343F6F0429342AD
:10595C0003DD7B68012283F83C237B6803F57373BA
:10596C007A6912B21146184600F0C4FC7B68D3F871
:10597C002C233B69D21A7B68C3F838237B68D3F895
:10598C003833B3F5801F08DB7B68D3F83823124B10
:10599C0013447A68C2F838330DE07B68D3F8383397
:1059AC0013F5801F07DC7B68D3F83823094B1344AD
:1059BC007A68C2F838337B6803F551727B68D3F888
:1059CC0038331BB21946104600F0C3FC00BF183721
:1059DC00BD4680BDFFFF1F000100E0FF80B483B017
:1059EC0000AF78607B68D3F83433A3F57A727B68A8
:1059FC00D3F82832D31A18460C37BD4680BC7047F2
:105A0C0080B582B000AF78607B6803F5517318469F
:105A1C0000F0D2FC034618460837BD4680BD80B462
:105A2C0083B000AF78600D2318460C37BD4680BCA0
:105A3C00704780B483B000AF78607B6801229A70A5
:105A4C0000BF0C37BD4680BC7047000080B582B0EB
:105A5C0000AF78607B6800220A211846FFF72CF90A
:105A6C00144A7B681A607B6800225A617B68124A70
:105A7C009A617B6841F65832DA617B68012283F8BF
:105A8C0020227B680022C3F824227B68002283F842
:105A9C003C237B6803F55173184600F099FC7B6836
:105AAC0003F57373184600F0AAFC7B681846083798
:105ABC00BD4680BD74AB0008A8E4FFFF80B582B082
:105ACC0000AF78601048FEF774FA03461A460F4B85
:105ADC001A6001210C48FEF793FA7B689BB21946B9
:105AEC000948FEF758FA01210748FEF76EFA0346FB
:105AFC00002B0CBF01230023DBB2002B00D0F2E7FC
:105B0C0000BF0837BD4680BD00300140FC040020BA
:105B1C0080B598B000AF7860102387F85F3003230E
:105B2C0087F85E301023A7F85C3007F15C03194648
:105B3C007848FDF739FF012210217648FDF7F0FF78
:105B4C00182387F85F302023A7F85C3007F15C033B
:105B5C0019467048FDF728FF042387F85F3040236F
:105B6C00A7F85C3007F15C0319466A48FDF71CFF87
:105B7C00182387F85F308023A7F85C3007F15C03AB
:105B8C0019466448FDF710FF232387F85830042387
:105B9C0087F85930002387F85A30012387F85B3097
:105BAC0007F158031846FDF7CBFA01214FF480504A
:105BBC00FEF730F95848FDF7DDFC584BFB627B686B
:105BCC0003F23D333B6300237B630423BB6300235D
:105BDC00FB6380233B6400237B640023BB64202392
:105BEC00FB644FF400533B6500237B6507F12C03EA
:105BFC0019464948FDF77AFD4948FDF7BBFC474B70
:105C0C00FB62484B3B6310237B630423BB63002381
:105C1C00FB6380233B6400237B640023BB64002371
:105C2C00FB644FF400533B6500237B6507F12C03A9
:105C3C0019463B48FDF75AFD00233B834FF4827312
:105C4C007B830023BB830223FB8301233B844FF420
:105C5C0000737B841823BB840023FB8407F1180397
:105C6C0019463148FEF712F901212F48FEF751F978
:105C7C001C2387F85830042387F85930002387F801
:105C8C005A30012387F85B3007F158031846FDF7AB
:105C9C0057FA01210120FEF7DBF80023BB8100231A
:105CAC00FB8148F6B7033B8200237B8200233B75C4
:105CBC0007F10C0319464FF08040FEF7B1F90122B1
:105CCC0001214FF08040FEF705FC00221021114805
:105CDC00FDF726FFA020FFF7F1FE0320FFF7EEFEF5
:105CEC001148FEF766F903461A46104B1A6001215B
:105CFC000D48FEF785F9012203210B48FEF728F920
:105D0C0001214FF08040FEF7A1FB00BF6037BD467C
:105D1C0080BD00BF000801401C0002400C30014057
:105D2C00300002401400002000300140FC04002030
:105D3C0080B500AF01214FF08040FEF70AFC002136
:105D4C000A48FFF77BFD00210948FDF70DFD0421F2
:105D5C000748FDF725FD01210648FDF705FD01214A
:105D6C000348FDF701FD00BF80BD00BF0801002006
:105D7C00300002401C00024080B500AF012210210F
:105D8C000348FDF7CDFE0348FEF713F900BF80BDB5
:105D9C00000801400030014080B582B000AF78604F
:105DAC0039607B68D3F8283258427B68DB691A4625
:105DBC003968FFF792F9034618460837BD4680BD8F
:105DCC0080B584B000AF7860396001213868FEF787
:105DDC0050FF0023FB60FB68FF2B10DC3B681B684B
:105DEC0008331B687A6802F12001FA6852001144EA
:105DFC00042238689847FB680233FB60EBE700BF6E
:105E0C001037BD4680BD80B586B000AF7860396074
:105E1C0007F10C0319463868FEF73CFFFB68012BB1
:105E2C0015D100237B617B69FF2B29DC3B681B6848
:105E3C0008331B687A6802F120017A695200114418
:105E4C000422386898477B6902337B61EBE70023B7
:105E5C003B613B69FF2B13DC3B699BB29B0199B205
:105E6C007B683A69103223F812107A683B69134444
:105E7C0003F50B7340221A703B6901333B61E8E771
:105E8C00786800F0E0F900BF1837BD4680BD80B5DA
:105E9C0084B000AF78607868FFF7A0FDF8607B688D
:105EAC0093F82032002B06D07B685A69FB681A44A1
:105EBC007B685A6105E07B685A69FB68D21A7B687B
:105ECC005A61786800F088F900BF1037BD4680BD74
:105EDC0080B582B000AF786039607B68012283F8AE
:105EEC0020227B683A681A617B6800225A617B68C1
:105EFC00064A9A617B6841F65832DA61786800F09C
:105F0C006BF900BF0837BD4680BD00BFA8E4FFFF9A
:105F1C0080B582B000AF786039607B683A685A61AE
:105F2C00786800F059F900BF0837BD4680BD80B5D0
:105F3C0082B000AF786039607B683A689A617868A3
:105F4C0000F04AF900BF0837BD4680BD80B582B06D
:105F5C0000AF786039603B6883EAE372A2EBE372CE
:105F6C007B68DA61786800F037F900BF0837BD4606
:105F7C0080BD80B582B000AF786039607B681B69EA
:105F8C0019463868FEF775FE7B685B6919463868F8
:105F9C00FEF76FFE7B689B6919463868FEF769FE51
:105FAC007B68DB6919463868FEF763FE00BF08376B
:105FBC00BD4680BD80B582B000AF786039607B682B
:105FCC00103319463868FEF765FE7B6814331946A2
:105FDC003868FEF75FFE7B68183319463868FEF7A1
:105FEC0059FE7B681C3319463868FEF753FE7868F7
:105FFC0000F0F2F800BF0837BD4680BD80B582B016
:10600C0000AF786039603B680C2B51D801A252F874
:10601C0023F000BF55600008656000086D60000843
:10602C00756000087D600008876000088B600008C0
:10603C0091600008976000089D600008A56000084A
:10604C00AB600008B36000087B6893F820321846F8
:10605C00FFF7D4FB03462CE07B68D3F8243228E00E
:10606C007B68D3F82C3324E07B68D3F8343320E0FE
:10607C007868FFF7B3FC03461BE0002319E07B684C
:10608C009B6916E07B685B6913E07B68DB6910E059
:10609C007B68D3F830330CE07B681B6909E07B68C4
:1060AC00D3F8383305E07868FFF7AAFC034600E024
:1060BC00002318460837BD4680BD00BF80B584B0AC
:1060CC0000AFF860B9607A60BB680A2B5BD801A29C
:1060DC0052F823F00D6100081F610008936100085D
:1060EC009361000893610008336100083B6100086C
:1060FC00456100084F6100086361000859610008A0
:10610C007868FFF78BFB03461A46FB6883F820225E
:10611C003BE0FB68D3F83023FB68C3F82422F86813
:10612C0000F05AF831E0F868FFF7B1FE2DE079681D
:10613C00F868FFF7FCFE28E07968F868FFF7E8FEDE
:10614C0023E07968F868FFF701FF1EE07968F868CA
:10615C00FFF7BEFE19E07B689BB27A681214D2B2CC
:10616C00C3F30D0399B2FB68103223F812107B684D
:10617C001B14FF2B05D1F86800F065F80548FFF7F4
:10618C0058FC002302E0002300E0012318461037DE
:10619C00BD4680BDF000002080B582B000AF7860B5
:1061AC007B68012283F820227B6841F658321A6101
:1061BC007B6800225A617B68064A9A617B6841F6CB
:1061CC005832DA61786800F007F800BF0837BD462E
:1061DC0080BD00BFA8E4FFFF80B483B000AF78603F
:1061EC007B681A697B685B691A447B689B691344FA
:1061FC00C3F30D027B68C3F824227B689B69DB0F19
:10620C00DAB27B6883F820227B6893F82032002B6B
:10621C0003D07B689B695B4201E07B689B697A6871
:10622C00C2F828327B68D3F8283203F57A727B687F
:10623C00C3F834237B68002283F83C2300BF0C375F
:10624C00BD4680BC704780B485B000AF7860002339
:10625C00FB60FB68FF2B1CDCFB680133DAB27B684C
:10626C00103233F81230BB60BB68DAB27B68F96865
:10627C00103133F81130DBB2D31AD9B27A68FB681B
:10628C00134403F50B730A461A70FB680133FB6069
:10629C00DFE700BF1437BD4680BC704780B485B0C3
:1062AC0000AF78600023FB730023BB60BB68022B3C
:1062BC0010DC7A68BB68134403F23D331A78FB7B1D
:1062CC005340DBB21A460A4B9B5CFB73BB68013331
:1062DC00BB60EBE77B6893F84033FA7B9A420CBFC8
:1062EC0001230023DBB218461437BD4680BC70472F
:1062FC006CAA000880B483B000AF78600B467B803A
:10630C007B685A6A7B681B6879685B000B44B3F93D
:10631C000430D21A7B685A627B681A687968530019
:10632C000B4479889980796853000B44B3F90420A5
:10633C007B685B6A1A447B685A627B681B68013312
:10634C0003F00F027B681A6000BF0C37BD4680BC9F
:10635C00704780B483B000AF78600B467B807B685D
:10636C00D3F884207B681B6879685B000B44B3F915
:10637C000430D21A7B68C3F884207B681A68796869
:10638C0053000B4479889980796853000B44B3F916
:10639C0004207B68D3F884301A447B68C3F88420CB
:1063AC007B681B68013303F03F027B681A6000BFF7
:1063BC000C37BD4680BC704780B483B000AF7860AA
:1063CC007B68D3F8843018460C37BD4680BC7047C8
:1063DC0080B582B000AF78607B6800221A607B6861
:1063EC000022C3F884207B680433802200211846E5
:1063FC0004F0AAF97B6818460837BD4680BD80B505
:10640C0082B000AF78607B6800221A607B68002243
:10641C005A627B68043320220021184604F094F958
:10642C007B6818460837BD4680BD000080B582B039
:10643C0000AF786039607B68012B07D13B684FF661
:10644C00FF72934202D10348FFF700FB00BF0837ED
:10645C00BD4680BD0801002080B500AF4FF6FF712E
:10646C000120FFF7E3FF80BD80B483B000AF7860FC
:10647C007B6801225A707B685A787B681A7000BF5F
:10648C000C37BD4680BC704780B483B000AF7860D9
:10649C007B6893F8203218460C37BD4680BC704799
:1064AC0080B483B000AF78607B6800229A627B680E
:1064BC00002283F82D207B6893F82D207B6883F8CD
:1064CC002C2000BF0C37BD4680BC704780B58CB00B
:1064DC0000AF786001214FF40060FDF79BFC0121B7
:1064EC000220FDF7B5FC01210420FDF7B1FC4FF4AF
:1064FC000073BB85032387F82E30182387F82F30C1
:10650C0007F12C0319464A48FDF74EFA4FF48073F5
:10651C00BB8507F12C0319464548FDF745FA0023C6
:10652C003B8420237B8440F2CF73BB840023FB8409
:10653C00002387F8283007F1200319463D48FDF762
:10654C006FFD70233B8201237B820423BB820023DB
:10655C00FB8200233B8300237B834FF48073BB833C
:10656C000023FB8307F1100319463248FDF7D4FDD5
:10657C0007F1100319462F48FDF75AFE70233B8292
:10658C0001237B820023BB820123FB8200233B83FC
:10659C0000237B834FF48073BB830023FB8307F1C1
:1065AC00100319462348FDF7CBFE04233B8448F225
:1065BC00FA43BB8407F1200319461F48FDF730FD51
:1065CC001D233B7304237B730023BB730123FB73D9
:1065DC0007F10C031846FCF7B3FD01220121164804
:1065EC00FDF778FF00233B8441F63C73BB8407F135
:1065FC00200319461148FDF713FD1E233B7307F1C9
:10660C000C031846FCF79CFD01210A48FDF71EFF00
:10661C0001210A48FDF71AFF01210748FDF716FF73
:10662C0001210448FDF731FF00BF3037BD4680BD66
:10663C0000080140002C014000040040000800400C
:10664C0080B582B000AF786039601E48FFF72CF837
:10665C000346002B03D0786800F04CF82DE01A4864
:10666C00FFF712FF0346002B01D03B6801E03B68AB
:10667C005B424FF4FA6219461448FEF72EFD38605F
:10668C007B683A681A603B68002B0ADB00211048D3
:10669C00FDF751FF3B689BB219460D48FDF73DFFD6
:1066AC000BE000210A48FDF738FF3B689BB25B42C8
:1066BC009BB219460648FDF73EFF00BF0837BD46A2
:1066CC0080BD00BFC00000200801002030F8FFFF93
:1066DC00002C014080B582B000AF7860786800F083
:1066EC0009F80348FFF7DCFE00BF0837BD4680BD44
:1066FC00C000002080B582B000AF78604FF4FA6122
:10670C000548FDF718FF4FF4FA610348FDF705FF44
:10671C0000BF0837BD4680BD002C014080B500AFDE
:10672C0001210848FDF715FF074B1A68064B1B683B
:10673C001B6810331B68104698470448FEF7CAFBC9
:10674C0000BF80BD0004004008050020C0000020F0
:10675C0080B500AF01210748FDF7FBFE064B1A6818
:10676C00054B1B681B6814331B681046984700BF09
:10677C0080BD00BF000800400805002080B483B035
:10678C0000AF786039603B6818460C37BD4680BC5A
:10679C00704780B483B000AF7860002318460C3784
:1067AC00BD4680BC704780B483B000AF786000BF3A
:1067BC000C37BD4680BC704780B483B000AF7860A6
:1067CC0000BF0C37BD4680BC7047000080B584B05C
:1067DC0000AFF860B9607A60FB687A68B9681846EF
:1067EC00FEF76AFA034AFB681A60FB681846103712
:1067FC00BD4680BD64AF000880B483B000AF786044
:10680C0039607B683A689A6100BF0C37BD4680BC22
:10681C00704780B483B000AF78607B685B691846C2
:10682C000C37BD4680BC704780B483B000AF786035
:10683C007B685B6818460C37BD4680BC704780B5DA
:10684C0082B000AF78607B680C331846FFF7E1FF2D
:10685C00034618460837BD4680BD80B483B000AFF0
:10686C0078607B681B6818460C37BD4680BC704747
:10687C0080B582B000AF78607B6803F573731846FF
:10688C0000F081F9034618460837BD4680BD80B438
:10689C0083B000AF78607B6893F82032002B03D074
:1068AC007B68D3F8383303E07B68D3F838335B422A
:1068BC0018460C37BD4680BC704780B483B000AF1F
:1068CC0078607B6801221A7000BF0C37BD4680BC13
:1068DC007047000080B483B000AF7860044A7B68D6
:1068EC001A607B6818460C37BD4680BC704700BFE9
:1068FC0004AC000880B582B000AF78607B681846A5
:10690C00FFF7E8FF0F4A7B681A607B6847F6FF7257
:10691C005A607B6800229A607B680C330A4A4FF4F9
:10692C0016711846FFF752FF7B68002283F85C2033
:10693C007B68002283F85D207B6818460837BD46CB
:10694C0080BD00BFE4AB00088CAB000880B582B002
:10695C0000AF786039603B681A1D7B680C331946B0
:10696C00104600F01DF9034618460837BD4680BD99
:10697C0090B583B000AF786039603B6847F6FA7227
:10698C00934204D17B68012283F85C2088E03B6849
:10699C0047F6F27293420AD14348FFF75EFF024674
:1069AC007B689A607B68012283F85D2078E03B6805
:1069BC0047F6F172934218D13C48FFF70FF80246A4
:1069CC007B685A607B6803F10C047B685B68194632
:1069DC003648FFF7E1F903461946204603F0DCF888
:1069EC007B68002283F85D205AE03B6847F6FC7216
:1069FC00934255D03B6847F6BB72934218DC7B68D8
:106A0C0093F85D30002B03D07B683A689A6047E0BE
:106A1C007B683A685A607B6803F10C043968234838
:106A2C00FFF7BAF903461946204603F0B5F837E0EC
:106A3C003B6847F6FE7293420ED17B683A685A6007
:106A4C007B6803F10C041948FEF7C8FF034619468E
:106A5C00204603F0A1F823E03B6847F6FB72934213
:106A6C001BD17B6893F85C30002B19D00F48FFF7D3
:106A7C000EFA0F48FFF721FF7B6803F10C027B68CD
:106A8C00002159607B685B681946104603F084F856
:106A9C007B68002283F85C2002E07B683A685A60CD
:106AAC0000BF0C37BD4690BD040500200801002036
:106ABC00F000002090B585B000AF78602948FFF752
:106ACC00D7FEF8607B685B6847F6FE72934207D18D
:106ADC0000212548FFF7B4FD002001F057FB37E0FB
:106AEC007B685B6847F6FF72934207D11E48FFF73D
:106AFC00F1FD4FF4FA6001F049FB29E07B6893F853
:106B0C005D30002B06D07B689B6819461648FFF752
:106B1C0097FD1DE07B6803F10C041248FFF7B7FEEC
:106B2C0003461A46F968204602F066FFB860B96859
:106B3C000D48FFF785FD0B48FFF7A6FC0346002B1D
:106B4C0001D0BB6801E0BB685B42184601F01EFB3C
:106B5C007B680C33F9681846FFF74EFE00BF1437FC
:106B6C00BD4690BD080100200405002080B582B010
:106B7C0000AF78607B680C33184602F037FB00BF1F
:106B8C000837BD4680BD80B483B000AF78607B68A9
:106B9C005B6A1B111BB218460C37BD4680BC704794
:106BAC0080B483B000AF786039607B681A683B684A
:106BBC005A607B683A681A603B6818460C37BD46C9
:106BCC0080BC704780B582B000AF786039607B685C
:106BDC00012B07D13B684FF6FF72934202D1034859
:106BEC00FFF788FE00BF0837BD4680BD0C050020AE
:106BFC0080B500AF4FF6FF710120FFF7E3FF80BDBA
:106C0C0080B584B000AFF860B9607A60FB687A68D0
:106C1C00B9681846FEF750F8034AFB681A60FB681F
:106C2C0018461037BD4680BD24AF000880B483B031
:106C3C0000AF786039607B683A681A6100BF0C3726
:106C4C00BD4680BC704780B483B000AF78607B6871
:106C5C005B6918460C37BD4680BC704780B584B064
:106C6C0000AFF860B9607A60FB687A68B96818465A
:106C7C00FFF7C6FF064AFB681A60FB680022DA625F
:106C8C00FB6800221A63FB6818461037BD4680BDAE
:106C9C0044AF000880B483B000AF78607B685B6859
:106CAC0018460C37BD4680BC704780B582B000AF2B
:106CBC0078607B680C331846FFF7C5FF034618460F
:106CCC000837BD4680BD000080B582B000AF78604B
:106CDC007B681846FFF7FEFD0D4A7B681A607B68DF
:106CEC0047F6FF725A607B680C330A4A4FF42F71D7
:106CFC001846FFF7B3FF7B68002283F860207B689F
:106D0C00002283F861207B6818460837BD4680BD99
:106D1C0094AC00081CAC000880B582B000AF786061
:106D2C0039603B681A1D7B680C3319461046FFF717
:106D3C0037FF034618460837BD4680BD90B583B073
:106D4C0000AF786039603B6847F6FA72934204D121
:106D5C007B68012283F8602088E03B6847F6F2727A
:106D6C0093420AD14348FFF778FD02467B689A604C
:106D7C007B68012283F8612078E03B6847F6F1726A
:106D8C00934218D13C48FEF729FE02467B685A60B4
:106D9C007B6803F10C047B685B6819463648FEF788
:106DAC00FBFF034619462046FFF740FF7B68002295
:106DBC0083F861205AE03B6847F6FC72934255D049
:106DCC003B6847F6BB72934218DC7B6893F86130E2
:106DDC00002B03D07B683A689A6047E07B683A687E
:106DEC005A607B6803F10C0439682348FEF7D4FF22
:106DFC00034619462046FFF719FF37E03B6847F674
:106E0C00FE7293420ED17B683A685A607B6803F13C
:106E1C000C041948FEF7E2FD034619462046FFF71D
:106E2C0005FF23E03B6847F6FB7293421BD17B685E
:106E3C0093F86030002B19D00F48FFF728F80F4853
:106E4C00FFF73BFD7B6803F10C027B680021596066
:106E5C007B685B6819461046FFF7E8FE7B680022EA
:106E6C0083F8602002E07B683A685A6000BF0C37F8
:106E7C00BD4690BD0405002008010020F000002054
:106E8C0090B585B000AF78602648FFF7F1FCF8604C
:106E9C007B685B6847F6FE72934207D1002122485B
:106EAC00FFF7CEFB002001F071F937E07B685B68DF
:106EBC0047F6FF72934207D11B48FFF70BFC4FF4C8
:106ECC00FA6001F063F929E07B6893F86130002BDC
:106EDC0006D07B689B6819461348FFF7B1FB1DE091
:106EEC007B6803F10C040F48FFF7D1FC03461A46EC
:106EFC00F968204602F044FDB860B9680A48FFF70B
:106F0C009FFB0848FFF7C0FA0346002B01D0BB6873
:106F1C0001E0BB685B42184601F038F900BF14373A
:106F2C00BD4690BD080100200405002080B582B04C
:106F3C0000AF78607B680C33184602F057F900BF3D
:106F4C000837BD4680BD000080B582B000AF7860C8
:106F5C0039607B68012B07D13B684FF6FF72934277
:106F6C0002D10348FFF7B0FE00BF0837BD4680BD15
:106F7C006C05002080B500AF4FF6FF710120FFF7C4
:106F8C00E3FF80BD80B483B000AF78607B685B6842
:106F9C0018460C37BD4680BC704780B582B000AF38
:106FAC0078607B680C331846FFF74DFE0346184695
:106FBC000837BD4680BD000080B582B000AF786058
:106FCC007B681846FFF786FC0D4A7B681A607B6865
:106FDC0047F6FF725A607B680C330A4A3C2118460C
:106FEC00FFF73CFE7B68002283F860207B68002260
:106FFC0083F861207B6818460837BD4680BD00BF0A
:10700C0024AD0008ACAC000880B582B000AF78604D
:10701C0039603B681A1D7B680C3319461046FFF724
:10702C00BFFD034618460837BD4680BD90B583B0FA
:10703C0000AF786039603B6847F6FA72934204D12E
:10704C007B68012283F8602088E03B6847F6F27287
:10705C0093420AD14348FFF700FC02467B689A60D2
:10706C007B68012283F8612078E03B6847F6F17277
:10707C00934218D13C48FEF7B1FC02467B685A603B
:10708C007B6803F10C047B685B6819463648FEF795
:10709C0083FE034619462046FFF7C8FD7B68002295
:1070AC0083F861205AE03B6847F6FC72934255D056
:1070BC003B6847F6BB72934218DC7B6893F86130EF
:1070CC00002B03D07B683A689A6047E07B683A688B
:1070DC005A607B6803F10C0439682348FEF75CFEA8
:1070EC00034619462046FFF7A1FD37E03B6847F6FB
:1070FC00FE7293420ED17B683A685A607B6803F14A
:10710C000C041948FEF76AFC034619462046FFF7A3
:10711C008DFD23E03B6847F6FB7293421BD17B68E5
:10712C0093F86030002B19D00F48FEF7B0FE0F48D3
:10713C00FFF7C3FB7B6803F10C027B6800215960ED
:10714C007B685B6819461046FFF770FD7B68002270
:10715C0083F8602002E07B683A685A6000BF0C3705
:10716C00BD4690BD0405002008010020F000002061
:10717C0090B585B000AF78602648FFF779FBF860D2
:10718C007B685B6847F6FE72934207D10021224868
:10719C00FFF756FA002000F0F9FF37E07B685B68D8
:1071AC0047F6FF72934207D11B48FFF793FA4FF44F
:1071BC00FA6000F0EBFF29E07B6893F86130002B5C
:1071CC0006D07B689B6819461348FFF739FA1DE017
:1071DC007B6803F10C040F48FFF759FB03461A4672
:1071EC00F968204602F0CCFBB860B9680A48FFF792
:1071FC0027FA0848FFF748F90346002B01D0BB6873
:10720C0001E0BB685B42184600F0C0FF00BF1437BA
:10721C00BD4690BD080100200405002080B582B059
:10722C0000AF78607B680C33184601F0DFFF00BFBD
:10723C000837BD4680BD000080B582B000AF7860D5
:10724C0039607B68012B07D13B684FF6FF72934284
:10725C0002D10348FFF7B0FE00BF0837BD4680BD22
:10726C00D005002080B500AF4FF6FF710120FFF76D
:10727C00E3FF80BD80B483B000AF78607B685B684F
:10728C0018460C37BD4680BC704780B582B000AF45
:10729C0078607B6808331846FFF7D5FC0346184620
:1072AC000837BD4680BD80B483B000AF78607B6882
:1072BC00D3F82C33DB1118460C37BD4680BC704715
:1072CC0080B582B000AF78607B681846FFF702FB90
:1072DC000D4A7B681A607B6847F6FF725A607B68C0
:1072EC0008330A4A4FF4B9711846FFF7B7FC7B68AC
:1072FC005C33074A4FF4AF71184602F0D7FE7B6837
:10730C0018460837BD4680BDBCAD00083CAD000832
:10731C00A4AD000880B582B000AF786039603B68DE
:10732C001A1D7B68083319461046FFF739FC0346D3
:10733C001A1D7B685C3319461046FFF731FC034677
:10734C0018460837BD4680BD90B583B000AF786055
:10735C0039607B683A685A607B685B6847F6BB7239
:10736C0093420ADC7B6803F108023B68C3F30D030C
:10737C0019461046FFF75AFC16E07B685B6847F627
:10738C00FE72934205D07B685B6847F6FC729342B1
:10739C000AD17B6803F108040548FFF784FF034614
:1073AC0019462046FFF742FC00BF0C37BD4690BD86
:1073BC000801002090B585B000AF78602C48FFF72D
:1073CC0072FFF8607B685C33F968184602F096FE31
:1073DC000346002B47D07B685B6803F50053C3F36F
:1073EC000D03BB607B685B68BA689A4208DDFA687B
:1073FC00BB689A4204DDFB68A3F58043FB600CE09C
:10740C007B685B68BA689A4207DAFA68BB689A428A
:10741C0003DAFB6803F58043FB607B685B6847F627
:10742C00FE72934204D100211248FFF709F91AE0C9
:10743C007B685B6847F6FF72934203D10D48FFF7F8
:10744C0049F910E07B6803F108040948FFF71FFABB
:10745C0003461A46F968204602F092FA034619468A
:10746C000448FFF7EDF800BF1437BD4690BD00BFD0
:10747C00080100200405002080B582B000AF7860C0
:10748C0039607B68012B07D13B684FF6FF72934242
:10749C0002D10348FFF714FF00BF0837BD4680BD7B
:1074AC003406002080B500AF4FF6FF710120FFF7C6
:1074BC00E3FF80BD80B483B000AF78607B689B69CC
:1074CC0018460C37BD4680BC704780B483B000AF03
:1074DC0078607B681B6918460C37BD4680BC7047CA
:1074EC0080B483B000AF786039607B683A685A61C9
:1074FC0000BF0C37BD4680BC704780B483B000AF72
:10750C0078607B685B6918460C37BD4680BC704759
:10751C0080B582B000AF78607B682C331846FFF7DB
:10752C00D4FF034618460837BD4680BD80B582B0EF
:10753C0000AF78607B681846FFF7CCF90A4A7B6885
:10754C001A607B680433094ADC21184602F0AEFD50
:10755C007B682C33064AF021184602F089FC7B68C4
:10756C0018460837BD4680BD14AE0008D4AD0008DF
:10757C00E4AD000880B582B000AF786039607B68FC
:10758C002C3339681846FFF7ABFF00BF0837BD46F0
:10759C0080BD000090B585B000AF78601A48FEF74A
:1075AC001DFAF8607B680433F968184602F0A6FDF2
:1075BC000346002B24D07B682C331846FFF79DFF25
:1075CC00034642F210729342CCBF01230023DBB27C
:1075DC00002B03D00D48FFF77DF811E07B6803F119
:1075EC002C047B6804331846FFF764FF03461946E6
:1075FC00204602F053FC034619460448FFF720F8D6
:10760C0000BF1437BD4690BD0801002004050020C2
:10761C0080B582B000AF786039603B681A1D7B681A
:10762C00043319461046FFF7BBFA03461A1D7B6854
:10763C002C3319461046FFF7B3FA034618460837A1
:10764C00BD4680BD80B582B000AF786039607B6884
:10765C00012B07D13B684FF6FF72934202D10348CE
:10766C00FFF764FF00BF0837BD4680BDB806002099
:10767C0080B500AF4FF6FF710120FFF7E3FF80BD2F
:10768C0080B483B000AF786039607B683A685A6226
:10769C0000BF0C37BD4680BC704780B483B000AFD0
:1076AC0078607B689B6D18460C37BD4680BC704774
:1076BC0080B582B000AF78607B681846FFF70AF996
:1076CC000B4A7B681A607B68043300224FF4967176
:1076DC00184602F0EBFC7B682C3300224FF49B71B4
:1076EC00184601F0CBFD7B6818460837BD4680BDB7
:1076FC0034AE000880B582B000AF786039607B682A
:10770C002C3339681846FFF7BBFF00BF0837BD465E
:10771C0080BD000090B583B000AF78607B681C1D05
:10772C001248FEF75BF903461946204602F0E6FCC8
:10773C000346002B15D07B6803F12C047B680433C3
:10774C001846FFF7B7FE03461946204601F0ACFD7C
:10775C0002467B689A657B689B6D19460448FEF768
:10776C006FFF00BF0C37BD4690BD00BF0801002065
:10777C000405002080B582B000AF786039603B68AA
:10778C001A1D7B6804331946104600F00DF80346A9
:10779C001A1D7B682C331946104600F005F8034679
:1077AC0018460837BD4680BD80B483B000AF786002
:1077BC0039607B681A683B685A607B683A681A6063
:1077CC003B6818460C37BD4680BC704780B582B00C
:1077DC0000AF786039607B68012B07D13B684FF6AE
:1077EC00FF72934202D10348FFF762FF00BF0837D4
:1077FC00BD4680BD0C07002080B500AF4FF6FF7171
:10780C000120FFF7E3FF80BD80B582B000AF786048
:10781C007B681846FFF75EF8064A7B681A607B683F
:10782C0000225A607B6800229A607B6818460837F1
:10783C00BD4680BD54AE000880B483B000AF786004
:10784C007B685B6818460C37BD4680BC704780B4BB
:10785C0083B000AF78607B685B6818460C37BD4618
:10786C0080BC704780B483B000AF786039607B68AF
:10787C003A685A6000BF0C37BD4680BC70470000A8
:10788C0080B582B000AF78607B685B6819460348AE
:10789C00FEF7D6FE00BF0837BD4680BD04050020AC
:1078AC0080B582B000AF786039607B68012B07D15E
:1078BC003B684FF6FF72934202D10348FFF7A4FFD7
:1078CC0000BF0837BD4680BD6807002080B500AFFB
:1078DC004FF6FF710120FFF7E3FF80BD80B582B04A
:1078EC0000AF78607B681846FEF7F4FF054A7B68AA
:1078FC001A607B6800225A607B6818460837BD46C0
:10790C0080BD00BF74AE000880B582B000AF786057
:10791C0039607B683A685A603B6813F5FA6F03DD8F
:10792C003B68B3F5FA6F03DB0748FEF7D3FE06E0BE
:10793C007B685B6819460448FEF782FE00BF00BFF7
:10794C000837BD4680BD00BF0405002080B483B05D
:10795C0000AF7860396000BF0C37BD4680BC704703
:10796C0080B483B000AF78607B685B6818460C37D6
:10797C00BD4680BC7047000080B582B000AF786017
:10798C0039607B68012B07D13B684FF6FF7293423D
:10799C0002D10348FFF7A2FF00BF0837BD4680BDE8
:1079AC007407002080B500AF4FF6FF710120FFF780
:1079BC00E3FF80BD80B483B000AF78603960144BB6
:1079CC0020221A61134A3B685360124A7B68D360C9
:1079DC0072B600BF0F4B1B680E4A43F001031360D5
:1079EC000D4B1B889BB20C4A23F040039BB21380B7
:1079FC00094B9B899BB2084A43F040039BB293818D
:107A0C0062B600BF00BF0C37BD4680BC704700BFDC
:107A1C00000C0140440002400038014080B400AF2B
:107A2C00074B5B68074A12681344C3F58073DBB2DB
:107A3C00054A1360044B1B681846BD4680BC704752
:107A4C0058000240800800208408002080B594B0C3
:107A5C0000AF78600B46FB7001210C20FCF7DAF9C3
:107A6C0001214FF48040FCF7D5F901210120FCF7EE
:107A7C00D1F901210420FCF76BF82023A7F84C3036
:107A8C00032387F84E30102387F84F3007F14C034F
:107A9C0019464948FBF788FF8023A7F84C3004238C
:107AAC0087F84F30032387F84E3007F14C03194603
:107ABC004148FBF779FF4023A7F84C30182387F88F
:107ACC004F3007F14C0319463B48FBF76DFF25235C
:107ADC0087F84830002387F84930002387F84A306C
:107AEC00012387F84B3007F148031846FBF728FBB6
:107AFC007B68BB63FB78002B02D04FF4805300E013
:107B0C000023BB870023FB87FB78002B02D04FF4AC
:107B1C00806300E00023A7F840300023A7F844302E
:107B2C000C23A7F8423007F1380319462348FCF719
:107B3C0021FD2348FBF71EFD224BFB60224B3B61D2
:107B4C0000237B614FF48073BB610023FB618023B6
:107B5C003B624FF400737B620023BB622023FB6209
:107B6C004FF400533B6300237B6307F10C0319466E
:107B7C001348FBF7BBFD01211148FBF7F5FD102362
:107B8C007B610023FB6207F10C0319460F48FBF7DE
:107B9C00ADFD012240210948FCF7C5FD01228021E1
:107BAC000648FCF7C0FD01210448FCF79DFD00BF11
:107BBC005037BD4680BD00BF000C0140003801406D
:107BCC005800024004380140800700204400024065
:107BDC0080B400AF0A4B9B899BB2094A23F0400347
:107BEC009BB29381074B20225A61074B1A680649B6
:107BFC004FF6FE7313400B6000BFBD4680BC704750
:107C0C0000380140000C01404400024080B483B0B5
:107C1C0000AF7860064B1A687B68134403F00F03BF
:107C2C00044AD35C18460C37BD4680BC704700BF75
:107C3C00980800208808002080B483B000AF7860DA
:107C4C00084B1A687B681344064A1360054B1B6883
:107C5C0003F00F03034A136000BF0C37BD4680BC12
:107C6C00704700BF9808002080B500AF0020FFF7D8
:107C7C00CDFF03465BB2DBB2DB09DBB2184680BD3D
:107C8C0080B500AF0020FFF7C1FF03461B1103F0C6
:107C9C000703184680BD80B483B000AF78607B6862
:107CAC0000221A647B6800225A647B6818460C37E1
:107CBC00BD4680BC704780B483B000AF78607B68F1
:107CCC001B6C18460C37BD4680BC704780B483B023
:107CDC0000AF78607B6818460C37BD4680BC704797
:107CEC0080B400AF064B5B68064A12681344C3F1BC
:107CFC00100303F00F031846BD4680BC704700BF4D
:107D0C006C0002409808002080B590B000AF3C4B4E
:107D1C001B7883F00103DBB2002B6DD0384B0122B2
:107D2C001A7001210C20FCF775F801214FF400307A
:107D3C00FCF78EF84FF48063BB87032387F83E3043
:107D4C00102387F83F3007F13C0319462D48FBF709
:107D5C002BFE2C4B4FF480621A610823BB87042343
:107D6C0087F83F30032387F83E3007F13C03194670
:107D7C002448FBF719FE0423BB87182387F83F30F0
:107D8C0007F13C0319461F48FBF70EFE1E4BFB6226
:107D9C0000233B8600237B860023BB8600233B8786
:107DAC000823FB8607F12C0319461848FCF7E2FB65
:107DBC00174B3B601023FB6000233B6180237B61EE
:107DCC004FF40073BB610023FB614FF400537B62E3
:107DDC000023BB621023BB6000233B623B46194669
:107DEC000C48FBF783FC012280210848FCF79BFC24
:107DFC0001210648FCF778FC00BF4037BD4680BD2A
:107E0C00A00800200008014040420F000044004040
:107E1C00044400408000024080B582B000AF78601E
:107E2C003960FFF75DFF0346002B14BF01230023CD
:107E3C00DBB218460837BD4680BD80B582B000AFB6
:107E4C00786079680020FFF7E7FF0346184608378B
:107E5C00BD4680BD80B483B000AF7860024B18463D
:107E6C000C37BD4680BC7047477E000880B582B099
:107E7C0000AF78603960FFF733FF02463B681B6840
:107E8C009A42ACBF01230023DBB218460837BD462B
:107E9C0080BD80B582B000AF786079680020FFF7B4
:107EAC00E5FF034618460837BD4680BD80B483B055
:107EBC0000AF7860024B18460C37BD4680BC70474B
:107ECC009F7E000880B586B000AF78603960FFF700
:107EDC0007FF0346002B0CBF01230023DBB2002B52
:107EEC0009D007F110031846FFF7B4FF03461946F3
:107EFC00002000F093FFFFF7B7FE034683F0010369
:107F0C00DBB2002B3BD0FFF7BBFE0346002B0CBFB4
:107F1C0001230023DBB2002B31D00523FB60FB686F
:107F2C00002B2CD007F114031846FFF7BFFF0246B5
:107F3C0007F10C031146184600F080F9124B1B6830
:107F4C00012219461148FCF7A9FDFB6819460F4898
:107F5C00FCF741FE0346002B11D0FB681846FFF7D7
:107F6C006BFE00BF0948FCF702FE0246084B1B687B
:107F7C0003FB02F319460748FFF7C6FCA7E70120ED
:107F8C00FFF75AFEA3E700BF98080020A4080020C2
:107F9C009C0800207407002080B582B000AF786088
:107FAC0079680020FFF78EFF0837BD4680BD0000C2
:107FBC0080B483B000AF7860024B18460C37BD46D6
:107FCC0080BC7047A57F000880B596B002AF786082
:107FDC00634B1B7883F00103DBB2002B00F0BB80FA
:107FEC005F4B01221A705F4A7B68136001210C20E1
:107FFC00FBF710FF01214FF40030FBF729FF4FF482
:10800C008063A7F84830032387F84A30102387F899
:10801C004B3007F1480319465348FBF7C5FC524B4C
:10802C004FF480625A610823A7F84830042387F87C
:10803C004B30032387F84A3007F1480319464A4866
:10804C00FBF7B2FC0423A7F84830182387F84B3011
:10805C0007F1480319464448FBF7A6FC434BBB63A6
:10806C000023BB870023FB870023A7F840300023A5
:10807C00A7F844300423A7F8423007F13803194617
:10808C003B48FCF777FA3B48FBF774FA3A4BFB603A
:10809C003A4B3B6100237B611023BB610023FB61E6
:1080AC0080233B624FF400737B620023BB6220236E
:1080BC00FB624FF400533B6300237B6307F10C031B
:1080CC0019462C48FBF712FB01212A48FBF74CFB05
:1080DC00012240212648FCF726FB254B1B889BB22E
:1080EC00234A23F020039BB2138001212048FCF784
:1080FC00FBFA234B1B78BFF35B8FDBB203F001035E
:10810C00002B0CBF01230023DBB2002B17D01C4823
:10811C0002F0C1FA0346002B14BF01230023DBB28B
:10812C00002B0CD0174B1B681AB2002300931023A2
:10813C0012491548FCF790FC114802F0B8FA07F107
:10814C004C031846FFF734FF0246002300214FF47E
:10815C00967000F00FFE00BF5037BD4680BD00BFCB
:10816C00A10800209C0800200008014040420F009C
:10817C00004400406C000240044400408808002089
:10818C00B808002098080020A408002080B582B010
:10819C0000AF7860254B1B78002B43D0244B1B7809
:1081AC00BFF35B8FDBB203F00103002B0CBF012389
:1081BC000023DBB2002B10D01D4802F06CFA0346F2
:1081CC00002B14BF01230023DBB2002B05D0194870
:1081DC00FFF761FD164802F06AFA002200211548EB
:1081EC00FCF75BFB79681348FCF725FB1148FCF79F
:1081FC008BFB114B1A6810494FF6FE7313400B6042
:10820C000C48FFF758FD02460B4B5A600948FFF724
:10821C005DFD0246084BDA60074B1B68064A43F0CB
:10822C000103136000BF0837BD4680BDA0080020C5
:10823C0004090020BC0800208000024080B582B0F8
:10824C0000AF786039603968786800F0E7FD00BFEE
:10825C000837BD4680BD80B483B000AF7860002382
:10826C0018460C37BD4680BC7047000080B483B004
:10827C0000AF78603960064B1A683B681344DBB278
:10828C00044AD35C18460C37BD4680BC704700BF0F
:10829C00800800208007002080B483B000AF786095
:1082AC003960084B1A683B681344064A1360054B47
:1082BC001B68DBB2034A136000BF0C37BD4680BCA1
:1082CC00704700BF8008002080B584B000AFF86014
:1082DC00B9607A60FB687A68B9681846FCF7ECFC00
:1082EC00034AFB681A60FB6818461037BD4680BD10
:1082FC00BCAE000880B582B000AF7860786800F042
:10830C000FF80246054B5B689A420CBF0123002311
:10831C00DBB218460837BD4680BD00BFF400002014
:10832C0080B582B000AF78607B6800211846FFF7FB
:10833C009DFF034603F00F0318460837BD4680BD6A
:10834C0080B582B000AF78607B6800211846FFF7DB
:10835C008DFF03461B1103F0070318460837BD4673
:10836C0080BD80B582B000AF78607B680021184674
:10837C00FFF77CFF03465BB2DBB2DB09DBB21846CE
:10838C000837BD4680BD80B483B000AF7860012350
:10839C0018460C37BD4680BC704780B483B000AF24
:1083AC0078607B681B6818460C37BD4680BC7047EC
:1083BC0080B400AFBFF34F8F00BF074BDB6803F4F3
:1083CC00E0620549054B1343CB60BFF34F8F00BFF1
:1083DC0000BF00BFFCE700BF00ED00E00400FA05A1
:1083EC0080B582B000AF78607B680022052118460A
:1083FC00FFF76AFF054A7B681A607B68044A1A61BA
:10840C007B6818460837BD4680BD00BF94AE000897
:10841C00C0C62D0080B582B000AF78600E48FFF763
:10842C00BCFF0346002B0CBF01230023DBB2002B47
:10843C000ED00A4B0A4A1A600A4BDB681946786858
:10844C0000F07EFA7B681B6900211846FFF7FEFAE4
:10845C0000BF0837BD4680BD000500207C0700200A
:10846C0050090020F400002080B582B000AF786085
:10847C003960FFF7D3FA0346002B14BF0123002306
:10848C00DBB218460837BD4680BD80B582B000AF60
:10849C00786079680020FFF7E7FF03461846083735
:1084AC00BD4680BD80B483B000AF7860024B1846E7
:1084BC000C37BD4680BC70479784000880B582B0ED
:1084CC0000AF78603960FFF7A9FA02463B681B6879
:1084DC009A42ACBF01230023DBB218460837BD46D5
:1084EC0080BD80B582B000AF786079680020FFF75E
:1084FC00E5FF034618460837BD4680BD80B483B0FF
:10850C0000AF7860024B18460C37BD4680BC7047F4
:10851C00EF84000890B58DB002AF7860994B1B7852
:10852C00BFF35B8FDBB203F00103002B0CBF012305
:10853C000023DBB2002B18D0924802F0ACF80346B3
:10854C00002B14BF01230023DBB2002B0DD08E4B6C
:10855C001B681AB2002300934FF480738B498C482C
:10856C00FCF77AFA874802F0A2F8FFF757FA0346AD
:10857C00002B0CBF01230023DBB2002B09D007F129
:10858C0010031846FFF78EFF03461946002000F033
:10859C0045FC7868FFF7E5FE034683F00103DBB288
:1085AC00002B3BD07868FFF7A5FE0346002B35D097
:1085BC007868FFF7C5FE0346764A1360754B1B6857
:1085CC00754A52F82330FB60FB68002B26D007F16C
:1085DC0014031846FFF792FF024607F10C031146ED
:1085EC001846FFF72BFE684B1B680122194668489A
:1085FC00FCF754FAFB6819466548FCF7ECFA03469D
:10860C00002B0BD07B68FA6811461846FFF744FE26
:10861C0000BF604B1B68002B06D075E07B68012106
:10862C001846FFF739FEA0E75948FCF7A0FAB861E5
:10863C005A4B1B78002B04D1BB6947F6F972934255
:10864C004AD1BB6947F6F872934206D1534B0022CC
:10865C001A705348FEF731F936E0BB6947F6BC7225
:10866C00934206DD4F4ABB6913604C4B01221A70D2
:10867C002AE04C4B1B68A3F5FF43743B032B1FD81C
:10868C0001A252F823F000BFC3860008B986000887
:10869C00AF860008A5860008B9694348FDF718FCA9
:1086AC000EE0B9694048FDF733FC09E0B9693E4872
:1086BC00FDF73DFC04E0B9693B48FDF747FC00BF02
:1086CC00384B47F6F9721A60364B1B680022194674
:1086DC003648FCF745F945E0354B1A68344B1B68B6
:1086EC001B6804331B68B969104698472E48FDF780
:1086FC0075F904462C48FEF7CAF803461A4621467B
:10870C002A48FCF72DF92DE0224B1B68052B11D1C3
:10871C001F48FCF72CFA38621D48FCF737FAF86151
:10872C00FA69396A786800F09DF8F9691F48FCF716
:10873C002FF917E0174B1B68062B0DD11448FCF7CB
:10874C0016FA7862796A786800F034F803461946AC
:10875C001648FCF730F905E00E4B1B68072B0ED1C1
:10876C00FFF726FE1148FFF7B1FA04460F48FFF752
:10877C00A2FA034619462046FFF71CF9F5E600BF9E
:10878C00F3E600BF78090020800800208007002055
:10879C00640900207C0900201800002080090020BA
:1087AC00F0000020840900200801002008090020A6
:1087BC000805002080B582B000AF786039603B6856
:1087CC00B3F5FA7F31D03B68B3F5FA7F38DC3B6800
:1087DC00042B13DC3B68002B32DB3B68042B2FD8BB
:1087EC0001A252F823F000BF118800081788000876
:1087FC001B88000821880008278800083B68642B28
:10880C000ED01DE040F29D7321E034231FE0124B8B
:10881C005B681CE0104B9B6819E00F4BDB6816E0A3
:10882C000E48FEF71AF8034611E00D4B1A680C4B74
:10883C001B681B6808331B6810469847034606E004
:10884C007B683968184600F065FC034600BF184683
:10885C000837BD4680BD00BFF40000200405002091
:10886C000805002080B584B000AFF860B9607A606C
:10887C00BB68B3F5FA7F3FD0BB68B3F5FA7F46DC33
:10888C00BB68052B12DCBB68022B40DBBB68023BD0
:10889C00032B3CD801A252F823F000BFC18800087A
:1088AC00CF880008DD880008ED880008BB68642BC1
:1088BC001DD02CE01E4A7B6853601E48FDF7FDFF5F
:1088CC0032E01B4A7B6893601A48FDF7CDFD2BE024
:1088DC007968F86800F034F81648FDF7EEFF23E0ED
:1088EC00FB687A681A611348FDF7BEFD1CE07968D5
:1088FC001148FEF7B7FF17E0104B1A680F4B1B68B7
:10890C001B6804331B687968104698470CE0FB68B9
:10891C007A68B968184600F027FC0346002B03D090
:10892C000448FDF7CAFFFFE700BF1037BD4680BD06
:10893C00F4000020F000002068070020080500204B
:10894C0080B582B000AF786039603B68002B06D1EF
:10895C00304B314A1A60314A3B68D36056E03B6871
:10896C00012B08D12B4B2E4A1A602C4A3B68D36042
:10897C00FFF7CAF94AE03B68052B06D1254B294A7B
:10898C001A60264A3B68D36040E03B68062B0BD14B
:10899C00204B214A1A60214A3B68D36040F2DC51DB
:1089AC001D48FEF75FFF31E03B68072B0AD1194BDE
:1089BC001D4A1A60194A3B68D3604FF0FF30FFF72D
:1089CC0003FB23E03B68082B09D1124B164A1A60B3
:1089DC00124A3B68D3600120FFF7F6FA16E03B68B9
:1089EC00092B08D10B4B114A1A600C4A3B68D36017
:1089FC00FFF78AF90AE03B680A2B07D1054B0C4AB2
:108A0C001A60064A3B68D360FFF77EF900BF08374F
:108A1C00BD4680BD0805002068070020F40000203A
:108A2C000C0500203406002074070020D00500201F
:108A3C006C05002080B582B000AF786039607B682F
:108A4C003968184600F004FB7B681B6919463868C6
:108A5C00FCF70FF900BF0837BD4680BD80B582B06A
:108A6C0000AF786039607B683968184600F0FAFA14
:108A7C007B68103319463868FCF70CF900BF0837CF
:108A8C00BD4680BD80B483B000AF786039603B6870
:108A9C00002B02D17B681B6900E0002318460C37C1
:108AAC00BD4680BC704780B485B000AFF860B9603B
:108ABC007A60BB68002B02D1FB687A681A610123CB
:108ACC0018461437BD4680BC7047000080B483B094
