:020000040800F2
:103000000050002081950008919300089D930008CE
:10301000A3930008A9930008AF93000800000000E4
:10302000000000000000000000000000B593000850
:10303000C193000800000000CD930008D993000858
:10304000C9950008C9950008C9950008C9950008E8
:10305000C9950008C9950008C9950008C9950008D8
:10306000C9950008C9950008C9950008C9950008C8
:10307000C9950008C9950008C9950008C9950008B8
:10308000C9950008C9950008C9950008C9950008A8
:10309000C9950008C9950008C9950008C995000898
:1030A000C9950008C9950008C9950008C995000888
:1030B000095C0008FD650008C9950008C99500086D
:1030C000C9950008C9950008C9950008515C000819
:1030D000C9950008C5750008C9950008C99500087C
:1030E000C9950008C9950008C995000800000000AE
:1030F00000000000000000000000000000000000D0
:0C31000000000000000000005FF808F173
:10310C0010B5054C237833B9044B13B10448AFF315
:10311C0000800123237010BDA400002000000000DB
:10312C00F097000808B5034B1BB103490348AFF3F4
:10313C00008008BD00000000A8000020F0970008E7
:10314C0080B487B000AF786000237B6100233B61C3
:10315C000F23FB607B68DB78002B3AD0274BDB68B6
:10316C00DB431B0A03F007037B617B69C3F1040398
:10317C003B61FA687B6922FA03F3FB607B685B783E
:10318C001A463B6902FA03F37B617B689B781A460B
:10319C00FB6813407A6913437B617B691B017B617C
:1031AC00174A7B681B787969C9B213440A4683F8BD
:1031BC0000237B681B7803F01F0311497A6812788F
:1031CC005209D2B21046012202FA03F341F8203020
:1031DC000FE07B681B7803F01F0309497A681278AB
:1031EC005209D2B2104601229A4000F1200341F854
:1031FC00232000BF1C37BD4680BC704700ED00E0AB
:10320C0000E100E080B485B000AF78603960002345
:10321C00FB600023FB727B685B68FB60FB6823F43C
:10322C00702323F48073FB603B681A683B681B793E
:10323C001B021343FA681343FB607B68FA685A60FD
:10324C007B689B68FB60FA68164B1340FB603B681D
:10325C00DA683B689B681A433B685B795B001343F5
:10326C00FA681343FB607B68FA689A607B68DB6AD8
:10327C00FB60FB6823F47003FB603B681B7C013B29
:10328C00DAB2FB7A1343FB72FB7A1B05FA68134321
:10329C00FB607B68FA68DA6200BF1437BD4680BCFD
:1032AC00704700BFFDF7F1FF80B483B000AF7860CA
:1032BC000B46FB70FB78002B06D07B689B6843F0B9
:1032CC0001027B689A6005E07B689B6823F0010231
:1032DC007B689A6000BF0C37BD4680BC704780B4D9
:1032EC0083B000AF78600B46FB70FB78002B06D0E8
:1032FC007B689B6843F480727B689A6005E07B680E
:10330C009B6823F480727B689A6000BF0C37BD46C3
:10331C0080BC704780B483B000AF78607B689B68DA
:10332C0043F008027B689A6000BF0C37BD4680BC36
:10333C00704780B485B000AF78600023FB737B6866
:10334C009B6803F00803002B02D00123FB7301E000
:10335C000023FB73FB7B18461437BD4680BC7047BB
:10336C0080B483B000AF78607B689B6843F0040244
:10337C007B689A6000BF0C37BD4680BC704780B438
:10338C0085B000AF78600023FB737B689B6803F00B
:10339C000403002B02D00123FB7301E00023FB7319
:1033AC00FB7B18461437BD4680BC704780B485B093
:1033BC0000AF7860084611461A460346FB700B4670
:1033CC00BB7013467B700023FB600023BB60FB7853
:1033DC00092B23D97B68DB68FB60FB78A3F10A021D
:1033EC0013465B001344072202FA03F3BB60BB686D
:1033FC00DB43FA681340FB607978FB78A3F10A028F
:10340C0013465B00134401FA03F3BB60FA68BB6814
:10341C001343FB607B68FA68DA601EE07B681B690B
:10342C00FB60FA7813465B001344072202FA03F39D
:10343C00BB60BB68DB43FA681340FB607978FA78B1
:10344C0013465B00134401FA03F3BB60FA68BB68D4
:10345C001343FB607B68FA681A61BB78062B21D892
:10346C007B685B6BFB60BB785A1E13469B00134456
:10347C001F2202FA03F3BB60BB68DB43FA681340FC
:10348C00FB60F978BB785A1E13469B00134401FA73
:10349C0003F3BB60FA68BB681343FB607B68FA6894
:1034AC005A6347E0BB780C2B21D87B681B6BFB6005
:1034BC00BB78DA1F13469B0013441F2202FA03F356
:1034CC00BB60BB68DB43FA681340FB60F978BB78E0
:1034DC00DA1F13469B00134401FA03F3BB60FA682E
:1034EC00BB681343FB607B68FA681A6322E07B6855
:1034FC00DB6AFB60BB78A3F10D0213469B001344FF
:10350C001F2202FA03F3BB60BB68DB43FA6813406B
:10351C00FB60F978BB78A3F10D0213469B001344B2
:10352C0001FA03F3BB60FA68BB681343FB607B686A
:10353C00FA68DA6200BF1437BD4680BC704780B4AD
:10354C0083B000AF78600B46FB70FB78002B06D085
:10355C007B689B6843F480127B689A6005E07B680B
:10356C009B6823F480127B689A6000BF0C37BD46C1
:10357C0080BC704780B483B000AF78607B681A68F9
:10358C004FF6FE7313407A6813607B6800221A6052
:10359C007B6800225A607B6800229A607B6800225C
:1035AC00DA607B68434A934206D1434B5B68424ADC
:1035BC0043F00F03536077E07B68404A934206D197
:1035CC003D4B5B683C4A43F0F00353606CE07B6816
:1035DC003B4A934206D1384B5B68374A43F47063DD
:1035EC00536061E07B68374A934206D1324B5B688B
:1035FC00314A43F47043536056E07B68324A93423D
:10360C0006D12D4B5B682C4A43F4702353604BE07E
:10361C007B682E4A934206D1274B5B68264A43F4BB
:10362C007003536040E07B68294A934206D1224BD9
:10363C005B68214A43F07063536035E07B68254A30
:10364C00934206D1244B5B68234A43F00F0353602B
:10365C002AE07B68214A934206D11F4B5B681E4AC5
:10366C0043F0F00353601FE07B681D4A934206D180
:10367C00194B5B68184A43F47063536014E07B6821
:10368C00184A934206D1144B5B68134A43F47043B7
:10369C00536009E07B68144A934205D10E4B5B687A
:1036AC000D4A43F47023536000BF0C37BD4680BCF9
:1036BC00704700BF08000240000002401C0002409E
:1036CC003000024044000240580002406C000240AE
:1036DC008000024008040240000402401C04024026
:1036EC0030040240440402405804024080B485B0C7
:1036FC0000AF786039600023FB607B681B68FB605F
:10370C00FB6823F4FF4323F07003FB603B689A686B
:10371C003B681B6A1A433B681B691A433B685B692D
:10372C001A433B689B691A433B68DB691A433B6845
:10373C005B6A1A433B689B6A1343FA681343FB604A
:10374C007B68FA681A603B68DA687B685A603B6889
:10375C001A687B689A603B685A687B68DA6000BFBD
:10376C001437BD4680BC704780B483B000AF78601E
:10377C000B46FB70FB78002B06D07B681B6843F074
:10378C0001027B681A6006E07B681A684FF6FE73CC
:10379C0013407A68136000BF0C37BD4680BC70477D
:1037AC0080B483B000AF78600B467B807A887B68EE
:1037BC005A6000BF0C37BD4680BC704780B400AF68
:1037CC00044B054A5A60034B044A5A6000BFBD467D
:1037DC0080BC70470020024023016745AB89EFCDC8
:1037EC0080B400AF044B1B69034A43F080031361A0
:1037FC0000BFBD4680BC70470020024080B584B03D
:10380C0000AF78600423FB734FF4302000F0AAF86B
:10381C000346FB73FB7B042B1BD1104B1B690F4A1C
:10382C0043F0020313610D4A7B6853610B4B1B6918
:10383C000A4A43F0400313614FF4302000F092F831
:10384C000346FB73054B1A69044941F6FD7313409B
:10385C000B61FB7B18461037BD4680BD0020024033
:10386C0080B584B000AF786039600423FB7300230B
:10387C00BB604FF4005000F075F80346FB73FB7B04
:10388C00042B2FD11A4B1B69194A43F00103136106
:10389C007B683A6892B21A804FF4005000F062F8DC
:1038AC000346FB73FB7B042B15D17B680233BB6097
:1038BC003B681A0CBB6892B21A804FF4005000F0AF
:1038CC0051F80346FB730A4B1A69094941F6FE731A
:1038DC0013400B6106E0064B1A69054941F6FE736D
:1038EC0013400B61FB7B18461037BD4680BD00BFF3
:1038FC000020024080B483B000AF7860034A7B683C
:10390C00D36000BF0C37BD4680BC7047002002401E
:10391C0080B483B000AF0423FB71114BDB6803F060
:10392C000103012B02D10123FB7113E00C4BDB686B
:10393C0003F00403002B02D00223FB710AE0084BB6
:10394C00DB6803F01003002B02D00323FB7101E0B2
:10395C000423FB71FB7918460C37BD4680BC7047BD
:10396C000020024080B584B000AF78600423FB7364
:10397C00FFF7CEFF0346FB7306E0FFF7C9FF0346D4
:10398C00FB737B68013B7B60FB7B012B02D17B686B
:10399C00002BF2D17B68002B01D10523FB73FB7B41
:1039AC0018461037BD4680BD80B489B000AF786032
:1039BC0039600023FB6100233B610023BB610023C2
:1039CC00FB6000237B610023BB603B68DB7803F06A
:1039DC000F03FB613B68DB7803F01003002B05D071
:1039EC003B689B781A46FB691343FB613B681B8859
:1039FC00DBB2002B44D07B681B687B610023BB616E
:103A0C0038E00122BB6902FA03F3FB603B681B88B8
:103A1C001A46FB6813403B613A69FB689A4226D10F
:103A2C00BB699B00FB600F22FB6802FA03F3BB60CF
:103A3C00BB68DB437A6913407B61FA69FB6802FA65
:103A4C0003F37A6913437B613B68DB78282B05D140
:103A5C000122BB699A407B685A6108E03B68DB78BD
:103A6C00482B04D10122BB699A407B681A61BB695F
:103A7C000133BB61BB69072BC3D97B687A691A60B8
:103A8C003B681B88FF2B46D97B685B687B610023F6
:103A9C00BB613AE0BB690833012202FA03F3FB6015
:103AAC003B681B881A46FB6813403B613A69FB680C
:103ABC009A4227D1BB699B00FB600F22FB6802FA7C
:103ACC0003F3BB60BB68DB437A6913407B61FA6923
:103ADC00FB6802FA03F37A6913437B613B68DB787A
:103AEC00282B05D1BB69083301229A407B685A61A7
:103AFC003B68DB78482B05D1BB69083301229A401F
:103B0C007B681A61BB690133BB61BB69072BC1D9E7
:103B1C007B687A695A6000BF2437BD4680BC704709
:103B2C0080B483B000AF78600B467B8013467B700B
:103B3C007B78002B03D07A887B681A6102E07A8844
:103B4C007B685A6100BF0C37BD4680BC70470000D3
:103B5C0080B487B000AF78600B46FB7000233B61EC
:103B6C000023FB6000237B610023BB607B68002B80
:103B7C0003DA2E4BDB697B6102E02C4B5B687B61CB
:103B8C007B681B0C03F00F03BB607B689BB23B6133
:103B9C007B6803F44013B3F5401F0AD17B6923F013
:103BAC0070637B61214B5B68204A23F07063536028
:103BBC0021E07B6803F48013002B0ED00322BB683A
:103BCC0002FA03F3FB60FB68DB437A6913407B6109
:103BDC007B6943F070637B610DE07B685B0D1B01BF
:103BEC003A6902FA03F3DB437A6913407B617B6920
:103BFC0043F070637B61FB78002B08D07B685B0D16
:103C0C001B013A6902FA03F37A6913437B617B68FF
:103C1C00002B03DA054A7B69D36102E0034A7B6916
:103C2C00536000BF1C37BD4680BC7047000001408C
:103C3C0080B485B000AF78600023FB60094B5B68F3
:103C4C00FB60FB6823F44043FB60FA687B6813431A
:103C5C00FB60044AFB68536000BF1437BD4680BC50
:103C6C00704700BF0010024080B487B000AF78608E
:103C7C0000237B6100233B610023FB600023BB60BE
:103C8C004F4B5B6803F00C037B617B69082B11D0F5
:103C9C007B69082B3AD87B69002B03D07B69042BFA
:103CAC0004D033E07B68474A1A6033E07B68464AAD
:103CBC001A602FE0424B5B6803F470133B61404B7E
:103CCC005B6803F48033FB603B699B0C02333B6104
:103CDC00FB68002B06D13B693C4A02FB03F27B6874
:103CEC001A6017E0364B5B6803F40033002B06D0E8
:103CFC003B69344A02FB03F27B681A600AE03B69B9
:103D0C00314A02FB03F27B681A6003E07B682D4AA0
:103D1C001A6000BF2A4B5B6803F0F0037B617B6980
:103D2C001B097B612A4A7B6913441B78DBB2BB609D
:103D3C007B681A68BB68DA407B685A60204B5B680A
:103D4C0003F4E0637B617B691B0A7B61204A7B691E
:103D5C0013441B78DBB2BB607B685A68BB68DA40E3
:103D6C007B689A60164B5B6803F460537B617B69DC
:103D7C00DB0A7B61164A7B6913441B78DBB2BB60A0
:103D8C007B685A68BB68DA407B68DA600C4B5B680E
:103D9C0003F440437B617B699B0B7B610D4A7B6920
:103DAC0013441B78DBB2BB607B68DA68BB68B2FB80
:103DBC00F3F27B681A6100BF1C37BD4680BC7047AC
:103DCC000010024000127A000024F40000093D00AB
:103DDC00000000201000002080B483B000AF786099
:103DEC000B46FB70FB78002B06D0094B5A6908492F
:103DFC007B6813434B6106E0054B5A697B68DB43D8
:103E0C00034913404B6100BF0C37BD4680BC704763
:103E1C000010024080B483B000AF78600B46FB709A
:103E2C00FB78002B06D0094B9A6908497B68134331
:103E3C008B6106E0054B9A697B68DB4303491340B1
:103E4C008B6100BF0C37BD4680BC70470010024030
:103E5C0080B483B000AF78600B46FB70FB78002B0E
:103E6C0006D0094BDA6908497B681343CB6106E03D
:103E7C00054BDA697B68DB4303491340CB6100BF18
:103E8C000C37BD4680BC70470010024080B485B032
:103E9C0000AF786039600023FB817B681B88FB8155
:103EAC00FB8903F44153FB813B681A883B685B88B0
:103EBC0013439AB23B689B8813439AB23B68DB88E6
:103ECC0013439AB23B681B8913439AB23B685B89D4
:103EDC0013439AB23B689B8913439AB23B68DB89C4
:103EEC0013439AB2FB891343FB817B68FA891A80CE
:103EFC007B689B8B9BB223F400639AB27B689A839A
:103F0C003B681A8A7B681A8200BF1437BD4680BC96
:103F1C00704780B483B000AF78600B46FB70FB78C1
:103F2C00002B08D07B681B889BB243F040039AB2ED
:103F3C007B681A8007E07B681B889BB223F04003E8
:103F4C009AB27B681A8000BF0C37BD4680BC7047A4
:103F5C0080B483B000AF78600B467B8013467B70D7
:103F6C007B78002B08D07B689B889AB27B881343A4
:103F7C009AB27B689A8009E07B689B889AB27B88AE
:103F8C00DB439BB213409AB27B689A8000BF0C371C
:103F9C00BD4680BC704780B483B000AF78600B46E0
:103FAC007B807B687A889A8100BF0C37BD4680BCC9
:103FBC00704780B483B000AF78607B689B899BB2FC
:103FCC0018460C37BD4680BC704780B485B000AF36
:103FDC0078600B467B800023FB737B681B899AB24D
:103FEC007B8813409BB2002B02D00123FB7301E0B2
:103FFC000023FB73FB7B18461437BD4680BC70470F
:10400C0080B483B000AF78600B467B807B88DB4349
:10401C009AB27B681A8100BF0C37BD4680BC7047D2
:10402C0080B485B000AF786039600023FB817B6879
:10403C001B88FB817B682E4A934213D07B682D4AE8
:10404C0093420FD07B68B3F1804F0BD07B682A4A28
:10405C00934207D07B68294A934203D07B68284A55
:10406C00934208D1FB8923F07003FB813B685A888B
:10407C00FB891343FB817B68224A93420CD07B68FB
:10408C00214A934208D0FB8923F44073FB813B689F
:10409C00DA88FB891343FB817B68FA891A803B68B9
:1040AC009A887B689A853B681A887B681A857B6836
:1040BC000F4A93420FD07B680E4A93420BD07B6819
:1040CC00124A934207D07B68114A934203D07B6813
:1040DC00104A934204D13B681B7A9AB27B681A86C9
:1040EC007B6801229A8200BF1437BD4680BC7047A2
:1040FC00002C014000340140000400400008004046
:10410C00000C004000100040001400400040014032
:10411C00004401400048014080B485B000AF786095
:10412C00396000237B810023FB810023BB817B68EA
:10413C001B8C9BB223F001039AB27B681A847B68B8
:10414C001B8CFB817B689B88BB817B681B8B7B8179
:10415C007B8923F070037B817B8923F003037B81B4
:10416C003B681A887B8913437B81FB8923F002030C
:10417C00FB813B681A89FB891343FB813B685A8896
:10418C00FB891343FB817B68244A93420FD07B68E5
:10419C00234A93420BD07B68224A934207D07B6818
:1041AC00214A934203D07B68204A934223D1FB8956
:1041BC0023F00803FB813B685A89FB891343FB817D
:1041CC00FB8923F00403FB813B689A88FB8913432A
:1041DC00FB81BB8923F48073BB81BB8923F40073FF
:1041EC00BB813B689A89BB891343BB813B68DA89E5
:1041FC00BB891343BB817B68BA899A807B687A89B7
:10420C001A833B68DA887B689A867B68FA891A84F9
:10421C0000BF1437BD4680BC704700BF002C014066
:10422C00003401400040014000440140004801407E
:10423C0080B485B000AF7860396000237B810023A7
:10424C00FB810023BB817B681B8C9BB223F010038A
:10425C009AB27B681A847B681B8CFB817B689B8879
:10426C00BB817B681B8B7B817B8923F4E0437B8147
:10427C007B8923F440737B813B681B881B029AB2B9
:10428C007B8913437B81FB8923F02003FB813B68F3
:10429C001B891B019AB2FB891343FB813B685B882A
:1042AC001B019AB2FB891343FB817B68224A934220
:1042BC0003D07B68214A93422BD1FB8923F08003E6
:1042CC00FB813B685B891B019AB2FB891343FB8121
:1042DC00FB8923F04003FB813B689B881B019AB24E
:1042EC00FB891343FB81BB8923F48063BB81BB89AE
:1042FC0023F40063BB813B689B899B009AB2BB890A
:10430C001343BB813B68DB899B009AB2BB89134387
:10431C00BB817B68BA899A807B687A891A833B68EF
:10432C00DA887B681A877B68FA891A8400BF14378D
:10433C00BD4680BC704700BF002C014000340140DA
:10434C0080B485B000AF7860396000237B81002396
:10435C00FB810023BB817B681B8C9BB223F4807395
:10436C009AB27B681A847B681B8CFB817B689B8868
:10437C00BB817B689B8B7B817B8923F070037B816A
:10438C007B8923F003037B813B681A887B89134369
:10439C007B81FB8923F40073FB813B681B891B0227
:1043AC009AB2FB891343FB813B685B881B029AB270
:1043BC00FB891343FB817B68224A934203D07B68C1
:1043CC00214A93422BD1FB8923F40063FB813B6888
:1043DC005B891B029AB2FB891343FB81FB8923F493
:1043EC008063FB813B689B881B029AB2FB89134359
:1043FC00FB81BB8923F48053BB81BB8923F400531D
:10440C00BB813B689B891B019AB2BB891343BB815F
:10441C003B68DB891B019AB2BB891343BB817B6868
:10442C00BA899A807B687A899A833B68DA887B6838
:10443C009A877B68FA891A8400BF1437BD4680BC02
:10444C00704700BF002C01400034014080B483B0A1
:10445C0000AF78600B46FB70FB78002B08D07B68B4
:10446C001B889BB243F001039AB27B681A8007E069
:10447C007B681B889BB223F001039AB27B681A807D
:10448C0000BF0C37BD4680BC704780B483B000AF12
:10449C0078600B46FB70FB78002B0CD07B68B3F874
:1044AC0044309BB26FEA43436FEA53439AB27B6842
:1044BC00A3F8442009E07B68B3F844309BB2C3F303
:1044CC000E039AB27B68A3F8442000BF0C37BD469C
:1044DC0080BC704780B483B000AF78600B467B80A3
:1044EC0013467B707B78002B08D07B689B899AB233
:1044FC007B8813439AB27B689A8109E07B689B891D
:10450C009AB27B88DB439BB213409AB27B689A8148
:10451C0000BF0C37BD4680BC704780B483B000AF81
:10452C0078600B467B807B687A889A8600BF0C3754
:10453C00BD4680BC704780B483B000AF78600B463A
:10454C007B807B687A881A8700BF0C37BD4680BC9D
:10455C00704780B483B000AF78600B467B807B687B
:10456C007A889A8700BF0C37BD4680BC704780B4F0
:10457C0083B000AF78600B467B807B88DB439AB2BC
:10458C007B681A8200BF0C37BD4680BC70470000A8
:10459C0080B58CB000AF786039600023FB620023DB
:1045AC00BB6200237B6200233B620023FB617B68C0
:1045BC00FB617B681B8A9BB2FB62FA6A4CF6FF7349
:1045CC001340FB623B68DB881A46FB6A1343FB62B1
:1045DC00FB6A9AB27B681A827B689B899BB2FB62EE
:1045EC00FA6A4EF6F3131340FB623B689A883B68F9
:1045FC001B8913439AB23B685B8913439BB21A46DF
:10460C00FB6A1343FB62FB6A9AB27B689A817B68F4
:10461C009B8A9BB2FB62FA6A4FF6FF431340FB6224
:10462C003B689B891A46FB6A1343FB62FB6A9AB28E
:10463C007B689A8207F108031846FFF715FBFB69A4
:10464C002E4A934202D17B69BB6201E03B69BB629B
:10465C007B689B899BB21BB2002B0CDABA6A13469F
:10466C009B0013449A001A443B681B685B00B2FB26
:10467C00F3F37B620BE0BA6A13469B0013449A0077
:10468C001A443B681B689B00B2FBF3F37B627B6AAA
:10469C001B4AA2FB03235B091B01FB62FB6A1B0980
:1046AC00642202FB03F37A6AD31A3B627B689B8910
:1046BC009BB21BB2002B0CDA3B6ADB003233104A84
:1046CC00A2FB03235B0903F00703FA6A1343FB62A3
:1046DC000BE03B6A1B013233094AA2FB03235B0943
:1046EC0003F00F03FA6A1343FB62FB6A9AB27B680E
:1046FC001A8100BF3037BD4680BD00BF0038014075
:10470C001F85EB5180B483B000AF78600B46FB7013
:10471C00FB78002B08D07B689B899BB243F4005339
:10472C009AB27B689A8107E07B689B899BB223F4E1
:10473C0000539AB27B689A8100BF0C37BD4680BC8F
:10474C00704780B483B000AF78600B467B80134613
:10475C007B707B78002B08D07B689B8A9AB27B8815
:10476C0013439AB27B689A8209E07B689B8A9AB25F
:10477C007B88DB439BB213409AB27B689A8200BF62
:10478C000C37BD4680BC704780B483B000AF7860F6
:10479C0039607B685B683A6813443B607B681A68D5
:1047AC007B689B683968994204DB7B689B68396835
:1047BC00CB1A00E03B6813441B7818460C37BD46F7
:1047CC0080BC704780B485B000AF786039607B687E
:1047DC001B6C591C7A6811647A68D15C7A68526CCB
:1047EC00386800FA02F2D2B20A43D2B262F07F0207
:1047FC00D1B27A68D1547B685B6CC3F10703FB6060
:10480C00FB68C3F108027B685A643B68DAB2FB6848
:10481C0042FA03F35BB263F07F035AB27B681B6C02
:10482C00D1B27A68D1547B685B6C072B0CD17B6856
:10483C001B6C5A1C7B681A647B681B6C7A680021A1
:10484C00D1547B6800225A6400BF1437BD4680BC2B
:10485C00704780B582B000AF78603960396878688D
:10486C00FFF7B0FF3B681B1219467868FFF7AAFFE9
:10487C0000BF0837BD4680BD80B582B000AF786000
:10488C00396039687868FFF79DFF3B681B12194641
:10489C007868FFF797FF3B681B1419467868FFF799
:1048AC0091FF3B681B1619467868FFF78BFF00BF1A
:1048BC000837BD4680BD80B483B000AF78607B689C
:1048CC0000225A647B6800221A647B6800221A70EA
:1048DC0000BF0C37BD4680BC704780B582B000AFBE
:1048EC0078607B685B6C002B04D07B681B6C5A1C5B
:1048FC007B681A6478687B68196C0023002200F0CE
:10490C0057F803465BB263F07F035AB27B681B6CAB
:10491C00D1B27A68D1547B681B6C5A1C7B681A64C0
:10492C007B681B6C7A680021D15400BF0837BD46E8
:10493C0080BD80B584B000AFF860B9607A60F8686B
:10494C00FFF7B9FFB968F868FFF783FF7968F86873
:10495C00FFF77FFFF868FFF7C0FF00BF1037BD46B9
:10496C0080BD80B582B000AF786039607868FFF7A1
:10497C00A2FF39687868FFF77FFF7868FFF7ADFF13
:10498C0000BF0837BD4680BD80B582B000AF7860EF
:10499C0039607868FFF78FFF39687868FFF76CFF2C
:1049AC007868FFF79AFF00BF0837BD4680BD00004E
:1049BC0080B487B000AFF860B9607A603B60FF23C9
:1049CC00FB75BB685A1EBA60002B14BF0123002371
:1049DC00DBB2002B0BD0FB685A1CFA601A78FB7DFB
:1049EC005340DBB21A46104B9B5CFB75E9E73B6806
:1049FC005A1E3A60002B14BF01230023DBB2002B9C
:104A0C000BD07B685A1C7A601A78FB7D5340DBB262
:104A1C001A46054B9B5CFB75E9E7FB7D18461C377A
:104A2C00BD4680BC704700BF0898000880B485B0B4
:104A3C0000AFF860B96011461A460B46FB8013466E
:104A4C00BB80FB68BA681A60B7F90620FB685A602D
:104A5C00B7F90420FB689A60FB68BA69DA60FB68F6
:104A6C0000221A61FB6818461437BD4680BC70479B
:104A7C0080B485B000AFF860B9607A60FB68BA6842
:104A8C005A60FB687A68DA60FB6800221A6100BF22
:104A9C001437BD4680BC704780B584B000AF7860D9
:104AAC007B68DB68591C7A68D16019467868FFF717
:104ABC006BFE034603F07F027B681B6942FA03F32B
:104ACC00FB607B681B69C3F10703BB607B68DB6819
:104ADC0019467868FFF758FE034603F07F02BB685F
:104AEC0002FA03F3DBB2FA681343FB60BB68C3F151
:104AFC0008027B681A617B681B69072B07D17B68EE
:104B0C00DB685A1C7B68DA607B6800221A61FB68E0
:104B1C0018461037BD4680BD80B584B000AF7860B4
:104B2C007868FFF7B9FFF8607868FFF7B5FF0346C0
:104B3C001B02FA681343FB60FB6818461037BD462E
:104B4C0080BD80B584B000AF78607868FFF7E4FF73
:104B5C000346FB81B7F90E3018461037BD4680BDB1
:104B6C0080B584B000AF78607868FFF795FFF86087
:104B7C007868FFF791FF03461B02FA681343FB604A
:104B8C007868FFF789FF03461B04FA681343FB6040
:104B9C007868FFF781FF03461B06FA681343FB6036
:104BAC00FB6818461037BD4680BD90B587B000AF86
:104BBC00786039603B68013B3B607B689A687B6836
:104BCC005B68D31A7B617A693B689A421BDB7B6812
:104BDC001B687A6852689818002300223968FFF71E
:104BEC00E7FE034643F08003FB6039687868FFF703
:104BFC00CBFD0346BB60FA68BB689A420CBF01232D
:104C0C000023DBB21BE03A687B69D31A3B617B68FB
:104C1C001B687A68526898187B681A683B697969CE
:104C2C00FFF7C6FE034643F0800439687868FFF747
:104C3C00ABFD03469C420CBF01230023DBB218469C
:104C4C001C37BD4690BD000080B584B000AFF86045
:104C5C00B9607A60FB680433184600F09DF9074A86
:104C6C00FB681A60FB68BA689A60FB687A68DA605D
:104C7C00FB6818461037BD4680BD00BF589D000824
:104C8C0080B483B000AF786000BF0C37BD4680BCE9
:104C9C00704780B483B000AF78607B681B8A18467D
:104CAC000C37BD4680BC704780B483B000AF7860D1
:104CBC007B685B8A18460C37BD4680BC704780B455
:104CCC0083B000AF7860062318460C37BD4680BC15
:104CDC007047000080B582B000AF78607B6800221E
:104CEC00C8211846FFF7B0FF094A7B681A607B6839
:104CFC004FF47A725A617B68064A9A617B6840F27B
:104D0C005232DA617B6818460837BD4680BD00BF59
:104D1C0010990008404B4C0080B594B000AF7860FF
:104D2C0001214FF40070FFF775F8032387F84E301C
:104D3C00002387F84F300223A7F84C3007F14C03BF
:104D4C0019464148FEF730FE0223A7F84C3007F114
:104D5C004C0319463D48FEF727FE3D48FEF70AFC7A
:104D6C003C4BFB607B6810333B6100237B6102236F
:104D7C00BB610023FB6180233B624FF480737B6239
:104D8C004FF48063BB622023FB624FF400533B6300
:104D9C0000237B6307F10C0319462D48FEF7A6FC94
:104DAC0001212B48FEF7E0FC0023BB63012387F8AD
:104DBC003C30002387F83D304FF480233B640023C4
:104DCC007B64022387F8483007F1380319462248E0
:104DDC00FEF718FA0423012209211F48FEF7E6FA10
:104DEC000123022201211C48FEF7E0FA01211A4896
:104DFC00FEF775FA01211848FEF756FA1648FEF729
:104E0C0089FA1548FEF795FA0346002B14BF0123C7
:104E1C000023DBB2002B00D0F3E70F48FEF7A0FA1B
:104E2C000D48FEF7ACFA0346002B14BF01230023F8
:104E3C00DBB2002B00D0F3E701210748FEF77FFB24
:104E4C0000BF5037BD4680BD00080140000C01403A
:104E5C00080002404C2401400024014090B583B06E
:104E6C0000AF78607B6893F8243083F00103DBB2E9
:104E7C00002B09D07868FFF717FF02467B685B6947
:104E8C009A4201DA012300E00023002B03D07B6857
:104E9C00012283F824207B681C6A7868FFF7F9FEEE
:104EAC000346E2187B68DB69D31A4FF0E0421946DF
:104EBC00002000F07EF802467B681A627B681A6A52
:104ECC007B689B699A4203DD7B68012283F825206D
:104EDC0000BF0C37BD4690BD80B582B000AF786086
:104EEC0039603B68052B25D801A252F823F000BF8E
:104EFC00154F00081F4F0008294F00082F4F0008BE
:104F0C00354F00083B4F00087868FFF7C2FE034698
:104F1C0011E07868FFF7C8FE03460CE07B689B69DC
:104F2C0009E07B68DB6906E07B681B6A03E07B6851
:104F3C005B6900E0002318460837BD4680BD00BF02
:104F4C0080B485B000AFF860B9607A60BB68023B92
:104F5C00032B1BD801A252F823F000BF794F000895
:104F6C00814F0008894F0008914F0008FB687A6850
:104F7C009A610BE0FB687A68DA6107E0FB687A6893
:104F8C001A6203E0FB687A685A6100BF0023184676
:104F9C001437BD4680BC704780B483B000AF7860D6
:104FAC007B6800221A607B6818460C37BD4680BCB3
:104FBC00704780B485B000AFF860B9607A60BA68A9
:104FCC00FB689A4207DBBA687B689A4201DD7B6812
:104FDC0002E0BB6800E0FB6818461437BD4680BC95
:104FEC007047000080B582B000AF786039607B6894
:104FFC00012B07D13B684FF6FF72934202D1034855
:10500C00FFF768FE00BF0837BD4680BDC00000201A
:10501C0080B500AF4FF6FF710120FFF7E3FF80BDB5
:10502C0080B483B000AF7860044A7B681A607B68F8
:10503C0018460C37BD4680BC704700BF6C99000801
:10504C0080B483B000AF7860044A7B681A607B68D8
:10505C0018460C37BD4680BC704700BF6C990008E1
:10506C0080B582B000AF78607868FFF7E9FF042163
:10507C00786804F0A4FA7B6818460837BD4680BDF2
:10508C0080B582B000AF786039607B681B680833EC
:10509C001B68394604227868984700BF0837BD461C
:1050AC0080BD000080B483B000AF7860044A7B6898
:1050BC001A607B6818460C37BD4680BC704700BF31
:1050CC005899000880B483B000AF7860044A7B68BC
:1050DC001A607B6818460C37BD4680BC704700BF11
:1050EC005899000880B582B000AF78607868FFF7F7
:1050FC00E9FF0421786804F062FA7B6818460837E7
:10510C00BD4680BD80B582B000AF786039607B68E9
:10511C001B6808331B68042239687868984700BFFD
:10512C000837BD4680BD80B582B000AF786039606D
:10513C007B681B6819463868FFF7A2FF7B685B68C1
:10514C0019463868FFF79CFF7B689B6819463868DE
:10515C00FFF796FF7B68DB6819463868FFF790FF0E
:10516C0000BF0837BD4680BD80B582B000AF786007
:10517C0039607B6819463868FFF7C4FF7B680433D5
:10518C0019463868FFF7BEFF7B6808331946386844
:10519C00FFF7B8FF7B680C3319463868FFF7B2FF8E
:1051AC0000BF0837BD4680BD80B483B000AF7860C7
:1051BC0039607B683A681A607B680022DA607B6829
:1051CC00DA687B689A607B689A687B685A6000BF73
:1051DC000C37BD4680BC704780B400AFBFF34F8F17
:1051EC0000BF074BDB6803F4E0620549054B134332
:1051FC00CB60BFF34F8F00BF00BF00BFFCE700BF09
:10520C0000ED00E00400FA0580B582B000AF7860D4
:10521C0039607B681846FFF703FF074A7B681A6002
:10522C007B6800225A607B683A689A607B681846F3
:10523C000837BD4680BD00BF4499000880B584B0D6
:10524C0000AFF860B9607A607B68012B0DD1FB6808
:10525C009A68FB685B689B0013441A46BB681B7812
:10526C0019461046FEF7FCFA20E07B68022B0DD1A4
:10527C00FB689A68FB685B689B0013441A46BB6822
:10528C001B8819461046FEF7EBFA0FE07B68042BDF
:10529C0012D1FB689A68FB685B689B0013441A4642
:1052AC00BB681B6819461046FEF7DAFAFB685B68A8
:1052BC005A1CFB685A6000E000BF1037BD4680BD29
:1052CC0080B582B000AF786039607B681846FFF714
:1052DC00E9FE074A7B681A607B6800225A607B688B
:1052EC003A689A607B6818460837BD4680BD00BF97
:1052FC003099000880B485B000AFF860B9607A606E
:10530C007B68012B09D1FB689A68FB685B689B0082
:10531C0013441A78BB681A7018E07B68022B09D109
:10532C00FB689A68FB685B689B0013441A88BB682F
:10533C001A800BE07B68042B0ED1FB689A68FB6823
:10534C005B689B0013441A68BB681A60FB685B6857
:10535C005A1CFB685A6000E000BF1437BD4680BC85
:10536C007047000080B586B000AF78607B681B7812
:10537C00002B06D07B6800221A70786800F07AF84F
:10538C00F4E77B689B78002B1DD07B6800229A7019
:10539C00FEF714FA3420FEF7ADFA1348FEF72EFA96
:1053AC0007F10C0310491846FFF72EFF07F10C0309
:1053BC0019460E4800F06AFCFEF712FA07F10C03CE
:1053CC00184600F0BFF87B685B78002B08D07B6830
:1053DC001B7883F00103DBB2002B01D0FFF7FCFE3E
:1053EC0000BF1837BD4680BD00200008000100201A
:1053FC0080B588B000AF786007F1140318491846DF
:10540C00FFF75EFF07F1140319461648FFF7ACFED1
:10541C00144B1B68132B06D107F1140319461248C1
:10542C0003F03CF802E0786800F056F807F1080346
:10543C000E491846FFF744FF07F1080319460C48BC
:10544C0000F047FC07F10803184600F059F807F183
:10545C001403184600F054F800BF2037BD4680BD39
:10546C0000280008EC000020100800200020000894
:10547C000001002080B586B000AF7860FEF79EF981
:10548C003420FEF737FA1148FEF7B8F907F10C0390
:10549C000E491846FFF7B8FE0D4B13221A6007F1A0
:1054AC000C0319460A48FFF73EFE07F10C03194698
:1054BC00084802F0D8FFFEF793F907F10C031846E1
:1054CC0000F040F800BF1837BD4680BD002800082A
:1054DC00EC0000201008002080B582B000AF78608E
:1054EC0013210548FFF760FE044803F048F800BF9D
:1054FC000837BD4680BD00BFEC000020100800201E
:10550C0080B582B000AF7860054A7B681A607B6812
:10551C001846FFF7D7FD7B6818460837BD4680BD97
:10552C003099000880B582B000AF78607868FFF7DA
:10553C00E7FF0C21786804F042F87B6818460837BE
:10554C00BD4680BD80B582B000AF7860054A7B68EF
:10555C001A607B681846FFF773FD7B68184608379E
:10556C00BD4680BD4499000880B582B000AF78601C
:10557C007868FFF7E7FF0C21786804F020F87B6867
:10558C0018460837BD4680BD80B483B000AF786044
:10559C007B6893F82430002B04D17B6893F825307A
:1055AC00002B01D0012300E0002318460C37BD4628
:1055BC0080BC704780B582B000AF0346FB71FB79AD
:1055CC00002B01D0002300E001231A4608210348D8
:1055DC00FEF7A6FA00BF0837BD4680BD00080140A3
:1055EC0080B582B000AF786039601948FFF7CCFF06
:1055FC00034683F00103DBB2002B0ED00120FFF732
:10560C00D9FF4FF4967002F093FE0020FFF7D2FF03
:10561C004FF4967002F08CFEE7E70120FFF7CAFF0B
:10562C00C82002F085FE0020FFF7C4FFC82002F05E
:10563C007FFE0120FFF7BEFFC82002F079FE00209C
:10564C00FFF7B8FF4FF42F7002F072FECDE700BFEA
:10565C00C000002080B582B000AF7860796800206F
:10566C00FFF7BEFF0837BD4680BD000080B483B095
:10567C0000AF7860024B18460C37BD4680BC7047B3
:10568C006156000880B584B000AF78601023FB72BF
:10569C000323BB7208233B8107F108031946094811
:1056AC00FEF782F907F10C031846FFF7DFFF0246FD
:1056BC0000230021642002F03DFD00BF1037BD46E1
:1056CC0080BD00BF0008014080B483B000AF03462A
:1056DC00FB71FB79002B01D0012300E0002318465D
:1056EC000C37BD4680BC704780B483B000AF786087
:1056FC007B68002B14BF01230023DBB218460C3748
:10570C00BD4680BC7047000080B586B000AF7860A5
:10571C003960786800F0C8F87861786800F024FD8A
:10572C000346002B00F0B8807B68D3F82C333B6128
:10573C007B6893F83D335A037B6893F83E335B01E7
:10574C001A437B6893F83F33DB101A43544B534096
:10575C007A68C2F82C337B68D3F82C33DB113B60AE
:10576C003B689B11FB603B6803F03F033B607B682D
:10577C00FA68103233F8123019467A68FB68134411
:10578C0003F50B731B781A463B6803FB02F39B1162
:10579C000B44C3F30D027B68C3F830237B68D3F84A
:1057AC0030237B68D3F82432D31A1A467B6893F8DB
:1057BC002032002B01D0002301E04FF0FF33534087
:1057CC0003F57A73C3F30D027B68C3F834237B684B
:1057DC0093F83C33002B1BD07B68D3F8343343F263
:1057EC00AF62934208DC7B68D3F8343303F5804214
:1057FC007B68C3F8342316E07B68D3F8343343F664
:10580C00CF1293420FDC7B68002283F83C230AE022
:10581C007B68D3F8343343F6F042934203DD7B6864
:10582C00012283F83C237B6803F573737A6912B207
:10583C001146184600F0C4FC7B68D3F82C233B6956
:10584C00D21A7B68C3F838237B68D3F83833B3F5A6
:10585C00801F08DB7B68D3F83823124B13447A681B
:10586C00C2F838330DE07B68D3F8383313F5801F5A
:10587C0007DC7B68D3F83823094B13447A68C2F8E9
:10588C0038337B6803F551727B68D3F838331BB21D
:10589C001946104600F0C3FC00BF1837BD4680BD4A
:1058AC00FFFF1F000100E0FF80B483B000AF786001
:1058BC007B68D3F83433A3F57A727B68D3F828323B
:1058CC00D31A18460C37BD4680BC704780B582B0E1
:1058DC0000AF78607B6803F55173184600F0D2FC7A
:1058EC00034618460837BD4680BD80B483B000AF70
:1058FC0078600D2318460C37BD4680BC704780B4C9
:10590C0083B000AF78607B6801229A7000BF0C37BF
:10591C00BD4680BC7047000080B582B000AF786097
:10592C007B6800220A211846FFF78EF9144A7B681F
:10593C001A607B6800225A617B68124A9A617B6804
:10594C0041F65832DA617B68012283F820227B68A9
:10595C000022C3F824227B68002283F83C237B6856
:10596C0003F55173184600F099FC7B6803F57373CB
:10597C00184600F0AAFC7B6818460837BD4680BD67
:10598C00809A0008A8E4FFFF80B582B000AF786071
:10599C001048FEF70EFB03461A460F4B1A60012106
:1059AC000C48FEF72DFB7B689BB219460948FEF7A5
:1059BC00F2FA01210748FEF708FB0346002B0CBF47
:1059CC0001230023DBB2002B00D0F2E700BF083725
:1059DC00BD4680BD00300140F404002080B598B075
:1059EC0000AF7860102387F85F30032387F85E30B0
:1059FC001023A7F85C3007F15C0319467848FDF7D3
:105A0C00D3FF012210217648FEF78AF8182387F875
:105A1C005F302023A7F85C3007F15C03194670480F
:105A2C00FDF7C2FF042387F85F304023A7F85C30F2
:105A3C0007F15C0319466A48FDF7B6FF182387F88F
:105A4C005F308023A7F85C3007F15C03194664488B
:105A5C00FDF7AAFF232387F85830042387F8593021
:105A6C00002387F85A30012387F85B3007F158037D
:105A7C001846FDF765FB01214FF48050FEF7CAF97B
:105A8C005848FDF777FD584BFB627B6803F23D33BA
:105A9C003B6300237B630423BB630023FB638023F2
:105AAC003B6400237B640023BB642023FB644FF422
:105ABC0000533B6500237B6507F12C0319464948CD
:105ACC00FDF714FE4948FDF755FD474BFB62484B6B
:105ADC003B6310237B630423BB630023FB638023A2
:105AEC003B6400237B640023BB640023FB644FF402
:105AFC0000533B6500237B6507F12C0319463B489B
:105B0C00FDF7F4FD00233B834FF482737B8300236A
:105B1C00BB830223FB8301233B844FF400737B8400
:105B2C001823BB840023FB8407F118031946314862
:105B3C00FEF7ACF901212F48FEF7EBF91C2387F88F
:105B4C005830042387F85930002387F85A30012342
:105B5C0087F85B3007F158031846FDF7F1FA01217D
:105B6C000120FEF775F90023BB810023FB8148F669
:105B7C00B7033B8200237B8200233B7507F10C03A8
:105B8C0019464FF08040FEF74BFA012201214FF0ED
:105B9C008040FEF79FFC002210211148FDF7C0FF4A
:105BAC00A020FFF7F1FE0320FFF7EEFE1148FEF7F1
:105BBC0000FA03461A46104B1A6001210D48FEF7F5
:105BCC001FFA012203210B48FEF7C2F901214FF005
:105BDC008040FEF73BFC00BF6037BD4680BD00BF78
:105BEC00000801401C0002400C3001403000024013
:105BFC001400002000300140F404002080B500AFF8
:105C0C0001214FF08040FEF7B2FC00210A48FFF75B
:105C1C007BFD00210948FDF7A7FD04210748FDF78E
:105C2C00BFFD01210648FDF79FFD01210348FDF74B
:105C3C009BFD00BF80BD00BF000100203000024072
:105C4C001C00024080B500AF012210210348FDF773
:105C5C0067FF0348FEF7ADF900BF80BD00080140A7
:105C6C000030014080B582B000AF786039607B684D
:105C7C00D3F8283258427B68DB691A463968FFF73B
:105C8C0098F9034618460837BD4680BD80B584B0E8
:105C9C0000AF7860396001213868FFF7F1F9002313
:105CAC00FB60FB68FF2B10DC3B681B6808331B6830
:105CBC007A6802F12001FA68520011440422386813
:105CCC009847FB680233FB60EBE700BF1037BD461B
:105CDC0080BD80B586B000AF7860396007F10C03E9
:105CEC0019463868FFF70EFAFB68012B15D1002313
:105CFC007B617B69FF2B29DC3B681B6808331B68C5
:105D0C007A6802F120017A69520011440422386841
:105D1C0098477B6902337B61EBE700233B613B696E
:105D2C00FF2B13DC3B699BB29B0199B27B683A69F0
:105D3C00103223F812107A683B69134403F50B7385
:105D4C0040221A703B6901333B61E8E7786800F048
:105D5C00E0F900BF1837BD4680BD80B584B000AFF8
:105D6C0078607868FFF7A0FDF8607B6893F82032C4
:105D7C00002B06D07B685A69FB681A447B685A6111
:105D8C0005E07B685A69FB68D21A7B685A617868AF
:105D9C0000F088F900BF1037BD4680BD80B582B0D9
:105DAC0000AF786039607B68012283F820227B6821
:105DBC003A681A617B6800225A617B68064A9A61CC
:105DCC007B6841F65832DA61786800F06BF900BFF5
:105DDC000837BD4680BD00BFA8E4FFFF80B582B088
:105DEC0000AF786039607B683A685A61786800F077
:105DFC0059F900BF0837BD4680BD80B582B000AFF1
:105E0C00786039607B683A689A61786800F04AF982
:105E1C0000BF0837BD4680BD80B582B000AF78604A
:105E2C0039603B6883EAE372A2EBE3727B68DA6168
:105E3C00786800F037F900BF0837BD4680BD80B5E3
:105E4C0082B000AF786039607B681B69194638688E
:105E5C00FFF716F97B685B6919463868FFF710F98C
:105E6C007B689B6919463868FFF70AF97B68DB6920
:105E7C0019463868FFF704F900BF0837BD4680BDE6
:105E8C0080B582B000AF786039607B6810331946FA
:105E9C003868FFF737F97B68143319463868FFF711
:105EAC0031F97B68183319463868FFF72BF97B6892
:105EBC001C3319463868FFF725F9786800F0F2F8BA
:105ECC0000BF0837BD4680BD80B582B000AF78609A
:105EDC0039603B680C2B51D801A252F823F000BF5B
:105EEC00215F0008315F0008395F0008415F00083E
:105EFC00495F0008535F0008575F00085D5F0008AA
:105F0C00635F0008695F0008715F0008775F000835
:105F1C007F5F00087B6893F820321846FFF7D4FBAC
:105F2C0003462CE07B68D3F8243228E07B68D3F856
:105F3C002C3324E07B68D3F8343320E07868FFF707
:105F4C00B3FC03461BE0002319E07B689B6916E059
:105F5C007B685B6913E07B68DB6910E07B68D3F8D6
:105F6C0030330CE07B681B6909E07B68D3F838336D
:105F7C0005E07868FFF7AAFC034600E0002318460A
:105F8C000837BD4680BD00BF80B584B000AFF86057
:105F9C00B9607A60BB680A2B5BD801A252F823F077
:105FAC00D95F0008EB5F00085F6000085F600008C5
:105FBC005F600008FF5F00080760000811600008C0
:105FCC001B6000082F600008256000087868FFF748
:105FDC008BFB03461A46FB6883F820223BE0FB68E8
:105FEC00D3F83023FB68C3F82422F86800F05AF881
:105FFC0031E0F868FFF7B1FE2DE07968F868FFF73B
:10600C00FCFE28E07968F868FFF7E8FE23E0796881
:10601C00F868FFF701FF1EE07968F868FFF7BEFE2D
:10602C0019E07B689BB27A681214D2B2C3F30D03E9
:10603C0099B2FB68103223F812107B681B14FF2BEB
:10604C0005D1F86800F065F80548FFF758FC002307
:10605C0002E0002300E0012318461037BD4680BD46
:10606C00E800002080B582B000AF78607B68012228
:10607C0083F820227B6841F658321A617B68002233
:10608C005A617B68064A9A617B6841F65832DA613C
:10609C00786800F007F800BF0837BD4680BD00BF28
:1060AC00A8E4FFFF80B483B000AF78607B681A6906
:1060BC007B685B691A447B689B691344C3F30D02CC
:1060CC007B68C3F824227B689B69DB0FDAB27B68A0
:1060DC0083F820227B6893F82032002B03D07B6856
:1060EC009B695B4201E07B689B697A68C2F8283245
:1060FC007B68D3F8283203F57A727B68C3F83423B3
:10610C007B68002283F83C2300BF0C37BD4680BC63
:10611C00704780B485B000AF78600023FB60FB68EB
:10612C00FF2B1CDCFB680133DAB27B68103233F8CE
:10613C001230BB60BB68DAB27B68F968103133F897
:10614C001130DBB2D31AD9B27A68FB68134403F569
:10615C000B730A461A70FB680133FB60DFE700BF64
:10616C001437BD4680BC704780B485B000AF7860F2
:10617C000023FB730023BB60BB68022B10DC7A6826
:10618C00BB68134403F23D331A78FB7B5340DBB2FC
:10619C001A460A4B9B5CFB73BB680133BB60EBE795
:1061AC007B6893F84033FA7B9A420CBF012300239F
:1061BC00DBB218461437BD4680BC7047789900088E
:1061CC0080B483B000AF78600B467B807B685A6AE2
:1061DC007B681B6879685B000B44B3F90430D21AF6
:1061EC007B685A627B681A68796853000B4479881B
:1061FC009980796853000B44B3F904207B685B6A7F
:10620C001A447B685A627B681B68013303F00F02E7
:10621C007B681A6000BF0C37BD4680BC704780B4E9
:10622C0083B000AF78600B467B807B68D3F884200A
:10623C007B681B6879685B000B44B3F90430D21A95
:10624C007B68C3F884207B681A68796853000B4418
:10625C0079889980796853000B44B3F904207B68E2
:10626C00D3F884301A447B68C3F884207B681B689D
:10627C00013303F03F027B681A6000BF0C37BD4648
:10628C0080BC704780B483B000AF78607B68D3F873
:10629C00843018460C37BD4680BC704780B582B040
:1062AC0000AF78607B6800221A607B680022C3F81C
:1062BC0084207B68043380220021184603F0DAF92D
:1062CC007B6818460837BD4680BD80B582B000AFEC
:1062DC0078607B6800221A607B6800225A627B68B7
:1062EC00043320220021184603F0C4F97B681846B9
:1062FC000837BD4680BD000080B582B000AF786025
:10630C0039607B68012B07D13B684FF6FF729342D3
:10631C0002D10348FFF700FB00BF0837BD4680BD24
:10632C000001002080B500AF4FF6FF710120FFF790
:10633C00E3FF80BD80B483B000AF78607B6801223E
:10634C005A707B685A787B681A7000BF0C37BD4650
:10635C0080BC704780B483B000AF78607B6893F8E2
:10636C00203218460C37BD4680BC704780B483B0D1
:10637C0000AF78607B6800221A627B68002283F889
:10638C0025207B6893F825207B6883F8242000BFA8
:10639C000C37BD4680BC704780B58CB000AF7860C0
:1063AC0001214FF40060FDF735FD01210220FDF7BE
:1063BC004FFD4FF40073BB85032387F82E30182351
:1063CC0087F82F3007F12C0319463F48FDF7ECFAFC
:1063DC004FF48073BB8507F12C0319463A48FDF73F
:1063EC00E3FA00233B8400237B8440F6B733BB8461
:1063FC000023FB84002387F8283007F1200319467B
:10640C003248FDF70DFE70233B8201237B8204236F
:10641C00BB820023FB8200233B8300237B834FF44E
:10642C008073BB830023FB8307F1100319462748B5
:10643C00FDF772FE07F1100319462448FDF7F8FE2C
:10644C0070233B8201237B820023BB820123FB82CE
:10645C0000233B8300237B834FF48073BB83002397
:10646C00FB8307F1100319461848FDF769FF022357
:10647C003B844CF26273BB8407F120031946144829
:10648C00FDF7CEFD1D233B7304237B730023BB73ED
:10649C000123FB7307F10C031846FCF751FE012294
:1064AC0001210B48FEF716F801210848FDF7CEFF35
:1064BC0001210748FDF7CAFF01210448FDF7E5FF5C
:1064CC0000BF3037BD4680BD00080140002C0140A4
:1064DC000004004080B582B000AF786039602B4872
:1064EC00FFF752F80346002B03D0786800F066F8EB
:1064FC0047E02748FFF72EFF0346002B01D03B68EF
:10650C0001E03B685B4240F6B83219462148FEF781
:10651C0050FD38607B683A681A603B68002B16DBCC
:10652C0000211D48FEF707F83B689BB219461A4834
:10653C00FDF7F3FF3B68323B1946012000F072F87F
:10654C0003469BB219461448FEF703F819E00021E4
:10655C001148FDF7E2FF3B689BB25B429BB21946C8
:10656C000D48FDF7E8FF3A686FF031039B1A1946A6
:10657C00012000F057F803469BB219460648FDF778
:10658C00E8FF00BF0837BD4680BD00BFC00000203B
:10659C000001002048F4FFFF002C014080B582B0C0
:1065AC0000AF7860786800F009F80348FFF7DEFE6A
:1065BC0000BF0837BD4680BDC000002080B582B04A
:1065CC0000AF786040F6B8310848FDF7B4FF40F6EC
:1065DC00B8310648FDF7A1FF40F686310348FDF7B8
:1065EC00B8FF00BF0837BD4680BD00BF002C01407E
:1065FC0080B500AF01210848FDF7B9FF074B1B68B8
:10660C001B6810331B68054A1268104698470448EB
:10661C00FEF724FC00BF80BD0004004000050020F4
:10662C00C000002080B483B000AF786039607A6815
:10663C003B689A4201DD7B6800E03B6818460C37EA
:10664C00BD4680BC704780B483B000AF78603960C1
:10665C003B6818460C37BD4680BC704780B483B08D
:10666C0000AF7860002318460C37BD4680BC7047DD
:10667C0080B483B000AF786000BF0C37BD4680BCDF
:10668C00704780B483B000AF786000BF0C37BD4654
:10669C0080BC704780B584B000AFF860B9607A6098
:1066AC00FB687A68B9681846FEF7CEFA034AFB68AD
:1066BC001A60FB6818461037BD4680BDB89D0008AF
:1066CC0080B483B000AF786039607B683A689A61B7
:1066DC0000BF0C37BD4680BC704780B483B000AFA0
:1066EC0078607B685B6918460C37BD4680BC704788
:1066FC0080B483B000AF78607B685B6818460C3759
:10670C00BD4680BC704780B582B000AF78607B68B6
:10671C000C331846FFF7E1FF034618460837BD4611
:10672C0080BD80B483B000AF78607B681B6818466E
:10673C000C37BD4680BC704780B582B000AF786026
:10674C007B6803F57373184600F060F9034618462E
:10675C000837BD4680BD80B483B000AF78607B68DD
:10676C0093F82032002B03D07B68D3F8383303E046
:10677C007B68D3F838335B4218460C37BD4680BC77
:10678C00704780B483B000AF78607B6801221A70C8
:10679C0000BF0C37BD4680BC7047000080B483B08E
:1067AC0000AF7860044A7B681A607B6818460C3727
:1067BC00BD4680BC704700BF109B000880B582B0FE
:1067CC0000AF78607B681846FFF7E8FF0F4A7B68DC
:1067DC001A607B6847F6FF725A607B6800229A60E9
:1067EC007B680C330A4A4FF416711846FFF752FFB8
:1067FC007B68002283F85C207B68002283F85D2094
:10680C007B6818460837BD4680BD00BFF09A00086B
:10681C00989A000880B582B000AF786039603B6808
:10682C001A1D7B680C331946104600F0FCF8034621
:10683C0018460837BD4680BD90B583B000AF786070
:10684C0039603B6847F6FA72934204D17B680122A7
:10685C0083F85C2088E03B6847F6F27293420AD1D9
:10686C004348FFF75EFF02467B689A607B68012213
:10687C0083F85D2078E03B6847F6F172934218D1BB
:10688C003C48FFF711F802467B685A607B6803F1BD
:10689C000C047B685B6819463648FFF7E3F903463E
:1068AC001946204602F004FA7B68002283F85D202A
:1068BC005AE03B6847F6FC72934255D03B6847F66A
:1068CC00BB72934218DC7B6893F85D30002B03D0CD
:1068DC007B683A689A6047E07B683A685A607B68E4
:1068EC0003F10C0439682348FFF7BCF90346194639
:1068FC00204602F0DDF937E03B6847F6FE72934222
:10690C000ED17B683A685A607B6803F10C04194815
:10691C00FEF7CAFF03461946204602F0C9F923E0E8
:10692C003B6847F6FB7293421BD17B6893F85C3053
:10693C00002B19D00F48FFF710FA0F48FFF721FF73
:10694C007B6803F10C027B68002159607B685B68F3
:10695C001946104602F0ACF97B68002283F85C20E3
:10696C0002E07B683A685A6000BF0C37BD4690BDA8
:10697C00FC04002000010020E800002090B585B048
:10698C0000AF78601F48FFF7D7FEF8607B685B6844
:10699C0047F6FE72934204D100211B48FFF79AFD83
:1069AC0026E07B685B6847F6FF72934203D116487A
:1069BC00FFF7F4FD1CE07B6893F85D30002B06D0EC
:1069CC007B689B6819461048FFF784FD10E07B68D4
:1069DC0003F10C040B48FFF7BEFE03461A46F96898
:1069EC00204602F095F8B860B9680748FFF772FDC9
:1069FC007B680C33F9681846FFF762FE00BF14374A
:106A0C00BD4690BD00010020FC04002080B483B082
:106A1C0000AF78607B685B6A1B111BB218460C37A1
:106A2C00BD4680BC704780B483B000AF78603960DD
:106A3C007B681A683B685A607B683A681A603B68E6
:106A4C0018460C37BD4680BC7047000080B582B03C
:106A5C0000AF786039607B68012B07D13B684FF63B
:106A6C00FF72934202D10348FFF7A8FE00BF08371C
:106A7C00BD4680BD0405002080B500AF4FF6FF7108
:106A8C000120FFF7E3FF80BD80B584B000AFF86054
:106A9C00B9607A60FB687A68B9681846FEF7D4F872
:106AAC00034AFB681A60FB6818461037BD4680BD68
:106ABC00789D000880B483B000AF786039607B6843
:106ACC003A681A6100BF0C37BD4680BC704780B471
:106ADC0083B000AF78607B685B6918460C37BD46A5
:106AEC0080BC704780B584B000AFF860B9607A6044
:106AFC00FB687A68B9681846FFF7C6FF064AFB6858
:106B0C001A60FB680022DA62FB6800221A63FB68D9
:106B1C0018461037BD4680BD989D000880B483B0E0
:106B2C0000AF78607B685B6818460C37BD4680BC4C
:106B3C00704780B582B000AF78607B680C33184624
:106B4C00FFF7C5FF034618460837BD4680BD000059
:106B5C0080B582B000AF78607B681846FFF71EFEE8
:106B6C000D4A7B681A607B6847F6FF725A607B6837
:106B7C000C330A4A4FF42F711846FFF7B3FF7B68AA
:106B8C00002283F860207B68002283F861207B68F8
:106B9C0018460837BD4680BDA09B0008289B0008FE
:106BAC0080B582B000AF786039603B681A1D7B6895
:106BBC000C3319461046FFF736FF034618460837C4
:106BCC00BD4680BD90B583B000AF786039603B683E
:106BDC0047F6FA72934204D17B68012283F8602055
:106BEC0088E03B6847F6F27293420AD14348FFF7BC
:106BFC0098FD02467B689A607B68012283F86120CD
:106C0C0078E03B6847F6F172934218D13C48FEF7A6
:106C1C004BFE02467B685A607B6803F10C047B6870
:106C2C005B6819463648FFF71DF80346194620469F
:106C3C00FFF740FF7B68002283F861205AE03B6835
:106C4C0047F6FC72934255D03B6847F6BB729342B1
:106C5C0018DC7B6893F86130002B03D07B683A68B2
:106C6C009A6047E07B683A685A607B6803F10C04D1
:106C7C0039682348FEF7F6FF034619462046FFF70E
:106C8C0019FF37E03B6847F6FE7293420ED17B68E2
:106C9C003A685A607B6803F10C041948FEF704FE4D
:106CAC00034619462046FFF705FF23E03B6847F6ED
:106CBC00FB7293421BD17B6893F86030002B19D088
:106CCC000F48FFF74AF80F48FFF75BFD7B6803F1AD
:106CDC000C027B68002159607B685B681946104682
:106CEC00FFF7E8FE7B68002283F8602002E07B68F7
:106CFC003A685A6000BF0C37BD4690BDFC040020BA
:106D0C0000010020E800002090B585B000AF78604D
:106D1C001C48FFF711FDF8607B685B6847F6FE7254
:106D2C00934204D100211848FFF7D4FB26E07B687E
:106D3C005B6847F6FF72934203D11348FFF72EFCB2
:106D4C001CE07B6893F86130002B06D07B689B6855
:106D5C0019460D48FFF7BEFB10E07B6803F10C04ED
:106D6C000848FFF7F8FC03461A46F968204601F07C
:106D7C0093FEB860B9680448FFF7ACFB00BF14374A
:106D8C00BD4690BD00010020FC04002080B582B0FF
:106D9C0000AF786039607B68012B07D13B684FF6F8
:106DAC00FF72934202D10348FFF7D2FE00BF0837AF
:106DBC00BD4680BD6405002080B500AF4FF6FF7165
:106DCC000120FFF7E3FF80BD80B483B000AF786093
:106DDC007B685B6818460C37BD4680BC704780B535
:106DEC0082B000AF78607B680C331846FFF76FFEFB
:106DFC00034618460837BD4680BD000080B582B0FA
:106E0C0000AF78607B681846FFF7C8FC0D4A7B68BA
:106E1C001A607B6847F6FF725A607B680C330A4A2B
:106E2C003C211846FFF75EFE7B68002283F8602049
:106E3C007B68002283F861207B6818460837BD46C2
:106E4C0080BD00BF309C0008B89B000880B582B0A4
:106E5C0000AF786039603B681A1D7B680C331946AB
:106E6C001046FFF7E0FD034618460837BD4680BDC7
:106E7C0090B583B000AF786039603B6847F6FA7222
:106E8C00934204D17B68012283F8602088E03B6840
:106E9C0047F6F27293420AD14348FFF742FC02468E
:106EAC007B689A607B68012283F8612078E03B68FC
:106EBC0047F6F172934218D13C48FEF7F5FC0246B6
:106ECC007B685A607B6803F10C047B685B6819462D
:106EDC003648FEF7C7FE034619462046FFF7EAFD83
:106EEC007B68002283F861205AE03B6847F6FC720D
:106EFC00934255D03B6847F6BB72934218DC7B68D3
:106F0C0093F86130002B03D07B683A689A6047E0B5
:106F1C007B683A685A607B6803F10C043968234833
:106F2C00FEF7A0FE034619462046FFF7C3FD37E0E7
:106F3C003B6847F6FE7293420ED17B683A685A6002
:106F4C007B6803F10C041948FEF7AEFC03461946A6
:106F5C002046FFF7AFFD23E03B6847F6FB729342F8
:106F6C001BD17B6893F86030002B19D00F48FEF7CB
:106F7C00F4FE0F48FFF705FC7B6803F10C027B68FD
:106F8C00002159607B685B6819461046FFF792FD3B
:106F9C007B68002283F8602002E07B683A685A60C4
:106FAC0000BF0C37BD4690BDFC0400200001002042
:106FBC00E800002090B585B000AF78601C48FFF762
:106FCC00BBFBF8607B685B6847F6FE72934204D1AA
:106FDC0000211848FFF77EFA26E07B685B6847F6CD
:106FEC00FF72934203D11348FFF7D8FA1CE07B6879
:106FFC0093F86130002B06D07B689B6819460D48CE
:10700C00FFF768FA10E07B6803F10C040848FFF7FF
:10701C00A2FB03461A46F968204601F03DFDB86014
:10702C00B9680448FFF756FA00BF1437BD4690BD47
:10703C0000010020FC04002080B582B000AF786015
:10704C0039607B68012B07D13B684FF6FF72934286
:10705C0002D10348FFF7D2FE00BF0837BD4680BD02
:10706C00C805002080B500AF4FF6FF710120FFF777
:10707C00E3FF80BD80B483B000AF78607B685B6851
:10708C0018460C37BD4680BC704780B582B000AF47
:10709C0078607B6808331846FFF719FD03461846DD
:1070AC000837BD4680BD80B483B000AF78607B6884
:1070BC00D3F82C33DB1118460C37BD4680BC704717
:1070CC0080B582B000AF78607B681846FFF766FB2E
:1070DC000D4A7B681A607B6847F6FF725A607B68C2
:1070EC0008330A4A4FF4B9711846FFF7FBFC7B686A
:1070FC005C33074A4FF4AF71184601F05BFF7B68B5
:10710C0018460837BD4680BDC89C0008489C00083E
:10711C00B09C000880B582B000AF786039603B68E5
:10712C001A1D7B68083319461046FFF77CFC034692
:10713C001A1D7B685C3319461046FFF774FC034636
:10714C0018460837BD4680BD90B583B000AF786057
:10715C0039607B683A685A607B685B6847F6BB723B
:10716C0093420ADC7B6803F108023B68C3F30D030E
:10717C0019461046FFF79EFC16E07B685B6847F6E5
:10718C00FE72934205D07B685B6847F6FC729342B3
:10719C000AD17B6803F108040548FFF784FF034616
:1071AC0019462046FFF786FC00BF0C37BD4690BD44
:1071BC000001002090B585B000AF78602C48FFF737
:1071CC0072FFF8607B685C33F968184601F01AFFAF
:1071DC000346002B47D07B685B6803F50053C3F371
:1071EC000D03BB607B685B68BA689A4208DDFA687D
:1071FC00BB689A4204DDFB68A3F58043FB600CE09E
:10720C007B685B68BA689A4207DAFA68BB689A428C
:10721C0003DAFB6803F58043FB607B685B6847F629
:10722C00FE72934204D100211248FFF753F91AE081
:10723C007B685B6847F6FF72934203D10D48FFF7FA
:10724C00ADF910E07B6803F108040948FFF783FAF5
:10725C0003461A46F968204601F01EFC03461946FF
:10726C000448FFF737F900BF1437BD4690BD00BF87
:10727C0000010020FC04002080B582B000AF7860D3
:10728C0039607B68012B07D13B684FF6FF72934244
:10729C0002D10348FFF714FF00BF0837BD4680BD7D
:1072AC002C06002080B500AF4FF6FF710120FFF7D0
:1072BC00E3FF80BD80B582B000AF78607B68184674
:1072CC00FFF76CFA064A7B681A607B6800225A60EA
:1072DC007B6800229A607B6818460837BD4680BDE3
:1072EC00E89C000880B483B000AF78607B685B6872
:1072FC0018460C37BD4680BC704780B483B000AFD5
:10730C0078607B685B6818460C37BD4680BC70475C
:10731C0080B483B000AF786039607B683A685A609B
:10732C0000BF0C37BD4680BC7047000080B582B0F2
:10733C0000AF78607B685B6847F6FF72934203D1BD
:10734C000648FFF72BF905E07B685B681946034894
:10735C00FFF7C0F800BF0837BD4680BDFC04002015
:10736C0080B582B000AF786039607B68012B07D1A3
:10737C003B684FF6FF72934202D10348FFF79AFF26
:10738C0000BF0837BD4680BDB006002080B500AFF9
:10739C004FF6FF710120FFF7E3FF80BD80B483B08F
:1073AC0000AF78603960144B20221A61134A3B6895
:1073BC005360124A7B68D36072B600BF0F4B1B68D8
:1073CC000E4A43F0010313600D4B1B889BB20C4A11
:1073DC0023F040039BB21380094B9B899BB2084A54
:1073EC0043F040039BB2938162B600BF00BF0C37E1
:1073FC00BD4680BC704700BF000C014044000240F9
:10740C000038014080B400AF074B5B68074A126834
:10741C001344C3F58073DBB2054A1360044B1B683D
:10742C001846BD4680BC704758000240C00700207B
:10743C00C407002080B594B000AF78600B46FB7099
:10744C0001210C20FCF7E6FC01214FF48040FCF7F5
:10745C00E1FC01210120FCF7DDFC01210420FCF7FB
:10746C0077FB2023A7F84C30032387F84E301023EA
:10747C0087F84F3007F14C0319464948FCF794FA4A
:10748C008023A7F84C30042387F84F30032387F868
:10749C004E3007F14C0319464148FCF785FA40235E
:1074AC00A7F84C30182387F84F3007F14C031946D6
:1074BC003B48FCF779FA252387F84830002387F8F6
:1074CC004930002387F84A30012387F84B3007F105
:1074DC0048031846FBF734FE7B68BB63FB78002B34
:1074EC0002D04FF4805300E00023BB870023FB87BE
:1074FC00FB78002B02D04FF4806300E00023A7F848
:10750C0040300023A7F844300C23A7F8423007F191
:10751C00380319462348FDF73BF82348FCF72AF8B3
:10752C00224BFB60224B3B6100237B614FF4807349
:10753C00BB610023FB6180233B624FF400737B62D1
:10754C000023BB622023FB624FF400533B630023F8
:10755C007B6307F10C0319461348FCF7C7F80121AC
:10756C001148FCF701F910237B610023FB6207F142
:10757C000C0319460F48FCF7B9F8012240210948C1
:10758C00FDF7DFF8012280210648FDF7DAF801212A
:10759C000448FDF7B7F800BF5037BD4680BD00BFAB
:1075AC00000C0140003801405800024004380140F2
:1075BC00C00600204400024080B400AF0A4B9B89F7
:1075CC009BB2094A23F040039BB29381074B2022C4
:1075DC005A61074B1A6806494FF6FE7313400B604D
:1075EC0000BFBD4680BC704700380140000C014014
:1075FC004400024080B483B000AF78607B68002206
:10760C001A647B6800225A647B6818460C37BD46A6
:10761C0080BC704780B483B000AF78607B681B6C13
:10762C0018460C37BD4680BC704780B483B000AFA1
:10763C0078607B6818460C37BD4680BC704780B4B8
:10764C0083B000AF7860002318460C37BD4680BC71
:10765C007047000080B483B000AF78603960064B8F
:10766C001A683B681344DBB2044AD35C18460C37E7
:10767C00BD4680BC704700BFC0070020C00600207C
:10768C0080B483B000AF78603960084B1A683B68EF
:10769C001344064A1360054B1B68DBB2034A1360A4
:1076AC0000BF0C37BD4680BC704700BFC007002030
:1076BC0080B584B000AFF860B9607A60FB687A6816
:1076CC00B9681846FDF7C0FA034AFB681A60FB68F4
:1076DC0018461037BD4680BD309D000880B582B07D
:1076EC0000AF7860786800F00FF80246054B5B68D5
:1076FC009A420CBF01230023DBB218460837BD4663
:10770C0080BD00BFEC00002080B582B000AF786077
:10771C007B6800211846FFF79DFF034603F00F031B
:10772C0018460837BD4680BD80B582B000AF786082
:10773C007B6800211846FFF78DFF03461B1103F0F1
:10774C00070318460837BD4680BD80B582B000AF30
:10775C0078607B6800211846FFF77CFF03465BB21C
:10776C00DBB2DB09DBB218460837BD4680BD80B4FE
:10777C0083B000AF7860012318460C37BD4680BC3F
:10778C00704780B483B000AF78607B681B68184684
:10779C000C37BD4680BC704780B400AFBFF34F8F31
:1077AC0000BF074BDB6803F4E0620549054B13434C
:1077BC00CB60BFF34F8F00BF00BF00BFFCE700BF23
:1077CC0000ED00E00400FA0580B582B000AF7860EF
:1077DC007B68002205211846FFF76AFF054A7B6883
:1077EC001A607B68044A1A617B6818460837BD46E4
:1077FC0080BD00BF089D0008C0C62D0080B582B0BA
:10780C0000AF78600E48FFF7BCFF0346002B0CBF9F
:10781C0001230023DBB2002B0ED00A4B0A4A1A605C
:10782C000A4BDB681946786800F07EFA7B681B69A6
:10783C0000211846FFF7FEFD00BF0837BD4680BD8E
:10784C00F8040020BC06002010080020EC000020EA
:10785C0080B582B000AF78603960FFF7D3FD034686
:10786C00002B14BF01230023DBB218460837BD469A
:10787C0080BD80B582B000AF786079680020FFF7DA
:10788C00E7FF034618460837BD4680BD80B483B079
:10789C0000AF7860024B18460C37BD4680BC704771
:1078AC007F78000880B582B000AF78603960FFF750
:1078BC00A9FD02463B681B689A42ACBF012300231A
:1078CC00DBB218460837BD4680BD80B582B000AF2C
:1078DC00786079680020FFF7E5FF03461846083703
:1078EC00BD4680BD80B483B000AF7860024B1846B3
:1078FC000C37BD4680BC7047D778000890B58DB06A
:10790C0002AF7860994B1B78BFF35B8FDBB203F04F
:10791C000103002B0CBF01230023DBB2002B18D07A
:10792C00924801F04EFE0346002B14BF01230023A6
:10793C00DBB2002B0DD08E4B1B681AB200230093C8
:10794C004FF480738B498C48FDF770F8874801F031
:10795C0044FEFFF757FD0346002B0CBF0123002309
:10796C00DBB2002B09D007F110031846FFF78EFF8E
:10797C0003461946002000F031FC7868FFF7E5FE5D
:10798C00034683F00103DBB2002B3BD07868FFF792
:10799C00A5FE0346002B35D07868FFF7C5FE0346DD
:1079AC00764A1360754B1B68754A52F82330FB609E
:1079BC00FB68002B26D007F114031846FFF792FF43
:1079CC00024607F10C031146184600F065FA684BA5
:1079DC001B68012219466848FDF74AF8FB681946EE
:1079EC006548FDF7E2F80346002B0BD07B68FA687C
:1079FC0011461846FFF744FE00BF604B1B68002B76
:107A0C0006D075E07B6801211846FFF739FEA0E728
:107A1C005948FDF796F8B8615A4B1B78002B04D1E6
:107A2C00BB6947F6F97293424AD1BB6947F6F872C3
:107A3C00934206D1534B00221A705348FEF7A1FE15
:107A4C0036E0BB6947F6BC72934206DD4F4ABB6910
:107A5C0013604C4B01221A702AE04C4B1B68A3F5A7
:107A6C00FF43743B032B1FD801A252F823F000BF35
:107A7C00AB7A0008A17A0008977A00088D7A000882
:107A8C00B9694348FEF78AF90EE0B9694048FEF738
:107A9C00A5F909E0B9693E48FEF7AFF904E0B96908
:107AAC003B48FEF7B9F900BF384B47F6F9721A603C
:107ABC00364B1B68002219463648FCF73AFF45E066
:107ACC00354B1B681B6804331B68334A1268B96951
:107ADC00104698472E48FDF7E7FE04462C48FEF763
:107AEC003AFE03461A4621462A48FCF722FF2DE0AF
:107AFC00224B1B68052B11D11F48FDF722F8386269
:107B0C001D48FDF72DF8F861FA69396A786800F0BC
:107B1C009DF8F9691F48FCF724FF17E0174B1B6809
:107B2C00062B0DD11448FDF70CF87862796A786849
:107B3C0000F034F8034619461648FCF725FF05E01B
:107B4C000E4B1B68072B0ED1FFF726FE1148FFF7D3
:107B5C006CFD04460F48FFF75DFD034619462046B1
:107B6C00FFF71CFCF5E600BFF3E600BF3808002069
:107B7C00C0070020C0060020240800203C0800207C
:107B8C001800002040080020E800002044080020D5
:107B9C0000010020C80700200005002080B582B03D
:107BAC0000AF786039603B68B3F5FA7F31D03B6841
:107BBC00B3F5FA7F38DC3B68042B13DC3B68002BF5
:107BCC0032DB3B68042B2FD801A252F823F000BF04
:107BDC00F97B0008FF7B0008037C0008097C000887
:107BEC000F7C00083B68642B0ED01DE040F29F73A5
:107BFC0021E047231FE0124B5B681CE0104B9B6895
:107C0C0019E00F4BDB6816E00E48FEF78AFD0346C1
:107C1C0011E00D4B1B681B6808331B680A4A12687D
:107C2C0010469847034606E07B683968184600F012
:107C3C0051FC034600BF18460837BD4680BD00BF47
:107C4C00EC000020FC0400200005002080B584B06E
:107C5C0000AFF860B9607A60BB68B3F5FA7F3FD0CB
:107C6C00BB68B3F5FA7F46DCBB68052B12DCBB683E
:107C7C00022B40DBBB68023B032B3CD801A252F821
:107C8C0023F000BFA97C0008B77C0008C57C000865
:107C9C00D57C0008BB68642B1DD02CE01E4A7B6889
:107CAC0053601E48FEF76DFD32E01B4A7B68936003
:107CBC001A48FEF73FFB2BE07968F86800F034F8BF
:107CCC001648FEF75EFD23E0FB687A681A611348DC
:107CDC00FEF730FB1CE079681148FFF719FB17E041
:107CEC00104B1B681B6804331B680E4A12687968BA
:107CFC00104698470CE0FB687A68B968184600F0A3
:107D0C0013FC0346002B03D00448FEF73AFDFFE7B3
:107D1C0000BF1037BD4680BDEC000020E8000020FD
:107D2C00B00600200005002080B582B000AF78605E
:107D3C0039603B68002B06D1204B214A1A60214A3E
:107D4C003B68D36035E03B68012B06D11B4B1E4AC8
:107D5C001A601C4A3B68D3602BE03B68052B06D1AC
:107D6C00164B1A4A1A60174A3B68D36021E03B68ED
:107D7C00062B0BD1114B124A1A60124A3B68D36086
:107D8C0040F2DC510E48FFF7C3FA12E03B68092BB6
:107D9C0006D10A4B0E4A1A600A4A3B68D36008E0C7
:107DAC003B680A2B05D1054B0A4A1A60054A3B6809
:107DBC00D36000BF0837BD4680BD00BF0005002062
:107DCC00B0060020EC000020040500202C0600204A
:107DDC00C80500206405002080B582B000AF786033
:107DEC0039607B683968184600F012FB7B681B69A8
:107DFC0019463868FDF744F900BF0837BD4680BD09
:107E0C0080B582B000AF786039607B6839681846FD
:107E1C0000F008FB7B68103319463868FDF772F9DF
:107E2C0000BF0837BD4680BD80B483B000AF78601A
:107E3C0039603B68002B02D17B681B6900E0002392
:107E4C0018460C37BD4680BC704780B485B000AF77
:107E5C00F860B9607A60BB68002B02D1FB687A6865
:107E6C001A61012318461437BD4680BC70470000C8
:107E7C0080B483B000AF78607B68054A1A61054B0B
:107E8C000122DA6000BF0C37BD4680BC704700BFD2
:107E9C00C0C62D00EC00002080B582B000AF786029
:107EAC0039603968786800F099F900BF0837BD4629
:107EBC0080BD000080B582B000AF786039607B680F
:107ECC00012B0AD13B684FF6FF72934205D105484E
:107EDC00FFF790FB0448FFF777FC00BF0837BD465F
:107EEC0080BD00BFC80700201008002080B500AF7F
:107EFC004FF6FF710120FFF7DDFF80BD80B483B02A
:107F0C0000AF7860044B1A687B68134418460C3732
:107F1C00BD4680BC704700BF180A002080B483B0F7
:107F2C0000AF7860054B1A687B68D31ADB43DB0F14
:107F3C00DBB218460C37BD4680BC7047180A0020CF
:107F4C0080B483B000AF786039607B681B68002B0D
:107F5C000AD17B685B68002B04D07B685B683A684D
:107F6C009A4201D8012300E0002318460C37BD4685
:107F7C0080BC704780B582B000AF786000F00CFA1E
:107F8C000D4B0E4A1A600C4B1B680B4A12689A6018
:107F9C00094B1B680A4A12681A60074B1B687A68FF
:107FAC005A60074B1A687B689B00D31A044A13600B
:107FBC0000BF0837BD4680BD100A002048080020CD
:107FCC000C0A002080B500AF1F4B1B685B691E4A72
:107FDC001268D268104698471B4B1B681B4A1360EB
:107FEC001A4B1B689A68184B1B689A4205D0174BA2
:107FFC001B689B68154A1360F2E7134B1A68134B06
:10800C001B6892689A60104B1B689B680F4A136040
:10801C000D4B1B689B680D4A13600C4B1B681B694E
:10802C000A4A1268D26810469847034683F0010347
:10803C00DBB2002B05D0054B1B689B68034A136011
:10804C00EBE700F08FF9BFE7100A0020140A0020BC
:10805C0080B483B000AF7860012318460C37BD465E
:10806C0080BC704780B485B000AFF860B9607A60AE
:10807C003B60FB687A68DA60FB68144A1A61FB683B
:10808C003A685A61124B1A68FB681A60104B1A68EE
:10809C00BB689B00D31A0E4A1360FB68BA685A601F
:1080AC00FB683A7E1A760B4B1B689A68FB689A60E1
:1080BC00094AFB681360074B1B68074A12689A60F1
:1080CC0000BF1437BD4680BC704700BF5D80000800
:1080DC000C0A0020100A0020140A002080B485B07D
:1080EC0000AFF860B9607A60FB70FB68BA68DA6060
:1080FC00FB680D4A1A61FB687A685A61FB68FA786A
:10810C001A760A4B1B689A68FB689A60084AFB68E7
:10811C001360064B1B68064A12689A6000BF14373E
:10812C00BD4680BC704700BF5D800008100A00206F
:10813C00140A002080B588B002AFF860B9607A608C
:10814C00FB70FB78002B02D0224B01221A7000230B
:10815C007B617B690F2B3ADC7A691346DB009B1A37
:10816C009B001D4A1344F9681846FFF7E9FE0346C5
:10817C00002B28D018497A691346DB009B1A9B0008
:10818C000B4404331B68002B0CD07A691346DB00BC
:10819C009B1A9B00104A9818FB787A68B968FFF70D
:1081AC009DFF14E07A691346DB009B1A9B000A4A78
:1081BC009818FB7800937B68BA68F968FFF752FF50
:1081CC0000F0F2F803E07B6901337B61C1E71837FB
:1081DC00BD4680BD080A00204808002080B582B04A
:1081EC0000AF786039603B4B1B687A68DA60394BBA
:1081FC001B683A681A61384B1B78002B45D0354BFD
:10820C001B689B68354A1360344B1A68314B1B68EA
:10821C009A421BD0314B1B681B7E002B0CD02F4B72
:10822C001B681B692D4A1268D26810469847034692
:10823C00002B01D0012300E00023002B05D1274B9C
:10824C001B689B68254A1360DEE700BF234B1A6846
:10825C00204B1B689A4231D11E4B1B689B681F4AEE
:10826C0013601E4B1B681B691C4A1268D2681046AF
:10827C009847034683F00103DBB2002B1ED0174B4B
:10828C001B689B68154A1360EBE7124B1B689B68D5
:10829C00124A1360114B1B681B69104A1268D26892
:1082AC0010469847034683F00103DBB2002B05D040
:1082BC000A4B1B689B68094A1360EBE7074B1A686B
:1082CC00044B1B689A4201D000F04CF800BF0837F1
:1082DC00BD4680BD100A0020080A0020140A0020A8
:1082EC0080B582B000AF786039603B681B68184677
:1082FC00FFF714FE034618460837BD4680BD80B50F
:10830C0082B000AF786079680020FFF7E9FF034680
:10831C0018460837BD4680BD80B483B000AF786086
:10832C00024B18460C37BD4680BC70470B830008C7
:10833C0080B584B000AF78607B681846FFF7DEFD2F
:10834C0003467B6007F10C031846FFF7E5FF024676
:10835C003B1D11461846FFF79FFD00BF1037BD4669
:10836C0080BD00002DE9F01F00B509480468C4F871
:10837C0000D0084D2E680660D6F800D05DF804EBEE
:10838C00BDE8F01F7047100A0020140A00200000FE
:10839C00100A0020140A0020024968460860704741
:1083AC000C0A00200C0A002008496846084A12688A
:1083BC00D2F800D02DE9F01F02B4C2F800D08546E7
:1083CC007047D17F0008140A00200000D17F0008FC
:1083DC00140A002090B583B000AF786039607B68D8
:1083EC009B683A689A420EDB7B689C687B681B68CA
:1083FC0008331B6878689847034623443A689A42C6
:10840C0001DA012300E0002318460C37BD4690BD6D
:10841C0080B483B000AF7860396000BF0C37BD46C4
:10842C0080BC704780B483B000AF7860396000BF07
:10843C000C37BD4680BC704780B483B000AF786009
:10844C003960002318460C37BD4680BC704780B499
:10845C0085B000AFF860B9607A6000231846143715
:10846C00BD4680BC704780B584B000AF7860396081
:10847C007B68FB60FB68002B0CD0FB681B681B68DF
:10848C003968F8689847FB680433184600F0C1F85F
:10849C00F860EFE700BF1037BD4680BD80B584B0F3
:1084AC0000AF786039607B68FB60FB68002B0DD0F7
:1084BC00FB681B6804331B683968F8689847FB68CD
:1084CC000433184600F0A5F8F860EEE700BF10374B
:1084DC00BD4680BD80B584B000AF786039607B68E4
:1084EC00FB60FB68002B1AD03968F868FFF772FF45
:1084FC000346002B0CD0FB681B680C331B68FA6816
:10850C00926839688A1A1146F8689847034607E05A
:10851C00FB680433184600F07CF8F860E1E70023B0
:10852C0018461037BD4680BD80B586B000AFF860E8
:10853C00B9607A60FB687B617B69002B1AD0B968E3
:10854C007869FFF747FF0346002B0CD07B691B684B
:10855C0010331B687A699268B968891A7A687869E5
:10856C009847034607E07B690433184600F051F83E
:10857C007861E1E7002318461837BD4680BD80B509
:10858C0084B000AF78607B68FB60FB68002B09D07F
:10859C00F86800F00BF8FB680433184600F039F863
:1085AC00F860F2E700BF1037BD4680BD80B584B0DF
:1085BC0000AF78607B681B6814331B687868984739
:1085CC007B68DB68002B20D00023FB607B68DA68BB
:1085DC00FB68DB0013441B68002B16DB7B681B68F5
:1085EC0010331B687A68D168FA68D2000A441068A4
:1085FC007A68D168FA68D2000A44526801467868F1
:10860C009847FB680133FB60E0E700BF1037BD46BD
:10861C0080BD80B483B000AF78607B681B6818465F
:10862C000C37BD4680BC704780B485B000AF786015
:10863C0039607B681A693B68D31AFB607B689B6A5C
:10864C00002B16D07B689B6AFA689A4204DD7B6823
:10865C009B6AFA68D31A0DE07B689B6A5B42FA68E6
:10866C009A4204DA7B689A6AFB68134402E000239E
:10867C0000E0FB6818461437BD4680BC704780B4D8
:10868C0083B000AF7860072318460C37BD4680BC1A
:10869C00704780B582B000AF786039607B6839680C
:1086AC001846FFF7B5FE7B689B6919463868FCF7DE
:1086BC00E7FC7B68DB6919463868FCF7E1FC7B68F2
:1086CC001B6A19463868FCF7DBFC7B685B6A194649
:1086DC003868FCF7D5FC7B689B6A19463868FCF750
:1086EC00CFFC00BF0837BD4680BD80B582B000AF5F
:1086FC00786039607B6839681846FFF793FE7B68B1
:10870C00183319463868FCF7FDFC7B681C33194696
:10871C003868FCF7F7FC7B68203319463868FCF79F
:10872C00F1FC7B68243319463868FCF7EBFC7B685A
:10873C00283319463868FCF7E5FC00BF0837BD46FE
:10874C0080BD000080B582B000AF786039603B68B6
:10875C00062B26D801A252F823F000BF858700080B
:10876C008B87000891870008978700089D87000871
:10877C00A3870008A98700087B689B6918E07B68C1
:10878C00DB6915E07B681B6A12E07B685B6A0FE0B3
:10879C007B681B690CE07B685B6909E07B689B6A02
:1087AC0006E07B6839681846FFF746FE034600BFB3
:1087BC0018460837BD4680BD80B584B000AFF86060
:1087CC00B9607A60BB68062B2ED801A252F823F050
:1087DC00F98700080188000809880008118800083A
:1087EC00218800082B88000819880008FB687A6823
:1087FC009A6121E0FB687A68DA611DE0FB687A68AF
:10880C001A6219E0FB687A685A6215E0FB687A68AC
:10881C009A6211E0FB687A681A6100230DE0FB682C
:10882C007A685A61002308E0FB687A68B9681846D0
:10883C00FFF70DFE034600E0012318461037BD4636
:10884C0080BD00BF80B483B000AF78607B68002B24
:10885C00B8BF5B4218460C37BD4680BC704780B42D
:10886C0083B000AF7860132318460C37BD4680BC2C
:10887C00704780B582B000AF786039607B6839682A
:10888C001846FFF706FF7B685B6B19463868FCF7E8
:10889C00F7FB7B689B6B19463868FCF7F1FB7B6830
:1088AC00DB6B19463868FCF7EBFB7B681B6C1946D5
:1088BC003868FCF7E5FB7B685B6C19463868FCF79D
:1088CC00DFFB7B689B6C19463868FCF7D9FB7B682F
:1088DC00DB6C19463868FCF7D3FB7B681B6D1946BB
:1088EC003868FCF7CDFB00BF0837BD4680BD80B5AE
:1088FC0082B000AF786039607B6839681846FFF742
:10890C00F4FE7B68343319463868FCF7FBFB7B6854
:10891C00383319463868FCF7F5FB7B683C3319464D
:10892C003868FCF7EFFB7B68403319463868FCF776
:10893C00E9FB7B68443319463868FCF7E3FB7B683A
:10894C00483319463868FCF7DDFB7B684C33194615
:10895C003868FCF7D7FB7B68503319463868FCF74E
:10896C00D1FB00BF0837BD4680BD000080B582B08A
:10897C0000AF786039603B680A3B082B2FD801A206
:10898C0052F823F0B5890008BB890008C18900089A
:10899C00C7890008CD890008D3890008D989000847
:1089AC00DF890008E58900087B685B6B1EE07B684B
:1089BC009B6B1BE07B68DB6B18E07B681B6C15E02A
:1089CC007B68DB6A12E07B685B6C0FE07B689B6CFE
:1089DC000CE07B68DB6C09E07B681B6D06E07B6858
:1089EC0039681846FFF7AEFE034600BF1846083735
:1089FC00BD4680BD80B584B000AFF860B9607A60C8
:108A0C00BB680A3B082B3AD801A252F823F000BFEE
:108A1C00418A0008498A0008518A0008598A0008CE
:108A2C00618A00086B8A0008738A00087B8A000838
:108A3C00838A0008FB687A685A6328E0FB687A68C6
:108A4C009A6324E0FB687A68DA6320E0FB687A6852
:108A5C001A641CE0FB687A68DA62002318E0FB6891
:108A6C007A685A6413E0FB687A689A640FE0FB68D2
:108A7C007A68DA640BE0FB687A681A6507E0FB68D1
:108A8C007A68B9681846FFF797FE034600E00123A1
:108A9C0018461037BD4680BD80B586B000AFF86073
:108AAC00B9607A60FB68B9681846FFF7BDFD78615C
:108ABC00FB681B6A7A6902FB03F2FB685B6A1A416A
:108ACC00FB68DB6C796801FB03F1FB681B6D41FAF9
